{
  "address": "0xa40ed682ED4A70431A5c956245054B256F93B0f5",
  "abi": [
    {
      "inputs": [
        {
          "internalType": "contract ERC20",
          "name": "weth_",
          "type": "address"
        },
        {
          "internalType": "string",
          "name": "baseURI_",
          "type": "string"
        }
      ],
      "stateMutability": "nonpayable",
      "type": "constructor"
    },
    {
      "anonymous": false,
      "inputs": [
        {
          "indexed": true,
          "internalType": "address",
          "name": "owner",
          "type": "address"
        },
        {
          "indexed": true,
          "internalType": "address",
          "name": "approved",
          "type": "address"
        },
        {
          "indexed": true,
          "internalType": "uint256",
          "name": "tokenId",
          "type": "uint256"
        }
      ],
      "name": "Approval",
      "type": "event"
    },
    {
      "anonymous": false,
      "inputs": [
        {
          "indexed": true,
          "internalType": "address",
          "name": "owner",
          "type": "address"
        },
        {
          "indexed": true,
          "internalType": "address",
          "name": "operator",
          "type": "address"
        },
        {
          "indexed": false,
          "internalType": "bool",
          "name": "approved",
          "type": "bool"
        }
      ],
      "name": "ApprovalForAll",
      "type": "event"
    },
    {
      "anonymous": false,
      "inputs": [
        {
          "components": [
            {
              "internalType": "uint256",
              "name": "strike",
              "type": "uint256"
            },
            {
              "internalType": "uint256",
              "name": "duration",
              "type": "uint256"
            },
            {
              "internalType": "uint256",
              "name": "premium",
              "type": "uint256"
            },
            {
              "internalType": "address",
              "name": "owner",
              "type": "address"
            },
            {
              "internalType": "uint256",
              "name": "nonce",
              "type": "uint256"
            },
            {
              "components": [
                {
                  "internalType": "contract ERC20",
                  "name": "token",
                  "type": "address"
                },
                {
                  "internalType": "uint256",
                  "name": "amount",
                  "type": "uint256"
                }
              ],
              "internalType": "struct Putty.ERC20Info[]",
              "name": "erc20Underlying",
              "type": "tuple[]"
            },
            {
              "components": [
                {
                  "internalType": "contract ERC721",
                  "name": "token",
                  "type": "address"
                },
                {
                  "internalType": "uint256",
                  "name": "tokenId",
                  "type": "uint256"
                }
              ],
              "internalType": "struct Putty.ERC721Info[]",
              "name": "erc721Underlying",
              "type": "tuple[]"
            }
          ],
          "indexed": false,
          "internalType": "struct Putty.Option",
          "name": "_option",
          "type": "tuple"
        },
        {
          "indexed": true,
          "internalType": "address",
          "name": "buyer",
          "type": "address"
        },
        {
          "indexed": false,
          "internalType": "uint256",
          "name": "tokenId",
          "type": "uint256"
        },
        {
          "indexed": false,
          "internalType": "uint256",
          "name": "shortTokenId",
          "type": "uint256"
        }
      ],
      "name": "BuyFilled",
      "type": "event"
    },
    {
      "anonymous": false,
      "inputs": [
        {
          "indexed": true,
          "internalType": "address",
          "name": "from",
          "type": "address"
        },
        {
          "indexed": true,
          "internalType": "address",
          "name": "to",
          "type": "address"
        },
        {
          "indexed": true,
          "internalType": "uint256",
          "name": "tokenId",
          "type": "uint256"
        }
      ],
      "name": "Transfer",
      "type": "event"
    },
    {
      "inputs": [
        {
          "internalType": "address",
          "name": "to",
          "type": "address"
        },
        {
          "internalType": "uint256",
          "name": "tokenId",
          "type": "uint256"
        }
      ],
      "name": "approve",
      "outputs": [],
      "stateMutability": "nonpayable",
      "type": "function"
    },
    {
      "inputs": [
        {
          "internalType": "address",
          "name": "owner",
          "type": "address"
        }
      ],
      "name": "balanceOf",
      "outputs": [
        {
          "internalType": "uint256",
          "name": "",
          "type": "uint256"
        }
      ],
      "stateMutability": "view",
      "type": "function"
    },
    {
      "inputs": [],
      "name": "baseURI",
      "outputs": [
        {
          "internalType": "string",
          "name": "",
          "type": "string"
        }
      ],
      "stateMutability": "view",
      "type": "function"
    },
    {
      "inputs": [
        {
          "components": [
            {
              "internalType": "uint256",
              "name": "strike",
              "type": "uint256"
            },
            {
              "internalType": "uint256",
              "name": "duration",
              "type": "uint256"
            },
            {
              "internalType": "uint256",
              "name": "premium",
              "type": "uint256"
            },
            {
              "internalType": "address",
              "name": "owner",
              "type": "address"
            },
            {
              "internalType": "uint256",
              "name": "nonce",
              "type": "uint256"
            },
            {
              "components": [
                {
                  "internalType": "contract ERC20",
                  "name": "token",
                  "type": "address"
                },
                {
                  "internalType": "uint256",
                  "name": "amount",
                  "type": "uint256"
                }
              ],
              "internalType": "struct Putty.ERC20Info[]",
              "name": "erc20Underlying",
              "type": "tuple[]"
            },
            {
              "components": [
                {
                  "internalType": "contract ERC721",
                  "name": "token",
                  "type": "address"
                },
                {
                  "internalType": "uint256",
                  "name": "tokenId",
                  "type": "uint256"
                }
              ],
              "internalType": "struct Putty.ERC721Info[]",
              "name": "erc721Underlying",
              "type": "tuple[]"
            }
          ],
          "internalType": "struct Putty.Option",
          "name": "option",
          "type": "tuple"
        }
      ],
      "name": "cancel",
      "outputs": [],
      "stateMutability": "nonpayable",
      "type": "function"
    },
    {
      "inputs": [
        {
          "internalType": "uint256",
          "name": "",
          "type": "uint256"
        }
      ],
      "name": "cancelledOrders",
      "outputs": [
        {
          "internalType": "bool",
          "name": "",
          "type": "bool"
        }
      ],
      "stateMutability": "view",
      "type": "function"
    },
    {
      "inputs": [],
      "name": "domainSeparatorV4",
      "outputs": [
        {
          "internalType": "bytes32",
          "name": "",
          "type": "bytes32"
        }
      ],
      "stateMutability": "view",
      "type": "function"
    },
    {
      "inputs": [
        {
          "components": [
            {
              "internalType": "uint256",
              "name": "strike",
              "type": "uint256"
            },
            {
              "internalType": "uint256",
              "name": "duration",
              "type": "uint256"
            },
            {
              "internalType": "uint256",
              "name": "premium",
              "type": "uint256"
            },
            {
              "internalType": "address",
              "name": "owner",
              "type": "address"
            },
            {
              "internalType": "uint256",
              "name": "nonce",
              "type": "uint256"
            },
            {
              "components": [
                {
                  "internalType": "contract ERC20",
                  "name": "token",
                  "type": "address"
                },
                {
                  "internalType": "uint256",
                  "name": "amount",
                  "type": "uint256"
                }
              ],
              "internalType": "struct Putty.ERC20Info[]",
              "name": "erc20Underlying",
              "type": "tuple[]"
            },
            {
              "components": [
                {
                  "internalType": "contract ERC721",
                  "name": "token",
                  "type": "address"
                },
                {
                  "internalType": "uint256",
                  "name": "tokenId",
                  "type": "uint256"
                }
              ],
              "internalType": "struct Putty.ERC721Info[]",
              "name": "erc721Underlying",
              "type": "tuple[]"
            }
          ],
          "internalType": "struct Putty.Option",
          "name": "option",
          "type": "tuple"
        }
      ],
      "name": "exercise",
      "outputs": [],
      "stateMutability": "nonpayable",
      "type": "function"
    },
    {
      "inputs": [
        {
          "components": [
            {
              "internalType": "uint256",
              "name": "strike",
              "type": "uint256"
            },
            {
              "internalType": "uint256",
              "name": "duration",
              "type": "uint256"
            },
            {
              "internalType": "uint256",
              "name": "premium",
              "type": "uint256"
            },
            {
              "internalType": "address",
              "name": "owner",
              "type": "address"
            },
            {
              "internalType": "uint256",
              "name": "nonce",
              "type": "uint256"
            },
            {
              "components": [
                {
                  "internalType": "contract ERC20",
                  "name": "token",
                  "type": "address"
                },
                {
                  "internalType": "uint256",
                  "name": "amount",
                  "type": "uint256"
                }
              ],
              "internalType": "struct Putty.ERC20Info[]",
              "name": "erc20Underlying",
              "type": "tuple[]"
            },
            {
              "components": [
                {
                  "internalType": "contract ERC721",
                  "name": "token",
                  "type": "address"
                },
                {
                  "internalType": "uint256",
                  "name": "tokenId",
                  "type": "uint256"
                }
              ],
              "internalType": "struct Putty.ERC721Info[]",
              "name": "erc721Underlying",
              "type": "tuple[]"
            }
          ],
          "internalType": "struct Putty.Option",
          "name": "option",
          "type": "tuple"
        }
      ],
      "name": "expire",
      "outputs": [],
      "stateMutability": "nonpayable",
      "type": "function"
    },
    {
      "inputs": [
        {
          "components": [
            {
              "internalType": "uint256",
              "name": "strike",
              "type": "uint256"
            },
            {
              "internalType": "uint256",
              "name": "duration",
              "type": "uint256"
            },
            {
              "internalType": "uint256",
              "name": "premium",
              "type": "uint256"
            },
            {
              "internalType": "address",
              "name": "owner",
              "type": "address"
            },
            {
              "internalType": "uint256",
              "name": "nonce",
              "type": "uint256"
            },
            {
              "components": [
                {
                  "internalType": "contract ERC20",
                  "name": "token",
                  "type": "address"
                },
                {
                  "internalType": "uint256",
                  "name": "amount",
                  "type": "uint256"
                }
              ],
              "internalType": "struct Putty.ERC20Info[]",
              "name": "erc20Underlying",
              "type": "tuple[]"
            },
            {
              "components": [
                {
                  "internalType": "contract ERC721",
                  "name": "token",
                  "type": "address"
                },
                {
                  "internalType": "uint256",
                  "name": "tokenId",
                  "type": "uint256"
                }
              ],
              "internalType": "struct Putty.ERC721Info[]",
              "name": "erc721Underlying",
              "type": "tuple[]"
            }
          ],
          "internalType": "struct Putty.Option",
          "name": "option",
          "type": "tuple"
        },
        {
          "internalType": "bytes",
          "name": "signature",
          "type": "bytes"
        }
      ],
      "name": "fillBuyOrder",
      "outputs": [],
      "stateMutability": "payable",
      "type": "function"
    },
    {
      "inputs": [
        {
          "internalType": "uint256",
          "name": "tokenId",
          "type": "uint256"
        }
      ],
      "name": "getApproved",
      "outputs": [
        {
          "internalType": "address",
          "name": "",
          "type": "address"
        }
      ],
      "stateMutability": "view",
      "type": "function"
    },
    {
      "inputs": [
        {
          "internalType": "address",
          "name": "owner",
          "type": "address"
        },
        {
          "internalType": "address",
          "name": "operator",
          "type": "address"
        }
      ],
      "name": "isApprovedForAll",
      "outputs": [
        {
          "internalType": "bool",
          "name": "",
          "type": "bool"
        }
      ],
      "stateMutability": "view",
      "type": "function"
    },
    {
      "inputs": [],
      "name": "name",
      "outputs": [
        {
          "internalType": "string",
          "name": "",
          "type": "string"
        }
      ],
      "stateMutability": "view",
      "type": "function"
    },
    {
      "inputs": [
        {
          "internalType": "uint256",
          "name": "tokenId",
          "type": "uint256"
        }
      ],
      "name": "ownerOf",
      "outputs": [
        {
          "internalType": "address",
          "name": "",
          "type": "address"
        }
      ],
      "stateMutability": "view",
      "type": "function"
    },
    {
      "inputs": [
        {
          "internalType": "address",
          "name": "from",
          "type": "address"
        },
        {
          "internalType": "address",
          "name": "to",
          "type": "address"
        },
        {
          "internalType": "uint256",
          "name": "tokenId",
          "type": "uint256"
        }
      ],
      "name": "safeTransferFrom",
      "outputs": [],
      "stateMutability": "nonpayable",
      "type": "function"
    },
    {
      "inputs": [
        {
          "internalType": "address",
          "name": "from",
          "type": "address"
        },
        {
          "internalType": "address",
          "name": "to",
          "type": "address"
        },
        {
          "internalType": "uint256",
          "name": "tokenId",
          "type": "uint256"
        },
        {
          "internalType": "bytes",
          "name": "_data",
          "type": "bytes"
        }
      ],
      "name": "safeTransferFrom",
      "outputs": [],
      "stateMutability": "nonpayable",
      "type": "function"
    },
    {
      "inputs": [
        {
          "internalType": "address",
          "name": "operator",
          "type": "address"
        },
        {
          "internalType": "bool",
          "name": "approved",
          "type": "bool"
        }
      ],
      "name": "setApprovalForAll",
      "outputs": [],
      "stateMutability": "nonpayable",
      "type": "function"
    },
    {
      "inputs": [
        {
          "internalType": "bytes4",
          "name": "interfaceId",
          "type": "bytes4"
        }
      ],
      "name": "supportsInterface",
      "outputs": [
        {
          "internalType": "bool",
          "name": "",
          "type": "bool"
        }
      ],
      "stateMutability": "view",
      "type": "function"
    },
    {
      "inputs": [],
      "name": "symbol",
      "outputs": [
        {
          "internalType": "string",
          "name": "",
          "type": "string"
        }
      ],
      "stateMutability": "view",
      "type": "function"
    },
    {
      "inputs": [
        {
          "internalType": "uint256",
          "name": "",
          "type": "uint256"
        }
      ],
      "name": "tokenIdToCreationTimestamp",
      "outputs": [
        {
          "internalType": "uint256",
          "name": "",
          "type": "uint256"
        }
      ],
      "stateMutability": "view",
      "type": "function"
    },
    {
      "inputs": [
        {
          "internalType": "uint256",
          "name": "tokenId",
          "type": "uint256"
        }
      ],
      "name": "tokenURI",
      "outputs": [
        {
          "internalType": "string",
          "name": "",
          "type": "string"
        }
      ],
      "stateMutability": "view",
      "type": "function"
    },
    {
      "inputs": [
        {
          "internalType": "address",
          "name": "from",
          "type": "address"
        },
        {
          "internalType": "address",
          "name": "to",
          "type": "address"
        },
        {
          "internalType": "uint256",
          "name": "tokenId",
          "type": "uint256"
        }
      ],
      "name": "transferFrom",
      "outputs": [],
      "stateMutability": "nonpayable",
      "type": "function"
    },
    {
      "inputs": [],
      "name": "weth",
      "outputs": [
        {
          "internalType": "contract ERC20",
          "name": "",
          "type": "address"
        }
      ],
      "stateMutability": "view",
      "type": "function"
    }
  ],
  "transactionHash": "0x01020fb792adbab4f454e9579a89bd8d4541ad0715c2bbc7e84fb5972777fb00",
  "args": [
    "0xc778417e063141139fce010982780140aa0cd5ab",
    "https://ropsten.putty.finance/api/token/"
  ],
  "numDeployments": 6,
  "solcInputHash": "4cea695b78e340c918f19087e2a2d54d",
  "bytecode": "0x6101406040523480156200001257600080fd5b50604051620056d8380380620056d88339818101604052810190620000389190620003d8565b6040518060400160405280600d81526020017f5075747479204f7074696f6e73000000000000000000000000000000000000008152506040518060400160405280600481526020017f5055544f000000000000000000000000000000000000000000000000000000008152506040518060400160405280600581526020017f50757474790000000000000000000000000000000000000000000000000000008152506040518060400160405280600481526020017f76302e390000000000000000000000000000000000000000000000000000000081525060008280519060200120905060008280519060200120905060007f8b73c3c69bb8fe3d512ecc4cf759cc79239f7b179b0ffacaa9a75d522b39400f90508260e081815250508161010081815250504660a08181525050620001798184846200026360201b60201c565b608081815250503073ffffffffffffffffffffffffffffffffffffffff1660c08173ffffffffffffffffffffffffffffffffffffffff1660601b8152505080610120818152505050505050508160009080519060200190620001dd9291906200029f565b508060019080519060200190620001f69291906200029f565b505050600160068190555081600760006101000a81548173ffffffffffffffffffffffffffffffffffffffff021916908373ffffffffffffffffffffffffffffffffffffffff16021790555080600890805190602001906200025a9291906200029f565b505050620006a8565b600083838346306040516020016200028095949392919062000465565b6040516020818303038152906040528051906020012090509392505050565b828054620002ad90620005b3565b90600052602060002090601f016020900481019282620002d157600085556200031d565b82601f10620002ec57805160ff19168380011785556200031d565b828001600101855582156200031d579182015b828111156200031c578251825591602001919060010190620002ff565b5b5090506200032c919062000330565b5090565b5b808211156200034b57600081600090555060010162000331565b5090565b6000620003666200036084620004eb565b620004c2565b9050828152602081018484840111156200037f57600080fd5b6200038c8482856200057d565b509392505050565b600081519050620003a5816200068e565b92915050565b600082601f830112620003bd57600080fd5b8151620003cf8482602086016200034f565b91505092915050565b60008060408385031215620003ec57600080fd5b6000620003fc8582860162000394565b925050602083015167ffffffffffffffff8111156200041a57600080fd5b6200042885828601620003ab565b9150509250929050565b6200043d8162000521565b82525050565b6200044e8162000535565b82525050565b6200045f8162000573565b82525050565b600060a0820190506200047c600083018862000443565b6200048b602083018762000443565b6200049a604083018662000443565b620004a9606083018562000454565b620004b8608083018462000432565b9695505050505050565b6000620004ce620004e1565b9050620004dc8282620005e9565b919050565b6000604051905090565b600067ffffffffffffffff8211156200050957620005086200064e565b5b62000514826200067d565b9050602081019050919050565b60006200052e8262000553565b9050919050565b6000819050919050565b60006200054c8262000521565b9050919050565b600073ffffffffffffffffffffffffffffffffffffffff82169050919050565b6000819050919050565b60005b838110156200059d57808201518184015260208101905062000580565b83811115620005ad576000848401525b50505050565b60006002820490506001821680620005cc57607f821691505b60208210811415620005e357620005e26200061f565b5b50919050565b620005f4826200067d565b810181811067ffffffffffffffff821117156200061657620006156200064e565b5b80604052505050565b7f4e487b7100000000000000000000000000000000000000000000000000000000600052602260045260246000fd5b7f4e487b7100000000000000000000000000000000000000000000000000000000600052604160045260246000fd5b6000601f19601f8301169050919050565b62000699816200053f565b8114620006a557600080fd5b50565b60805160a05160c05160601c60e0516101005161012051614fdd620006fb6000396000611e0d01526000611e4f01526000611e2e01526000611d6301526000611db901526000611de20152614fdd6000f3fe6080604052600436106101355760003560e01c806370a08231116100ab578063b88d4fde1161006f578063b88d4fde14610417578063bc15e60114610440578063c87b56dd1461047d578063e985e9c5146104ba578063ee6f10f1146104f7578063eff9cdcc1461053457610135565b806370a082311461033f57806378e890ba1461037c578063835051bb146103a757806395d89b41146103c3578063a22cb465146103ee57610135565b80633fc8cef3116100fd5780633fc8cef31461023157806342842e0e1461025c57806352c3f953146102855780636352211e146102ae578063679a9472146102eb5780636c0360eb1461031457610135565b806301ffc9a71461013a57806306fdde0314610177578063081812fc146101a2578063095ea7b3146101df57806323b872dd14610208575b600080fd5b34801561014657600080fd5b50610161600480360381019061015c91906131bb565b61055d565b60405161016e9190613ca0565b60405180910390f35b34801561018357600080fd5b5061018c61063f565b6040516101999190613e07565b60405180910390f35b3480156101ae57600080fd5b506101c960048036038101906101c491906132ba565b6106d1565b6040516101d69190613bbe565b60405180910390f35b3480156101eb57600080fd5b5061020660048036038101906102019190613156565b610756565b005b34801561021457600080fd5b5061022f600480360381019061022a9190613050565b61086e565b005b34801561023d57600080fd5b506102466108ce565b6040516102539190613dec565b60405180910390f35b34801561026857600080fd5b50610283600480360381019061027e9190613050565b6108f4565b005b34801561029157600080fd5b506102ac60048036038101906102a7919061320d565b610914565b005b3480156102ba57600080fd5b506102d560048036038101906102d091906132ba565b6109cd565b6040516102e29190613bbe565b60405180910390f35b3480156102f757600080fd5b50610312600480360381019061030d919061320d565b610a7f565b005b34801561032057600080fd5b50610329610c7f565b6040516103369190613e07565b60405180910390f35b34801561034b57600080fd5b5061036660048036038101906103619190612feb565b610d0d565b6040516103739190614247565b60405180910390f35b34801561038857600080fd5b50610391610dc5565b60405161039e9190613cbb565b60405180910390f35b6103c160048036038101906103bc919061324e565b610dd4565b005b3480156103cf57600080fd5b506103d86110c5565b6040516103e59190613e07565b60405180910390f35b3480156103fa57600080fd5b506104156004803603810190610410919061311a565b611157565b005b34801561042357600080fd5b5061043e6004803603810190610439919061309f565b61116d565b005b34801561044c57600080fd5b50610467600480360381019061046291906132ba565b6111cf565b6040516104749190613ca0565b60405180910390f35b34801561048957600080fd5b506104a4600480360381019061049f91906132ba565b6111ef565b6040516104b19190613e07565b60405180910390f35b3480156104c657600080fd5b506104e160048036038101906104dc9190613014565b611296565b6040516104ee9190613ca0565b60405180910390f35b34801561050357600080fd5b5061051e600480360381019061051991906132ba565b61132a565b60405161052b9190614247565b60405180910390f35b34801561054057600080fd5b5061055b6004803603810190610556919061320d565b611342565b005b60007f80ac58cd000000000000000000000000000000000000000000000000000000007bffffffffffffffffffffffffffffffffffffffffffffffffffffffff1916827bffffffffffffffffffffffffffffffffffffffffffffffffffffffff1916148061062857507f5b5e139f000000000000000000000000000000000000000000000000000000007bffffffffffffffffffffffffffffffffffffffffffffffffffffffff1916827bffffffffffffffffffffffffffffffffffffffffffffffffffffffff1916145b806106385750610637826117b7565b5b9050919050565b60606000805461064e906145e6565b80601f016020809104026020016040519081016040528092919081815260200182805461067a906145e6565b80156106c75780601f1061069c576101008083540402835291602001916106c7565b820191906000526020600020905b8154815290600101906020018083116106aa57829003601f168201915b5050505050905090565b60006106dc82611821565b61071b576040517f08c379a000000000000000000000000000000000000000000000000000000000815260040161071290614049565b60405180910390fd5b6004600083815260200190815260200160002060009054906101000a900473ffffffffffffffffffffffffffffffffffffffff169050919050565b6000610761826109cd565b90508073ffffffffffffffffffffffffffffffffffffffff168373ffffffffffffffffffffffffffffffffffffffff1614156107d2576040517f08c379a00000000000000000000000000000000000000000000000000000000081526004016107c9906140c9565b60405180910390fd5b8073ffffffffffffffffffffffffffffffffffffffff166107f161188d565b73ffffffffffffffffffffffffffffffffffffffff161480610820575061081f8161081a61188d565b611296565b5b61085f576040517f08c379a000000000000000000000000000000000000000000000000000000000815260040161085690613fa9565b60405180910390fd5b6108698383611895565b505050565b61087f61087961188d565b8261194e565b6108be576040517f08c379a00000000000000000000000000000000000000000000000000000000081526004016108b590614129565b60405180910390fd5b6108c9838383611a2c565b505050565b600760009054906101000a900473ffffffffffffffffffffffffffffffffffffffff1681565b61090f8383836040518060200160405280600081525061116d565b505050565b806060015173ffffffffffffffffffffffffffffffffffffffff163373ffffffffffffffffffffffffffffffffffffffff1614610986576040517f08c379a000000000000000000000000000000000000000000000000000000000815260040161097d90613f49565b60405180910390fd5b600061099182611c88565b50905060008160001c90506001600a600083815260200190815260200160002060006101000a81548160ff021916908315150217905550505050565b6000806002600084815260200190815260200160002060009054906101000a900473ffffffffffffffffffffffffffffffffffffffff169050600073ffffffffffffffffffffffffffffffffffffffff168173ffffffffffffffffffffffffffffffffffffffff161415610a76576040517f08c379a0000000000000000000000000000000000000000000000000000000008152600401610a6d90613fe9565b60405180910390fd5b80915050919050565b600080610a8b83611c88565b915091506000808360001c8360001c915091506000610aa9826109cd565b9050610ab483611821565b610af3576040517f08c379a0000000000000000000000000000000000000000000000000000000008152600401610aea906141a9565b60405180910390fd5b85602001516009600085815260200190815260200160002054610b1691906143f2565b4211610b57576040517f08c379a0000000000000000000000000000000000000000000000000000000008152600401610b4e90614149565b60405180910390fd5b6000600960008581526020019081526020016000205411610bad576040517f08c379a0000000000000000000000000000000000000000000000000000000008152600401610ba490613ec9565b60405180910390fd5b6000600960008581526020019081526020016000208190555060008173ffffffffffffffffffffffffffffffffffffffff168760000151604051610bf090613ba9565b60006040518083038185875af1925050503d8060008114610c2d576040519150601f19603f3d011682016040523d82523d6000602084013e610c32565b606091505b5050905080610c76576040517f08c379a0000000000000000000000000000000000000000000000000000000008152600401610c6d90613e49565b60405180910390fd5b50505050505050565b60088054610c8c906145e6565b80601f0160208091040260200160405190810160405280929190818152602001828054610cb8906145e6565b8015610d055780601f10610cda57610100808354040283529160200191610d05565b820191906000526020600020905b815481529060010190602001808311610ce857829003601f168201915b505050505081565b60008073ffffffffffffffffffffffffffffffffffffffff168273ffffffffffffffffffffffffffffffffffffffff161415610d7e576040517f08c379a0000000000000000000000000000000000000000000000000000000008152600401610d7590613fc9565b60405180910390fd5b600360008373ffffffffffffffffffffffffffffffffffffffff1673ffffffffffffffffffffffffffffffffffffffff168152602001908152602001600020549050919050565b6000610dcf611d5f565b905090565b60026006541415610e1a576040517f08c379a0000000000000000000000000000000000000000000000000000000008152600401610e1190614189565b60405180910390fd5b6002600681905550600080610e2e84611c88565b915091506000610e3d83611e79565b90506000610e4b8286611ea9565b9050856060015173ffffffffffffffffffffffffffffffffffffffff168173ffffffffffffffffffffffffffffffffffffffff1614610ebf576040517f08c379a0000000000000000000000000000000000000000000000000000000008152600401610eb6906140a9565b60405180910390fd5b60008460001c9050610ed5876060015182611ed0565b426009600083815260200190815260200160002081905550600a600082815260200190815260200160002060009054906101000a900460ff1615610f4e576040517f08c379a0000000000000000000000000000000000000000000000000000000008152600401610f4590614109565b60405180910390fd5b60008460001c9050610f603382611ed0565b600760009054906101000a900473ffffffffffffffffffffffffffffffffffffffff1673ffffffffffffffffffffffffffffffffffffffff166323b872dd8960600151338b604001516040518463ffffffff1660e01b8152600401610fc793929190613bd9565b602060405180830381600087803b158015610fe157600080fd5b505af1158015610ff5573d6000803e3d6000fd5b505050506040513d601f19601f820116820180604052508101906110199190613192565b508760000151341015611061576040517f08c379a000000000000000000000000000000000000000000000000000000000815260040161105890613f89565b60405180910390fd5b3373ffffffffffffffffffffffffffffffffffffffff167fe55fafe11811198d0f6025af999b664fc33d08499ed34bfb1be96a6cc271d5a58984846040516110ab93929190614209565b60405180910390a250505050505060016006819055505050565b6060600180546110d4906145e6565b80601f0160208091040260200160405190810160405280929190818152602001828054611100906145e6565b801561114d5780601f106111225761010080835404028352916020019161114d565b820191906000526020600020905b81548152906001019060200180831161113057829003601f168201915b5050505050905090565b61116961116261188d565b8383611eee565b5050565b61117e61117861188d565b8361194e565b6111bd576040517f08c379a00000000000000000000000000000000000000000000000000000000081526004016111b490614129565b60405180910390fd5b6111c98484848461205b565b50505050565b600a6020528060005260406000206000915054906101000a900460ff1681565b60606111fa82611821565b611239576040517f08c379a000000000000000000000000000000000000000000000000000000000815260040161123090614089565b60405180910390fd5b60006112436120b7565b90506000815111611263576040518060200160405280600081525061128e565b8061126d84612149565b60405160200161127e929190613b5f565b6040516020818303038152906040525b915050919050565b6000600560008473ffffffffffffffffffffffffffffffffffffffff1673ffffffffffffffffffffffffffffffffffffffff16815260200190815260200160002060008373ffffffffffffffffffffffffffffffffffffffff1673ffffffffffffffffffffffffffffffffffffffff16815260200190815260200160002060009054906101000a900460ff16905092915050565b60096020528060005260406000206000915090505481565b60026006541415611388576040517f08c379a000000000000000000000000000000000000000000000000000000000815260040161137f90614189565b60405180910390fd5b600260068190555060008061139c83611c88565b915091506000808360001c8360001c915091506000806113bb846109cd565b6113c4846109cd565b915091503373ffffffffffffffffffffffffffffffffffffffff168273ffffffffffffffffffffffffffffffffffffffff1614611436576040517f08c379a000000000000000000000000000000000000000000000000000000000815260040161142d906140e9565b60405180910390fd5b600060096000868152602001908152602001600020541161148c576040517f08c379a0000000000000000000000000000000000000000000000000000000008152600401611483906141c9565b60405180910390fd5b866020015160096000868152602001908152602001600020546114af91906143f2565b4211156114f1576040517f08c379a00000000000000000000000000000000000000000000000000000000081526004016114e890614169565b60405180910390fd5b6000600960008681526020019081526020016000208190555060005b8760a001515181101561160f5760008860a001518281518110611559577f4e487b7100000000000000000000000000000000000000000000000000000000600052603260045260246000fd5b60200260200101519050806000015173ffffffffffffffffffffffffffffffffffffffff166323b872dd858584602001516040518463ffffffff1660e01b81526004016115a893929190613bd9565b602060405180830381600087803b1580156115c257600080fd5b505af11580156115d6573d6000803e3d6000fd5b505050506040513d601f19601f820116820180604052508101906115fa9190613192565b5050808061160790614649565b91505061150d565b5060005b8760c00151518110156116f45760008860c00151828151811061165f577f4e487b7100000000000000000000000000000000000000000000000000000000600052603260045260246000fd5b60200260200101519050806000015173ffffffffffffffffffffffffffffffffffffffff166323b872dd858584602001516040518463ffffffff1660e01b81526004016116ae93929190613bd9565b600060405180830381600087803b1580156116c857600080fd5b505af11580156116dc573d6000803e3d6000fd5b505050505080806116ec90614649565b915050611613565b5060008273ffffffffffffffffffffffffffffffffffffffff16886000015160405161171f90613ba9565b60006040518083038185875af1925050503d806000811461175c576040519150601f19603f3d011682016040523d82523d6000602084013e611761565b606091505b50509050806117a5576040517f08c379a000000000000000000000000000000000000000000000000000000000815260040161179c906141e9565b60405180910390fd5b50505050505050600160068190555050565b60007f01ffc9a7000000000000000000000000000000000000000000000000000000007bffffffffffffffffffffffffffffffffffffffffffffffffffffffff1916827bffffffffffffffffffffffffffffffffffffffffffffffffffffffff1916149050919050565b60008073ffffffffffffffffffffffffffffffffffffffff166002600084815260200190815260200160002060009054906101000a900473ffffffffffffffffffffffffffffffffffffffff1673ffffffffffffffffffffffffffffffffffffffff1614159050919050565b600033905090565b816004600083815260200190815260200160002060006101000a81548173ffffffffffffffffffffffffffffffffffffffff021916908373ffffffffffffffffffffffffffffffffffffffff160217905550808273ffffffffffffffffffffffffffffffffffffffff16611908836109cd565b73ffffffffffffffffffffffffffffffffffffffff167f8c5be1e5ebec7d5bd14f71427d1e84f3dd0314c0f7b2291e5b200ac8c7c3b92560405160405180910390a45050565b600061195982611821565b611998576040517f08c379a000000000000000000000000000000000000000000000000000000000815260040161198f90613f69565b60405180910390fd5b60006119a3836109cd565b90508073ffffffffffffffffffffffffffffffffffffffff168473ffffffffffffffffffffffffffffffffffffffff161480611a1257508373ffffffffffffffffffffffffffffffffffffffff166119fa846106d1565b73ffffffffffffffffffffffffffffffffffffffff16145b80611a235750611a228185611296565b5b91505092915050565b8273ffffffffffffffffffffffffffffffffffffffff16611a4c826109cd565b73ffffffffffffffffffffffffffffffffffffffff1614611aa2576040517f08c379a0000000000000000000000000000000000000000000000000000000008152600401611a9990614069565b60405180910390fd5b600073ffffffffffffffffffffffffffffffffffffffff168273ffffffffffffffffffffffffffffffffffffffff161415611b12576040517f08c379a0000000000000000000000000000000000000000000000000000000008152600401611b0990613ee9565b60405180910390fd5b611b1d8383836122f6565b611b28600082611895565b6001600360008573ffffffffffffffffffffffffffffffffffffffff1673ffffffffffffffffffffffffffffffffffffffff1681526020019081526020016000206000828254611b789190614479565b925050819055506001600360008473ffffffffffffffffffffffffffffffffffffffff1673ffffffffffffffffffffffffffffffffffffffff1681526020019081526020016000206000828254611bcf91906143f2565b92505081905550816002600083815260200190815260200160002060006101000a81548173ffffffffffffffffffffffffffffffffffffffff021916908373ffffffffffffffffffffffffffffffffffffffff160217905550808273ffffffffffffffffffffffffffffffffffffffff168473ffffffffffffffffffffffffffffffffffffffff167fddf252ad1be2c89b69c2b068fc378daa952ba7f163c4a11628f55a4df523b3ef60405160405180910390a4505050565b600080611c93611d5f565b836000015184602001518560400151866060015187608001518860a00151604051602001611cc19190613c5c565b604051602081830303815290604052805190602001208960c00151604051602001611cec9190613c7e565b60405160208183030381529060405280519060200120604051602001611d19989796959493929190613d29565b60405160208183030381529060405280519060200120915081604051602001611d429190613cbb565b604051602081830303815290604052805190602001209050915091565b60007f000000000000000000000000000000000000000000000000000000000000000073ffffffffffffffffffffffffffffffffffffffff163073ffffffffffffffffffffffffffffffffffffffff16148015611ddb57507f000000000000000000000000000000000000000000000000000000000000000046145b15611e08577f00000000000000000000000000000000000000000000000000000000000000009050611e76565b611e737f00000000000000000000000000000000000000000000000000000000000000007f00000000000000000000000000000000000000000000000000000000000000007f00000000000000000000000000000000000000000000000000000000000000006122fb565b90505b90565b600081604051602001611e8c9190613b83565b604051602081830303815290604052805190602001209050919050565b6000806000611eb88585612335565b91509150611ec5816123b8565b819250505092915050565b611eea828260405180602001604052806000815250612709565b5050565b8173ffffffffffffffffffffffffffffffffffffffff168373ffffffffffffffffffffffffffffffffffffffff161415611f5d576040517f08c379a0000000000000000000000000000000000000000000000000000000008152600401611f5490613f09565b60405180910390fd5b80600560008573ffffffffffffffffffffffffffffffffffffffff1673ffffffffffffffffffffffffffffffffffffffff16815260200190815260200160002060008473ffffffffffffffffffffffffffffffffffffffff1673ffffffffffffffffffffffffffffffffffffffff16815260200190815260200160002060006101000a81548160ff0219169083151502179055508173ffffffffffffffffffffffffffffffffffffffff168373ffffffffffffffffffffffffffffffffffffffff167f17307eab39ab6107e8899845ad3d59bd9653f200f220920489ca2b5937696c318360405161204e9190613ca0565b60405180910390a3505050565b612066848484611a2c565b61207284848484612764565b6120b1576040517f08c379a00000000000000000000000000000000000000000000000000000000081526004016120a890613e89565b60405180910390fd5b50505050565b6060600880546120c6906145e6565b80601f01602080910402602001604051908101604052809291908181526020018280546120f2906145e6565b801561213f5780601f106121145761010080835404028352916020019161213f565b820191906000526020600020905b81548152906001019060200180831161212257829003601f168201915b5050505050905090565b60606000821415612191576040518060400160405280600181526020017f300000000000000000000000000000000000000000000000000000000000000081525090506122f1565b600082905060005b600082146121c35780806121ac90614649565b915050600a826121bc9190614448565b9150612199565b60008167ffffffffffffffff811115612205577f4e487b7100000000000000000000000000000000000000000000000000000000600052604160045260246000fd5b6040519080825280601f01601f1916602001820160405280156122375781602001600182028036833780820191505090505b5090505b600085146122ea576001826122509190614479565b9150600a8561225f919061469c565b603061226b91906143f2565b60f81b8183815181106122a7577f4e487b7100000000000000000000000000000000000000000000000000000000600052603260045260246000fd5b60200101907effffffffffffffffffffffffffffffffffffffffffffffffffffffffffffff1916908160001a905350600a856122e39190614448565b945061223b565b8093505050505b919050565b505050565b60008383834630604051602001612316959493929190613cd6565b6040516020818303038152906040528051906020012090509392505050565b6000806041835114156123775760008060006020860151925060408601519150606086015160001a905061236b878285856128fb565b945094505050506123b1565b6040835114156123a857600080602085015191506040850151905061239d868383612a08565b9350935050506123b1565b60006002915091505b9250929050565b600060048111156123f2577f4e487b7100000000000000000000000000000000000000000000000000000000600052602160045260246000fd5b81600481111561242b577f4e487b7100000000000000000000000000000000000000000000000000000000600052602160045260246000fd5b141561243657612706565b60016004811115612470577f4e487b7100000000000000000000000000000000000000000000000000000000600052602160045260246000fd5b8160048111156124a9577f4e487b7100000000000000000000000000000000000000000000000000000000600052602160045260246000fd5b14156124ea576040517f08c379a00000000000000000000000000000000000000000000000000000000081526004016124e190613e29565b60405180910390fd5b60026004811115612524577f4e487b7100000000000000000000000000000000000000000000000000000000600052602160045260246000fd5b81600481111561255d577f4e487b7100000000000000000000000000000000000000000000000000000000600052602160045260246000fd5b141561259e576040517f08c379a000000000000000000000000000000000000000000000000000000000815260040161259590613e69565b60405180910390fd5b600360048111156125d8577f4e487b7100000000000000000000000000000000000000000000000000000000600052602160045260246000fd5b816004811115612611577f4e487b7100000000000000000000000000000000000000000000000000000000600052602160045260246000fd5b1415612652576040517f08c379a000000000000000000000000000000000000000000000000000000000815260040161264990613f29565b60405180910390fd5b60048081111561268b577f4e487b7100000000000000000000000000000000000000000000000000000000600052602160045260246000fd5b8160048111156126c4577f4e487b7100000000000000000000000000000000000000000000000000000000600052602160045260246000fd5b1415612705576040517f08c379a00000000000000000000000000000000000000000000000000000000081526004016126fc90614009565b60405180910390fd5b5b50565b6127138383612a56565b6127206000848484612764565b61275f576040517f08c379a000000000000000000000000000000000000000000000000000000000815260040161275690613e89565b60405180910390fd5b505050565b60006127858473ffffffffffffffffffffffffffffffffffffffff16612c24565b156128ee578373ffffffffffffffffffffffffffffffffffffffff1663150b7a026127ae61188d565b8786866040518563ffffffff1660e01b81526004016127d09493929190613c10565b602060405180830381600087803b1580156127ea57600080fd5b505af192505050801561281b57506040513d601f19601f8201168201806040525081019061281891906131e4565b60015b61289e573d806000811461284b576040519150601f19603f3d011682016040523d82523d6000602084013e612850565b606091505b50600081511415612896576040517f08c379a000000000000000000000000000000000000000000000000000000000815260040161288d90613e89565b60405180910390fd5b805181602001fd5b63150b7a0260e01b7bffffffffffffffffffffffffffffffffffffffffffffffffffffffff1916817bffffffffffffffffffffffffffffffffffffffffffffffffffffffff1916149150506128f3565b600190505b949350505050565b6000807f7fffffffffffffffffffffffffffffff5d576e7357a4501ddfe92f46681b20a08360001c11156129365760006003915091506129ff565b601b8560ff161415801561294e5750601c8560ff1614155b156129605760006004915091506129ff565b6000600187878787604051600081526020016040526040516129859493929190613da7565b6020604051602081039080840390855afa1580156129a7573d6000803e3d6000fd5b505050602060405103519050600073ffffffffffffffffffffffffffffffffffffffff168173ffffffffffffffffffffffffffffffffffffffff1614156129f6576000600192509250506129ff565b80600092509250505b94509492505050565b6000806000807f7fffffffffffffffffffffffffffffffffffffffffffffffffffffffffffffff85169150601b8560ff1c019050612a48878288856128fb565b935093505050935093915050565b600073ffffffffffffffffffffffffffffffffffffffff168273ffffffffffffffffffffffffffffffffffffffff161415612ac6576040517f08c379a0000000000000000000000000000000000000000000000000000000008152600401612abd90614029565b60405180910390fd5b612acf81611821565b15612b0f576040517f08c379a0000000000000000000000000000000000000000000000000000000008152600401612b0690613ea9565b60405180910390fd5b612b1b600083836122f6565b6001600360008473ffffffffffffffffffffffffffffffffffffffff1673ffffffffffffffffffffffffffffffffffffffff1681526020019081526020016000206000828254612b6b91906143f2565b92505081905550816002600083815260200190815260200160002060006101000a81548173ffffffffffffffffffffffffffffffffffffffff021916908373ffffffffffffffffffffffffffffffffffffffff160217905550808273ffffffffffffffffffffffffffffffffffffffff16600073ffffffffffffffffffffffffffffffffffffffff167fddf252ad1be2c89b69c2b068fc378daa952ba7f163c4a11628f55a4df523b3ef60405160405180910390a45050565b600080823b905060008111915050919050565b6000612c4a612c4584614287565b614262565b90508083825260208201905082856040860282011115612c6957600080fd5b60005b85811015612c995781612c7f8882612e5e565b845260208401935060408301925050600181019050612c6c565b5050509392505050565b6000612cb6612cb1846142b3565b614262565b90508083825260208201905082856040860282011115612cd557600080fd5b60005b85811015612d055781612ceb8882612eaa565b845260208401935060408301925050600181019050612cd8565b5050509392505050565b6000612d22612d1d846142df565b614262565b905082815260208101848484011115612d3a57600080fd5b612d458482856145a4565b509392505050565b600081359050612d5c81614f1d565b92915050565b600082601f830112612d7357600080fd5b8135612d83848260208601612c37565b91505092915050565b600082601f830112612d9d57600080fd5b8135612dad848260208601612ca3565b91505092915050565b600081359050612dc581614f34565b92915050565b600081519050612dda81614f34565b92915050565b600081359050612def81614f4b565b92915050565b600081519050612e0481614f4b565b92915050565b600082601f830112612e1b57600080fd5b8135612e2b848260208601612d0f565b91505092915050565b600081359050612e4381614f62565b92915050565b600081359050612e5881614f79565b92915050565b600060408284031215612e7057600080fd5b612e7a6040614262565b90506000612e8a84828501612e34565b6000830152506020612e9e84828501612fd6565b60208301525092915050565b600060408284031215612ebc57600080fd5b612ec66040614262565b90506000612ed684828501612e49565b6000830152506020612eea84828501612fd6565b60208301525092915050565b600060e08284031215612f0857600080fd5b612f1260e0614262565b90506000612f2284828501612fd6565b6000830152506020612f3684828501612fd6565b6020830152506040612f4a84828501612fd6565b6040830152506060612f5e84828501612d4d565b6060830152506080612f7284828501612fd6565b60808301525060a082013567ffffffffffffffff811115612f9257600080fd5b612f9e84828501612d62565b60a08301525060c082013567ffffffffffffffff811115612fbe57600080fd5b612fca84828501612d8c565b60c08301525092915050565b600081359050612fe581614f90565b92915050565b600060208284031215612ffd57600080fd5b600061300b84828501612d4d565b91505092915050565b6000806040838503121561302757600080fd5b600061303585828601612d4d565b925050602061304685828601612d4d565b9150509250929050565b60008060006060848603121561306557600080fd5b600061307386828701612d4d565b935050602061308486828701612d4d565b925050604061309586828701612fd6565b9150509250925092565b600080600080608085870312156130b557600080fd5b60006130c387828801612d4d565b94505060206130d487828801612d4d565b93505060406130e587828801612fd6565b925050606085013567ffffffffffffffff81111561310257600080fd5b61310e87828801612e0a565b91505092959194509250565b6000806040838503121561312d57600080fd5b600061313b85828601612d4d565b925050602061314c85828601612db6565b9150509250929050565b6000806040838503121561316957600080fd5b600061317785828601612d4d565b925050602061318885828601612fd6565b9150509250929050565b6000602082840312156131a457600080fd5b60006131b284828501612dcb565b91505092915050565b6000602082840312156131cd57600080fd5b60006131db84828501612de0565b91505092915050565b6000602082840312156131f657600080fd5b600061320484828501612df5565b91505092915050565b60006020828403121561321f57600080fd5b600082013567ffffffffffffffff81111561323957600080fd5b61324584828501612ef6565b91505092915050565b6000806040838503121561326157600080fd5b600083013567ffffffffffffffff81111561327b57600080fd5b61328785828601612ef6565b925050602083013567ffffffffffffffff8111156132a457600080fd5b6132b085828601612e0a565b9150509250929050565b6000602082840312156132cc57600080fd5b60006132da84828501612fd6565b91505092915050565b60006132ef8383613a31565b60408301905092915050565b60006133078383613a60565b60408301905092915050565b61331c816144ad565b82525050565b61332b816144ad565b82525050565b600061333c82614330565b6133468185614376565b935061335183614310565b8060005b8381101561338257815161336988826132e3565b97506133748361435c565b925050600181019050613355565b5085935050505092915050565b600061339a82614330565b6133a48185614387565b93506133af83614310565b8060005b838110156133e05781516133c788826132e3565b97506133d28361435c565b9250506001810190506133b3565b5085935050505092915050565b60006133f88261433b565b6134028185614398565b935061340d83614320565b8060005b8381101561343e57815161342588826132fb565b975061343083614369565b925050600181019050613411565b5085935050505092915050565b60006134568261433b565b61346081856143a9565b935061346b83614320565b8060005b8381101561349c57815161348388826132fb565b975061348e83614369565b92505060018101905061346f565b5085935050505092915050565b6134b2816144bf565b82525050565b6134c1816144cb565b82525050565b6134d86134d3826144cb565b614692565b82525050565b60006134e982614346565b6134f381856143ba565b93506135038185602086016145b3565b61350c81614789565b840191505092915050565b6135208161455c565b82525050565b61352f8161455c565b82525050565b61353e81614580565b82525050565b600061354f82614351565b61355981856143d6565b93506135698185602086016145b3565b61357281614789565b840191505092915050565b600061358882614351565b61359281856143e7565b93506135a28185602086016145b3565b80840191505092915050565b60006135bb6018836143d6565b91506135c68261479a565b602082019050919050565b60006135de601d836143d6565b91506135e9826147c3565b602082019050919050565b6000613601601f836143d6565b915061360c826147ec565b602082019050919050565b6000613624601c836143e7565b915061362f82614815565b601c82019050919050565b60006136476032836143d6565b91506136528261483e565b604082019050919050565b600061366a601c836143d6565b91506136758261488d565b602082019050919050565b600061368d602c836143d6565b9150613698826148b6565b604082019050919050565b60006136b06024836143d6565b91506136bb82614905565b604082019050919050565b60006136d36019836143d6565b91506136de82614954565b602082019050919050565b60006136f66022836143d6565b91506137018261497d565b604082019050919050565b60006137196015836143d6565b9150613724826149cc565b602082019050919050565b600061373c602c836143d6565b9150613747826149f5565b604082019050919050565b600061375f600e836143d6565b915061376a82614a44565b602082019050919050565b60006137826038836143d6565b915061378d82614a6d565b604082019050919050565b60006137a5602a836143d6565b91506137b082614abc565b604082019050919050565b60006137c86029836143d6565b91506137d382614b0b565b604082019050919050565b60006137eb6022836143d6565b91506137f682614b5a565b604082019050919050565b600061380e6020836143d6565b915061381982614ba9565b602082019050919050565b6000613831602c836143d6565b915061383c82614bd2565b604082019050919050565b60006138546029836143d6565b915061385f82614c21565b604082019050919050565b6000613877602f836143d6565b915061388282614c70565b604082019050919050565b600061389a6017836143d6565b91506138a582614cbf565b602082019050919050565b60006138bd6021836143d6565b91506138c882614ce8565b604082019050919050565b60006138e06023836143d6565b91506138eb82614d37565b604082019050919050565b60006139036018836143d6565b915061390e82614d86565b602082019050919050565b60006139266000836143cb565b915061393182614daf565b600082019050919050565b60006139496031836143d6565b915061395482614db2565b604082019050919050565b600061396c6016836143d6565b915061397782614e01565b602082019050919050565b600061398f600e836143d6565b915061399a82614e2a565b602082019050919050565b60006139b2601f836143d6565b91506139bd82614e53565b602082019050919050565b60006139d56015836143d6565b91506139e082614e7c565b602082019050919050565b60006139f86021836143d6565b9150613a0382614ea5565b604082019050919050565b6000613a1b601c836143d6565b9150613a2682614ef4565b602082019050919050565b604082016000820151613a476000850182613517565b506020820151613a5a6020850182613b32565b50505050565b604082016000820151613a766000850182613535565b506020820151613a896020850182613b32565b50505050565b600060e083016000830151613aa76000860182613b32565b506020830151613aba6020860182613b32565b506040830151613acd6040860182613b32565b506060830151613ae06060860182613313565b506080830151613af36080860182613b32565b5060a083015184820360a0860152613b0b8282613331565b91505060c083015184820360c0860152613b2582826133ed565b9150508091505092915050565b613b3b81614545565b82525050565b613b4a81614545565b82525050565b613b598161454f565b82525050565b6000613b6b828561357d565b9150613b77828461357d565b91508190509392505050565b6000613b8e82613617565b9150613b9a82846134c7565b60208201915081905092915050565b6000613bb482613919565b9150819050919050565b6000602082019050613bd36000830184613322565b92915050565b6000606082019050613bee6000830186613322565b613bfb6020830185613322565b613c086040830184613b41565b949350505050565b6000608082019050613c256000830187613322565b613c326020830186613322565b613c3f6040830185613b41565b8181036060830152613c5181846134de565b905095945050505050565b60006020820190508181036000830152613c76818461338f565b905092915050565b60006020820190508181036000830152613c98818461344b565b905092915050565b6000602082019050613cb560008301846134a9565b92915050565b6000602082019050613cd060008301846134b8565b92915050565b600060a082019050613ceb60008301886134b8565b613cf860208301876134b8565b613d0560408301866134b8565b613d126060830185613b41565b613d1f6080830184613322565b9695505050505050565b600061010082019050613d3f600083018b6134b8565b613d4c602083018a613b41565b613d596040830189613b41565b613d666060830188613b41565b613d736080830187613322565b613d8060a0830186613b41565b613d8d60c08301856134b8565b613d9a60e08301846134b8565b9998505050505050505050565b6000608082019050613dbc60008301876134b8565b613dc96020830186613b50565b613dd660408301856134b8565b613de360608301846134b8565b95945050505050565b6000602082019050613e016000830184613526565b92915050565b60006020820190508181036000830152613e218184613544565b905092915050565b60006020820190508181036000830152613e42816135ae565b9050919050565b60006020820190508181036000830152613e62816135d1565b9050919050565b60006020820190508181036000830152613e82816135f4565b9050919050565b60006020820190508181036000830152613ea28161363a565b9050919050565b60006020820190508181036000830152613ec28161365d565b9050919050565b60006020820190508181036000830152613ee281613680565b9050919050565b60006020820190508181036000830152613f02816136a3565b9050919050565b60006020820190508181036000830152613f22816136c6565b9050919050565b60006020820190508181036000830152613f42816136e9565b9050919050565b60006020820190508181036000830152613f628161370c565b9050919050565b60006020820190508181036000830152613f828161372f565b9050919050565b60006020820190508181036000830152613fa281613752565b9050919050565b60006020820190508181036000830152613fc281613775565b9050919050565b60006020820190508181036000830152613fe281613798565b9050919050565b60006020820190508181036000830152614002816137bb565b9050919050565b60006020820190508181036000830152614022816137de565b9050919050565b6000602082019050818103600083015261404281613801565b9050919050565b6000602082019050818103600083015261406281613824565b9050919050565b6000602082019050818103600083015261408281613847565b9050919050565b600060208201905081810360008301526140a28161386a565b9050919050565b600060208201905081810360008301526140c28161388d565b9050919050565b600060208201905081810360008301526140e2816138b0565b9050919050565b60006020820190508181036000830152614102816138d3565b9050919050565b60006020820190508181036000830152614122816138f6565b9050919050565b600060208201905081810360008301526141428161393c565b9050919050565b600060208201905081810360008301526141628161395f565b9050919050565b6000602082019050818103600083015261418281613982565b9050919050565b600060208201905081810360008301526141a2816139a5565b9050919050565b600060208201905081810360008301526141c2816139c8565b9050919050565b600060208201905081810360008301526141e2816139eb565b9050919050565b6000602082019050818103600083015261420281613a0e565b9050919050565b600060608201905081810360008301526142238186613a8f565b90506142326020830185613b41565b61423f6040830184613b41565b949350505050565b600060208201905061425c6000830184613b41565b92915050565b600061426c61427d565b90506142788282614618565b919050565b6000604051905090565b600067ffffffffffffffff8211156142a2576142a161475a565b5b602082029050602081019050919050565b600067ffffffffffffffff8211156142ce576142cd61475a565b5b602082029050602081019050919050565b600067ffffffffffffffff8211156142fa576142f961475a565b5b61430382614789565b9050602081019050919050565b6000819050602082019050919050565b6000819050602082019050919050565b600081519050919050565b600081519050919050565b600081519050919050565b600081519050919050565b6000602082019050919050565b6000602082019050919050565b600082825260208201905092915050565b600082825260208201905092915050565b600082825260208201905092915050565b600082825260208201905092915050565b600082825260208201905092915050565b600081905092915050565b600082825260208201905092915050565b600081905092915050565b60006143fd82614545565b915061440883614545565b9250827fffffffffffffffffffffffffffffffffffffffffffffffffffffffffffffffff0382111561443d5761443c6146cd565b5b828201905092915050565b600061445382614545565b915061445e83614545565b92508261446e5761446d6146fc565b5b828204905092915050565b600061448482614545565b915061448f83614545565b9250828210156144a2576144a16146cd565b5b828203905092915050565b60006144b882614525565b9050919050565b60008115159050919050565b6000819050919050565b60007fffffffff0000000000000000000000000000000000000000000000000000000082169050919050565b600061450c826144ad565b9050919050565b600061451e826144ad565b9050919050565b600073ffffffffffffffffffffffffffffffffffffffff82169050919050565b6000819050919050565b600060ff82169050919050565b60006145678261456e565b9050919050565b600061457982614525565b9050919050565b600061458b82614592565b9050919050565b600061459d82614525565b9050919050565b82818337600083830152505050565b60005b838110156145d15780820151818401526020810190506145b6565b838111156145e0576000848401525b50505050565b600060028204905060018216806145fe57607f821691505b602082108114156146125761461161472b565b5b50919050565b61462182614789565b810181811067ffffffffffffffff821117156146405761463f61475a565b5b80604052505050565b600061465482614545565b91507fffffffffffffffffffffffffffffffffffffffffffffffffffffffffffffffff821415614687576146866146cd565b5b600182019050919050565b6000819050919050565b60006146a782614545565b91506146b283614545565b9250826146c2576146c16146fc565b5b828206905092915050565b7f4e487b7100000000000000000000000000000000000000000000000000000000600052601160045260246000fd5b7f4e487b7100000000000000000000000000000000000000000000000000000000600052601260045260246000fd5b7f4e487b7100000000000000000000000000000000000000000000000000000000600052602260045260246000fd5b7f4e487b7100000000000000000000000000000000000000000000000000000000600052604160045260246000fd5b6000601f19601f8301169050919050565b7f45434453413a20696e76616c6964207369676e61747572650000000000000000600082015250565b7f455448207472616e7366657220746f2073656c6c6572206661696c6564000000600082015250565b7f45434453413a20696e76616c6964207369676e6174757265206c656e67746800600082015250565b7f19457468657265756d205369676e6564204d6573736167653a0a333200000000600082015250565b7f4552433732313a207472616e7366657220746f206e6f6e20455243373231526560008201527f63656976657220696d706c656d656e7465720000000000000000000000000000602082015250565b7f4552433732313a20746f6b656e20616c7265616479206d696e74656400000000600082015250565b7f4f7074696f6e20686173206265656e20657865726369736564206f7220616c7260008201527f6561647920636c65617265640000000000000000000000000000000000000000602082015250565b7f4552433732313a207472616e7366657220746f20746865207a65726f2061646460008201527f7265737300000000000000000000000000000000000000000000000000000000602082015250565b7f4552433732313a20617070726f766520746f2063616c6c657200000000000000600082015250565b7f45434453413a20696e76616c6964207369676e6174757265202773272076616c60008201527f7565000000000000000000000000000000000000000000000000000000000000602082015250565b7f596f7520617265206e6f7420746865206f776e65720000000000000000000000600082015250565b7f4552433732313a206f70657261746f7220717565727920666f72206e6f6e657860008201527f697374656e7420746f6b656e0000000000000000000000000000000000000000602082015250565b7f4e6f7420656e6f75676820657468000000000000000000000000000000000000600082015250565b7f4552433732313a20617070726f76652063616c6c6572206973206e6f74206f7760008201527f6e6572206e6f7220617070726f76656420666f7220616c6c0000000000000000602082015250565b7f4552433732313a2062616c616e636520717565727920666f7220746865207a6560008201527f726f206164647265737300000000000000000000000000000000000000000000602082015250565b7f4552433732313a206f776e657220717565727920666f72206e6f6e657869737460008201527f656e7420746f6b656e0000000000000000000000000000000000000000000000602082015250565b7f45434453413a20696e76616c6964207369676e6174757265202776272076616c60008201527f7565000000000000000000000000000000000000000000000000000000000000602082015250565b7f4552433732313a206d696e7420746f20746865207a65726f2061646472657373600082015250565b7f4552433732313a20617070726f76656420717565727920666f72206e6f6e657860008201527f697374656e7420746f6b656e0000000000000000000000000000000000000000602082015250565b7f4552433732313a207472616e73666572206f6620746f6b656e2074686174206960008201527f73206e6f74206f776e0000000000000000000000000000000000000000000000602082015250565b7f4552433732314d657461646174613a2055524920717565727920666f72206e6f60008201527f6e6578697374656e7420746f6b656e0000000000000000000000000000000000602082015250565b7f496e76616c6964206f72646572207369676e6174757265000000000000000000600082015250565b7f4552433732313a20617070726f76616c20746f2063757272656e74206f776e6560008201527f7200000000000000000000000000000000000000000000000000000000000000602082015250565b7f43616e6e6f74206578657263697365206f7074696f6e20796f7520646f6e742060008201527f6f776e0000000000000000000000000000000000000000000000000000000000602082015250565b7f4f7264657220686173206265656e2063616e63656c6c65640000000000000000600082015250565b50565b7f4552433732313a207472616e736665722063616c6c6572206973206e6f74206f60008201527f776e6572206e6f7220617070726f766564000000000000000000000000000000602082015250565b7f4f7074696f6e20686173206e6f74206578706972656400000000000000000000600082015250565b7f45787069726564206f7074696f6e000000000000000000000000000000000000600082015250565b7f5265656e7472616e637947756172643a207265656e7472616e742063616c6c00600082015250565b7f4f7074696f6e20646f6573206e6f742065786973740000000000000000000000600082015250565b7f4f7074696f6e2068617320616c7265616479206265656e20657865726369736560008201527f6400000000000000000000000000000000000000000000000000000000000000602082015250565b7f455448207472616e7366657220746f206275796572206661696c656400000000600082015250565b614f26816144ad565b8114614f3157600080fd5b50565b614f3d816144bf565b8114614f4857600080fd5b50565b614f54816144d5565b8114614f5f57600080fd5b50565b614f6b81614501565b8114614f7657600080fd5b50565b614f8281614513565b8114614f8d57600080fd5b50565b614f9981614545565b8114614fa457600080fd5b5056fea2646970667358221220efb6c21099e4a6d31f64c335f3270cc0d2cc37d4a4a861bde91cdab443c3a0fb64736f6c63430008040033",
  "devdoc": {
    "kind": "dev",
    "methods": {
      "approve(address,uint256)": {
        "details": "See {IERC721-approve}."
      },
      "balanceOf(address)": {
        "details": "See {IERC721-balanceOf}."
      },
      "getApproved(uint256)": {
        "details": "See {IERC721-getApproved}."
      },
      "isApprovedForAll(address,address)": {
        "details": "See {IERC721-isApprovedForAll}."
      },
      "name()": {
        "details": "See {IERC721Metadata-name}."
      },
      "ownerOf(uint256)": {
        "details": "See {IERC721-ownerOf}."
      },
      "safeTransferFrom(address,address,uint256)": {
        "details": "See {IERC721-safeTransferFrom}."
      },
      "safeTransferFrom(address,address,uint256,bytes)": {
        "details": "See {IERC721-safeTransferFrom}."
      },
      "setApprovalForAll(address,bool)": {
        "details": "See {IERC721-setApprovalForAll}."
      },
      "supportsInterface(bytes4)": {
        "details": "See {IERC165-supportsInterface}."
      },
      "symbol()": {
        "details": "See {IERC721Metadata-symbol}."
      },
      "tokenURI(uint256)": {
        "details": "See {IERC721Metadata-tokenURI}."
      },
      "transferFrom(address,address,uint256)": {
        "details": "See {IERC721-transferFrom}."
      }
    },
    "version": 1
  },
  "userdoc": {
    "kind": "user",
    "methods": {},
    "version": 1
  },
  "storageLayout": {
    "storage": [
      {
        "astId": 714,
        "contract": "contracts/Putty.sol:Putty",
        "label": "_name",
        "offset": 0,
        "slot": "0",
        "type": "t_string_storage"
      },
      {
        "astId": 716,
        "contract": "contracts/Putty.sol:Putty",
        "label": "_symbol",
        "offset": 0,
        "slot": "1",
        "type": "t_string_storage"
      },
      {
        "astId": 720,
        "contract": "contracts/Putty.sol:Putty",
        "label": "_owners",
        "offset": 0,
        "slot": "2",
        "type": "t_mapping(t_uint256,t_address)"
      },
      {
        "astId": 724,
        "contract": "contracts/Putty.sol:Putty",
        "label": "_balances",
        "offset": 0,
        "slot": "3",
        "type": "t_mapping(t_address,t_uint256)"
      },
      {
        "astId": 728,
        "contract": "contracts/Putty.sol:Putty",
        "label": "_tokenApprovals",
        "offset": 0,
        "slot": "4",
        "type": "t_mapping(t_uint256,t_address)"
      },
      {
        "astId": 734,
        "contract": "contracts/Putty.sol:Putty",
        "label": "_operatorApprovals",
        "offset": 0,
        "slot": "5",
        "type": "t_mapping(t_address,t_mapping(t_address,t_bool))"
      },
      {
        "astId": 10,
        "contract": "contracts/Putty.sol:Putty",
        "label": "_status",
        "offset": 0,
        "slot": "6",
        "type": "t_uint256"
      },
      {
        "astId": 2814,
        "contract": "contracts/Putty.sol:Putty",
        "label": "weth",
        "offset": 0,
        "slot": "7",
        "type": "t_contract(ERC20)585"
      },
      {
        "astId": 2816,
        "contract": "contracts/Putty.sol:Putty",
        "label": "baseURI",
        "offset": 0,
        "slot": "8",
        "type": "t_string_storage"
      },
      {
        "astId": 2820,
        "contract": "contracts/Putty.sol:Putty",
        "label": "tokenIdToCreationTimestamp",
        "offset": 0,
        "slot": "9",
        "type": "t_mapping(t_uint256,t_uint256)"
      },
      {
        "astId": 2824,
        "contract": "contracts/Putty.sol:Putty",
        "label": "cancelledOrders",
        "offset": 0,
        "slot": "10",
        "type": "t_mapping(t_uint256,t_bool)"
      }
    ],
    "types": {
      "t_address": {
        "encoding": "inplace",
        "label": "address",
        "numberOfBytes": "20"
      },
      "t_bool": {
        "encoding": "inplace",
        "label": "bool",
        "numberOfBytes": "1"
      },
      "t_contract(ERC20)585": {
        "encoding": "inplace",
        "label": "contract ERC20",
        "numberOfBytes": "20"
      },
      "t_mapping(t_address,t_bool)": {
        "encoding": "mapping",
        "key": "t_address",
        "label": "mapping(address => bool)",
        "numberOfBytes": "32",
        "value": "t_bool"
      },
      "t_mapping(t_address,t_mapping(t_address,t_bool))": {
        "encoding": "mapping",
        "key": "t_address",
        "label": "mapping(address => mapping(address => bool))",
        "numberOfBytes": "32",
        "value": "t_mapping(t_address,t_bool)"
      },
      "t_mapping(t_address,t_uint256)": {
        "encoding": "mapping",
        "key": "t_address",
        "label": "mapping(address => uint256)",
        "numberOfBytes": "32",
        "value": "t_uint256"
      },
      "t_mapping(t_uint256,t_address)": {
        "encoding": "mapping",
        "key": "t_uint256",
        "label": "mapping(uint256 => address)",
        "numberOfBytes": "32",
        "value": "t_address"
      },
      "t_mapping(t_uint256,t_bool)": {
        "encoding": "mapping",
        "key": "t_uint256",
        "label": "mapping(uint256 => bool)",
        "numberOfBytes": "32",
        "value": "t_bool"
      },
      "t_mapping(t_uint256,t_uint256)": {
        "encoding": "mapping",
        "key": "t_uint256",
        "label": "mapping(uint256 => uint256)",
        "numberOfBytes": "32",
        "value": "t_uint256"
      },
      "t_string_storage": {
        "encoding": "bytes",
        "label": "string",
        "numberOfBytes": "32"
      },
      "t_uint256": {
        "encoding": "inplace",
        "label": "uint256",
        "numberOfBytes": "32"
      }
    }
  }
}