{
  "address": "0xDc64a140Aa3E981100a9becA4E685f962f0cF6C9",
  "abi": [
    {
      "inputs": [
        {
          "internalType": "string",
          "name": "name",
          "type": "string"
        },
        {
          "internalType": "string",
          "name": "symbol",
          "type": "string"
        },
        {
          "internalType": "string",
          "name": "baseTokenURI",
          "type": "string"
        }
      ],
      "stateMutability": "nonpayable",
      "type": "constructor"
    },
    {
      "anonymous": false,
      "inputs": [
        {
          "indexed": true,
          "internalType": "address",
          "name": "owner",
          "type": "address"
        },
        {
          "indexed": true,
          "internalType": "address",
          "name": "approved",
          "type": "address"
        },
        {
          "indexed": true,
          "internalType": "uint256",
          "name": "tokenId",
          "type": "uint256"
        }
      ],
      "name": "Approval",
      "type": "event"
    },
    {
      "anonymous": false,
      "inputs": [
        {
          "indexed": true,
          "internalType": "address",
          "name": "owner",
          "type": "address"
        },
        {
          "indexed": true,
          "internalType": "address",
          "name": "operator",
          "type": "address"
        },
        {
          "indexed": false,
          "internalType": "bool",
          "name": "approved",
          "type": "bool"
        }
      ],
      "name": "ApprovalForAll",
      "type": "event"
    },
    {
      "anonymous": false,
      "inputs": [
        {
          "indexed": false,
          "internalType": "address",
          "name": "account",
          "type": "address"
        }
      ],
      "name": "Paused",
      "type": "event"
    },
    {
      "anonymous": false,
      "inputs": [
        {
          "indexed": true,
          "internalType": "bytes32",
          "name": "role",
          "type": "bytes32"
        },
        {
          "indexed": true,
          "internalType": "bytes32",
          "name": "previousAdminRole",
          "type": "bytes32"
        },
        {
          "indexed": true,
          "internalType": "bytes32",
          "name": "newAdminRole",
          "type": "bytes32"
        }
      ],
      "name": "RoleAdminChanged",
      "type": "event"
    },
    {
      "anonymous": false,
      "inputs": [
        {
          "indexed": true,
          "internalType": "bytes32",
          "name": "role",
          "type": "bytes32"
        },
        {
          "indexed": true,
          "internalType": "address",
          "name": "account",
          "type": "address"
        },
        {
          "indexed": true,
          "internalType": "address",
          "name": "sender",
          "type": "address"
        }
      ],
      "name": "RoleGranted",
      "type": "event"
    },
    {
      "anonymous": false,
      "inputs": [
        {
          "indexed": true,
          "internalType": "bytes32",
          "name": "role",
          "type": "bytes32"
        },
        {
          "indexed": true,
          "internalType": "address",
          "name": "account",
          "type": "address"
        },
        {
          "indexed": true,
          "internalType": "address",
          "name": "sender",
          "type": "address"
        }
      ],
      "name": "RoleRevoked",
      "type": "event"
    },
    {
      "anonymous": false,
      "inputs": [
        {
          "indexed": true,
          "internalType": "address",
          "name": "from",
          "type": "address"
        },
        {
          "indexed": true,
          "internalType": "address",
          "name": "to",
          "type": "address"
        },
        {
          "indexed": true,
          "internalType": "uint256",
          "name": "tokenId",
          "type": "uint256"
        }
      ],
      "name": "Transfer",
      "type": "event"
    },
    {
      "anonymous": false,
      "inputs": [
        {
          "indexed": false,
          "internalType": "address",
          "name": "account",
          "type": "address"
        }
      ],
      "name": "Unpaused",
      "type": "event"
    },
    {
      "inputs": [],
      "name": "DEFAULT_ADMIN_ROLE",
      "outputs": [
        {
          "internalType": "bytes32",
          "name": "",
          "type": "bytes32"
        }
      ],
      "stateMutability": "view",
      "type": "function"
    },
    {
      "inputs": [],
      "name": "MINTER_ROLE",
      "outputs": [
        {
          "internalType": "bytes32",
          "name": "",
          "type": "bytes32"
        }
      ],
      "stateMutability": "view",
      "type": "function"
    },
    {
      "inputs": [],
      "name": "PAUSER_ROLE",
      "outputs": [
        {
          "internalType": "bytes32",
          "name": "",
          "type": "bytes32"
        }
      ],
      "stateMutability": "view",
      "type": "function"
    },
    {
      "inputs": [
        {
          "internalType": "address",
          "name": "to",
          "type": "address"
        },
        {
          "internalType": "uint256",
          "name": "tokenId",
          "type": "uint256"
        }
      ],
      "name": "approve",
      "outputs": [],
      "stateMutability": "nonpayable",
      "type": "function"
    },
    {
      "inputs": [
        {
          "internalType": "address",
          "name": "owner",
          "type": "address"
        }
      ],
      "name": "balanceOf",
      "outputs": [
        {
          "internalType": "uint256",
          "name": "",
          "type": "uint256"
        }
      ],
      "stateMutability": "view",
      "type": "function"
    },
    {
      "inputs": [
        {
          "internalType": "uint256",
          "name": "tokenId",
          "type": "uint256"
        }
      ],
      "name": "burn",
      "outputs": [],
      "stateMutability": "nonpayable",
      "type": "function"
    },
    {
      "inputs": [
        {
          "internalType": "uint256",
          "name": "tokenId",
          "type": "uint256"
        }
      ],
      "name": "getApproved",
      "outputs": [
        {
          "internalType": "address",
          "name": "",
          "type": "address"
        }
      ],
      "stateMutability": "view",
      "type": "function"
    },
    {
      "inputs": [
        {
          "internalType": "bytes32",
          "name": "role",
          "type": "bytes32"
        }
      ],
      "name": "getRoleAdmin",
      "outputs": [
        {
          "internalType": "bytes32",
          "name": "",
          "type": "bytes32"
        }
      ],
      "stateMutability": "view",
      "type": "function"
    },
    {
      "inputs": [
        {
          "internalType": "bytes32",
          "name": "role",
          "type": "bytes32"
        },
        {
          "internalType": "uint256",
          "name": "index",
          "type": "uint256"
        }
      ],
      "name": "getRoleMember",
      "outputs": [
        {
          "internalType": "address",
          "name": "",
          "type": "address"
        }
      ],
      "stateMutability": "view",
      "type": "function"
    },
    {
      "inputs": [
        {
          "internalType": "bytes32",
          "name": "role",
          "type": "bytes32"
        }
      ],
      "name": "getRoleMemberCount",
      "outputs": [
        {
          "internalType": "uint256",
          "name": "",
          "type": "uint256"
        }
      ],
      "stateMutability": "view",
      "type": "function"
    },
    {
      "inputs": [
        {
          "internalType": "bytes32",
          "name": "role",
          "type": "bytes32"
        },
        {
          "internalType": "address",
          "name": "account",
          "type": "address"
        }
      ],
      "name": "grantRole",
      "outputs": [],
      "stateMutability": "nonpayable",
      "type": "function"
    },
    {
      "inputs": [
        {
          "internalType": "bytes32",
          "name": "role",
          "type": "bytes32"
        },
        {
          "internalType": "address",
          "name": "account",
          "type": "address"
        }
      ],
      "name": "hasRole",
      "outputs": [
        {
          "internalType": "bool",
          "name": "",
          "type": "bool"
        }
      ],
      "stateMutability": "view",
      "type": "function"
    },
    {
      "inputs": [
        {
          "internalType": "address",
          "name": "owner",
          "type": "address"
        },
        {
          "internalType": "address",
          "name": "operator",
          "type": "address"
        }
      ],
      "name": "isApprovedForAll",
      "outputs": [
        {
          "internalType": "bool",
          "name": "",
          "type": "bool"
        }
      ],
      "stateMutability": "view",
      "type": "function"
    },
    {
      "inputs": [
        {
          "internalType": "address",
          "name": "to",
          "type": "address"
        }
      ],
      "name": "mint",
      "outputs": [],
      "stateMutability": "nonpayable",
      "type": "function"
    },
    {
      "inputs": [],
      "name": "name",
      "outputs": [
        {
          "internalType": "string",
          "name": "",
          "type": "string"
        }
      ],
      "stateMutability": "view",
      "type": "function"
    },
    {
      "inputs": [
        {
          "internalType": "uint256",
          "name": "tokenId",
          "type": "uint256"
        }
      ],
      "name": "ownerOf",
      "outputs": [
        {
          "internalType": "address",
          "name": "",
          "type": "address"
        }
      ],
      "stateMutability": "view",
      "type": "function"
    },
    {
      "inputs": [],
      "name": "pause",
      "outputs": [],
      "stateMutability": "nonpayable",
      "type": "function"
    },
    {
      "inputs": [],
      "name": "paused",
      "outputs": [
        {
          "internalType": "bool",
          "name": "",
          "type": "bool"
        }
      ],
      "stateMutability": "view",
      "type": "function"
    },
    {
      "inputs": [
        {
          "internalType": "bytes32",
          "name": "role",
          "type": "bytes32"
        },
        {
          "internalType": "address",
          "name": "account",
          "type": "address"
        }
      ],
      "name": "renounceRole",
      "outputs": [],
      "stateMutability": "nonpayable",
      "type": "function"
    },
    {
      "inputs": [
        {
          "internalType": "bytes32",
          "name": "role",
          "type": "bytes32"
        },
        {
          "internalType": "address",
          "name": "account",
          "type": "address"
        }
      ],
      "name": "revokeRole",
      "outputs": [],
      "stateMutability": "nonpayable",
      "type": "function"
    },
    {
      "inputs": [
        {
          "internalType": "address",
          "name": "from",
          "type": "address"
        },
        {
          "internalType": "address",
          "name": "to",
          "type": "address"
        },
        {
          "internalType": "uint256",
          "name": "tokenId",
          "type": "uint256"
        }
      ],
      "name": "safeTransferFrom",
      "outputs": [],
      "stateMutability": "nonpayable",
      "type": "function"
    },
    {
      "inputs": [
        {
          "internalType": "address",
          "name": "from",
          "type": "address"
        },
        {
          "internalType": "address",
          "name": "to",
          "type": "address"
        },
        {
          "internalType": "uint256",
          "name": "tokenId",
          "type": "uint256"
        },
        {
          "internalType": "bytes",
          "name": "_data",
          "type": "bytes"
        }
      ],
      "name": "safeTransferFrom",
      "outputs": [],
      "stateMutability": "nonpayable",
      "type": "function"
    },
    {
      "inputs": [
        {
          "internalType": "address",
          "name": "operator",
          "type": "address"
        },
        {
          "internalType": "bool",
          "name": "approved",
          "type": "bool"
        }
      ],
      "name": "setApprovalForAll",
      "outputs": [],
      "stateMutability": "nonpayable",
      "type": "function"
    },
    {
      "inputs": [
        {
          "internalType": "bytes4",
          "name": "interfaceId",
          "type": "bytes4"
        }
      ],
      "name": "supportsInterface",
      "outputs": [
        {
          "internalType": "bool",
          "name": "",
          "type": "bool"
        }
      ],
      "stateMutability": "view",
      "type": "function"
    },
    {
      "inputs": [],
      "name": "symbol",
      "outputs": [
        {
          "internalType": "string",
          "name": "",
          "type": "string"
        }
      ],
      "stateMutability": "view",
      "type": "function"
    },
    {
      "inputs": [
        {
          "internalType": "uint256",
          "name": "index",
          "type": "uint256"
        }
      ],
      "name": "tokenByIndex",
      "outputs": [
        {
          "internalType": "uint256",
          "name": "",
          "type": "uint256"
        }
      ],
      "stateMutability": "view",
      "type": "function"
    },
    {
      "inputs": [
        {
          "internalType": "address",
          "name": "owner",
          "type": "address"
        },
        {
          "internalType": "uint256",
          "name": "index",
          "type": "uint256"
        }
      ],
      "name": "tokenOfOwnerByIndex",
      "outputs": [
        {
          "internalType": "uint256",
          "name": "",
          "type": "uint256"
        }
      ],
      "stateMutability": "view",
      "type": "function"
    },
    {
      "inputs": [
        {
          "internalType": "uint256",
          "name": "tokenId",
          "type": "uint256"
        }
      ],
      "name": "tokenURI",
      "outputs": [
        {
          "internalType": "string",
          "name": "",
          "type": "string"
        }
      ],
      "stateMutability": "view",
      "type": "function"
    },
    {
      "inputs": [],
      "name": "totalSupply",
      "outputs": [
        {
          "internalType": "uint256",
          "name": "",
          "type": "uint256"
        }
      ],
      "stateMutability": "view",
      "type": "function"
    },
    {
      "inputs": [
        {
          "internalType": "address",
          "name": "from",
          "type": "address"
        },
        {
          "internalType": "address",
          "name": "to",
          "type": "address"
        },
        {
          "internalType": "uint256",
          "name": "tokenId",
          "type": "uint256"
        }
      ],
      "name": "transferFrom",
      "outputs": [],
      "stateMutability": "nonpayable",
      "type": "function"
    },
    {
      "inputs": [],
      "name": "unpause",
      "outputs": [],
      "stateMutability": "nonpayable",
      "type": "function"
    }
  ],
  "transactionHash": "0xb452deebd360507b38c06a870d9b411a7e69b0e6f1b4131628498613e57f3c03",
  "args": [
    "erc721",
    "token",
    "http://testing/"
  ],
  "numDeployments": 1,
  "solcInputHash": "e2980b5e41c115bc735e18a1c29c38b2",
  "bytecode": "0x60806040523480156200001157600080fd5b506040516200508038038062005080833981810160405281019062000037919062000508565b8282816002908051906020019062000051929190620003e6565b5080600390805190602001906200006a929190620003e6565b5050506000600c60006101000a81548160ff02191690831515021790555080600e9080519060200190620000a0929190620003e6565b50620000c56000801b620000b96200015060201b60201c565b6200015860201b60201c565b620001067f9f2df0fed2c77648de5860a4cc508cd0818c85b8b8a1ab4ceeef8d981c8956a6620000fa6200015060201b60201c565b6200015860201b60201c565b620001477f65d7a28e3265b37a6474929f336521b332c1681b933f6cb9f3376673440d862a6200013b6200015060201b60201c565b6200015860201b60201c565b50505062000719565b600033905090565b6200016a82826200016e60201b60201c565b5050565b620001858282620001b660201b620011d81760201c565b620001b18160016000858152602001908152602001600020620002a760201b620012b81790919060201c565b505050565b620001c88282620002df60201b60201c565b620002a357600160008084815260200190815260200160002060000160008373ffffffffffffffffffffffffffffffffffffffff1673ffffffffffffffffffffffffffffffffffffffff16815260200190815260200160002060006101000a81548160ff021916908315150217905550620002486200015060201b60201c565b73ffffffffffffffffffffffffffffffffffffffff168173ffffffffffffffffffffffffffffffffffffffff16837f2f8788117e7eff1d82e926ec794901d17c78024a50270940304540a733656f0d60405160405180910390a45b5050565b6000620002d7836000018373ffffffffffffffffffffffffffffffffffffffff1660001b6200034960201b60201c565b905092915050565b600080600084815260200190815260200160002060000160008373ffffffffffffffffffffffffffffffffffffffff1673ffffffffffffffffffffffffffffffffffffffff16815260200190815260200160002060009054906101000a900460ff16905092915050565b60006200035d8383620003c360201b60201c565b620003b8578260000182908060018154018082558091505060019003906000526020600020016000909190919091505582600001805490508360010160008481526020019081526020016000208190555060019050620003bd565b600090505b92915050565b600080836001016000848152602001908152602001600020541415905092915050565b828054620003f4906200063e565b90600052602060002090601f01602090048101928262000418576000855562000464565b82601f106200043357805160ff191683800117855562000464565b8280016001018555821562000464579182015b828111156200046357825182559160200191906001019062000446565b5b50905062000473919062000477565b5090565b5b808211156200049257600081600090555060010162000478565b5090565b6000620004ad620004a784620005d2565b620005a9565b905082815260208101848484011115620004c657600080fd5b620004d384828562000608565b509392505050565b600082601f830112620004ed57600080fd5b8151620004ff84826020860162000496565b91505092915050565b6000806000606084860312156200051e57600080fd5b600084015167ffffffffffffffff8111156200053957600080fd5b6200054786828701620004db565b935050602084015167ffffffffffffffff8111156200056557600080fd5b6200057386828701620004db565b925050604084015167ffffffffffffffff8111156200059157600080fd5b6200059f86828701620004db565b9150509250925092565b6000620005b5620005c8565b9050620005c3828262000674565b919050565b6000604051905090565b600067ffffffffffffffff821115620005f057620005ef620006d9565b5b620005fb8262000708565b9050602081019050919050565b60005b83811015620006285780820151818401526020810190506200060b565b8381111562000638576000848401525b50505050565b600060028204905060018216806200065757607f821691505b602082108114156200066e576200066d620006aa565b5b50919050565b6200067f8262000708565b810181811067ffffffffffffffff82111715620006a157620006a0620006d9565b5b80604052505050565b7f4e487b7100000000000000000000000000000000000000000000000000000000600052602260045260246000fd5b7f4e487b7100000000000000000000000000000000000000000000000000000000600052604160045260246000fd5b6000601f19601f8301169050919050565b61495780620007296000396000f3fe608060405234801561001057600080fd5b50600436106101e55760003560e01c80636352211e1161010f578063a22cb465116100a2578063d539139311610071578063d5391393146105a0578063d547741f146105be578063e63ab1e9146105da578063e985e9c5146105f8576101e5565b8063a22cb46514610508578063b88d4fde14610524578063c87b56dd14610540578063ca15c87314610570576101e5565b80639010d07c116100de5780639010d07c1461046c57806391d148541461049c57806395d89b41146104cc578063a217fddf146104ea576101e5565b80636352211e146103e65780636a6278421461041657806370a08231146104325780638456cb5914610462576101e5565b80632f2ff15d1161018757806342842e0e1161015657806342842e0e1461036057806342966c681461037c5780634f6ccce7146103985780635c975abb146103c8576101e5565b80632f2ff15d146102ee5780632f745c591461030a57806336568abe1461033a5780633f4ba83a14610356576101e5565b8063095ea7b3116101c3578063095ea7b31461026857806318160ddd1461028457806323b872dd146102a2578063248a9ca3146102be576101e5565b806301ffc9a7146101ea57806306fdde031461021a578063081812fc14610238575b600080fd5b61020460048036038101906101ff91906133e4565b610628565b60405161021191906139b4565b60405180910390f35b61022261063a565b60405161022f91906139ea565b60405180910390f35b610252600480360381019061024d9190613436565b6106cc565b60405161025f919061394d565b60405180910390f35b610282600480360381019061027d9190613307565b610751565b005b61028c610869565b6040516102999190613d2c565b60405180910390f35b6102bc60048036038101906102b79190613201565b610876565b005b6102d860048036038101906102d39190613343565b6108d6565b6040516102e591906139cf565b60405180910390f35b6103086004803603810190610303919061336c565b6108f5565b005b610324600480360381019061031f9190613307565b61091e565b6040516103319190613d2c565b60405180910390f35b610354600480360381019061034f919061336c565b6109c3565b005b61035e610a46565b005b61037a60048036038101906103759190613201565b610ac0565b005b61039660048036038101906103919190613436565b610ae0565b005b6103b260048036038101906103ad9190613436565b610b3c565b6040516103bf9190613d2c565b60405180910390f35b6103d0610bd3565b6040516103dd91906139b4565b60405180910390f35b61040060048036038101906103fb9190613436565b610bea565b60405161040d919061394d565b60405180910390f35b610430600480360381019061042b919061319c565b610c9c565b005b61044c6004803603810190610447919061319c565b610d2c565b6040516104599190613d2c565b60405180910390f35b61046a610de4565b005b610486600480360381019061048191906133a8565b610e5e565b604051610493919061394d565b60405180910390f35b6104b660048036038101906104b1919061336c565b610e8d565b6040516104c391906139b4565b60405180910390f35b6104d4610ef7565b6040516104e191906139ea565b60405180910390f35b6104f2610f89565b6040516104ff91906139cf565b60405180910390f35b610522600480360381019061051d91906132cb565b610f90565b005b61053e60048036038101906105399190613250565b610fa6565b005b61055a60048036038101906105559190613436565b611008565b60405161056791906139ea565b60405180910390f35b61058a60048036038101906105859190613343565b6110af565b6040516105979190613d2c565b60405180910390f35b6105a86110d3565b6040516105b591906139cf565b60405180910390f35b6105d860048036038101906105d3919061336c565b6110f7565b005b6105e2611120565b6040516105ef91906139cf565b60405180910390f35b610612600480360381019061060d91906131c5565b611144565b60405161061f91906139b4565b60405180910390f35b6000610633826112e8565b9050919050565b60606002805461064990613fdf565b80601f016020809104026020016040519081016040528092919081815260200182805461067590613fdf565b80156106c25780601f10610697576101008083540402835291602001916106c2565b820191906000526020600020905b8154815290600101906020018083116106a557829003601f168201915b5050505050905090565b60006106d782611362565b610716576040517f08c379a000000000000000000000000000000000000000000000000000000000815260040161070d90613bec565b60405180910390fd5b6006600083815260200190815260200160002060009054906101000a900473ffffffffffffffffffffffffffffffffffffffff169050919050565b600061075c82610bea565b90508073ffffffffffffffffffffffffffffffffffffffff168373ffffffffffffffffffffffffffffffffffffffff1614156107cd576040517f08c379a00000000000000000000000000000000000000000000000000000000081526004016107c490613c4c565b60405180910390fd5b8073ffffffffffffffffffffffffffffffffffffffff166107ec6113ce565b73ffffffffffffffffffffffffffffffffffffffff16148061081b575061081a816108156113ce565b611144565b5b61085a576040517f08c379a000000000000000000000000000000000000000000000000000000000815260040161085190613b6c565b60405180910390fd5b61086483836113d6565b505050565b6000600a80549050905090565b6108876108816113ce565b8261148f565b6108c6576040517f08c379a00000000000000000000000000000000000000000000000000000000081526004016108bd90613c6c565b60405180910390fd5b6108d183838361156d565b505050565b6000806000838152602001908152602001600020600101549050919050565b6108fe826108d6565b61090f8161090a6113ce565b6117c9565b6109198383611866565b505050565b600061092983610d2c565b821061096a576040517f08c379a000000000000000000000000000000000000000000000000000000000815260040161096190613a6c565b60405180910390fd5b600860008473ffffffffffffffffffffffffffffffffffffffff1673ffffffffffffffffffffffffffffffffffffffff168152602001908152602001600020600083815260200190815260200160002054905092915050565b6109cb6113ce565b73ffffffffffffffffffffffffffffffffffffffff168173ffffffffffffffffffffffffffffffffffffffff1614610a38576040517f08c379a0000000000000000000000000000000000000000000000000000000008152600401610a2f90613d0c565b60405180910390fd5b610a42828261189a565b5050565b610a777f65d7a28e3265b37a6474929f336521b332c1681b933f6cb9f3376673440d862a610a726113ce565b610e8d565b610ab6576040517f08c379a0000000000000000000000000000000000000000000000000000000008152600401610aad90613cec565b60405180910390fd5b610abe6118ce565b565b610adb83838360405180602001604052806000815250610fa6565b505050565b610af1610aeb6113ce565b8261148f565b610b30576040517f08c379a0000000000000000000000000000000000000000000000000000000008152600401610b2790613ccc565b60405180910390fd5b610b3981611970565b50565b6000610b46610869565b8210610b87576040517f08c379a0000000000000000000000000000000000000000000000000000000008152600401610b7e90613c8c565b60405180910390fd5b600a8281548110610bc1577f4e487b7100000000000000000000000000000000000000000000000000000000600052603260045260246000fd5b90600052602060002001549050919050565b6000600c60009054906101000a900460ff16905090565b6000806004600084815260200190815260200160002060009054906101000a900473ffffffffffffffffffffffffffffffffffffffff169050600073ffffffffffffffffffffffffffffffffffffffff168173ffffffffffffffffffffffffffffffffffffffff161415610c93576040517f08c379a0000000000000000000000000000000000000000000000000000000008152600401610c8a90613bac565b60405180910390fd5b80915050919050565b610ccd7f9f2df0fed2c77648de5860a4cc508cd0818c85b8b8a1ab4ceeef8d981c8956a6610cc86113ce565b610e8d565b610d0c576040517f08c379a0000000000000000000000000000000000000000000000000000000008152600401610d0390613cac565b60405180910390fd5b610d1f81610d1a600d611a81565b611a8f565b610d29600d611c5d565b50565b60008073ffffffffffffffffffffffffffffffffffffffff168273ffffffffffffffffffffffffffffffffffffffff161415610d9d576040517f08c379a0000000000000000000000000000000000000000000000000000000008152600401610d9490613b8c565b60405180910390fd5b600560008373ffffffffffffffffffffffffffffffffffffffff1673ffffffffffffffffffffffffffffffffffffffff168152602001908152602001600020549050919050565b610e157f65d7a28e3265b37a6474929f336521b332c1681b933f6cb9f3376673440d862a610e106113ce565b610e8d565b610e54576040517f08c379a0000000000000000000000000000000000000000000000000000000008152600401610e4b90613acc565b60405180910390fd5b610e5c611c73565b565b6000610e858260016000868152602001908152602001600020611d1690919063ffffffff16565b905092915050565b600080600084815260200190815260200160002060000160008373ffffffffffffffffffffffffffffffffffffffff1673ffffffffffffffffffffffffffffffffffffffff16815260200190815260200160002060009054906101000a900460ff16905092915050565b606060038054610f0690613fdf565b80601f0160208091040260200160405190810160405280929190818152602001828054610f3290613fdf565b8015610f7f5780601f10610f5457610100808354040283529160200191610f7f565b820191906000526020600020905b815481529060010190602001808311610f6257829003601f168201915b5050505050905090565b6000801b81565b610fa2610f9b6113ce565b8383611d30565b5050565b610fb7610fb16113ce565b8361148f565b610ff6576040517f08c379a0000000000000000000000000000000000000000000000000000000008152600401610fed90613c6c565b60405180910390fd5b61100284848484611e9d565b50505050565b606061101382611362565b611052576040517f08c379a000000000000000000000000000000000000000000000000000000000815260040161104990613c2c565b60405180910390fd5b600061105c611ef9565b9050600081511161107c57604051806020016040528060008152506110a7565b8061108684611f8b565b6040516020016110979291906138ef565b6040516020818303038152906040525b915050919050565b60006110cc60016000848152602001908152602001600020612138565b9050919050565b7f9f2df0fed2c77648de5860a4cc508cd0818c85b8b8a1ab4ceeef8d981c8956a681565b611100826108d6565b6111118161110c6113ce565b6117c9565b61111b838361189a565b505050565b7f65d7a28e3265b37a6474929f336521b332c1681b933f6cb9f3376673440d862a81565b6000600760008473ffffffffffffffffffffffffffffffffffffffff1673ffffffffffffffffffffffffffffffffffffffff16815260200190815260200160002060008373ffffffffffffffffffffffffffffffffffffffff1673ffffffffffffffffffffffffffffffffffffffff16815260200190815260200160002060009054906101000a900460ff16905092915050565b6111e28282610e8d565b6112b457600160008084815260200190815260200160002060000160008373ffffffffffffffffffffffffffffffffffffffff1673ffffffffffffffffffffffffffffffffffffffff16815260200190815260200160002060006101000a81548160ff0219169083151502179055506112596113ce565b73ffffffffffffffffffffffffffffffffffffffff168173ffffffffffffffffffffffffffffffffffffffff16837f2f8788117e7eff1d82e926ec794901d17c78024a50270940304540a733656f0d60405160405180910390a45b5050565b60006112e0836000018373ffffffffffffffffffffffffffffffffffffffff1660001b61214d565b905092915050565b60007f780e9d63000000000000000000000000000000000000000000000000000000007bffffffffffffffffffffffffffffffffffffffffffffffffffffffff1916827bffffffffffffffffffffffffffffffffffffffffffffffffffffffff1916148061135b575061135a826121bd565b5b9050919050565b60008073ffffffffffffffffffffffffffffffffffffffff166004600084815260200190815260200160002060009054906101000a900473ffffffffffffffffffffffffffffffffffffffff1673ffffffffffffffffffffffffffffffffffffffff1614159050919050565b600033905090565b816006600083815260200190815260200160002060006101000a81548173ffffffffffffffffffffffffffffffffffffffff021916908373ffffffffffffffffffffffffffffffffffffffff160217905550808273ffffffffffffffffffffffffffffffffffffffff1661144983610bea565b73ffffffffffffffffffffffffffffffffffffffff167f8c5be1e5ebec7d5bd14f71427d1e84f3dd0314c0f7b2291e5b200ac8c7c3b92560405160405180910390a45050565b600061149a82611362565b6114d9576040517f08c379a00000000000000000000000000000000000000000000000000000000081526004016114d090613b2c565b60405180910390fd5b60006114e483610bea565b90508073ffffffffffffffffffffffffffffffffffffffff168473ffffffffffffffffffffffffffffffffffffffff16148061155357508373ffffffffffffffffffffffffffffffffffffffff1661153b846106cc565b73ffffffffffffffffffffffffffffffffffffffff16145b8061156457506115638185611144565b5b91505092915050565b8273ffffffffffffffffffffffffffffffffffffffff1661158d82610bea565b73ffffffffffffffffffffffffffffffffffffffff16146115e3576040517f08c379a00000000000000000000000000000000000000000000000000000000081526004016115da90613c0c565b60405180910390fd5b600073ffffffffffffffffffffffffffffffffffffffff168273ffffffffffffffffffffffffffffffffffffffff161415611653576040517f08c379a000000000000000000000000000000000000000000000000000000000815260040161164a90613aec565b60405180910390fd5b61165e83838361229f565b6116696000826113d6565b6001600560008573ffffffffffffffffffffffffffffffffffffffff1673ffffffffffffffffffffffffffffffffffffffff16815260200190815260200160002060008282546116b99190613ec1565b925050819055506001600560008473ffffffffffffffffffffffffffffffffffffffff1673ffffffffffffffffffffffffffffffffffffffff16815260200190815260200160002060008282546117109190613de0565b92505081905550816004600083815260200190815260200160002060006101000a81548173ffffffffffffffffffffffffffffffffffffffff021916908373ffffffffffffffffffffffffffffffffffffffff160217905550808273ffffffffffffffffffffffffffffffffffffffff168473ffffffffffffffffffffffffffffffffffffffff167fddf252ad1be2c89b69c2b068fc378daa952ba7f163c4a11628f55a4df523b3ef60405160405180910390a4505050565b6117d38282610e8d565b611862576117f88173ffffffffffffffffffffffffffffffffffffffff1660146122af565b6118068360001c60206122af565b604051602001611817929190613913565b6040516020818303038152906040526040517f08c379a000000000000000000000000000000000000000000000000000000000815260040161185991906139ea565b60405180910390fd5b5050565b61187082826111d8565b61189581600160008581526020019081526020016000206112b890919063ffffffff16565b505050565b6118a482826125a9565b6118c9816001600085815260200190815260200160002061268a90919063ffffffff16565b505050565b6118d6610bd3565b611915576040517f08c379a000000000000000000000000000000000000000000000000000000000815260040161190c90613a4c565b60405180910390fd5b6000600c60006101000a81548160ff0219169083151502179055507f5db9ee0a495bf2e6ff9c91a7834c1ba4fdd244a5e8aa4e537bd38aeae4b073aa6119596113ce565b604051611966919061394d565b60405180910390a1565b600061197b82610bea565b90506119898160008461229f565b6119946000836113d6565b6001600560008373ffffffffffffffffffffffffffffffffffffffff1673ffffffffffffffffffffffffffffffffffffffff16815260200190815260200160002060008282546119e49190613ec1565b925050819055506004600083815260200190815260200160002060006101000a81549073ffffffffffffffffffffffffffffffffffffffff021916905581600073ffffffffffffffffffffffffffffffffffffffff168273ffffffffffffffffffffffffffffffffffffffff167fddf252ad1be2c89b69c2b068fc378daa952ba7f163c4a11628f55a4df523b3ef60405160405180910390a45050565b600081600001549050919050565b600073ffffffffffffffffffffffffffffffffffffffff168273ffffffffffffffffffffffffffffffffffffffff161415611aff576040517f08c379a0000000000000000000000000000000000000000000000000000000008152600401611af690613bcc565b60405180910390fd5b611b0881611362565b15611b48576040517f08c379a0000000000000000000000000000000000000000000000000000000008152600401611b3f90613aac565b60405180910390fd5b611b546000838361229f565b6001600560008473ffffffffffffffffffffffffffffffffffffffff1673ffffffffffffffffffffffffffffffffffffffff1681526020019081526020016000206000828254611ba49190613de0565b92505081905550816004600083815260200190815260200160002060006101000a81548173ffffffffffffffffffffffffffffffffffffffff021916908373ffffffffffffffffffffffffffffffffffffffff160217905550808273ffffffffffffffffffffffffffffffffffffffff16600073ffffffffffffffffffffffffffffffffffffffff167fddf252ad1be2c89b69c2b068fc378daa952ba7f163c4a11628f55a4df523b3ef60405160405180910390a45050565b6001816000016000828254019250508190555050565b611c7b610bd3565b15611cbb576040517f08c379a0000000000000000000000000000000000000000000000000000000008152600401611cb290613b4c565b60405180910390fd5b6001600c60006101000a81548160ff0219169083151502179055507f62e78cea01bee320cd4e420270b5ea74000d11b0c9f74754ebdbfc544b05a258611cff6113ce565b604051611d0c919061394d565b60405180910390a1565b6000611d2583600001836126ba565b60001c905092915050565b8173ffffffffffffffffffffffffffffffffffffffff168373ffffffffffffffffffffffffffffffffffffffff161415611d9f576040517f08c379a0000000000000000000000000000000000000000000000000000000008152600401611d9690613b0c565b60405180910390fd5b80600760008573ffffffffffffffffffffffffffffffffffffffff1673ffffffffffffffffffffffffffffffffffffffff16815260200190815260200160002060008473ffffffffffffffffffffffffffffffffffffffff1673ffffffffffffffffffffffffffffffffffffffff16815260200190815260200160002060006101000a81548160ff0219169083151502179055508173ffffffffffffffffffffffffffffffffffffffff168373ffffffffffffffffffffffffffffffffffffffff167f17307eab39ab6107e8899845ad3d59bd9653f200f220920489ca2b5937696c3183604051611e9091906139b4565b60405180910390a3505050565b611ea884848461156d565b611eb48484848461270b565b611ef3576040517f08c379a0000000000000000000000000000000000000000000000000000000008152600401611eea90613a8c565b60405180910390fd5b50505050565b6060600e8054611f0890613fdf565b80601f0160208091040260200160405190810160405280929190818152602001828054611f3490613fdf565b8015611f815780601f10611f5657610100808354040283529160200191611f81565b820191906000526020600020905b815481529060010190602001808311611f6457829003601f168201915b5050505050905090565b60606000821415611fd3576040518060400160405280600181526020017f30000000000000000000000000000000000000000000000000000000000000008152509050612133565b600082905060005b60008214612005578080611fee90614042565b915050600a82611ffe9190613e36565b9150611fdb565b60008167ffffffffffffffff811115612047577f4e487b7100000000000000000000000000000000000000000000000000000000600052604160045260246000fd5b6040519080825280601f01601f1916602001820160405280156120795781602001600182028036833780820191505090505b5090505b6000851461212c576001826120929190613ec1565b9150600a856120a1919061408b565b60306120ad9190613de0565b60f81b8183815181106120e9577f4e487b7100000000000000000000000000000000000000000000000000000000600052603260045260246000fd5b60200101907effffffffffffffffffffffffffffffffffffffffffffffffffffffffffffff1916908160001a905350600a856121259190613e36565b945061207d565b8093505050505b919050565b6000612146826000016128a2565b9050919050565b600061215983836128b3565b6121b25782600001829080600181540180825580915050600190039060005260206000200160009091909190915055826000018054905083600101600084815260200190815260200160002081905550600190506121b7565b600090505b92915050565b60007f80ac58cd000000000000000000000000000000000000000000000000000000007bffffffffffffffffffffffffffffffffffffffffffffffffffffffff1916827bffffffffffffffffffffffffffffffffffffffffffffffffffffffff1916148061228857507f5b5e139f000000000000000000000000000000000000000000000000000000007bffffffffffffffffffffffffffffffffffffffffffffffffffffffff1916827bffffffffffffffffffffffffffffffffffffffffffffffffffffffff1916145b806122985750612297826128d6565b5b9050919050565b6122aa838383612950565b505050565b6060600060028360026122c29190613e67565b6122cc9190613de0565b67ffffffffffffffff81111561230b577f4e487b7100000000000000000000000000000000000000000000000000000000600052604160045260246000fd5b6040519080825280601f01601f19166020018201604052801561233d5781602001600182028036833780820191505090505b5090507f30000000000000000000000000000000000000000000000000000000000000008160008151811061239b577f4e487b7100000000000000000000000000000000000000000000000000000000600052603260045260246000fd5b60200101907effffffffffffffffffffffffffffffffffffffffffffffffffffffffffffff1916908160001a9053507f780000000000000000000000000000000000000000000000000000000000000081600181518110612425577f4e487b7100000000000000000000000000000000000000000000000000000000600052603260045260246000fd5b60200101907effffffffffffffffffffffffffffffffffffffffffffffffffffffffffffff1916908160001a905350600060018460026124659190613e67565b61246f9190613de0565b90505b600181111561255b577f3031323334353637383961626364656600000000000000000000000000000000600f8616601081106124d7577f4e487b7100000000000000000000000000000000000000000000000000000000600052603260045260246000fd5b1a60f81b828281518110612514577f4e487b7100000000000000000000000000000000000000000000000000000000600052603260045260246000fd5b60200101907effffffffffffffffffffffffffffffffffffffffffffffffffffffffffffff1916908160001a905350600485901c94508061255490613fb5565b9050612472565b506000841461259f576040517f08c379a000000000000000000000000000000000000000000000000000000000815260040161259690613a0c565b60405180910390fd5b8091505092915050565b6125b38282610e8d565b1561268657600080600084815260200190815260200160002060000160008373ffffffffffffffffffffffffffffffffffffffff1673ffffffffffffffffffffffffffffffffffffffff16815260200190815260200160002060006101000a81548160ff02191690831515021790555061262b6113ce565b73ffffffffffffffffffffffffffffffffffffffff168173ffffffffffffffffffffffffffffffffffffffff16837ff6391f5c32d9c69d2a47ea670b442974b53935d1edc7fd64eb21e047a839171b60405160405180910390a45b5050565b60006126b2836000018373ffffffffffffffffffffffffffffffffffffffff1660001b6129a8565b905092915050565b60008260000182815481106126f8577f4e487b7100000000000000000000000000000000000000000000000000000000600052603260045260246000fd5b9060005260206000200154905092915050565b600061272c8473ffffffffffffffffffffffffffffffffffffffff16612b2e565b15612895578373ffffffffffffffffffffffffffffffffffffffff1663150b7a026127556113ce565b8786866040518563ffffffff1660e01b81526004016127779493929190613968565b602060405180830381600087803b15801561279157600080fd5b505af19250505080156127c257506040513d601f19601f820116820180604052508101906127bf919061340d565b60015b612845573d80600081146127f2576040519150601f19603f3d011682016040523d82523d6000602084013e6127f7565b606091505b5060008151141561283d576040517f08c379a000000000000000000000000000000000000000000000000000000000815260040161283490613a8c565b60405180910390fd5b805181602001fd5b63150b7a0260e01b7bffffffffffffffffffffffffffffffffffffffffffffffffffffffff1916817bffffffffffffffffffffffffffffffffffffffffffffffffffffffff19161491505061289a565b600190505b949350505050565b600081600001805490509050919050565b600080836001016000848152602001908152602001600020541415905092915050565b60007f5a05180f000000000000000000000000000000000000000000000000000000007bffffffffffffffffffffffffffffffffffffffffffffffffffffffff1916827bffffffffffffffffffffffffffffffffffffffffffffffffffffffff19161480612949575061294882612b41565b5b9050919050565b61295b838383612bbb565b612963610bd3565b156129a3576040517f08c379a000000000000000000000000000000000000000000000000000000000815260040161299a90613a2c565b60405180910390fd5b505050565b60008083600101600084815260200190815260200160002054905060008114612b225760006001826129da9190613ec1565b90506000600186600001805490506129f29190613ec1565b9050818114612aad576000866000018281548110612a39577f4e487b7100000000000000000000000000000000000000000000000000000000600052603260045260246000fd5b9060005260206000200154905080876000018481548110612a83577f4e487b7100000000000000000000000000000000000000000000000000000000600052603260045260246000fd5b90600052602060002001819055508387600101600083815260200190815260200160002081905550505b85600001805480612ae7577f4e487b7100000000000000000000000000000000000000000000000000000000600052603160045260246000fd5b600190038181906000526020600020016000905590558560010160008681526020019081526020016000206000905560019350505050612b28565b60009150505b92915050565b600080823b905060008111915050919050565b60007f7965db0b000000000000000000000000000000000000000000000000000000007bffffffffffffffffffffffffffffffffffffffffffffffffffffffff1916827bffffffffffffffffffffffffffffffffffffffffffffffffffffffff19161480612bb45750612bb382612ccf565b5b9050919050565b612bc6838383612d39565b600073ffffffffffffffffffffffffffffffffffffffff168373ffffffffffffffffffffffffffffffffffffffff161415612c0957612c0481612d3e565b612c48565b8173ffffffffffffffffffffffffffffffffffffffff168373ffffffffffffffffffffffffffffffffffffffff1614612c4757612c468382612d87565b5b5b600073ffffffffffffffffffffffffffffffffffffffff168273ffffffffffffffffffffffffffffffffffffffff161415612c8b57612c8681612ef4565b612cca565b8273ffffffffffffffffffffffffffffffffffffffff168273ffffffffffffffffffffffffffffffffffffffff1614612cc957612cc88282613037565b5b5b505050565b60007f01ffc9a7000000000000000000000000000000000000000000000000000000007bffffffffffffffffffffffffffffffffffffffffffffffffffffffff1916827bffffffffffffffffffffffffffffffffffffffffffffffffffffffff1916149050919050565b505050565b600a80549050600b600083815260200190815260200160002081905550600a81908060018154018082558091505060019003906000526020600020016000909190919091505550565b60006001612d9484610d2c565b612d9e9190613ec1565b9050600060096000848152602001908152602001600020549050818114612e83576000600860008673ffffffffffffffffffffffffffffffffffffffff1673ffffffffffffffffffffffffffffffffffffffff168152602001908152602001600020600084815260200190815260200160002054905080600860008773ffffffffffffffffffffffffffffffffffffffff1673ffffffffffffffffffffffffffffffffffffffff168152602001908152602001600020600084815260200190815260200160002081905550816009600083815260200190815260200160002081905550505b6009600084815260200190815260200160002060009055600860008573ffffffffffffffffffffffffffffffffffffffff1673ffffffffffffffffffffffffffffffffffffffff16815260200190815260200160002060008381526020019081526020016000206000905550505050565b60006001600a80549050612f089190613ec1565b90506000600b60008481526020019081526020016000205490506000600a8381548110612f5e577f4e487b7100000000000000000000000000000000000000000000000000000000600052603260045260246000fd5b9060005260206000200154905080600a8381548110612fa6577f4e487b7100000000000000000000000000000000000000000000000000000000600052603260045260246000fd5b906000526020600020018190555081600b600083815260200190815260200160002081905550600b600085815260200190815260200160002060009055600a80548061301b577f4e487b7100000000000000000000000000000000000000000000000000000000600052603160045260246000fd5b6001900381819060005260206000200160009055905550505050565b600061304283610d2c565b905081600860008573ffffffffffffffffffffffffffffffffffffffff1673ffffffffffffffffffffffffffffffffffffffff168152602001908152602001600020600083815260200190815260200160002081905550806009600084815260200190815260200160002081905550505050565b60006130c96130c484613d6c565b613d47565b9050828152602081018484840111156130e157600080fd5b6130ec848285613f73565b509392505050565b600081359050613103816148ae565b92915050565b600081359050613118816148c5565b92915050565b60008135905061312d816148dc565b92915050565b600081359050613142816148f3565b92915050565b600081519050613157816148f3565b92915050565b600082601f83011261316e57600080fd5b813561317e8482602086016130b6565b91505092915050565b6000813590506131968161490a565b92915050565b6000602082840312156131ae57600080fd5b60006131bc848285016130f4565b91505092915050565b600080604083850312156131d857600080fd5b60006131e6858286016130f4565b92505060206131f7858286016130f4565b9150509250929050565b60008060006060848603121561321657600080fd5b6000613224868287016130f4565b9350506020613235868287016130f4565b925050604061324686828701613187565b9150509250925092565b6000806000806080858703121561326657600080fd5b6000613274878288016130f4565b9450506020613285878288016130f4565b935050604061329687828801613187565b925050606085013567ffffffffffffffff8111156132b357600080fd5b6132bf8782880161315d565b91505092959194509250565b600080604083850312156132de57600080fd5b60006132ec858286016130f4565b92505060206132fd85828601613109565b9150509250929050565b6000806040838503121561331a57600080fd5b6000613328858286016130f4565b925050602061333985828601613187565b9150509250929050565b60006020828403121561335557600080fd5b60006133638482850161311e565b91505092915050565b6000806040838503121561337f57600080fd5b600061338d8582860161311e565b925050602061339e858286016130f4565b9150509250929050565b600080604083850312156133bb57600080fd5b60006133c98582860161311e565b92505060206133da85828601613187565b9150509250929050565b6000602082840312156133f657600080fd5b600061340484828501613133565b91505092915050565b60006020828403121561341f57600080fd5b600061342d84828501613148565b91505092915050565b60006020828403121561344857600080fd5b600061345684828501613187565b91505092915050565b61346881613ef5565b82525050565b61347781613f07565b82525050565b61348681613f13565b82525050565b600061349782613d9d565b6134a18185613db3565b93506134b1818560208601613f82565b6134ba81614178565b840191505092915050565b60006134d082613da8565b6134da8185613dc4565b93506134ea818560208601613f82565b6134f381614178565b840191505092915050565b600061350982613da8565b6135138185613dd5565b9350613523818560208601613f82565b80840191505092915050565b600061353c602083613dc4565b915061354782614189565b602082019050919050565b600061355f602b83613dc4565b915061356a826141b2565b604082019050919050565b6000613582601483613dc4565b915061358d82614201565b602082019050919050565b60006135a5602b83613dc4565b91506135b08261422a565b604082019050919050565b60006135c8603283613dc4565b91506135d382614279565b604082019050919050565b60006135eb601c83613dc4565b91506135f6826142c8565b602082019050919050565b600061360e603e83613dc4565b9150613619826142f1565b604082019050919050565b6000613631602483613dc4565b915061363c82614340565b604082019050919050565b6000613654601983613dc4565b915061365f8261438f565b602082019050919050565b6000613677602c83613dc4565b9150613682826143b8565b604082019050919050565b600061369a601083613dc4565b91506136a582614407565b602082019050919050565b60006136bd603883613dc4565b91506136c882614430565b604082019050919050565b60006136e0602a83613dc4565b91506136eb8261447f565b604082019050919050565b6000613703602983613dc4565b915061370e826144ce565b604082019050919050565b6000613726602083613dc4565b91506137318261451d565b602082019050919050565b6000613749602c83613dc4565b915061375482614546565b604082019050919050565b600061376c602983613dc4565b915061377782614595565b604082019050919050565b600061378f602f83613dc4565b915061379a826145e4565b604082019050919050565b60006137b2602183613dc4565b91506137bd82614633565b604082019050919050565b60006137d5603183613dc4565b91506137e082614682565b604082019050919050565b60006137f8602c83613dc4565b9150613803826146d1565b604082019050919050565b600061381b601783613dd5565b915061382682614720565b601782019050919050565b600061383e603d83613dc4565b915061384982614749565b604082019050919050565b6000613861603083613dc4565b915061386c82614798565b604082019050919050565b6000613884604083613dc4565b915061388f826147e7565b604082019050919050565b60006138a7601183613dd5565b91506138b282614836565b601182019050919050565b60006138ca602f83613dc4565b91506138d58261485f565b604082019050919050565b6138e981613f69565b82525050565b60006138fb82856134fe565b915061390782846134fe565b91508190509392505050565b600061391e8261380e565b915061392a82856134fe565b91506139358261389a565b915061394182846134fe565b91508190509392505050565b6000602082019050613962600083018461345f565b92915050565b600060808201905061397d600083018761345f565b61398a602083018661345f565b61399760408301856138e0565b81810360608301526139a9818461348c565b905095945050505050565b60006020820190506139c9600083018461346e565b92915050565b60006020820190506139e4600083018461347d565b92915050565b60006020820190508181036000830152613a0481846134c5565b905092915050565b60006020820190508181036000830152613a258161352f565b9050919050565b60006020820190508181036000830152613a4581613552565b9050919050565b60006020820190508181036000830152613a6581613575565b9050919050565b60006020820190508181036000830152613a8581613598565b9050919050565b60006020820190508181036000830152613aa5816135bb565b9050919050565b60006020820190508181036000830152613ac5816135de565b9050919050565b60006020820190508181036000830152613ae581613601565b9050919050565b60006020820190508181036000830152613b0581613624565b9050919050565b60006020820190508181036000830152613b2581613647565b9050919050565b60006020820190508181036000830152613b458161366a565b9050919050565b60006020820190508181036000830152613b658161368d565b9050919050565b60006020820190508181036000830152613b85816136b0565b9050919050565b60006020820190508181036000830152613ba5816136d3565b9050919050565b60006020820190508181036000830152613bc5816136f6565b9050919050565b60006020820190508181036000830152613be581613719565b9050919050565b60006020820190508181036000830152613c058161373c565b9050919050565b60006020820190508181036000830152613c258161375f565b9050919050565b60006020820190508181036000830152613c4581613782565b9050919050565b60006020820190508181036000830152613c65816137a5565b9050919050565b60006020820190508181036000830152613c85816137c8565b9050919050565b60006020820190508181036000830152613ca5816137eb565b9050919050565b60006020820190508181036000830152613cc581613831565b9050919050565b60006020820190508181036000830152613ce581613854565b9050919050565b60006020820190508181036000830152613d0581613877565b9050919050565b60006020820190508181036000830152613d25816138bd565b9050919050565b6000602082019050613d4160008301846138e0565b92915050565b6000613d51613d62565b9050613d5d8282614011565b919050565b6000604051905090565b600067ffffffffffffffff821115613d8757613d86614149565b5b613d9082614178565b9050602081019050919050565b600081519050919050565b600081519050919050565b600082825260208201905092915050565b600082825260208201905092915050565b600081905092915050565b6000613deb82613f69565b9150613df683613f69565b9250827fffffffffffffffffffffffffffffffffffffffffffffffffffffffffffffffff03821115613e2b57613e2a6140bc565b5b828201905092915050565b6000613e4182613f69565b9150613e4c83613f69565b925082613e5c57613e5b6140eb565b5b828204905092915050565b6000613e7282613f69565b9150613e7d83613f69565b9250817fffffffffffffffffffffffffffffffffffffffffffffffffffffffffffffffff0483118215151615613eb657613eb56140bc565b5b828202905092915050565b6000613ecc82613f69565b9150613ed783613f69565b925082821015613eea57613ee96140bc565b5b828203905092915050565b6000613f0082613f49565b9050919050565b60008115159050919050565b6000819050919050565b60007fffffffff0000000000000000000000000000000000000000000000000000000082169050919050565b600073ffffffffffffffffffffffffffffffffffffffff82169050919050565b6000819050919050565b82818337600083830152505050565b60005b83811015613fa0578082015181840152602081019050613f85565b83811115613faf576000848401525b50505050565b6000613fc082613f69565b91506000821415613fd457613fd36140bc565b5b600182039050919050565b60006002820490506001821680613ff757607f821691505b6020821081141561400b5761400a61411a565b5b50919050565b61401a82614178565b810181811067ffffffffffffffff8211171561403957614038614149565b5b80604052505050565b600061404d82613f69565b91507fffffffffffffffffffffffffffffffffffffffffffffffffffffffffffffffff8214156140805761407f6140bc565b5b600182019050919050565b600061409682613f69565b91506140a183613f69565b9250826140b1576140b06140eb565b5b828206905092915050565b7f4e487b7100000000000000000000000000000000000000000000000000000000600052601160045260246000fd5b7f4e487b7100000000000000000000000000000000000000000000000000000000600052601260045260246000fd5b7f4e487b7100000000000000000000000000000000000000000000000000000000600052602260045260246000fd5b7f4e487b7100000000000000000000000000000000000000000000000000000000600052604160045260246000fd5b6000601f19601f8301169050919050565b7f537472696e67733a20686578206c656e67746820696e73756666696369656e74600082015250565b7f4552433732315061757361626c653a20746f6b656e207472616e73666572207760008201527f68696c6520706175736564000000000000000000000000000000000000000000602082015250565b7f5061757361626c653a206e6f7420706175736564000000000000000000000000600082015250565b7f455243373231456e756d657261626c653a206f776e657220696e646578206f7560008201527f74206f6620626f756e6473000000000000000000000000000000000000000000602082015250565b7f4552433732313a207472616e7366657220746f206e6f6e20455243373231526560008201527f63656976657220696d706c656d656e7465720000000000000000000000000000602082015250565b7f4552433732313a20746f6b656e20616c7265616479206d696e74656400000000600082015250565b7f4552433732315072657365744d696e7465725061757365724175746f49643a2060008201527f6d75737420686176652070617573657220726f6c6520746f2070617573650000602082015250565b7f4552433732313a207472616e7366657220746f20746865207a65726f2061646460008201527f7265737300000000000000000000000000000000000000000000000000000000602082015250565b7f4552433732313a20617070726f766520746f2063616c6c657200000000000000600082015250565b7f4552433732313a206f70657261746f7220717565727920666f72206e6f6e657860008201527f697374656e7420746f6b656e0000000000000000000000000000000000000000602082015250565b7f5061757361626c653a2070617573656400000000000000000000000000000000600082015250565b7f4552433732313a20617070726f76652063616c6c6572206973206e6f74206f7760008201527f6e6572206e6f7220617070726f76656420666f7220616c6c0000000000000000602082015250565b7f4552433732313a2062616c616e636520717565727920666f7220746865207a6560008201527f726f206164647265737300000000000000000000000000000000000000000000602082015250565b7f4552433732313a206f776e657220717565727920666f72206e6f6e657869737460008201527f656e7420746f6b656e0000000000000000000000000000000000000000000000602082015250565b7f4552433732313a206d696e7420746f20746865207a65726f2061646472657373600082015250565b7f4552433732313a20617070726f76656420717565727920666f72206e6f6e657860008201527f697374656e7420746f6b656e0000000000000000000000000000000000000000602082015250565b7f4552433732313a207472616e73666572206f6620746f6b656e2074686174206960008201527f73206e6f74206f776e0000000000000000000000000000000000000000000000602082015250565b7f4552433732314d657461646174613a2055524920717565727920666f72206e6f60008201527f6e6578697374656e7420746f6b656e0000000000000000000000000000000000602082015250565b7f4552433732313a20617070726f76616c20746f2063757272656e74206f776e6560008201527f7200000000000000000000000000000000000000000000000000000000000000602082015250565b7f4552433732313a207472616e736665722063616c6c6572206973206e6f74206f60008201527f776e6572206e6f7220617070726f766564000000000000000000000000000000602082015250565b7f455243373231456e756d657261626c653a20676c6f62616c20696e646578206f60008201527f7574206f6620626f756e64730000000000000000000000000000000000000000602082015250565b7f416363657373436f6e74726f6c3a206163636f756e7420000000000000000000600082015250565b7f4552433732315072657365744d696e7465725061757365724175746f49643a2060008201527f6d7573742068617665206d696e74657220726f6c6520746f206d696e74000000602082015250565b7f4552433732314275726e61626c653a2063616c6c6572206973206e6f74206f7760008201527f6e6572206e6f7220617070726f76656400000000000000000000000000000000602082015250565b7f4552433732315072657365744d696e7465725061757365724175746f49643a2060008201527f6d75737420686176652070617573657220726f6c6520746f20756e7061757365602082015250565b7f206973206d697373696e6720726f6c6520000000000000000000000000000000600082015250565b7f416363657373436f6e74726f6c3a2063616e206f6e6c792072656e6f756e636560008201527f20726f6c657320666f722073656c660000000000000000000000000000000000602082015250565b6148b781613ef5565b81146148c257600080fd5b50565b6148ce81613f07565b81146148d957600080fd5b50565b6148e581613f13565b81146148f057600080fd5b50565b6148fc81613f1d565b811461490757600080fd5b50565b61491381613f69565b811461491e57600080fd5b5056fea264697066735822122012d75754e7f2db78df98aaca3d6b1696ea11c0862cb033af725f4c377a6dd33a64736f6c63430008040033",
  "devdoc": {
    "details": "{ERC721} token, including:  - ability for holders to burn (destroy) their tokens  - a minter role that allows for token minting (creation)  - a pauser role that allows to stop all token transfers  - token ID and URI autogeneration This contract uses {AccessControl} to lock permissioned functions using the different roles - head to its documentation for details. The account that deploys the contract will be granted the minter and pauser roles, as well as the default admin role, which will let it grant both minter and pauser roles to other accounts.",
    "kind": "dev",
    "methods": {
      "approve(address,uint256)": {
        "details": "See {IERC721-approve}."
      },
      "balanceOf(address)": {
        "details": "See {IERC721-balanceOf}."
      },
      "burn(uint256)": {
        "details": "Burns `tokenId`. See {ERC721-_burn}. Requirements: - The caller must own `tokenId` or be an approved operator."
      },
      "constructor": {
        "details": "Grants `DEFAULT_ADMIN_ROLE`, `MINTER_ROLE` and `PAUSER_ROLE` to the account that deploys the contract. Token URIs will be autogenerated based on `baseURI` and their token IDs. See {ERC721-tokenURI}."
      },
      "getApproved(uint256)": {
        "details": "See {IERC721-getApproved}."
      },
      "getRoleAdmin(bytes32)": {
        "details": "Returns the admin role that controls `role`. See {grantRole} and {revokeRole}. To change a role's admin, use {_setRoleAdmin}."
      },
      "getRoleMember(bytes32,uint256)": {
        "details": "Returns one of the accounts that have `role`. `index` must be a value between 0 and {getRoleMemberCount}, non-inclusive. Role bearers are not sorted in any particular way, and their ordering may change at any point. WARNING: When using {getRoleMember} and {getRoleMemberCount}, make sure you perform all queries on the same block. See the following https://forum.openzeppelin.com/t/iterating-over-elements-on-enumerableset-in-openzeppelin-contracts/2296[forum post] for more information."
      },
      "getRoleMemberCount(bytes32)": {
        "details": "Returns the number of accounts that have `role`. Can be used together with {getRoleMember} to enumerate all bearers of a role."
      },
      "grantRole(bytes32,address)": {
        "details": "Grants `role` to `account`. If `account` had not been already granted `role`, emits a {RoleGranted} event. Requirements: - the caller must have ``role``'s admin role."
      },
      "hasRole(bytes32,address)": {
        "details": "Returns `true` if `account` has been granted `role`."
      },
      "isApprovedForAll(address,address)": {
        "details": "See {IERC721-isApprovedForAll}."
      },
      "mint(address)": {
        "details": "Creates a new token for `to`. Its token ID will be automatically assigned (and available on the emitted {IERC721-Transfer} event), and the token URI autogenerated based on the base URI passed at construction. See {ERC721-_mint}. Requirements: - the caller must have the `MINTER_ROLE`."
      },
      "name()": {
        "details": "See {IERC721Metadata-name}."
      },
      "ownerOf(uint256)": {
        "details": "See {IERC721-ownerOf}."
      },
      "pause()": {
        "details": "Pauses all token transfers. See {ERC721Pausable} and {Pausable-_pause}. Requirements: - the caller must have the `PAUSER_ROLE`."
      },
      "paused()": {
        "details": "Returns true if the contract is paused, and false otherwise."
      },
      "renounceRole(bytes32,address)": {
        "details": "Revokes `role` from the calling account. Roles are often managed via {grantRole} and {revokeRole}: this function's purpose is to provide a mechanism for accounts to lose their privileges if they are compromised (such as when a trusted device is misplaced). If the calling account had been revoked `role`, emits a {RoleRevoked} event. Requirements: - the caller must be `account`."
      },
      "revokeRole(bytes32,address)": {
        "details": "Revokes `role` from `account`. If `account` had been granted `role`, emits a {RoleRevoked} event. Requirements: - the caller must have ``role``'s admin role."
      },
      "safeTransferFrom(address,address,uint256)": {
        "details": "See {IERC721-safeTransferFrom}."
      },
      "safeTransferFrom(address,address,uint256,bytes)": {
        "details": "See {IERC721-safeTransferFrom}."
      },
      "setApprovalForAll(address,bool)": {
        "details": "See {IERC721-setApprovalForAll}."
      },
      "supportsInterface(bytes4)": {
        "details": "See {IERC165-supportsInterface}."
      },
      "symbol()": {
        "details": "See {IERC721Metadata-symbol}."
      },
      "tokenByIndex(uint256)": {
        "details": "See {IERC721Enumerable-tokenByIndex}."
      },
      "tokenOfOwnerByIndex(address,uint256)": {
        "details": "See {IERC721Enumerable-tokenOfOwnerByIndex}."
      },
      "tokenURI(uint256)": {
        "details": "See {IERC721Metadata-tokenURI}."
      },
      "totalSupply()": {
        "details": "See {IERC721Enumerable-totalSupply}."
      },
      "transferFrom(address,address,uint256)": {
        "details": "See {IERC721-transferFrom}."
      },
      "unpause()": {
        "details": "Unpauses all token transfers. See {ERC721Pausable} and {Pausable-_unpause}. Requirements: - the caller must have the `PAUSER_ROLE`."
      }
    },
    "version": 1
  },
  "userdoc": {
    "kind": "user",
    "methods": {},
    "version": 1
  },
  "storageLayout": {
    "storage": [
      {
        "astId": 24,
        "contract": "@openzeppelin/contracts/token/ERC721/presets/ERC721PresetMinterPauserAutoId.sol:ERC721PresetMinterPauserAutoId",
        "label": "_roles",
        "offset": 0,
        "slot": "0",
        "type": "t_mapping(t_bytes32,t_struct(RoleData)19_storage)"
      },
      {
        "astId": 327,
        "contract": "@openzeppelin/contracts/token/ERC721/presets/ERC721PresetMinterPauserAutoId.sol:ERC721PresetMinterPauserAutoId",
        "label": "_roleMembers",
        "offset": 0,
        "slot": "1",
        "type": "t_mapping(t_bytes32,t_struct(AddressSet)4651_storage)"
      },
      {
        "astId": 1573,
        "contract": "@openzeppelin/contracts/token/ERC721/presets/ERC721PresetMinterPauserAutoId.sol:ERC721PresetMinterPauserAutoId",
        "label": "_name",
        "offset": 0,
        "slot": "2",
        "type": "t_string_storage"
      },
      {
        "astId": 1575,
        "contract": "@openzeppelin/contracts/token/ERC721/presets/ERC721PresetMinterPauserAutoId.sol:ERC721PresetMinterPauserAutoId",
        "label": "_symbol",
        "offset": 0,
        "slot": "3",
        "type": "t_string_storage"
      },
      {
        "astId": 1579,
        "contract": "@openzeppelin/contracts/token/ERC721/presets/ERC721PresetMinterPauserAutoId.sol:ERC721PresetMinterPauserAutoId",
        "label": "_owners",
        "offset": 0,
        "slot": "4",
        "type": "t_mapping(t_uint256,t_address)"
      },
      {
        "astId": 1583,
        "contract": "@openzeppelin/contracts/token/ERC721/presets/ERC721PresetMinterPauserAutoId.sol:ERC721PresetMinterPauserAutoId",
        "label": "_balances",
        "offset": 0,
        "slot": "5",
        "type": "t_mapping(t_address,t_uint256)"
      },
      {
        "astId": 1587,
        "contract": "@openzeppelin/contracts/token/ERC721/presets/ERC721PresetMinterPauserAutoId.sol:ERC721PresetMinterPauserAutoId",
        "label": "_tokenApprovals",
        "offset": 0,
        "slot": "6",
        "type": "t_mapping(t_uint256,t_address)"
      },
      {
        "astId": 1593,
        "contract": "@openzeppelin/contracts/token/ERC721/presets/ERC721PresetMinterPauserAutoId.sol:ERC721PresetMinterPauserAutoId",
        "label": "_operatorApprovals",
        "offset": 0,
        "slot": "7",
        "type": "t_mapping(t_address,t_mapping(t_address,t_bool))"
      },
      {
        "astId": 2557,
        "contract": "@openzeppelin/contracts/token/ERC721/presets/ERC721PresetMinterPauserAutoId.sol:ERC721PresetMinterPauserAutoId",
        "label": "_ownedTokens",
        "offset": 0,
        "slot": "8",
        "type": "t_mapping(t_address,t_mapping(t_uint256,t_uint256))"
      },
      {
        "astId": 2561,
        "contract": "@openzeppelin/contracts/token/ERC721/presets/ERC721PresetMinterPauserAutoId.sol:ERC721PresetMinterPauserAutoId",
        "label": "_ownedTokensIndex",
        "offset": 0,
        "slot": "9",
        "type": "t_mapping(t_uint256,t_uint256)"
      },
      {
        "astId": 2564,
        "contract": "@openzeppelin/contracts/token/ERC721/presets/ERC721PresetMinterPauserAutoId.sol:ERC721PresetMinterPauserAutoId",
        "label": "_allTokens",
        "offset": 0,
        "slot": "10",
        "type": "t_array(t_uint256)dyn_storage"
      },
      {
        "astId": 2568,
        "contract": "@openzeppelin/contracts/token/ERC721/presets/ERC721PresetMinterPauserAutoId.sol:ERC721PresetMinterPauserAutoId",
        "label": "_allTokensIndex",
        "offset": 0,
        "slot": "11",
        "type": "t_mapping(t_uint256,t_uint256)"
      },
      {
        "astId": 549,
        "contract": "@openzeppelin/contracts/token/ERC721/presets/ERC721PresetMinterPauserAutoId.sol:ERC721PresetMinterPauserAutoId",
        "label": "_paused",
        "offset": 0,
        "slot": "12",
        "type": "t_bool"
      },
      {
        "astId": 3012,
        "contract": "@openzeppelin/contracts/token/ERC721/presets/ERC721PresetMinterPauserAutoId.sol:ERC721PresetMinterPauserAutoId",
        "label": "_tokenIdTracker",
        "offset": 0,
        "slot": "13",
        "type": "t_struct(Counter)3488_storage"
      },
      {
        "astId": 3014,
        "contract": "@openzeppelin/contracts/token/ERC721/presets/ERC721PresetMinterPauserAutoId.sol:ERC721PresetMinterPauserAutoId",
        "label": "_baseTokenURI",
        "offset": 0,
        "slot": "14",
        "type": "t_string_storage"
      }
    ],
    "types": {
      "t_address": {
        "encoding": "inplace",
        "label": "address",
        "numberOfBytes": "20"
      },
      "t_array(t_bytes32)dyn_storage": {
        "base": "t_bytes32",
        "encoding": "dynamic_array",
        "label": "bytes32[]",
        "numberOfBytes": "32"
      },
      "t_array(t_uint256)dyn_storage": {
        "base": "t_uint256",
        "encoding": "dynamic_array",
        "label": "uint256[]",
        "numberOfBytes": "32"
      },
      "t_bool": {
        "encoding": "inplace",
        "label": "bool",
        "numberOfBytes": "1"
      },
      "t_bytes32": {
        "encoding": "inplace",
        "label": "bytes32",
        "numberOfBytes": "32"
      },
      "t_mapping(t_address,t_bool)": {
        "encoding": "mapping",
        "key": "t_address",
        "label": "mapping(address => bool)",
        "numberOfBytes": "32",
        "value": "t_bool"
      },
      "t_mapping(t_address,t_mapping(t_address,t_bool))": {
        "encoding": "mapping",
        "key": "t_address",
        "label": "mapping(address => mapping(address => bool))",
        "numberOfBytes": "32",
        "value": "t_mapping(t_address,t_bool)"
      },
      "t_mapping(t_address,t_mapping(t_uint256,t_uint256))": {
        "encoding": "mapping",
        "key": "t_address",
        "label": "mapping(address => mapping(uint256 => uint256))",
        "numberOfBytes": "32",
        "value": "t_mapping(t_uint256,t_uint256)"
      },
      "t_mapping(t_address,t_uint256)": {
        "encoding": "mapping",
        "key": "t_address",
        "label": "mapping(address => uint256)",
        "numberOfBytes": "32",
        "value": "t_uint256"
      },
      "t_mapping(t_bytes32,t_struct(AddressSet)4651_storage)": {
        "encoding": "mapping",
        "key": "t_bytes32",
        "label": "mapping(bytes32 => struct EnumerableSet.AddressSet)",
        "numberOfBytes": "32",
        "value": "t_struct(AddressSet)4651_storage"
      },
      "t_mapping(t_bytes32,t_struct(RoleData)19_storage)": {
        "encoding": "mapping",
        "key": "t_bytes32",
        "label": "mapping(bytes32 => struct AccessControl.RoleData)",
        "numberOfBytes": "32",
        "value": "t_struct(RoleData)19_storage"
      },
      "t_mapping(t_bytes32,t_uint256)": {
        "encoding": "mapping",
        "key": "t_bytes32",
        "label": "mapping(bytes32 => uint256)",
        "numberOfBytes": "32",
        "value": "t_uint256"
      },
      "t_mapping(t_uint256,t_address)": {
        "encoding": "mapping",
        "key": "t_uint256",
        "label": "mapping(uint256 => address)",
        "numberOfBytes": "32",
        "value": "t_address"
      },
      "t_mapping(t_uint256,t_uint256)": {
        "encoding": "mapping",
        "key": "t_uint256",
        "label": "mapping(uint256 => uint256)",
        "numberOfBytes": "32",
        "value": "t_uint256"
      },
      "t_string_storage": {
        "encoding": "bytes",
        "label": "string",
        "numberOfBytes": "32"
      },
      "t_struct(AddressSet)4651_storage": {
        "encoding": "inplace",
        "label": "struct EnumerableSet.AddressSet",
        "members": [
          {
            "astId": 4650,
            "contract": "@openzeppelin/contracts/token/ERC721/presets/ERC721PresetMinterPauserAutoId.sol:ERC721PresetMinterPauserAutoId",
            "label": "_inner",
            "offset": 0,
            "slot": "0",
            "type": "t_struct(Set)4350_storage"
          }
        ],
        "numberOfBytes": "64"
      },
      "t_struct(Counter)3488_storage": {
        "encoding": "inplace",
        "label": "struct Counters.Counter",
        "members": [
          {
            "astId": 3487,
            "contract": "@openzeppelin/contracts/token/ERC721/presets/ERC721PresetMinterPauserAutoId.sol:ERC721PresetMinterPauserAutoId",
            "label": "_value",
            "offset": 0,
            "slot": "0",
            "type": "t_uint256"
          }
        ],
        "numberOfBytes": "32"
      },
      "t_struct(RoleData)19_storage": {
        "encoding": "inplace",
        "label": "struct AccessControl.RoleData",
        "members": [
          {
            "astId": 16,
            "contract": "@openzeppelin/contracts/token/ERC721/presets/ERC721PresetMinterPauserAutoId.sol:ERC721PresetMinterPauserAutoId",
            "label": "members",
            "offset": 0,
            "slot": "0",
            "type": "t_mapping(t_address,t_bool)"
          },
          {
            "astId": 18,
            "contract": "@openzeppelin/contracts/token/ERC721/presets/ERC721PresetMinterPauserAutoId.sol:ERC721PresetMinterPauserAutoId",
            "label": "adminRole",
            "offset": 0,
            "slot": "1",
            "type": "t_bytes32"
          }
        ],
        "numberOfBytes": "64"
      },
      "t_struct(Set)4350_storage": {
        "encoding": "inplace",
        "label": "struct EnumerableSet.Set",
        "members": [
          {
            "astId": 4345,
            "contract": "@openzeppelin/contracts/token/ERC721/presets/ERC721PresetMinterPauserAutoId.sol:ERC721PresetMinterPauserAutoId",
            "label": "_values",
            "offset": 0,
            "slot": "0",
            "type": "t_array(t_bytes32)dyn_storage"
          },
          {
            "astId": 4349,
            "contract": "@openzeppelin/contracts/token/ERC721/presets/ERC721PresetMinterPauserAutoId.sol:ERC721PresetMinterPauserAutoId",
            "label": "_indexes",
            "offset": 0,
            "slot": "1",
            "type": "t_mapping(t_bytes32,t_uint256)"
          }
        ],
        "numberOfBytes": "64"
      },
      "t_uint256": {
        "encoding": "inplace",
        "label": "uint256",
        "numberOfBytes": "32"
      }
    }
  }
}