{
  "address": "0xB7f8BC63BbcaD18155201308C8f3540b07f84F5e",
  "abi": [
    {
      "inputs": [
        {
          "internalType": "contract ERC20",
          "name": "weth_",
          "type": "address"
        }
      ],
      "stateMutability": "nonpayable",
      "type": "constructor"
    },
    {
      "anonymous": false,
      "inputs": [
        {
          "indexed": true,
          "internalType": "address",
          "name": "owner",
          "type": "address"
        },
        {
          "indexed": true,
          "internalType": "address",
          "name": "approved",
          "type": "address"
        },
        {
          "indexed": true,
          "internalType": "uint256",
          "name": "tokenId",
          "type": "uint256"
        }
      ],
      "name": "Approval",
      "type": "event"
    },
    {
      "anonymous": false,
      "inputs": [
        {
          "indexed": true,
          "internalType": "address",
          "name": "owner",
          "type": "address"
        },
        {
          "indexed": true,
          "internalType": "address",
          "name": "operator",
          "type": "address"
        },
        {
          "indexed": false,
          "internalType": "bool",
          "name": "approved",
          "type": "bool"
        }
      ],
      "name": "ApprovalForAll",
      "type": "event"
    },
    {
      "anonymous": false,
      "inputs": [
        {
          "components": [
            {
              "internalType": "uint256",
              "name": "strike",
              "type": "uint256"
            },
            {
              "internalType": "uint256",
              "name": "duration",
              "type": "uint256"
            },
            {
              "internalType": "uint256",
              "name": "premium",
              "type": "uint256"
            },
            {
              "internalType": "address",
              "name": "owner",
              "type": "address"
            },
            {
              "internalType": "uint256",
              "name": "nonce",
              "type": "uint256"
            },
            {
              "components": [
                {
                  "internalType": "contract ERC20",
                  "name": "token",
                  "type": "address"
                },
                {
                  "internalType": "uint256",
                  "name": "amount",
                  "type": "uint256"
                }
              ],
              "internalType": "struct Putty.ERC20Info[]",
              "name": "erc20Underlying",
              "type": "tuple[]"
            },
            {
              "components": [
                {
                  "internalType": "contract ERC721",
                  "name": "token",
                  "type": "address"
                },
                {
                  "internalType": "uint256",
                  "name": "tokenId",
                  "type": "uint256"
                }
              ],
              "internalType": "struct Putty.ERC721Info[]",
              "name": "erc721Underlying",
              "type": "tuple[]"
            }
          ],
          "indexed": false,
          "internalType": "struct Putty.Option",
          "name": "_option",
          "type": "tuple"
        },
        {
          "indexed": true,
          "internalType": "address",
          "name": "buyer",
          "type": "address"
        },
        {
          "indexed": false,
          "internalType": "uint256",
          "name": "tokenId",
          "type": "uint256"
        },
        {
          "indexed": false,
          "internalType": "uint256",
          "name": "shortTokenId",
          "type": "uint256"
        }
      ],
      "name": "BuyFilled",
      "type": "event"
    },
    {
      "anonymous": false,
      "inputs": [
        {
          "indexed": true,
          "internalType": "address",
          "name": "from",
          "type": "address"
        },
        {
          "indexed": true,
          "internalType": "address",
          "name": "to",
          "type": "address"
        },
        {
          "indexed": true,
          "internalType": "uint256",
          "name": "tokenId",
          "type": "uint256"
        }
      ],
      "name": "Transfer",
      "type": "event"
    },
    {
      "inputs": [
        {
          "internalType": "address",
          "name": "to",
          "type": "address"
        },
        {
          "internalType": "uint256",
          "name": "tokenId",
          "type": "uint256"
        }
      ],
      "name": "approve",
      "outputs": [],
      "stateMutability": "nonpayable",
      "type": "function"
    },
    {
      "inputs": [
        {
          "internalType": "address",
          "name": "owner",
          "type": "address"
        }
      ],
      "name": "balanceOf",
      "outputs": [
        {
          "internalType": "uint256",
          "name": "",
          "type": "uint256"
        }
      ],
      "stateMutability": "view",
      "type": "function"
    },
    {
      "inputs": [
        {
          "components": [
            {
              "internalType": "uint256",
              "name": "strike",
              "type": "uint256"
            },
            {
              "internalType": "uint256",
              "name": "duration",
              "type": "uint256"
            },
            {
              "internalType": "uint256",
              "name": "premium",
              "type": "uint256"
            },
            {
              "internalType": "address",
              "name": "owner",
              "type": "address"
            },
            {
              "internalType": "uint256",
              "name": "nonce",
              "type": "uint256"
            },
            {
              "components": [
                {
                  "internalType": "contract ERC20",
                  "name": "token",
                  "type": "address"
                },
                {
                  "internalType": "uint256",
                  "name": "amount",
                  "type": "uint256"
                }
              ],
              "internalType": "struct Putty.ERC20Info[]",
              "name": "erc20Underlying",
              "type": "tuple[]"
            },
            {
              "components": [
                {
                  "internalType": "contract ERC721",
                  "name": "token",
                  "type": "address"
                },
                {
                  "internalType": "uint256",
                  "name": "tokenId",
                  "type": "uint256"
                }
              ],
              "internalType": "struct Putty.ERC721Info[]",
              "name": "erc721Underlying",
              "type": "tuple[]"
            }
          ],
          "internalType": "struct Putty.Option",
          "name": "option",
          "type": "tuple"
        }
      ],
      "name": "cancel",
      "outputs": [],
      "stateMutability": "nonpayable",
      "type": "function"
    },
    {
      "inputs": [
        {
          "internalType": "uint256",
          "name": "",
          "type": "uint256"
        }
      ],
      "name": "cancelledOrders",
      "outputs": [
        {
          "internalType": "bool",
          "name": "",
          "type": "bool"
        }
      ],
      "stateMutability": "view",
      "type": "function"
    },
    {
      "inputs": [],
      "name": "domainSeparatorV4",
      "outputs": [
        {
          "internalType": "bytes32",
          "name": "",
          "type": "bytes32"
        }
      ],
      "stateMutability": "view",
      "type": "function"
    },
    {
      "inputs": [
        {
          "components": [
            {
              "internalType": "uint256",
              "name": "strike",
              "type": "uint256"
            },
            {
              "internalType": "uint256",
              "name": "duration",
              "type": "uint256"
            },
            {
              "internalType": "uint256",
              "name": "premium",
              "type": "uint256"
            },
            {
              "internalType": "address",
              "name": "owner",
              "type": "address"
            },
            {
              "internalType": "uint256",
              "name": "nonce",
              "type": "uint256"
            },
            {
              "components": [
                {
                  "internalType": "contract ERC20",
                  "name": "token",
                  "type": "address"
                },
                {
                  "internalType": "uint256",
                  "name": "amount",
                  "type": "uint256"
                }
              ],
              "internalType": "struct Putty.ERC20Info[]",
              "name": "erc20Underlying",
              "type": "tuple[]"
            },
            {
              "components": [
                {
                  "internalType": "contract ERC721",
                  "name": "token",
                  "type": "address"
                },
                {
                  "internalType": "uint256",
                  "name": "tokenId",
                  "type": "uint256"
                }
              ],
              "internalType": "struct Putty.ERC721Info[]",
              "name": "erc721Underlying",
              "type": "tuple[]"
            }
          ],
          "internalType": "struct Putty.Option",
          "name": "option",
          "type": "tuple"
        }
      ],
      "name": "exercise",
      "outputs": [],
      "stateMutability": "nonpayable",
      "type": "function"
    },
    {
      "inputs": [
        {
          "components": [
            {
              "internalType": "uint256",
              "name": "strike",
              "type": "uint256"
            },
            {
              "internalType": "uint256",
              "name": "duration",
              "type": "uint256"
            },
            {
              "internalType": "uint256",
              "name": "premium",
              "type": "uint256"
            },
            {
              "internalType": "address",
              "name": "owner",
              "type": "address"
            },
            {
              "internalType": "uint256",
              "name": "nonce",
              "type": "uint256"
            },
            {
              "components": [
                {
                  "internalType": "contract ERC20",
                  "name": "token",
                  "type": "address"
                },
                {
                  "internalType": "uint256",
                  "name": "amount",
                  "type": "uint256"
                }
              ],
              "internalType": "struct Putty.ERC20Info[]",
              "name": "erc20Underlying",
              "type": "tuple[]"
            },
            {
              "components": [
                {
                  "internalType": "contract ERC721",
                  "name": "token",
                  "type": "address"
                },
                {
                  "internalType": "uint256",
                  "name": "tokenId",
                  "type": "uint256"
                }
              ],
              "internalType": "struct Putty.ERC721Info[]",
              "name": "erc721Underlying",
              "type": "tuple[]"
            }
          ],
          "internalType": "struct Putty.Option",
          "name": "option",
          "type": "tuple"
        }
      ],
      "name": "expire",
      "outputs": [],
      "stateMutability": "nonpayable",
      "type": "function"
    },
    {
      "inputs": [
        {
          "components": [
            {
              "internalType": "uint256",
              "name": "strike",
              "type": "uint256"
            },
            {
              "internalType": "uint256",
              "name": "duration",
              "type": "uint256"
            },
            {
              "internalType": "uint256",
              "name": "premium",
              "type": "uint256"
            },
            {
              "internalType": "address",
              "name": "owner",
              "type": "address"
            },
            {
              "internalType": "uint256",
              "name": "nonce",
              "type": "uint256"
            },
            {
              "components": [
                {
                  "internalType": "contract ERC20",
                  "name": "token",
                  "type": "address"
                },
                {
                  "internalType": "uint256",
                  "name": "amount",
                  "type": "uint256"
                }
              ],
              "internalType": "struct Putty.ERC20Info[]",
              "name": "erc20Underlying",
              "type": "tuple[]"
            },
            {
              "components": [
                {
                  "internalType": "contract ERC721",
                  "name": "token",
                  "type": "address"
                },
                {
                  "internalType": "uint256",
                  "name": "tokenId",
                  "type": "uint256"
                }
              ],
              "internalType": "struct Putty.ERC721Info[]",
              "name": "erc721Underlying",
              "type": "tuple[]"
            }
          ],
          "internalType": "struct Putty.Option",
          "name": "option",
          "type": "tuple"
        },
        {
          "internalType": "bytes",
          "name": "signature",
          "type": "bytes"
        }
      ],
      "name": "fillBuyOrder",
      "outputs": [],
      "stateMutability": "payable",
      "type": "function"
    },
    {
      "inputs": [
        {
          "internalType": "uint256",
          "name": "tokenId",
          "type": "uint256"
        }
      ],
      "name": "getApproved",
      "outputs": [
        {
          "internalType": "address",
          "name": "",
          "type": "address"
        }
      ],
      "stateMutability": "view",
      "type": "function"
    },
    {
      "inputs": [
        {
          "internalType": "address",
          "name": "owner",
          "type": "address"
        },
        {
          "internalType": "address",
          "name": "operator",
          "type": "address"
        }
      ],
      "name": "isApprovedForAll",
      "outputs": [
        {
          "internalType": "bool",
          "name": "",
          "type": "bool"
        }
      ],
      "stateMutability": "view",
      "type": "function"
    },
    {
      "inputs": [],
      "name": "name",
      "outputs": [
        {
          "internalType": "string",
          "name": "",
          "type": "string"
        }
      ],
      "stateMutability": "view",
      "type": "function"
    },
    {
      "inputs": [
        {
          "internalType": "uint256",
          "name": "tokenId",
          "type": "uint256"
        }
      ],
      "name": "ownerOf",
      "outputs": [
        {
          "internalType": "address",
          "name": "",
          "type": "address"
        }
      ],
      "stateMutability": "view",
      "type": "function"
    },
    {
      "inputs": [
        {
          "internalType": "address",
          "name": "from",
          "type": "address"
        },
        {
          "internalType": "address",
          "name": "to",
          "type": "address"
        },
        {
          "internalType": "uint256",
          "name": "tokenId",
          "type": "uint256"
        }
      ],
      "name": "safeTransferFrom",
      "outputs": [],
      "stateMutability": "nonpayable",
      "type": "function"
    },
    {
      "inputs": [
        {
          "internalType": "address",
          "name": "from",
          "type": "address"
        },
        {
          "internalType": "address",
          "name": "to",
          "type": "address"
        },
        {
          "internalType": "uint256",
          "name": "tokenId",
          "type": "uint256"
        },
        {
          "internalType": "bytes",
          "name": "_data",
          "type": "bytes"
        }
      ],
      "name": "safeTransferFrom",
      "outputs": [],
      "stateMutability": "nonpayable",
      "type": "function"
    },
    {
      "inputs": [
        {
          "internalType": "address",
          "name": "operator",
          "type": "address"
        },
        {
          "internalType": "bool",
          "name": "approved",
          "type": "bool"
        }
      ],
      "name": "setApprovalForAll",
      "outputs": [],
      "stateMutability": "nonpayable",
      "type": "function"
    },
    {
      "inputs": [
        {
          "internalType": "bytes4",
          "name": "interfaceId",
          "type": "bytes4"
        }
      ],
      "name": "supportsInterface",
      "outputs": [
        {
          "internalType": "bool",
          "name": "",
          "type": "bool"
        }
      ],
      "stateMutability": "view",
      "type": "function"
    },
    {
      "inputs": [],
      "name": "symbol",
      "outputs": [
        {
          "internalType": "string",
          "name": "",
          "type": "string"
        }
      ],
      "stateMutability": "view",
      "type": "function"
    },
    {
      "inputs": [
        {
          "internalType": "uint256",
          "name": "",
          "type": "uint256"
        }
      ],
      "name": "tokenIdToCreationTimestamp",
      "outputs": [
        {
          "internalType": "uint256",
          "name": "",
          "type": "uint256"
        }
      ],
      "stateMutability": "view",
      "type": "function"
    },
    {
      "inputs": [
        {
          "internalType": "uint256",
          "name": "tokenId",
          "type": "uint256"
        }
      ],
      "name": "tokenURI",
      "outputs": [
        {
          "internalType": "string",
          "name": "",
          "type": "string"
        }
      ],
      "stateMutability": "view",
      "type": "function"
    },
    {
      "inputs": [
        {
          "internalType": "address",
          "name": "from",
          "type": "address"
        },
        {
          "internalType": "address",
          "name": "to",
          "type": "address"
        },
        {
          "internalType": "uint256",
          "name": "tokenId",
          "type": "uint256"
        }
      ],
      "name": "transferFrom",
      "outputs": [],
      "stateMutability": "nonpayable",
      "type": "function"
    },
    {
      "inputs": [],
      "name": "weth",
      "outputs": [
        {
          "internalType": "contract ERC20",
          "name": "",
          "type": "address"
        }
      ],
      "stateMutability": "view",
      "type": "function"
    }
  ],
  "transactionHash": "0xa6df4ddb83ed3ecf4e8ef39ad4dbf6558707c067b61a3165aee482401a7525d6",
  "args": [
    "0x5FC8d32690cc91D4c39d9d3abcBD16989F875707"
  ],
  "numDeployments": 2,
  "solcInputHash": "bf61d47f2a0e8900993b6a8a6c3bdeee",
  "bytecode": "0x6101406040523480156200001257600080fd5b50604051620054e1380380620054e183398181016040528101906200003891906200034c565b6040518060400160405280600d81526020017f5075747479204f7074696f6e73000000000000000000000000000000000000008152506040518060400160405280600481526020017f5055544f000000000000000000000000000000000000000000000000000000008152506040518060400160405280600581526020017f50757474790000000000000000000000000000000000000000000000000000008152506040518060400160405280600481526020017f76302e390000000000000000000000000000000000000000000000000000000081525060008280519060200120905060008280519060200120905060007f8b73c3c69bb8fe3d512ecc4cf759cc79239f7b179b0ffacaa9a75d522b39400f90508260e081815250508161010081815250504660a08181525050620001798184846200024960201b60201c565b608081815250503073ffffffffffffffffffffffffffffffffffffffff1660c08173ffffffffffffffffffffffffffffffffffffffff1660601b8152505080610120818152505050505050508160009080519060200190620001dd92919062000285565b508060019080519060200190620001f692919062000285565b505050600160068190555080600760006101000a81548173ffffffffffffffffffffffffffffffffffffffff021916908373ffffffffffffffffffffffffffffffffffffffff16021790555050620004e3565b6000838383463060405160200162000266959493929190620003ab565b6040516020818303038152906040528051906020012090509392505050565b828054620002939062000464565b90600052602060002090601f016020900481019282620002b7576000855562000303565b82601f10620002d257805160ff191683800117855562000303565b8280016001018555821562000303579182015b8281111562000302578251825591602001919060010190620002e5565b5b50905062000312919062000316565b5090565b5b808211156200033157600081600090555060010162000317565b5090565b6000815190506200034681620004c9565b92915050565b6000602082840312156200035f57600080fd5b60006200036f8482850162000335565b91505092915050565b620003838162000408565b82525050565b62000394816200041c565b82525050565b620003a5816200045a565b82525050565b600060a082019050620003c2600083018862000389565b620003d1602083018762000389565b620003e0604083018662000389565b620003ef60608301856200039a565b620003fe608083018462000378565b9695505050505050565b600062000415826200043a565b9050919050565b6000819050919050565b6000620004338262000408565b9050919050565b600073ffffffffffffffffffffffffffffffffffffffff82169050919050565b6000819050919050565b600060028204905060018216806200047d57607f821691505b602082108114156200049457620004936200049a565b5b50919050565b7f4e487b7100000000000000000000000000000000000000000000000000000000600052602260045260246000fd5b620004d48162000426565b8114620004e057600080fd5b50565b60805160a05160c05160601c60e0516101005161012051614fab620005366000396000611dc901526000611e0b01526000611dea01526000611d1f01526000611d7501526000611d9e0152614fab6000f3fe60806040526004361061012a5760003560e01c806370a08231116100ab578063b88d4fde1161006f578063b88d4fde146103e1578063bc15e6011461040a578063c87b56dd14610447578063e985e9c514610484578063ee6f10f1146104c1578063eff9cdcc146104fe5761012a565b806370a082311461030957806378e890ba14610346578063835051bb1461037157806395d89b411461038d578063a22cb465146103b85761012a565b80633fc8cef3116100f25780633fc8cef31461022657806342842e0e1461025157806352c3f9531461027a5780636352211e146102a3578063679a9472146102e05761012a565b806301ffc9a71461012f57806306fdde031461016c578063081812fc14610197578063095ea7b3146101d457806323b872dd146101fd575b600080fd5b34801561013b57600080fd5b50610156600480360381019061015191906130fc565b610527565b6040516101639190613be1565b60405180910390f35b34801561017857600080fd5b50610181610609565b60405161018e9190613dd5565b60405180910390f35b3480156101a357600080fd5b506101be60048036038101906101b991906131fb565b61069b565b6040516101cb9190613aff565b60405180910390f35b3480156101e057600080fd5b506101fb60048036038101906101f69190613097565b610720565b005b34801561020957600080fd5b50610224600480360381019061021f9190612f91565b610838565b005b34801561023257600080fd5b5061023b610898565b6040516102489190613dba565b60405180910390f35b34801561025d57600080fd5b5061027860048036038101906102739190612f91565b6108be565b005b34801561028657600080fd5b506102a1600480360381019061029c919061314e565b6108de565b005b3480156102af57600080fd5b506102ca60048036038101906102c591906131fb565b610997565b6040516102d79190613aff565b60405180910390f35b3480156102ec57600080fd5b506103076004803603810190610302919061314e565b610a49565b005b34801561031557600080fd5b50610330600480360381019061032b9190612f2c565b610c49565b60405161033d9190614215565b60405180910390f35b34801561035257600080fd5b5061035b610d01565b6040516103689190613bfc565b60405180910390f35b61038b6004803603810190610386919061318f565b610d10565b005b34801561039957600080fd5b506103a2611001565b6040516103af9190613dd5565b60405180910390f35b3480156103c457600080fd5b506103df60048036038101906103da919061305b565b611093565b005b3480156103ed57600080fd5b5061040860048036038101906104039190612fe0565b6110a9565b005b34801561041657600080fd5b50610431600480360381019061042c91906131fb565b61110b565b60405161043e9190613be1565b60405180910390f35b34801561045357600080fd5b5061046e600480360381019061046991906131fb565b61112b565b60405161047b9190613dd5565b60405180910390f35b34801561049057600080fd5b506104ab60048036038101906104a69190612f55565b6111d2565b6040516104b89190613be1565b60405180910390f35b3480156104cd57600080fd5b506104e860048036038101906104e391906131fb565b611266565b6040516104f59190614215565b60405180910390f35b34801561050a57600080fd5b506105256004803603810190610520919061314e565b61127e565b005b60007f80ac58cd000000000000000000000000000000000000000000000000000000007bffffffffffffffffffffffffffffffffffffffffffffffffffffffff1916827bffffffffffffffffffffffffffffffffffffffffffffffffffffffff191614806105f257507f5b5e139f000000000000000000000000000000000000000000000000000000007bffffffffffffffffffffffffffffffffffffffffffffffffffffffff1916827bffffffffffffffffffffffffffffffffffffffffffffffffffffffff1916145b806106025750610601826116f3565b5b9050919050565b606060008054610618906145b4565b80601f0160208091040260200160405190810160405280929190818152602001828054610644906145b4565b80156106915780601f1061066657610100808354040283529160200191610691565b820191906000526020600020905b81548152906001019060200180831161067457829003601f168201915b5050505050905090565b60006106a68261175d565b6106e5576040517f08c379a00000000000000000000000000000000000000000000000000000000081526004016106dc90614017565b60405180910390fd5b6004600083815260200190815260200160002060009054906101000a900473ffffffffffffffffffffffffffffffffffffffff169050919050565b600061072b82610997565b90508073ffffffffffffffffffffffffffffffffffffffff168373ffffffffffffffffffffffffffffffffffffffff16141561079c576040517f08c379a000000000000000000000000000000000000000000000000000000000815260040161079390614097565b60405180910390fd5b8073ffffffffffffffffffffffffffffffffffffffff166107bb6117c9565b73ffffffffffffffffffffffffffffffffffffffff1614806107ea57506107e9816107e46117c9565b6111d2565b5b610829576040517f08c379a000000000000000000000000000000000000000000000000000000000815260040161082090613f77565b60405180910390fd5b61083383836117d1565b505050565b6108496108436117c9565b8261188a565b610888576040517f08c379a000000000000000000000000000000000000000000000000000000000815260040161087f906140f7565b60405180910390fd5b610893838383611968565b505050565b600760009054906101000a900473ffffffffffffffffffffffffffffffffffffffff1681565b6108d9838383604051806020016040528060008152506110a9565b505050565b806060015173ffffffffffffffffffffffffffffffffffffffff163373ffffffffffffffffffffffffffffffffffffffff1614610950576040517f08c379a000000000000000000000000000000000000000000000000000000000815260040161094790613f17565b60405180910390fd5b600061095b82611bc4565b50905060008160001c905060016009600083815260200190815260200160002060006101000a81548160ff021916908315150217905550505050565b6000806002600084815260200190815260200160002060009054906101000a900473ffffffffffffffffffffffffffffffffffffffff169050600073ffffffffffffffffffffffffffffffffffffffff168173ffffffffffffffffffffffffffffffffffffffff161415610a40576040517f08c379a0000000000000000000000000000000000000000000000000000000008152600401610a3790613fb7565b60405180910390fd5b80915050919050565b600080610a5583611bc4565b915091506000808360001c8360001c915091506000610a7382610997565b9050610a7e8361175d565b610abd576040517f08c379a0000000000000000000000000000000000000000000000000000000008152600401610ab490614177565b60405180910390fd5b85602001516008600085815260200190815260200160002054610ae091906143c0565b4211610b21576040517f08c379a0000000000000000000000000000000000000000000000000000000008152600401610b1890614117565b60405180910390fd5b6000600860008581526020019081526020016000205411610b77576040517f08c379a0000000000000000000000000000000000000000000000000000000008152600401610b6e90613e97565b60405180910390fd5b6000600860008581526020019081526020016000208190555060008173ffffffffffffffffffffffffffffffffffffffff168760000151604051610bba90613aea565b60006040518083038185875af1925050503d8060008114610bf7576040519150601f19603f3d011682016040523d82523d6000602084013e610bfc565b606091505b5050905080610c40576040517f08c379a0000000000000000000000000000000000000000000000000000000008152600401610c3790613e17565b60405180910390fd5b50505050505050565b60008073ffffffffffffffffffffffffffffffffffffffff168273ffffffffffffffffffffffffffffffffffffffff161415610cba576040517f08c379a0000000000000000000000000000000000000000000000000000000008152600401610cb190613f97565b60405180910390fd5b600360008373ffffffffffffffffffffffffffffffffffffffff1673ffffffffffffffffffffffffffffffffffffffff168152602001908152602001600020549050919050565b6000610d0b611d1b565b905090565b60026006541415610d56576040517f08c379a0000000000000000000000000000000000000000000000000000000008152600401610d4d90614157565b60405180910390fd5b6002600681905550600080610d6a84611bc4565b915091506000610d7983611e35565b90506000610d878286611e65565b9050856060015173ffffffffffffffffffffffffffffffffffffffff168173ffffffffffffffffffffffffffffffffffffffff1614610dfb576040517f08c379a0000000000000000000000000000000000000000000000000000000008152600401610df290614077565b60405180910390fd5b60008460001c9050610e11876060015182611e8c565b4260086000838152602001908152602001600020819055506009600082815260200190815260200160002060009054906101000a900460ff1615610e8a576040517f08c379a0000000000000000000000000000000000000000000000000000000008152600401610e81906140d7565b60405180910390fd5b60008460001c9050610e9c3382611e8c565b600760009054906101000a900473ffffffffffffffffffffffffffffffffffffffff1673ffffffffffffffffffffffffffffffffffffffff166323b872dd8960600151338b604001516040518463ffffffff1660e01b8152600401610f0393929190613b1a565b602060405180830381600087803b158015610f1d57600080fd5b505af1158015610f31573d6000803e3d6000fd5b505050506040513d601f19601f82011682018060405250810190610f5591906130d3565b508760000151341015610f9d576040517f08c379a0000000000000000000000000000000000000000000000000000000008152600401610f9490613f57565b60405180910390fd5b3373ffffffffffffffffffffffffffffffffffffffff167fe55fafe11811198d0f6025af999b664fc33d08499ed34bfb1be96a6cc271d5a5898484604051610fe7939291906141d7565b60405180910390a250505050505060016006819055505050565b606060018054611010906145b4565b80601f016020809104026020016040519081016040528092919081815260200182805461103c906145b4565b80156110895780601f1061105e57610100808354040283529160200191611089565b820191906000526020600020905b81548152906001019060200180831161106c57829003601f168201915b5050505050905090565b6110a561109e6117c9565b8383611eaa565b5050565b6110ba6110b46117c9565b8361188a565b6110f9576040517f08c379a00000000000000000000000000000000000000000000000000000000081526004016110f0906140f7565b60405180910390fd5b61110584848484612017565b50505050565b60096020528060005260406000206000915054906101000a900460ff1681565b60606111368261175d565b611175576040517f08c379a000000000000000000000000000000000000000000000000000000000815260040161116c90614057565b60405180910390fd5b600061117f612073565b9050600081511161119f57604051806020016040528060008152506111ca565b806111a98461208a565b6040516020016111ba929190613aa0565b6040516020818303038152906040525b915050919050565b6000600560008473ffffffffffffffffffffffffffffffffffffffff1673ffffffffffffffffffffffffffffffffffffffff16815260200190815260200160002060008373ffffffffffffffffffffffffffffffffffffffff1673ffffffffffffffffffffffffffffffffffffffff16815260200190815260200160002060009054906101000a900460ff16905092915050565b60086020528060005260406000206000915090505481565b600260065414156112c4576040517f08c379a00000000000000000000000000000000000000000000000000000000081526004016112bb90614157565b60405180910390fd5b60026006819055506000806112d883611bc4565b915091506000808360001c8360001c915091506000806112f784610997565b61130084610997565b915091503373ffffffffffffffffffffffffffffffffffffffff168273ffffffffffffffffffffffffffffffffffffffff1614611372576040517f08c379a0000000000000000000000000000000000000000000000000000000008152600401611369906140b7565b60405180910390fd5b60006008600086815260200190815260200160002054116113c8576040517f08c379a00000000000000000000000000000000000000000000000000000000081526004016113bf90614197565b60405180910390fd5b866020015160086000868152602001908152602001600020546113eb91906143c0565b42111561142d576040517f08c379a000000000000000000000000000000000000000000000000000000000815260040161142490614137565b60405180910390fd5b6000600860008681526020019081526020016000208190555060005b8760a001515181101561154b5760008860a001518281518110611495577f4e487b7100000000000000000000000000000000000000000000000000000000600052603260045260246000fd5b60200260200101519050806000015173ffffffffffffffffffffffffffffffffffffffff166323b872dd858584602001516040518463ffffffff1660e01b81526004016114e493929190613b1a565b602060405180830381600087803b1580156114fe57600080fd5b505af1158015611512573d6000803e3d6000fd5b505050506040513d601f19601f8201168201806040525081019061153691906130d3565b5050808061154390614617565b915050611449565b5060005b8760c00151518110156116305760008860c00151828151811061159b577f4e487b7100000000000000000000000000000000000000000000000000000000600052603260045260246000fd5b60200260200101519050806000015173ffffffffffffffffffffffffffffffffffffffff166323b872dd858584602001516040518463ffffffff1660e01b81526004016115ea93929190613b1a565b600060405180830381600087803b15801561160457600080fd5b505af1158015611618573d6000803e3d6000fd5b5050505050808061162890614617565b91505061154f565b5060008273ffffffffffffffffffffffffffffffffffffffff16886000015160405161165b90613aea565b60006040518083038185875af1925050503d8060008114611698576040519150601f19603f3d011682016040523d82523d6000602084013e61169d565b606091505b50509050806116e1576040517f08c379a00000000000000000000000000000000000000000000000000000000081526004016116d8906141b7565b60405180910390fd5b50505050505050600160068190555050565b60007f01ffc9a7000000000000000000000000000000000000000000000000000000007bffffffffffffffffffffffffffffffffffffffffffffffffffffffff1916827bffffffffffffffffffffffffffffffffffffffffffffffffffffffff1916149050919050565b60008073ffffffffffffffffffffffffffffffffffffffff166002600084815260200190815260200160002060009054906101000a900473ffffffffffffffffffffffffffffffffffffffff1673ffffffffffffffffffffffffffffffffffffffff1614159050919050565b600033905090565b816004600083815260200190815260200160002060006101000a81548173ffffffffffffffffffffffffffffffffffffffff021916908373ffffffffffffffffffffffffffffffffffffffff160217905550808273ffffffffffffffffffffffffffffffffffffffff1661184483610997565b73ffffffffffffffffffffffffffffffffffffffff167f8c5be1e5ebec7d5bd14f71427d1e84f3dd0314c0f7b2291e5b200ac8c7c3b92560405160405180910390a45050565b60006118958261175d565b6118d4576040517f08c379a00000000000000000000000000000000000000000000000000000000081526004016118cb90613f37565b60405180910390fd5b60006118df83610997565b90508073ffffffffffffffffffffffffffffffffffffffff168473ffffffffffffffffffffffffffffffffffffffff16148061194e57508373ffffffffffffffffffffffffffffffffffffffff166119368461069b565b73ffffffffffffffffffffffffffffffffffffffff16145b8061195f575061195e81856111d2565b5b91505092915050565b8273ffffffffffffffffffffffffffffffffffffffff1661198882610997565b73ffffffffffffffffffffffffffffffffffffffff16146119de576040517f08c379a00000000000000000000000000000000000000000000000000000000081526004016119d590614037565b60405180910390fd5b600073ffffffffffffffffffffffffffffffffffffffff168273ffffffffffffffffffffffffffffffffffffffff161415611a4e576040517f08c379a0000000000000000000000000000000000000000000000000000000008152600401611a4590613eb7565b60405180910390fd5b611a59838383612237565b611a646000826117d1565b6001600360008573ffffffffffffffffffffffffffffffffffffffff1673ffffffffffffffffffffffffffffffffffffffff1681526020019081526020016000206000828254611ab49190614447565b925050819055506001600360008473ffffffffffffffffffffffffffffffffffffffff1673ffffffffffffffffffffffffffffffffffffffff1681526020019081526020016000206000828254611b0b91906143c0565b92505081905550816002600083815260200190815260200160002060006101000a81548173ffffffffffffffffffffffffffffffffffffffff021916908373ffffffffffffffffffffffffffffffffffffffff160217905550808273ffffffffffffffffffffffffffffffffffffffff168473ffffffffffffffffffffffffffffffffffffffff167fddf252ad1be2c89b69c2b068fc378daa952ba7f163c4a11628f55a4df523b3ef60405160405180910390a4505050565b600080611bcf611d1b565b836000015184602001518560400151866060015187608001518860a00151604051602001611bfd9190613b9d565b604051602081830303815290604052805190602001208960c00151604051602001611c289190613bbf565b60405160208183030381529060405280519060200120604051602001611c55989796959493929190613c6a565b604051602081830303815290604052805190602001209150611c75611d1b565b836000015184602001518560400151866060015187608001518860a00151604051602001611ca39190613b9d565b604051602081830303815290604052805190602001208960c00151604051602001611cce9190613bbf565b604051602081830303815290604052805190602001206001604051602001611cfe99989796959493929190613ce8565b604051602081830303815290604052805190602001209050915091565b60007f000000000000000000000000000000000000000000000000000000000000000073ffffffffffffffffffffffffffffffffffffffff163073ffffffffffffffffffffffffffffffffffffffff16148015611d9757507f000000000000000000000000000000000000000000000000000000000000000046145b15611dc4577f00000000000000000000000000000000000000000000000000000000000000009050611e32565b611e2f7f00000000000000000000000000000000000000000000000000000000000000007f00000000000000000000000000000000000000000000000000000000000000007f000000000000000000000000000000000000000000000000000000000000000061223c565b90505b90565b600081604051602001611e489190613ac4565b604051602081830303815290604052805190602001209050919050565b6000806000611e748585612276565b91509150611e81816122f9565b819250505092915050565b611ea682826040518060200160405280600081525061264a565b5050565b8173ffffffffffffffffffffffffffffffffffffffff168373ffffffffffffffffffffffffffffffffffffffff161415611f19576040517f08c379a0000000000000000000000000000000000000000000000000000000008152600401611f1090613ed7565b60405180910390fd5b80600560008573ffffffffffffffffffffffffffffffffffffffff1673ffffffffffffffffffffffffffffffffffffffff16815260200190815260200160002060008473ffffffffffffffffffffffffffffffffffffffff1673ffffffffffffffffffffffffffffffffffffffff16815260200190815260200160002060006101000a81548160ff0219169083151502179055508173ffffffffffffffffffffffffffffffffffffffff168373ffffffffffffffffffffffffffffffffffffffff167f17307eab39ab6107e8899845ad3d59bd9653f200f220920489ca2b5937696c318360405161200a9190613be1565b60405180910390a3505050565b612022848484611968565b61202e848484846126a5565b61206d576040517f08c379a000000000000000000000000000000000000000000000000000000000815260040161206490613e57565b60405180910390fd5b50505050565b606060405180602001604052806000815250905090565b606060008214156120d2576040518060400160405280600181526020017f30000000000000000000000000000000000000000000000000000000000000008152509050612232565b600082905060005b600082146121045780806120ed90614617565b915050600a826120fd9190614416565b91506120da565b60008167ffffffffffffffff811115612146577f4e487b7100000000000000000000000000000000000000000000000000000000600052604160045260246000fd5b6040519080825280601f01601f1916602001820160405280156121785781602001600182028036833780820191505090505b5090505b6000851461222b576001826121919190614447565b9150600a856121a0919061466a565b60306121ac91906143c0565b60f81b8183815181106121e8577f4e487b7100000000000000000000000000000000000000000000000000000000600052603260045260246000fd5b60200101907effffffffffffffffffffffffffffffffffffffffffffffffffffffffffffff1916908160001a905350600a856122249190614416565b945061217c565b8093505050505b919050565b505050565b60008383834630604051602001612257959493929190613c17565b6040516020818303038152906040528051906020012090509392505050565b6000806041835114156122b85760008060006020860151925060408601519150606086015160001a90506122ac8782858561283c565b945094505050506122f2565b6040835114156122e95760008060208501519150604085015190506122de868383612949565b9350935050506122f2565b60006002915091505b9250929050565b60006004811115612333577f4e487b7100000000000000000000000000000000000000000000000000000000600052602160045260246000fd5b81600481111561236c577f4e487b7100000000000000000000000000000000000000000000000000000000600052602160045260246000fd5b141561237757612647565b600160048111156123b1577f4e487b7100000000000000000000000000000000000000000000000000000000600052602160045260246000fd5b8160048111156123ea577f4e487b7100000000000000000000000000000000000000000000000000000000600052602160045260246000fd5b141561242b576040517f08c379a000000000000000000000000000000000000000000000000000000000815260040161242290613df7565b60405180910390fd5b60026004811115612465577f4e487b7100000000000000000000000000000000000000000000000000000000600052602160045260246000fd5b81600481111561249e577f4e487b7100000000000000000000000000000000000000000000000000000000600052602160045260246000fd5b14156124df576040517f08c379a00000000000000000000000000000000000000000000000000000000081526004016124d690613e37565b60405180910390fd5b60036004811115612519577f4e487b7100000000000000000000000000000000000000000000000000000000600052602160045260246000fd5b816004811115612552577f4e487b7100000000000000000000000000000000000000000000000000000000600052602160045260246000fd5b1415612593576040517f08c379a000000000000000000000000000000000000000000000000000000000815260040161258a90613ef7565b60405180910390fd5b6004808111156125cc577f4e487b7100000000000000000000000000000000000000000000000000000000600052602160045260246000fd5b816004811115612605577f4e487b7100000000000000000000000000000000000000000000000000000000600052602160045260246000fd5b1415612646576040517f08c379a000000000000000000000000000000000000000000000000000000000815260040161263d90613fd7565b60405180910390fd5b5b50565b6126548383612997565b61266160008484846126a5565b6126a0576040517f08c379a000000000000000000000000000000000000000000000000000000000815260040161269790613e57565b60405180910390fd5b505050565b60006126c68473ffffffffffffffffffffffffffffffffffffffff16612b65565b1561282f578373ffffffffffffffffffffffffffffffffffffffff1663150b7a026126ef6117c9565b8786866040518563ffffffff1660e01b81526004016127119493929190613b51565b602060405180830381600087803b15801561272b57600080fd5b505af192505050801561275c57506040513d601f19601f820116820180604052508101906127599190613125565b60015b6127df573d806000811461278c576040519150601f19603f3d011682016040523d82523d6000602084013e612791565b606091505b506000815114156127d7576040517f08c379a00000000000000000000000000000000000000000000000000000000081526004016127ce90613e57565b60405180910390fd5b805181602001fd5b63150b7a0260e01b7bffffffffffffffffffffffffffffffffffffffffffffffffffffffff1916817bffffffffffffffffffffffffffffffffffffffffffffffffffffffff191614915050612834565b600190505b949350505050565b6000807f7fffffffffffffffffffffffffffffff5d576e7357a4501ddfe92f46681b20a08360001c1115612877576000600391509150612940565b601b8560ff161415801561288f5750601c8560ff1614155b156128a1576000600491509150612940565b6000600187878787604051600081526020016040526040516128c69493929190613d75565b6020604051602081039080840390855afa1580156128e8573d6000803e3d6000fd5b505050602060405103519050600073ffffffffffffffffffffffffffffffffffffffff168173ffffffffffffffffffffffffffffffffffffffff16141561293757600060019250925050612940565b80600092509250505b94509492505050565b6000806000807f7fffffffffffffffffffffffffffffffffffffffffffffffffffffffffffffff85169150601b8560ff1c0190506129898782888561283c565b935093505050935093915050565b600073ffffffffffffffffffffffffffffffffffffffff168273ffffffffffffffffffffffffffffffffffffffff161415612a07576040517f08c379a00000000000000000000000000000000000000000000000000000000081526004016129fe90613ff7565b60405180910390fd5b612a108161175d565b15612a50576040517f08c379a0000000000000000000000000000000000000000000000000000000008152600401612a4790613e77565b60405180910390fd5b612a5c60008383612237565b6001600360008473ffffffffffffffffffffffffffffffffffffffff1673ffffffffffffffffffffffffffffffffffffffff1681526020019081526020016000206000828254612aac91906143c0565b92505081905550816002600083815260200190815260200160002060006101000a81548173ffffffffffffffffffffffffffffffffffffffff021916908373ffffffffffffffffffffffffffffffffffffffff160217905550808273ffffffffffffffffffffffffffffffffffffffff16600073ffffffffffffffffffffffffffffffffffffffff167fddf252ad1be2c89b69c2b068fc378daa952ba7f163c4a11628f55a4df523b3ef60405160405180910390a45050565b600080823b905060008111915050919050565b6000612b8b612b8684614255565b614230565b90508083825260208201905082856040860282011115612baa57600080fd5b60005b85811015612bda5781612bc08882612d9f565b845260208401935060408301925050600181019050612bad565b5050509392505050565b6000612bf7612bf284614281565b614230565b90508083825260208201905082856040860282011115612c1657600080fd5b60005b85811015612c465781612c2c8882612deb565b845260208401935060408301925050600181019050612c19565b5050509392505050565b6000612c63612c5e846142ad565b614230565b905082815260208101848484011115612c7b57600080fd5b612c86848285614572565b509392505050565b600081359050612c9d81614eeb565b92915050565b600082601f830112612cb457600080fd5b8135612cc4848260208601612b78565b91505092915050565b600082601f830112612cde57600080fd5b8135612cee848260208601612be4565b91505092915050565b600081359050612d0681614f02565b92915050565b600081519050612d1b81614f02565b92915050565b600081359050612d3081614f19565b92915050565b600081519050612d4581614f19565b92915050565b600082601f830112612d5c57600080fd5b8135612d6c848260208601612c50565b91505092915050565b600081359050612d8481614f30565b92915050565b600081359050612d9981614f47565b92915050565b600060408284031215612db157600080fd5b612dbb6040614230565b90506000612dcb84828501612d75565b6000830152506020612ddf84828501612f17565b60208301525092915050565b600060408284031215612dfd57600080fd5b612e076040614230565b90506000612e1784828501612d8a565b6000830152506020612e2b84828501612f17565b60208301525092915050565b600060e08284031215612e4957600080fd5b612e5360e0614230565b90506000612e6384828501612f17565b6000830152506020612e7784828501612f17565b6020830152506040612e8b84828501612f17565b6040830152506060612e9f84828501612c8e565b6060830152506080612eb384828501612f17565b60808301525060a082013567ffffffffffffffff811115612ed357600080fd5b612edf84828501612ca3565b60a08301525060c082013567ffffffffffffffff811115612eff57600080fd5b612f0b84828501612ccd565b60c08301525092915050565b600081359050612f2681614f5e565b92915050565b600060208284031215612f3e57600080fd5b6000612f4c84828501612c8e565b91505092915050565b60008060408385031215612f6857600080fd5b6000612f7685828601612c8e565b9250506020612f8785828601612c8e565b9150509250929050565b600080600060608486031215612fa657600080fd5b6000612fb486828701612c8e565b9350506020612fc586828701612c8e565b9250506040612fd686828701612f17565b9150509250925092565b60008060008060808587031215612ff657600080fd5b600061300487828801612c8e565b945050602061301587828801612c8e565b935050604061302687828801612f17565b925050606085013567ffffffffffffffff81111561304357600080fd5b61304f87828801612d4b565b91505092959194509250565b6000806040838503121561306e57600080fd5b600061307c85828601612c8e565b925050602061308d85828601612cf7565b9150509250929050565b600080604083850312156130aa57600080fd5b60006130b885828601612c8e565b92505060206130c985828601612f17565b9150509250929050565b6000602082840312156130e557600080fd5b60006130f384828501612d0c565b91505092915050565b60006020828403121561310e57600080fd5b600061311c84828501612d21565b91505092915050565b60006020828403121561313757600080fd5b600061314584828501612d36565b91505092915050565b60006020828403121561316057600080fd5b600082013567ffffffffffffffff81111561317a57600080fd5b61318684828501612e37565b91505092915050565b600080604083850312156131a257600080fd5b600083013567ffffffffffffffff8111156131bc57600080fd5b6131c885828601612e37565b925050602083013567ffffffffffffffff8111156131e557600080fd5b6131f185828601612d4b565b9150509250929050565b60006020828403121561320d57600080fd5b600061321b84828501612f17565b91505092915050565b60006132308383613972565b60408301905092915050565b600061324883836139a1565b60408301905092915050565b61325d8161447b565b82525050565b61326c8161447b565b82525050565b600061327d826142fe565b6132878185614344565b9350613292836142de565b8060005b838110156132c35781516132aa8882613224565b97506132b58361432a565b925050600181019050613296565b5085935050505092915050565b60006132db826142fe565b6132e58185614355565b93506132f0836142de565b8060005b838110156133215781516133088882613224565b97506133138361432a565b9250506001810190506132f4565b5085935050505092915050565b600061333982614309565b6133438185614366565b935061334e836142ee565b8060005b8381101561337f578151613366888261323c565b975061337183614337565b925050600181019050613352565b5085935050505092915050565b600061339782614309565b6133a18185614377565b93506133ac836142ee565b8060005b838110156133dd5781516133c4888261323c565b97506133cf83614337565b9250506001810190506133b0565b5085935050505092915050565b6133f38161448d565b82525050565b61340281614499565b82525050565b61341961341482614499565b614660565b82525050565b600061342a82614314565b6134348185614388565b9350613444818560208601614581565b61344d81614757565b840191505092915050565b6134618161452a565b82525050565b6134708161452a565b82525050565b61347f8161454e565b82525050565b60006134908261431f565b61349a81856143a4565b93506134aa818560208601614581565b6134b381614757565b840191505092915050565b60006134c98261431f565b6134d381856143b5565b93506134e3818560208601614581565b80840191505092915050565b60006134fc6018836143a4565b915061350782614768565b602082019050919050565b600061351f601d836143a4565b915061352a82614791565b602082019050919050565b6000613542601f836143a4565b915061354d826147ba565b602082019050919050565b6000613565601c836143b5565b9150613570826147e3565b601c82019050919050565b60006135886032836143a4565b91506135938261480c565b604082019050919050565b60006135ab601c836143a4565b91506135b68261485b565b602082019050919050565b60006135ce602c836143a4565b91506135d982614884565b604082019050919050565b60006135f16024836143a4565b91506135fc826148d3565b604082019050919050565b60006136146019836143a4565b915061361f82614922565b602082019050919050565b60006136376022836143a4565b91506136428261494b565b604082019050919050565b600061365a6015836143a4565b91506136658261499a565b602082019050919050565b600061367d602c836143a4565b9150613688826149c3565b604082019050919050565b60006136a0600e836143a4565b91506136ab82614a12565b602082019050919050565b60006136c36038836143a4565b91506136ce82614a3b565b604082019050919050565b60006136e6602a836143a4565b91506136f182614a8a565b604082019050919050565b60006137096029836143a4565b915061371482614ad9565b604082019050919050565b600061372c6022836143a4565b915061373782614b28565b604082019050919050565b600061374f6020836143a4565b915061375a82614b77565b602082019050919050565b6000613772602c836143a4565b915061377d82614ba0565b604082019050919050565b60006137956029836143a4565b91506137a082614bef565b604082019050919050565b60006137b8602f836143a4565b91506137c382614c3e565b604082019050919050565b60006137db6017836143a4565b91506137e682614c8d565b602082019050919050565b60006137fe6021836143a4565b915061380982614cb6565b604082019050919050565b60006138216023836143a4565b915061382c82614d05565b604082019050919050565b60006138446018836143a4565b915061384f82614d54565b602082019050919050565b6000613867600083614399565b915061387282614d7d565b600082019050919050565b600061388a6031836143a4565b915061389582614d80565b604082019050919050565b60006138ad6016836143a4565b91506138b882614dcf565b602082019050919050565b60006138d0600e836143a4565b91506138db82614df8565b602082019050919050565b60006138f3601f836143a4565b91506138fe82614e21565b602082019050919050565b60006139166015836143a4565b915061392182614e4a565b602082019050919050565b60006139396021836143a4565b915061394482614e73565b604082019050919050565b600061395c601c836143a4565b915061396782614ec2565b602082019050919050565b6040820160008201516139886000850182613458565b50602082015161399b6020850182613a73565b50505050565b6040820160008201516139b76000850182613476565b5060208201516139ca6020850182613a73565b50505050565b600060e0830160008301516139e86000860182613a73565b5060208301516139fb6020860182613a73565b506040830151613a0e6040860182613a73565b506060830151613a216060860182613254565b506080830151613a346080860182613a73565b5060a083015184820360a0860152613a4c8282613272565b91505060c083015184820360c0860152613a66828261332e565b9150508091505092915050565b613a7c81614513565b82525050565b613a8b81614513565b82525050565b613a9a8161451d565b82525050565b6000613aac82856134be565b9150613ab882846134be565b91508190509392505050565b6000613acf82613558565b9150613adb8284613408565b60208201915081905092915050565b6000613af58261385a565b9150819050919050565b6000602082019050613b146000830184613263565b92915050565b6000606082019050613b2f6000830186613263565b613b3c6020830185613263565b613b496040830184613a82565b949350505050565b6000608082019050613b666000830187613263565b613b736020830186613263565b613b806040830185613a82565b8181036060830152613b92818461341f565b905095945050505050565b60006020820190508181036000830152613bb781846132d0565b905092915050565b60006020820190508181036000830152613bd9818461338c565b905092915050565b6000602082019050613bf660008301846133ea565b92915050565b6000602082019050613c1160008301846133f9565b92915050565b600060a082019050613c2c60008301886133f9565b613c3960208301876133f9565b613c4660408301866133f9565b613c536060830185613a82565b613c606080830184613263565b9695505050505050565b600061010082019050613c80600083018b6133f9565b613c8d602083018a613a82565b613c9a6040830189613a82565b613ca76060830188613a82565b613cb46080830187613263565b613cc160a0830186613a82565b613cce60c08301856133f9565b613cdb60e08301846133f9565b9998505050505050505050565b600061012082019050613cfe600083018c6133f9565b613d0b602083018b613a82565b613d18604083018a613a82565b613d256060830189613a82565b613d326080830188613263565b613d3f60a0830187613a82565b613d4c60c08301866133f9565b613d5960e08301856133f9565b613d676101008301846133ea565b9a9950505050505050505050565b6000608082019050613d8a60008301876133f9565b613d976020830186613a91565b613da460408301856133f9565b613db160608301846133f9565b95945050505050565b6000602082019050613dcf6000830184613467565b92915050565b60006020820190508181036000830152613def8184613485565b905092915050565b60006020820190508181036000830152613e10816134ef565b9050919050565b60006020820190508181036000830152613e3081613512565b9050919050565b60006020820190508181036000830152613e5081613535565b9050919050565b60006020820190508181036000830152613e708161357b565b9050919050565b60006020820190508181036000830152613e908161359e565b9050919050565b60006020820190508181036000830152613eb0816135c1565b9050919050565b60006020820190508181036000830152613ed0816135e4565b9050919050565b60006020820190508181036000830152613ef081613607565b9050919050565b60006020820190508181036000830152613f108161362a565b9050919050565b60006020820190508181036000830152613f308161364d565b9050919050565b60006020820190508181036000830152613f5081613670565b9050919050565b60006020820190508181036000830152613f7081613693565b9050919050565b60006020820190508181036000830152613f90816136b6565b9050919050565b60006020820190508181036000830152613fb0816136d9565b9050919050565b60006020820190508181036000830152613fd0816136fc565b9050919050565b60006020820190508181036000830152613ff08161371f565b9050919050565b6000602082019050818103600083015261401081613742565b9050919050565b6000602082019050818103600083015261403081613765565b9050919050565b6000602082019050818103600083015261405081613788565b9050919050565b60006020820190508181036000830152614070816137ab565b9050919050565b60006020820190508181036000830152614090816137ce565b9050919050565b600060208201905081810360008301526140b0816137f1565b9050919050565b600060208201905081810360008301526140d081613814565b9050919050565b600060208201905081810360008301526140f081613837565b9050919050565b600060208201905081810360008301526141108161387d565b9050919050565b60006020820190508181036000830152614130816138a0565b9050919050565b60006020820190508181036000830152614150816138c3565b9050919050565b60006020820190508181036000830152614170816138e6565b9050919050565b6000602082019050818103600083015261419081613909565b9050919050565b600060208201905081810360008301526141b08161392c565b9050919050565b600060208201905081810360008301526141d08161394f565b9050919050565b600060608201905081810360008301526141f181866139d0565b90506142006020830185613a82565b61420d6040830184613a82565b949350505050565b600060208201905061422a6000830184613a82565b92915050565b600061423a61424b565b905061424682826145e6565b919050565b6000604051905090565b600067ffffffffffffffff8211156142705761426f614728565b5b602082029050602081019050919050565b600067ffffffffffffffff82111561429c5761429b614728565b5b602082029050602081019050919050565b600067ffffffffffffffff8211156142c8576142c7614728565b5b6142d182614757565b9050602081019050919050565b6000819050602082019050919050565b6000819050602082019050919050565b600081519050919050565b600081519050919050565b600081519050919050565b600081519050919050565b6000602082019050919050565b6000602082019050919050565b600082825260208201905092915050565b600082825260208201905092915050565b600082825260208201905092915050565b600082825260208201905092915050565b600082825260208201905092915050565b600081905092915050565b600082825260208201905092915050565b600081905092915050565b60006143cb82614513565b91506143d683614513565b9250827fffffffffffffffffffffffffffffffffffffffffffffffffffffffffffffffff0382111561440b5761440a61469b565b5b828201905092915050565b600061442182614513565b915061442c83614513565b92508261443c5761443b6146ca565b5b828204905092915050565b600061445282614513565b915061445d83614513565b9250828210156144705761446f61469b565b5b828203905092915050565b6000614486826144f3565b9050919050565b60008115159050919050565b6000819050919050565b60007fffffffff0000000000000000000000000000000000000000000000000000000082169050919050565b60006144da8261447b565b9050919050565b60006144ec8261447b565b9050919050565b600073ffffffffffffffffffffffffffffffffffffffff82169050919050565b6000819050919050565b600060ff82169050919050565b60006145358261453c565b9050919050565b6000614547826144f3565b9050919050565b600061455982614560565b9050919050565b600061456b826144f3565b9050919050565b82818337600083830152505050565b60005b8381101561459f578082015181840152602081019050614584565b838111156145ae576000848401525b50505050565b600060028204905060018216806145cc57607f821691505b602082108114156145e0576145df6146f9565b5b50919050565b6145ef82614757565b810181811067ffffffffffffffff8211171561460e5761460d614728565b5b80604052505050565b600061462282614513565b91507fffffffffffffffffffffffffffffffffffffffffffffffffffffffffffffffff8214156146555761465461469b565b5b600182019050919050565b6000819050919050565b600061467582614513565b915061468083614513565b9250826146905761468f6146ca565b5b828206905092915050565b7f4e487b7100000000000000000000000000000000000000000000000000000000600052601160045260246000fd5b7f4e487b7100000000000000000000000000000000000000000000000000000000600052601260045260246000fd5b7f4e487b7100000000000000000000000000000000000000000000000000000000600052602260045260246000fd5b7f4e487b7100000000000000000000000000000000000000000000000000000000600052604160045260246000fd5b6000601f19601f8301169050919050565b7f45434453413a20696e76616c6964207369676e61747572650000000000000000600082015250565b7f455448207472616e7366657220746f2073656c6c6572206661696c6564000000600082015250565b7f45434453413a20696e76616c6964207369676e6174757265206c656e67746800600082015250565b7f19457468657265756d205369676e6564204d6573736167653a0a333200000000600082015250565b7f4552433732313a207472616e7366657220746f206e6f6e20455243373231526560008201527f63656976657220696d706c656d656e7465720000000000000000000000000000602082015250565b7f4552433732313a20746f6b656e20616c7265616479206d696e74656400000000600082015250565b7f4f7074696f6e20686173206265656e20657865726369736564206f7220616c7260008201527f6561647920636c65617265640000000000000000000000000000000000000000602082015250565b7f4552433732313a207472616e7366657220746f20746865207a65726f2061646460008201527f7265737300000000000000000000000000000000000000000000000000000000602082015250565b7f4552433732313a20617070726f766520746f2063616c6c657200000000000000600082015250565b7f45434453413a20696e76616c6964207369676e6174757265202773272076616c60008201527f7565000000000000000000000000000000000000000000000000000000000000602082015250565b7f596f7520617265206e6f7420746865206f776e65720000000000000000000000600082015250565b7f4552433732313a206f70657261746f7220717565727920666f72206e6f6e657860008201527f697374656e7420746f6b656e0000000000000000000000000000000000000000602082015250565b7f4e6f7420656e6f75676820657468000000000000000000000000000000000000600082015250565b7f4552433732313a20617070726f76652063616c6c6572206973206e6f74206f7760008201527f6e6572206e6f7220617070726f76656420666f7220616c6c0000000000000000602082015250565b7f4552433732313a2062616c616e636520717565727920666f7220746865207a6560008201527f726f206164647265737300000000000000000000000000000000000000000000602082015250565b7f4552433732313a206f776e657220717565727920666f72206e6f6e657869737460008201527f656e7420746f6b656e0000000000000000000000000000000000000000000000602082015250565b7f45434453413a20696e76616c6964207369676e6174757265202776272076616c60008201527f7565000000000000000000000000000000000000000000000000000000000000602082015250565b7f4552433732313a206d696e7420746f20746865207a65726f2061646472657373600082015250565b7f4552433732313a20617070726f76656420717565727920666f72206e6f6e657860008201527f697374656e7420746f6b656e0000000000000000000000000000000000000000602082015250565b7f4552433732313a207472616e73666572206f6620746f6b656e2074686174206960008201527f73206e6f74206f776e0000000000000000000000000000000000000000000000602082015250565b7f4552433732314d657461646174613a2055524920717565727920666f72206e6f60008201527f6e6578697374656e7420746f6b656e0000000000000000000000000000000000602082015250565b7f496e76616c6964206f72646572207369676e6174757265000000000000000000600082015250565b7f4552433732313a20617070726f76616c20746f2063757272656e74206f776e6560008201527f7200000000000000000000000000000000000000000000000000000000000000602082015250565b7f43616e6e6f74206578657263697365206f7074696f6e20796f7520646f6e742060008201527f6f776e0000000000000000000000000000000000000000000000000000000000602082015250565b7f4f7264657220686173206265656e2063616e63656c6c65640000000000000000600082015250565b50565b7f4552433732313a207472616e736665722063616c6c6572206973206e6f74206f60008201527f776e6572206e6f7220617070726f766564000000000000000000000000000000602082015250565b7f4f7074696f6e20686173206e6f74206578706972656400000000000000000000600082015250565b7f45787069726564206f7074696f6e000000000000000000000000000000000000600082015250565b7f5265656e7472616e637947756172643a207265656e7472616e742063616c6c00600082015250565b7f4f7074696f6e20646f6573206e6f742065786973740000000000000000000000600082015250565b7f4f7074696f6e2068617320616c7265616479206265656e20657865726369736560008201527f6400000000000000000000000000000000000000000000000000000000000000602082015250565b7f455448207472616e7366657220746f206275796572206661696c656400000000600082015250565b614ef48161447b565b8114614eff57600080fd5b50565b614f0b8161448d565b8114614f1657600080fd5b50565b614f22816144a3565b8114614f2d57600080fd5b50565b614f39816144cf565b8114614f4457600080fd5b50565b614f50816144e1565b8114614f5b57600080fd5b50565b614f6781614513565b8114614f7257600080fd5b5056fea2646970667358221220baa31a0b1eb123c20f99d63339cec2276f6a580141f98933213b07f4da9fa05064736f6c63430008040033",
  "devdoc": {
    "kind": "dev",
    "methods": {
      "approve(address,uint256)": {
        "details": "See {IERC721-approve}."
      },
      "balanceOf(address)": {
        "details": "See {IERC721-balanceOf}."
      },
      "getApproved(uint256)": {
        "details": "See {IERC721-getApproved}."
      },
      "isApprovedForAll(address,address)": {
        "details": "See {IERC721-isApprovedForAll}."
      },
      "name()": {
        "details": "See {IERC721Metadata-name}."
      },
      "ownerOf(uint256)": {
        "details": "See {IERC721-ownerOf}."
      },
      "safeTransferFrom(address,address,uint256)": {
        "details": "See {IERC721-safeTransferFrom}."
      },
      "safeTransferFrom(address,address,uint256,bytes)": {
        "details": "See {IERC721-safeTransferFrom}."
      },
      "setApprovalForAll(address,bool)": {
        "details": "See {IERC721-setApprovalForAll}."
      },
      "supportsInterface(bytes4)": {
        "details": "See {IERC165-supportsInterface}."
      },
      "symbol()": {
        "details": "See {IERC721Metadata-symbol}."
      },
      "tokenURI(uint256)": {
        "details": "See {IERC721Metadata-tokenURI}."
      },
      "transferFrom(address,address,uint256)": {
        "details": "See {IERC721-transferFrom}."
      }
    },
    "version": 1
  },
  "userdoc": {
    "kind": "user",
    "methods": {},
    "version": 1
  },
  "storageLayout": {
    "storage": [
      {
        "astId": 714,
        "contract": "contracts/Putty.sol:Putty",
        "label": "_name",
        "offset": 0,
        "slot": "0",
        "type": "t_string_storage"
      },
      {
        "astId": 716,
        "contract": "contracts/Putty.sol:Putty",
        "label": "_symbol",
        "offset": 0,
        "slot": "1",
        "type": "t_string_storage"
      },
      {
        "astId": 720,
        "contract": "contracts/Putty.sol:Putty",
        "label": "_owners",
        "offset": 0,
        "slot": "2",
        "type": "t_mapping(t_uint256,t_address)"
      },
      {
        "astId": 724,
        "contract": "contracts/Putty.sol:Putty",
        "label": "_balances",
        "offset": 0,
        "slot": "3",
        "type": "t_mapping(t_address,t_uint256)"
      },
      {
        "astId": 728,
        "contract": "contracts/Putty.sol:Putty",
        "label": "_tokenApprovals",
        "offset": 0,
        "slot": "4",
        "type": "t_mapping(t_uint256,t_address)"
      },
      {
        "astId": 734,
        "contract": "contracts/Putty.sol:Putty",
        "label": "_operatorApprovals",
        "offset": 0,
        "slot": "5",
        "type": "t_mapping(t_address,t_mapping(t_address,t_bool))"
      },
      {
        "astId": 10,
        "contract": "contracts/Putty.sol:Putty",
        "label": "_status",
        "offset": 0,
        "slot": "6",
        "type": "t_uint256"
      },
      {
        "astId": 2814,
        "contract": "contracts/Putty.sol:Putty",
        "label": "weth",
        "offset": 0,
        "slot": "7",
        "type": "t_contract(ERC20)585"
      },
      {
        "astId": 2818,
        "contract": "contracts/Putty.sol:Putty",
        "label": "tokenIdToCreationTimestamp",
        "offset": 0,
        "slot": "8",
        "type": "t_mapping(t_uint256,t_uint256)"
      },
      {
        "astId": 2822,
        "contract": "contracts/Putty.sol:Putty",
        "label": "cancelledOrders",
        "offset": 0,
        "slot": "9",
        "type": "t_mapping(t_uint256,t_bool)"
      }
    ],
    "types": {
      "t_address": {
        "encoding": "inplace",
        "label": "address",
        "numberOfBytes": "20"
      },
      "t_bool": {
        "encoding": "inplace",
        "label": "bool",
        "numberOfBytes": "1"
      },
      "t_contract(ERC20)585": {
        "encoding": "inplace",
        "label": "contract ERC20",
        "numberOfBytes": "20"
      },
      "t_mapping(t_address,t_bool)": {
        "encoding": "mapping",
        "key": "t_address",
        "label": "mapping(address => bool)",
        "numberOfBytes": "32",
        "value": "t_bool"
      },
      "t_mapping(t_address,t_mapping(t_address,t_bool))": {
        "encoding": "mapping",
        "key": "t_address",
        "label": "mapping(address => mapping(address => bool))",
        "numberOfBytes": "32",
        "value": "t_mapping(t_address,t_bool)"
      },
      "t_mapping(t_address,t_uint256)": {
        "encoding": "mapping",
        "key": "t_address",
        "label": "mapping(address => uint256)",
        "numberOfBytes": "32",
        "value": "t_uint256"
      },
      "t_mapping(t_uint256,t_address)": {
        "encoding": "mapping",
        "key": "t_uint256",
        "label": "mapping(uint256 => address)",
        "numberOfBytes": "32",
        "value": "t_address"
      },
      "t_mapping(t_uint256,t_bool)": {
        "encoding": "mapping",
        "key": "t_uint256",
        "label": "mapping(uint256 => bool)",
        "numberOfBytes": "32",
        "value": "t_bool"
      },
      "t_mapping(t_uint256,t_uint256)": {
        "encoding": "mapping",
        "key": "t_uint256",
        "label": "mapping(uint256 => uint256)",
        "numberOfBytes": "32",
        "value": "t_uint256"
      },
      "t_string_storage": {
        "encoding": "bytes",
        "label": "string",
        "numberOfBytes": "32"
      },
      "t_uint256": {
        "encoding": "inplace",
        "label": "uint256",
        "numberOfBytes": "32"
      }
    }
  }
}