{
  "address": "0xa513E6E4b8f2a923D98304ec87F64353C4D5C853",
  "abi": [
    {
      "inputs": [
        {
          "internalType": "contract ERC20",
          "name": "weth_",
          "type": "address"
        },
        {
          "internalType": "string",
          "name": "baseURI_",
          "type": "string"
        },
        {
          "internalType": "uint256",
          "name": "feeRate_",
          "type": "uint256"
        }
      ],
      "stateMutability": "nonpayable",
      "type": "constructor"
    },
    {
      "anonymous": false,
      "inputs": [
        {
          "indexed": true,
          "internalType": "address",
          "name": "owner",
          "type": "address"
        },
        {
          "indexed": true,
          "internalType": "address",
          "name": "approved",
          "type": "address"
        },
        {
          "indexed": true,
          "internalType": "uint256",
          "name": "tokenId",
          "type": "uint256"
        }
      ],
      "name": "Approval",
      "type": "event"
    },
    {
      "anonymous": false,
      "inputs": [
        {
          "indexed": true,
          "internalType": "address",
          "name": "owner",
          "type": "address"
        },
        {
          "indexed": true,
          "internalType": "address",
          "name": "operator",
          "type": "address"
        },
        {
          "indexed": false,
          "internalType": "bool",
          "name": "approved",
          "type": "bool"
        }
      ],
      "name": "ApprovalForAll",
      "type": "event"
    },
    {
      "anonymous": false,
      "inputs": [
        {
          "components": [
            {
              "internalType": "uint256",
              "name": "strike",
              "type": "uint256"
            },
            {
              "internalType": "uint256",
              "name": "duration",
              "type": "uint256"
            },
            {
              "internalType": "uint256",
              "name": "premium",
              "type": "uint256"
            },
            {
              "internalType": "address",
              "name": "owner",
              "type": "address"
            },
            {
              "internalType": "uint256",
              "name": "nonce",
              "type": "uint256"
            },
            {
              "components": [
                {
                  "internalType": "contract ERC20",
                  "name": "token",
                  "type": "address"
                },
                {
                  "internalType": "uint256",
                  "name": "amount",
                  "type": "uint256"
                }
              ],
              "internalType": "struct Putty.ERC20Info[]",
              "name": "erc20Underlying",
              "type": "tuple[]"
            },
            {
              "components": [
                {
                  "internalType": "contract ERC721",
                  "name": "token",
                  "type": "address"
                },
                {
                  "internalType": "uint256",
                  "name": "tokenId",
                  "type": "uint256"
                }
              ],
              "internalType": "struct Putty.ERC721Info[]",
              "name": "erc721Underlying",
              "type": "tuple[]"
            }
          ],
          "indexed": false,
          "internalType": "struct Putty.Option",
          "name": "option",
          "type": "tuple"
        },
        {
          "indexed": true,
          "internalType": "address",
          "name": "seller",
          "type": "address"
        },
        {
          "indexed": false,
          "internalType": "uint256",
          "name": "tokenId",
          "type": "uint256"
        },
        {
          "indexed": false,
          "internalType": "uint256",
          "name": "shortTokenId",
          "type": "uint256"
        }
      ],
      "name": "BuyFilled",
      "type": "event"
    },
    {
      "anonymous": false,
      "inputs": [
        {
          "components": [
            {
              "internalType": "uint256",
              "name": "strike",
              "type": "uint256"
            },
            {
              "internalType": "uint256",
              "name": "duration",
              "type": "uint256"
            },
            {
              "internalType": "uint256",
              "name": "premium",
              "type": "uint256"
            },
            {
              "internalType": "address",
              "name": "owner",
              "type": "address"
            },
            {
              "internalType": "uint256",
              "name": "nonce",
              "type": "uint256"
            },
            {
              "components": [
                {
                  "internalType": "contract ERC20",
                  "name": "token",
                  "type": "address"
                },
                {
                  "internalType": "uint256",
                  "name": "amount",
                  "type": "uint256"
                }
              ],
              "internalType": "struct Putty.ERC20Info[]",
              "name": "erc20Underlying",
              "type": "tuple[]"
            },
            {
              "components": [
                {
                  "internalType": "contract ERC721",
                  "name": "token",
                  "type": "address"
                },
                {
                  "internalType": "uint256",
                  "name": "tokenId",
                  "type": "uint256"
                }
              ],
              "internalType": "struct Putty.ERC721Info[]",
              "name": "erc721Underlying",
              "type": "tuple[]"
            }
          ],
          "indexed": false,
          "internalType": "struct Putty.Option",
          "name": "option",
          "type": "tuple"
        }
      ],
      "name": "Cancelled",
      "type": "event"
    },
    {
      "anonymous": false,
      "inputs": [
        {
          "components": [
            {
              "internalType": "uint256",
              "name": "strike",
              "type": "uint256"
            },
            {
              "internalType": "uint256",
              "name": "duration",
              "type": "uint256"
            },
            {
              "internalType": "uint256",
              "name": "premium",
              "type": "uint256"
            },
            {
              "internalType": "address",
              "name": "owner",
              "type": "address"
            },
            {
              "internalType": "uint256",
              "name": "nonce",
              "type": "uint256"
            },
            {
              "components": [
                {
                  "internalType": "contract ERC20",
                  "name": "token",
                  "type": "address"
                },
                {
                  "internalType": "uint256",
                  "name": "amount",
                  "type": "uint256"
                }
              ],
              "internalType": "struct Putty.ERC20Info[]",
              "name": "erc20Underlying",
              "type": "tuple[]"
            },
            {
              "components": [
                {
                  "internalType": "contract ERC721",
                  "name": "token",
                  "type": "address"
                },
                {
                  "internalType": "uint256",
                  "name": "tokenId",
                  "type": "uint256"
                }
              ],
              "internalType": "struct Putty.ERC721Info[]",
              "name": "erc721Underlying",
              "type": "tuple[]"
            }
          ],
          "indexed": false,
          "internalType": "struct Putty.Option",
          "name": "option",
          "type": "tuple"
        },
        {
          "indexed": true,
          "internalType": "address",
          "name": "seller",
          "type": "address"
        },
        {
          "indexed": false,
          "internalType": "uint256",
          "name": "tokenId",
          "type": "uint256"
        },
        {
          "indexed": false,
          "internalType": "uint256",
          "name": "shortTokenId",
          "type": "uint256"
        }
      ],
      "name": "Exercised",
      "type": "event"
    },
    {
      "anonymous": false,
      "inputs": [
        {
          "components": [
            {
              "internalType": "uint256",
              "name": "strike",
              "type": "uint256"
            },
            {
              "internalType": "uint256",
              "name": "duration",
              "type": "uint256"
            },
            {
              "internalType": "uint256",
              "name": "premium",
              "type": "uint256"
            },
            {
              "internalType": "address",
              "name": "owner",
              "type": "address"
            },
            {
              "internalType": "uint256",
              "name": "nonce",
              "type": "uint256"
            },
            {
              "components": [
                {
                  "internalType": "contract ERC20",
                  "name": "token",
                  "type": "address"
                },
                {
                  "internalType": "uint256",
                  "name": "amount",
                  "type": "uint256"
                }
              ],
              "internalType": "struct Putty.ERC20Info[]",
              "name": "erc20Underlying",
              "type": "tuple[]"
            },
            {
              "components": [
                {
                  "internalType": "contract ERC721",
                  "name": "token",
                  "type": "address"
                },
                {
                  "internalType": "uint256",
                  "name": "tokenId",
                  "type": "uint256"
                }
              ],
              "internalType": "struct Putty.ERC721Info[]",
              "name": "erc721Underlying",
              "type": "tuple[]"
            }
          ],
          "indexed": false,
          "internalType": "struct Putty.Option",
          "name": "option",
          "type": "tuple"
        },
        {
          "indexed": true,
          "internalType": "address",
          "name": "seller",
          "type": "address"
        },
        {
          "indexed": false,
          "internalType": "uint256",
          "name": "tokenId",
          "type": "uint256"
        },
        {
          "indexed": false,
          "internalType": "uint256",
          "name": "shortTokenId",
          "type": "uint256"
        }
      ],
      "name": "Expired",
      "type": "event"
    },
    {
      "anonymous": false,
      "inputs": [
        {
          "indexed": true,
          "internalType": "address",
          "name": "previousOwner",
          "type": "address"
        },
        {
          "indexed": true,
          "internalType": "address",
          "name": "newOwner",
          "type": "address"
        }
      ],
      "name": "OwnershipTransferred",
      "type": "event"
    },
    {
      "anonymous": false,
      "inputs": [
        {
          "indexed": true,
          "internalType": "address",
          "name": "from",
          "type": "address"
        },
        {
          "indexed": true,
          "internalType": "address",
          "name": "to",
          "type": "address"
        },
        {
          "indexed": true,
          "internalType": "uint256",
          "name": "tokenId",
          "type": "uint256"
        }
      ],
      "name": "Transfer",
      "type": "event"
    },
    {
      "inputs": [
        {
          "internalType": "address",
          "name": "to",
          "type": "address"
        },
        {
          "internalType": "uint256",
          "name": "tokenId",
          "type": "uint256"
        }
      ],
      "name": "approve",
      "outputs": [],
      "stateMutability": "nonpayable",
      "type": "function"
    },
    {
      "inputs": [
        {
          "internalType": "address",
          "name": "owner",
          "type": "address"
        }
      ],
      "name": "balanceOf",
      "outputs": [
        {
          "internalType": "uint256",
          "name": "",
          "type": "uint256"
        }
      ],
      "stateMutability": "view",
      "type": "function"
    },
    {
      "inputs": [],
      "name": "baseURI",
      "outputs": [
        {
          "internalType": "string",
          "name": "",
          "type": "string"
        }
      ],
      "stateMutability": "view",
      "type": "function"
    },
    {
      "inputs": [
        {
          "components": [
            {
              "internalType": "uint256",
              "name": "strike",
              "type": "uint256"
            },
            {
              "internalType": "uint256",
              "name": "duration",
              "type": "uint256"
            },
            {
              "internalType": "uint256",
              "name": "premium",
              "type": "uint256"
            },
            {
              "internalType": "address",
              "name": "owner",
              "type": "address"
            },
            {
              "internalType": "uint256",
              "name": "nonce",
              "type": "uint256"
            },
            {
              "components": [
                {
                  "internalType": "contract ERC20",
                  "name": "token",
                  "type": "address"
                },
                {
                  "internalType": "uint256",
                  "name": "amount",
                  "type": "uint256"
                }
              ],
              "internalType": "struct Putty.ERC20Info[]",
              "name": "erc20Underlying",
              "type": "tuple[]"
            },
            {
              "components": [
                {
                  "internalType": "contract ERC721",
                  "name": "token",
                  "type": "address"
                },
                {
                  "internalType": "uint256",
                  "name": "tokenId",
                  "type": "uint256"
                }
              ],
              "internalType": "struct Putty.ERC721Info[]",
              "name": "erc721Underlying",
              "type": "tuple[]"
            }
          ],
          "internalType": "struct Putty.Option",
          "name": "option",
          "type": "tuple"
        }
      ],
      "name": "cancel",
      "outputs": [],
      "stateMutability": "nonpayable",
      "type": "function"
    },
    {
      "inputs": [
        {
          "internalType": "uint256",
          "name": "",
          "type": "uint256"
        }
      ],
      "name": "cancelledOrders",
      "outputs": [
        {
          "internalType": "bool",
          "name": "",
          "type": "bool"
        }
      ],
      "stateMutability": "view",
      "type": "function"
    },
    {
      "inputs": [],
      "name": "domainSeparatorV4",
      "outputs": [
        {
          "internalType": "bytes32",
          "name": "",
          "type": "bytes32"
        }
      ],
      "stateMutability": "view",
      "type": "function"
    },
    {
      "inputs": [
        {
          "components": [
            {
              "internalType": "uint256",
              "name": "strike",
              "type": "uint256"
            },
            {
              "internalType": "uint256",
              "name": "duration",
              "type": "uint256"
            },
            {
              "internalType": "uint256",
              "name": "premium",
              "type": "uint256"
            },
            {
              "internalType": "address",
              "name": "owner",
              "type": "address"
            },
            {
              "internalType": "uint256",
              "name": "nonce",
              "type": "uint256"
            },
            {
              "components": [
                {
                  "internalType": "contract ERC20",
                  "name": "token",
                  "type": "address"
                },
                {
                  "internalType": "uint256",
                  "name": "amount",
                  "type": "uint256"
                }
              ],
              "internalType": "struct Putty.ERC20Info[]",
              "name": "erc20Underlying",
              "type": "tuple[]"
            },
            {
              "components": [
                {
                  "internalType": "contract ERC721",
                  "name": "token",
                  "type": "address"
                },
                {
                  "internalType": "uint256",
                  "name": "tokenId",
                  "type": "uint256"
                }
              ],
              "internalType": "struct Putty.ERC721Info[]",
              "name": "erc721Underlying",
              "type": "tuple[]"
            }
          ],
          "internalType": "struct Putty.Option",
          "name": "option",
          "type": "tuple"
        }
      ],
      "name": "exercise",
      "outputs": [],
      "stateMutability": "nonpayable",
      "type": "function"
    },
    {
      "inputs": [
        {
          "components": [
            {
              "internalType": "uint256",
              "name": "strike",
              "type": "uint256"
            },
            {
              "internalType": "uint256",
              "name": "duration",
              "type": "uint256"
            },
            {
              "internalType": "uint256",
              "name": "premium",
              "type": "uint256"
            },
            {
              "internalType": "address",
              "name": "owner",
              "type": "address"
            },
            {
              "internalType": "uint256",
              "name": "nonce",
              "type": "uint256"
            },
            {
              "components": [
                {
                  "internalType": "contract ERC20",
                  "name": "token",
                  "type": "address"
                },
                {
                  "internalType": "uint256",
                  "name": "amount",
                  "type": "uint256"
                }
              ],
              "internalType": "struct Putty.ERC20Info[]",
              "name": "erc20Underlying",
              "type": "tuple[]"
            },
            {
              "components": [
                {
                  "internalType": "contract ERC721",
                  "name": "token",
                  "type": "address"
                },
                {
                  "internalType": "uint256",
                  "name": "tokenId",
                  "type": "uint256"
                }
              ],
              "internalType": "struct Putty.ERC721Info[]",
              "name": "erc721Underlying",
              "type": "tuple[]"
            }
          ],
          "internalType": "struct Putty.Option",
          "name": "option",
          "type": "tuple"
        }
      ],
      "name": "expire",
      "outputs": [],
      "stateMutability": "nonpayable",
      "type": "function"
    },
    {
      "inputs": [],
      "name": "feeRate",
      "outputs": [
        {
          "internalType": "uint256",
          "name": "",
          "type": "uint256"
        }
      ],
      "stateMutability": "view",
      "type": "function"
    },
    {
      "inputs": [
        {
          "components": [
            {
              "internalType": "uint256",
              "name": "strike",
              "type": "uint256"
            },
            {
              "internalType": "uint256",
              "name": "duration",
              "type": "uint256"
            },
            {
              "internalType": "uint256",
              "name": "premium",
              "type": "uint256"
            },
            {
              "internalType": "address",
              "name": "owner",
              "type": "address"
            },
            {
              "internalType": "uint256",
              "name": "nonce",
              "type": "uint256"
            },
            {
              "components": [
                {
                  "internalType": "contract ERC20",
                  "name": "token",
                  "type": "address"
                },
                {
                  "internalType": "uint256",
                  "name": "amount",
                  "type": "uint256"
                }
              ],
              "internalType": "struct Putty.ERC20Info[]",
              "name": "erc20Underlying",
              "type": "tuple[]"
            },
            {
              "components": [
                {
                  "internalType": "contract ERC721",
                  "name": "token",
                  "type": "address"
                },
                {
                  "internalType": "uint256",
                  "name": "tokenId",
                  "type": "uint256"
                }
              ],
              "internalType": "struct Putty.ERC721Info[]",
              "name": "erc721Underlying",
              "type": "tuple[]"
            }
          ],
          "internalType": "struct Putty.Option",
          "name": "option",
          "type": "tuple"
        },
        {
          "internalType": "bytes",
          "name": "signature",
          "type": "bytes"
        }
      ],
      "name": "fillBuyOrder",
      "outputs": [],
      "stateMutability": "payable",
      "type": "function"
    },
    {
      "inputs": [
        {
          "internalType": "uint256",
          "name": "tokenId",
          "type": "uint256"
        }
      ],
      "name": "filledOrders",
      "outputs": [
        {
          "internalType": "bool",
          "name": "",
          "type": "bool"
        }
      ],
      "stateMutability": "view",
      "type": "function"
    },
    {
      "inputs": [
        {
          "internalType": "uint256",
          "name": "tokenId",
          "type": "uint256"
        }
      ],
      "name": "getApproved",
      "outputs": [
        {
          "internalType": "address",
          "name": "",
          "type": "address"
        }
      ],
      "stateMutability": "view",
      "type": "function"
    },
    {
      "inputs": [
        {
          "internalType": "address",
          "name": "owner",
          "type": "address"
        },
        {
          "internalType": "address",
          "name": "operator",
          "type": "address"
        }
      ],
      "name": "isApprovedForAll",
      "outputs": [
        {
          "internalType": "bool",
          "name": "",
          "type": "bool"
        }
      ],
      "stateMutability": "view",
      "type": "function"
    },
    {
      "inputs": [],
      "name": "name",
      "outputs": [
        {
          "internalType": "string",
          "name": "",
          "type": "string"
        }
      ],
      "stateMutability": "view",
      "type": "function"
    },
    {
      "inputs": [],
      "name": "owner",
      "outputs": [
        {
          "internalType": "address",
          "name": "",
          "type": "address"
        }
      ],
      "stateMutability": "view",
      "type": "function"
    },
    {
      "inputs": [
        {
          "internalType": "uint256",
          "name": "tokenId",
          "type": "uint256"
        }
      ],
      "name": "ownerOf",
      "outputs": [
        {
          "internalType": "address",
          "name": "",
          "type": "address"
        }
      ],
      "stateMutability": "view",
      "type": "function"
    },
    {
      "inputs": [],
      "name": "renounceOwnership",
      "outputs": [],
      "stateMutability": "nonpayable",
      "type": "function"
    },
    {
      "inputs": [
        {
          "internalType": "address",
          "name": "from",
          "type": "address"
        },
        {
          "internalType": "address",
          "name": "to",
          "type": "address"
        },
        {
          "internalType": "uint256",
          "name": "tokenId",
          "type": "uint256"
        }
      ],
      "name": "safeTransferFrom",
      "outputs": [],
      "stateMutability": "nonpayable",
      "type": "function"
    },
    {
      "inputs": [
        {
          "internalType": "address",
          "name": "from",
          "type": "address"
        },
        {
          "internalType": "address",
          "name": "to",
          "type": "address"
        },
        {
          "internalType": "uint256",
          "name": "tokenId",
          "type": "uint256"
        },
        {
          "internalType": "bytes",
          "name": "_data",
          "type": "bytes"
        }
      ],
      "name": "safeTransferFrom",
      "outputs": [],
      "stateMutability": "nonpayable",
      "type": "function"
    },
    {
      "inputs": [
        {
          "internalType": "address",
          "name": "operator",
          "type": "address"
        },
        {
          "internalType": "bool",
          "name": "approved",
          "type": "bool"
        }
      ],
      "name": "setApprovalForAll",
      "outputs": [],
      "stateMutability": "nonpayable",
      "type": "function"
    },
    {
      "inputs": [
        {
          "internalType": "string",
          "name": "baseURI_",
          "type": "string"
        }
      ],
      "name": "setBaseURI",
      "outputs": [],
      "stateMutability": "nonpayable",
      "type": "function"
    },
    {
      "inputs": [
        {
          "internalType": "uint256",
          "name": "feeRate_",
          "type": "uint256"
        }
      ],
      "name": "setFeeRate",
      "outputs": [],
      "stateMutability": "nonpayable",
      "type": "function"
    },
    {
      "inputs": [
        {
          "internalType": "bytes4",
          "name": "interfaceId",
          "type": "bytes4"
        }
      ],
      "name": "supportsInterface",
      "outputs": [
        {
          "internalType": "bool",
          "name": "",
          "type": "bool"
        }
      ],
      "stateMutability": "view",
      "type": "function"
    },
    {
      "inputs": [],
      "name": "symbol",
      "outputs": [
        {
          "internalType": "string",
          "name": "",
          "type": "string"
        }
      ],
      "stateMutability": "view",
      "type": "function"
    },
    {
      "inputs": [
        {
          "internalType": "uint256",
          "name": "",
          "type": "uint256"
        }
      ],
      "name": "tokenIdToCreationTimestamp",
      "outputs": [
        {
          "internalType": "uint256",
          "name": "",
          "type": "uint256"
        }
      ],
      "stateMutability": "view",
      "type": "function"
    },
    {
      "inputs": [
        {
          "internalType": "uint256",
          "name": "tokenId",
          "type": "uint256"
        }
      ],
      "name": "tokenURI",
      "outputs": [
        {
          "internalType": "string",
          "name": "",
          "type": "string"
        }
      ],
      "stateMutability": "view",
      "type": "function"
    },
    {
      "inputs": [
        {
          "internalType": "address",
          "name": "from",
          "type": "address"
        },
        {
          "internalType": "address",
          "name": "to",
          "type": "address"
        },
        {
          "internalType": "uint256",
          "name": "tokenId",
          "type": "uint256"
        }
      ],
      "name": "transferFrom",
      "outputs": [],
      "stateMutability": "nonpayable",
      "type": "function"
    },
    {
      "inputs": [
        {
          "internalType": "address",
          "name": "newOwner",
          "type": "address"
        }
      ],
      "name": "transferOwnership",
      "outputs": [],
      "stateMutability": "nonpayable",
      "type": "function"
    },
    {
      "inputs": [],
      "name": "uncollectedFees",
      "outputs": [
        {
          "internalType": "uint256",
          "name": "",
          "type": "uint256"
        }
      ],
      "stateMutability": "view",
      "type": "function"
    },
    {
      "inputs": [],
      "name": "weth",
      "outputs": [
        {
          "internalType": "contract ERC20",
          "name": "",
          "type": "address"
        }
      ],
      "stateMutability": "view",
      "type": "function"
    },
    {
      "inputs": [
        {
          "internalType": "address",
          "name": "recipient",
          "type": "address"
        }
      ],
      "name": "withdrawFees",
      "outputs": [],
      "stateMutability": "nonpayable",
      "type": "function"
    }
  ],
  "transactionHash": "0x6f1f2657e135997356e3bc05612cd7a032ce52b4e1c0883610ffe6603834deea",
  "args": [
    "0xCf7Ed3AccA5a467e9e704C703E8D87F634fB0Fc9",
    "https://testing/api/tokenMetadata/31337/",
    0
  ],
  "numDeployments": 1,
  "solcInputHash": "565ac96798bdd3d65ba5811dfa930a7c",
  "bytecode": "0x6101606040523480156200001257600080fd5b5060405162004633380380620046338339810160408190526200003591620002ce565b604080518082018252600d81526c5075747479204f7074696f6e7360981b6020808301919091528251808401845260048082526313d4155560e21b82840152845180860186526005815264507574747960d81b81850190815286518088019097529186526376302e3960e01b938601939093528251902060e08190527ff8b2b1a5b1dc84d78f17906ace5d92c1b0066e99fbf15c813cc50e238f63b0ca6101008190524660a052939491937f8b73c3c69bb8fe3d512ecc4cf759cc79239f7b179b0ffacaa9a75d522b39400f620001518184846040805160208101859052908101839052606081018290524660808201523060a082015260009060c0016040516020818303038152906040528051906020012090509392505050565b6080523060601b60c052610120525050835162000178925060009150602085019062000228565b5080516200018e90600190602084019062000228565b5050600160065550620001a133620001d6565b6001600160601b0319606084901b16610140528151620001c990600890602085019062000228565b50600a5550620004239050565b600780546001600160a01b038381166001600160a01b0319831681179093556040519116919082907f8be0079c531659141344cd1fd0a4f28419497f9722a3daafe3b4186f6b6457e090600090a35050565b8280546200023690620003d0565b90600052602060002090601f0160209004810192826200025a5760008555620002a5565b82601f106200027557805160ff1916838001178555620002a5565b82800160010185558215620002a5579182015b82811115620002a557825182559160200191906001019062000288565b50620002b3929150620002b7565b5090565b5b80821115620002b35760008155600101620002b8565b600080600060608486031215620002e3578283fd5b83516001600160a01b0381168114620002fa578384fd5b602085810151919450906001600160401b038082111562000319578485fd5b818701915087601f8301126200032d578485fd5b8151818111156200034257620003426200040d565b604051601f8201601f19908116603f011681019083821181831017156200036d576200036d6200040d565b816040528281528a8684870101111562000385578788fd5b8793505b82841015620003a8578484018601518185018701529285019262000389565b82841115620003b957878684830101525b809750505050505050604084015190509250925092565b600181811c90821680620003e557607f821691505b602082108114156200040757634e487b7160e01b600052602260045260246000fd5b50919050565b634e487b7160e01b600052604160045260246000fd5b60805160a05160c05160601c60e05161010051610120516101405160601c6141a86200048b6000396000818161031c01526116cf015260006127cf0152600061281e015260006127f9015260006127520152600061277c015260006127a601526141a86000f3fe6080604052600436106101d85760003560e01c80636c0360eb11610102578063a22cb46511610095578063e985e9c511610064578063e985e9c51461057a578063ee6f10f1146105d0578063eff9cdcc146105fd578063f2fde38b1461061d57600080fd5b8063a22cb465146104ea578063b88d4fde1461050a578063bc15e6011461052a578063c87b56dd1461055a57600080fd5b8063835051bb116100d1578063835051bb146104815780638da5cb5b1461049457806395d89b41146104bf578063978bbdb9146104d457600080fd5b80636c0360eb1461042257806370a0823114610437578063715018a61461045757806378e890ba1461046c57600080fd5b80633fc8cef31161017a57806352c3f9531161014957806352c3f953146103a257806355f804b3146103c25780636352211e146103e2578063679a94721461040257600080fd5b80633fc8cef31461030a57806342842e0e1461033e57806345596e2e1461035e578063463ccc741461037e57600080fd5b8063095ea7b3116101b6578063095ea7b314610279578063164e68de1461029b57806316eea7d5146102bb57806323b872dd146102ea57600080fd5b806301ffc9a7146101dd57806306fdde0314610212578063081812fc14610234575b600080fd5b3480156101e957600080fd5b506101fd6101f8366004613a97565b61063d565b60405190151581526020015b60405180910390f35b34801561021e57600080fd5b50610227610722565b6040516102099190613e29565b34801561024057600080fd5b5061025461024f366004613ba8565b6107b4565b60405173ffffffffffffffffffffffffffffffffffffffff9091168152602001610209565b34801561028557600080fd5b50610299610294366004613a50565b610893565b005b3480156102a757600080fd5b506102996102b6366004613898565b610a20565b3480156102c757600080fd5b506101fd6102d6366004613ba8565b6000908152600b6020526040902054151590565b3480156102f657600080fd5b506102996103053660046138ec565b610b73565b34801561031657600080fd5b506102547f000000000000000000000000000000000000000000000000000000000000000081565b34801561034a57600080fd5b506102996103593660046138ec565b610c14565b34801561036a57600080fd5b50610299610379366004613ba8565b610c2f565b34801561038a57600080fd5b5061039460095481565b604051908152602001610209565b3480156103ae57600080fd5b506102996103bd366004613b0f565b610d21565b3480156103ce57600080fd5b506102996103dd366004613acf565b610e4a565b3480156103ee57600080fd5b506102546103fd366004613ba8565b610ed7565b34801561040e57600080fd5b5061029961041d366004613b0f565b610f89565b34801561042e57600080fd5b5061022761116a565b34801561044357600080fd5b50610394610452366004613898565b6111f8565b34801561046357600080fd5b506102996112c6565b34801561047857600080fd5b50610394611353565b61029961048f366004613b42565b611362565b3480156104a057600080fd5b5060075473ffffffffffffffffffffffffffffffffffffffff16610254565b3480156104cb57600080fd5b50610227611814565b3480156104e057600080fd5b50610394600a5481565b3480156104f657600080fd5b50610299610505366004613a23565b611823565b34801561051657600080fd5b5061029961052536600461392c565b611832565b34801561053657600080fd5b506101fd610545366004613ba8565b600c6020526000908152604090205460ff1681565b34801561056657600080fd5b50610227610575366004613ba8565b6118da565b34801561058657600080fd5b506101fd6105953660046138b4565b73ffffffffffffffffffffffffffffffffffffffff918216600090815260056020908152604080832093909416825291909152205460ff1690565b3480156105dc57600080fd5b506103946105eb366004613ba8565b600b6020526000908152604090205481565b34801561060957600080fd5b50610299610618366004613b0f565b6119ea565b34801561062957600080fd5b50610299610638366004613898565b611ece565b60007fffffffff0000000000000000000000000000000000000000000000000000000082167f80ac58cd0000000000000000000000000000000000000000000000000000000014806106d057507fffffffff0000000000000000000000000000000000000000000000000000000082167f5b5e139f00000000000000000000000000000000000000000000000000000000145b8061071c57507f01ffc9a7000000000000000000000000000000000000000000000000000000007fffffffff000000000000000000000000000000000000000000000000000000008316145b92915050565b60606000805461073190613fec565b80601f016020809104026020016040519081016040528092919081815260200182805461075d90613fec565b80156107aa5780601f1061077f576101008083540402835291602001916107aa565b820191906000526020600020905b81548152906001019060200180831161078d57829003601f168201915b5050505050905090565b60008181526002602052604081205473ffffffffffffffffffffffffffffffffffffffff1661086a576040517f08c379a000000000000000000000000000000000000000000000000000000000815260206004820152602c60248201527f4552433732313a20617070726f76656420717565727920666f72206e6f6e657860448201527f697374656e7420746f6b656e000000000000000000000000000000000000000060648201526084015b60405180910390fd5b5060009081526004602052604090205473ffffffffffffffffffffffffffffffffffffffff1690565b600061089e82610ed7565b90508073ffffffffffffffffffffffffffffffffffffffff168373ffffffffffffffffffffffffffffffffffffffff16141561095c576040517f08c379a000000000000000000000000000000000000000000000000000000000815260206004820152602160248201527f4552433732313a20617070726f76616c20746f2063757272656e74206f776e6560448201527f72000000000000000000000000000000000000000000000000000000000000006064820152608401610861565b3373ffffffffffffffffffffffffffffffffffffffff8216148061098557506109858133610595565b610a11576040517f08c379a000000000000000000000000000000000000000000000000000000000815260206004820152603860248201527f4552433732313a20617070726f76652063616c6c6572206973206e6f74206f7760448201527f6e6572206e6f7220617070726f76656420666f7220616c6c00000000000000006064820152608401610861565b610a1b8383611ffe565b505050565b60075473ffffffffffffffffffffffffffffffffffffffff163314610aa1576040517f08c379a000000000000000000000000000000000000000000000000000000000815260206004820181905260248201527f4f776e61626c653a2063616c6c6572206973206e6f7420746865206f776e65726044820152606401610861565b6009805460009182905560405190919073ffffffffffffffffffffffffffffffffffffffff84169083908381818185875af1925050503d8060008114610b03576040519150601f19603f3d011682016040523d82523d6000602084013e610b08565b606091505b5050905080610a1b576040517f08c379a000000000000000000000000000000000000000000000000000000000815260206004820152601360248201527f455448207472616e73666572206661696c6564000000000000000000000000006044820152606401610861565b610b7d338261209e565b610c09576040517f08c379a000000000000000000000000000000000000000000000000000000000815260206004820152603160248201527f4552433732313a207472616e736665722063616c6c6572206973206e6f74206f60448201527f776e6572206e6f7220617070726f7665640000000000000000000000000000006064820152608401610861565b610a1b83838361220e565b610a1b83838360405180602001604052806000815250611832565b60075473ffffffffffffffffffffffffffffffffffffffff163314610cb0576040517f08c379a000000000000000000000000000000000000000000000000000000000815260206004820181905260248201527f4f776e61626c653a2063616c6c6572206973206e6f7420746865206f776e65726044820152606401610861565b6103e8811115610d1c576040517f08c379a000000000000000000000000000000000000000000000000000000000815260206004820152601e60248201527f4665652063616e27742062652067726561746572207468616e203130302500006044820152606401610861565b600a55565b610d316080820160608301613898565b73ffffffffffffffffffffffffffffffffffffffff163373ffffffffffffffffffffffffffffffffffffffff1614610dc5576040517f08c379a000000000000000000000000000000000000000000000000000000000815260206004820152601560248201527f596f7520617265206e6f7420746865206f776e657200000000000000000000006044820152606401610861565b6000610dd082612475565b506000818152600c60205260409081902080547fffffffffffffffffffffffffffffffffffffffffffffffffffffffffffffff001660011790555190915081907f32292ee3d5fc68e124c15edb45d4ffd6135287f659f78a46d9cedb5796debd3790610e3d908590613e3c565b60405180910390a1505050565b60075473ffffffffffffffffffffffffffffffffffffffff163314610ecb576040517f08c379a000000000000000000000000000000000000000000000000000000000815260206004820181905260248201527f4f776e61626c653a2063616c6c6572206973206e6f7420746865206f776e65726044820152606401610861565b610a1b6008838361378a565b60008181526002602052604081205473ffffffffffffffffffffffffffffffffffffffff168061071c576040517f08c379a000000000000000000000000000000000000000000000000000000000815260206004820152602960248201527f4552433732313a206f776e657220717565727920666f72206e6f6e657869737460448201527f656e7420746f6b656e00000000000000000000000000000000000000000000006064820152608401610861565b600080610f9583612475565b909250905081816000610fa782610ed7565b90508560200135600b600085815260200190815260200160002054610fcc9190613f40565b4211611034576040517f08c379a000000000000000000000000000000000000000000000000000000000815260206004820152601660248201527f4f7074696f6e20686173206e6f742065787069726564000000000000000000006044820152606401610861565b61103d836125f4565b611046826125f4565b60405160009073ffffffffffffffffffffffffffffffffffffffff8316908835908381818185875af1925050503d806000811461109f576040519150601f19603f3d011682016040523d82523d6000602084013e6110a4565b606091505b505090508061110f576040517f08c379a000000000000000000000000000000000000000000000000000000000815260206004820152601d60248201527f455448207472616e7366657220746f2073656c6c6572206661696c65640000006044820152606401610861565b8173ffffffffffffffffffffffffffffffffffffffff167fa4b0dfb354b2efceec0b9c9fe66ccbba7a90a01110ca9f4cc700677f0c6bf92c88868660405161115993929190613e4f565b60405180910390a250505050505050565b6008805461117790613fec565b80601f01602080910402602001604051908101604052809291908181526020018280546111a390613fec565b80156111f05780601f106111c5576101008083540402835291602001916111f0565b820191906000526020600020905b8154815290600101906020018083116111d357829003601f168201915b505050505081565b600073ffffffffffffffffffffffffffffffffffffffff821661129d576040517f08c379a000000000000000000000000000000000000000000000000000000000815260206004820152602a60248201527f4552433732313a2062616c616e636520717565727920666f7220746865207a6560448201527f726f2061646472657373000000000000000000000000000000000000000000006064820152608401610861565b5073ffffffffffffffffffffffffffffffffffffffff1660009081526003602052604090205490565b60075473ffffffffffffffffffffffffffffffffffffffff163314611347576040517f08c379a000000000000000000000000000000000000000000000000000000000815260206004820181905260248201527f4f776e61626c653a2063616c6c6572206973206e6f7420746865206f776e65726044820152606401610861565b61135160006126c1565b565b600061135d612738565b905090565b600260065414156113cf576040517f08c379a000000000000000000000000000000000000000000000000000000000815260206004820152601f60248201527f5265656e7472616e637947756172643a207265656e7472616e742063616c6c006044820152606401610861565b6002600655823534101561143f576040517f08c379a000000000000000000000000000000000000000000000000000000000815260206004820152600e60248201527f4e6f7420656e6f756768206574680000000000000000000000000000000000006044820152606401610861565b60008061144b85612475565b9092509050818160006114ab836040517f19457468657265756d205369676e6564204d6573736167653a0a3332000000006020820152603c8101829052600090605c01604051602081830303815290604052805190602001209050919050565b905060006114ef8289898080601f01602080910402602001604051908101604052809392919081815260200183838082843760009201919091525061286c92505050565b905061150160808a0160608b01613898565b73ffffffffffffffffffffffffffffffffffffffff168173ffffffffffffffffffffffffffffffffffffffff1614611595576040517f08c379a000000000000000000000000000000000000000000000000000000000815260206004820152601760248201527f496e76616c6964206f72646572207369676e61747572650000000000000000006044820152606401610861565b6000848152600c602052604090205460ff161561160e576040517f08c379a000000000000000000000000000000000000000000000000000000000815260206004820152601860248201527f4f7264657220686173206265656e2063616e63656c6c656400000000000000006044820152606401610861565b6000848152600b602052604090205415611684576040517f08c379a000000000000000000000000000000000000000000000000000000000815260206004820152601d60248201527f4f726465722068617320616c7265616479206265656e2066696c6c65640000006044820152606401610861565b6000848152600b602052604090204290556116ae6116a860808b0160608c01613898565b85612890565b6116b83384612890565b73ffffffffffffffffffffffffffffffffffffffff7f0000000000000000000000000000000000000000000000000000000000000000166323b872dd61170460808c0160608d01613898565b604080517fffffffff0000000000000000000000000000000000000000000000000000000060e085901b16815273ffffffffffffffffffffffffffffffffffffffff90921660048301523360248301528c01356044820152606401602060405180830381600087803b15801561177957600080fd5b505af115801561178d573d6000803e3d6000fd5b505050506040513d601f19601f820116820180604052508101906117b19190613a7b565b503373ffffffffffffffffffffffffffffffffffffffff167fe55fafe11811198d0f6025af999b664fc33d08499ed34bfb1be96a6cc271d5a58a86866040516117fc93929190613e4f565b60405180910390a25050600160065550505050505050565b60606001805461073190613fec565b61182e338383612a52565b5050565b61183c338361209e565b6118c8576040517f08c379a000000000000000000000000000000000000000000000000000000000815260206004820152603160248201527f4552433732313a207472616e736665722063616c6c6572206973206e6f74206f60448201527f776e6572206e6f7220617070726f7665640000000000000000000000000000006064820152608401610861565b6118d484848484612b80565b50505050565b60008181526002602052604090205460609073ffffffffffffffffffffffffffffffffffffffff1661198e576040517f08c379a000000000000000000000000000000000000000000000000000000000815260206004820152602f60248201527f4552433732314d657461646174613a2055524920717565727920666f72206e6f60448201527f6e6578697374656e7420746f6b656e00000000000000000000000000000000006064820152608401610861565b6000611998612c23565b905060008151116119b857604051806020016040528060008152506119e3565b806119c284612c32565b6040516020016119d3929190613d5d565b6040516020818303038152906040525b9392505050565b60026006541415611a57576040517f08c379a000000000000000000000000000000000000000000000000000000000815260206004820152601f60248201527f5265656e7472616e637947756172643a207265656e7472616e742063616c6c006044820152606401610861565b6002600655600080611a6883612475565b90925090508181600080611a7b84610ed7565b611a8484610ed7565b909250905073ffffffffffffffffffffffffffffffffffffffff82163314611b08576040517f08c379a000000000000000000000000000000000000000000000000000000000815260206004820152601960248201527f596f7520646f6e2774206f776e2074686973206f7074696f6e000000000000006044820152606401610861565b6000848152600b6020908152604090912054611b279189013590613f40565b421115611b90576040517f08c379a000000000000000000000000000000000000000000000000000000000815260206004820152600e60248201527f45787069726564206f7074696f6e0000000000000000000000000000000000006044820152606401610861565b611b99846125f4565b611ba2836125f4565b60005b611bb260a0890189613e74565b9050811015611c525736611bc960a08a018a613e74565b83818110611c00577f4e487b7100000000000000000000000000000000000000000000000000000000600052603260045260246000fd5b604002919091019150611c3f9050848460208401803590611c219086613898565b73ffffffffffffffffffffffffffffffffffffffff16929190612db2565b5080611c4a8161403a565b915050611ba5565b5060005b611c6360c0890189613e74565b9050811015611d725736611c7a60c08a018a613e74565b83818110611cb1577f4e487b7100000000000000000000000000000000000000000000000000000000600052603260045260246000fd5b604002919091019150611cc990506020820182613898565b6040517f23b872dd00000000000000000000000000000000000000000000000000000000815273ffffffffffffffffffffffffffffffffffffffff868116600483015285811660248301526020840135604483015291909116906323b872dd90606401600060405180830381600087803b158015611d4657600080fd5b505af1158015611d5a573d6000803e3d6000fd5b50505050508080611d6a9061403a565b915050611c56565b50600a5460009015611db457600a546103e890611d90908a35613f6c565b611d9a9190613f58565b90508060096000828254611dae9190613f40565b90915550505b600073ffffffffffffffffffffffffffffffffffffffff8416611dd8838b35613fa9565b604051600081818185875af1925050503d8060008114611e14576040519150601f19603f3d011682016040523d82523d6000602084013e611e19565b606091505b5050905080611e84576040517f08c379a000000000000000000000000000000000000000000000000000000000815260206004820152601c60248201527f455448207472616e7366657220746f206275796572206661696c6564000000006044820152606401610861565b8273ffffffffffffffffffffffffffffffffffffffff167fc98f81e8d001e35f8d697cf14400552044234db6ebffbd07cf09c2eddc0049db8a88886040516117fc93929190613e4f565b60075473ffffffffffffffffffffffffffffffffffffffff163314611f4f576040517f08c379a000000000000000000000000000000000000000000000000000000000815260206004820181905260248201527f4f776e61626c653a2063616c6c6572206973206e6f7420746865206f776e65726044820152606401610861565b73ffffffffffffffffffffffffffffffffffffffff8116611ff2576040517f08c379a000000000000000000000000000000000000000000000000000000000815260206004820152602660248201527f4f776e61626c653a206e6577206f776e657220697320746865207a65726f206160448201527f64647265737300000000000000000000000000000000000000000000000000006064820152608401610861565b611ffb816126c1565b50565b600081815260046020526040902080547fffffffffffffffffffffffff00000000000000000000000000000000000000001673ffffffffffffffffffffffffffffffffffffffff8416908117909155819061205882610ed7565b73ffffffffffffffffffffffffffffffffffffffff167f8c5be1e5ebec7d5bd14f71427d1e84f3dd0314c0f7b2291e5b200ac8c7c3b92560405160405180910390a45050565b60008181526002602052604081205473ffffffffffffffffffffffffffffffffffffffff1661214f576040517f08c379a000000000000000000000000000000000000000000000000000000000815260206004820152602c60248201527f4552433732313a206f70657261746f7220717565727920666f72206e6f6e657860448201527f697374656e7420746f6b656e00000000000000000000000000000000000000006064820152608401610861565b600061215a83610ed7565b90508073ffffffffffffffffffffffffffffffffffffffff168473ffffffffffffffffffffffffffffffffffffffff1614806121c957508373ffffffffffffffffffffffffffffffffffffffff166121b1846107b4565b73ffffffffffffffffffffffffffffffffffffffff16145b80612206575073ffffffffffffffffffffffffffffffffffffffff80821660009081526005602090815260408083209388168352929052205460ff165b949350505050565b8273ffffffffffffffffffffffffffffffffffffffff1661222e82610ed7565b73ffffffffffffffffffffffffffffffffffffffff16146122d1576040517f08c379a000000000000000000000000000000000000000000000000000000000815260206004820152602960248201527f4552433732313a207472616e73666572206f6620746f6b656e2074686174206960448201527f73206e6f74206f776e00000000000000000000000000000000000000000000006064820152608401610861565b73ffffffffffffffffffffffffffffffffffffffff8216612373576040517f08c379a0000000000000000000000000000000000000000000000000000000008152602060048201526024808201527f4552433732313a207472616e7366657220746f20746865207a65726f2061646460448201527f72657373000000000000000000000000000000000000000000000000000000006064820152608401610861565b61237e600082611ffe565b73ffffffffffffffffffffffffffffffffffffffff831660009081526003602052604081208054600192906123b4908490613fa9565b909155505073ffffffffffffffffffffffffffffffffffffffff821660009081526003602052604081208054600192906123ef908490613f40565b909155505060008181526002602052604080822080547fffffffffffffffffffffffff00000000000000000000000000000000000000001673ffffffffffffffffffffffffffffffffffffffff86811691821790925591518493918716917fddf252ad1be2c89b69c2b068fc378daa952ba7f163c4a11628f55a4df523b3ef91a4505050565b600080612480612738565b83356020850135604086013561249c6080880160608901613898565b60808801356124ae60a08a018a613e74565b6040516020016124bf929190613dd5565b604080517fffffffffffffffffffffffffffffffffffffffffffffffffffffffffffffffe0818403018152919052805160209091012061250260c08b018b613e74565b604051602001612513929190613e15565b604080517fffffffffffffffffffffffffffffffffffffffffffffffffffffffffffffffe08184030181528282528051602091820120908301999099528101969096526060860194909452608085019290925273ffffffffffffffffffffffffffffffffffffffff1660a084015260c083015260e082015261010081019190915261012001604080517fffffffffffffffffffffffffffffffffffffffffffffffffffffffffffffffe08184030181528282528051602091820120908301819052935001604051602081830303815290604052805190602001209050915091565b60006125ff82610ed7565b905061260c600083611ffe565b73ffffffffffffffffffffffffffffffffffffffff81166000908152600360205260408120805460019290612642908490613fa9565b909155505060008281526002602052604080822080547fffffffffffffffffffffffff00000000000000000000000000000000000000001690555183919073ffffffffffffffffffffffffffffffffffffffff8416907fddf252ad1be2c89b69c2b068fc378daa952ba7f163c4a11628f55a4df523b3ef908390a45050565b6007805473ffffffffffffffffffffffffffffffffffffffff8381167fffffffffffffffffffffffff0000000000000000000000000000000000000000831681179093556040519116919082907f8be0079c531659141344cd1fd0a4f28419497f9722a3daafe3b4186f6b6457e090600090a35050565b60003073ffffffffffffffffffffffffffffffffffffffff7f00000000000000000000000000000000000000000000000000000000000000001614801561279e57507f000000000000000000000000000000000000000000000000000000000000000046145b156127c857507f000000000000000000000000000000000000000000000000000000000000000090565b50604080517f00000000000000000000000000000000000000000000000000000000000000006020808301919091527f0000000000000000000000000000000000000000000000000000000000000000828401527f000000000000000000000000000000000000000000000000000000000000000060608301524660808301523060a0808401919091528351808403909101815260c0909201909252805191012090565b600080600061287b8585612e47565b9150915061288881612eb7565b509392505050565b73ffffffffffffffffffffffffffffffffffffffff821661290d576040517f08c379a000000000000000000000000000000000000000000000000000000000815260206004820181905260248201527f4552433732313a206d696e7420746f20746865207a65726f20616464726573736044820152606401610861565b60008181526002602052604090205473ffffffffffffffffffffffffffffffffffffffff1615612999576040517f08c379a000000000000000000000000000000000000000000000000000000000815260206004820152601c60248201527f4552433732313a20746f6b656e20616c7265616479206d696e746564000000006044820152606401610861565b73ffffffffffffffffffffffffffffffffffffffff821660009081526003602052604081208054600192906129cf908490613f40565b909155505060008181526002602052604080822080547fffffffffffffffffffffffff00000000000000000000000000000000000000001673ffffffffffffffffffffffffffffffffffffffff861690811790915590518392907fddf252ad1be2c89b69c2b068fc378daa952ba7f163c4a11628f55a4df523b3ef908290a45050565b8173ffffffffffffffffffffffffffffffffffffffff168373ffffffffffffffffffffffffffffffffffffffff161415612ae8576040517f08c379a000000000000000000000000000000000000000000000000000000000815260206004820152601960248201527f4552433732313a20617070726f766520746f2063616c6c6572000000000000006044820152606401610861565b73ffffffffffffffffffffffffffffffffffffffff83811660008181526005602090815260408083209487168084529482529182902080547fffffffffffffffffffffffffffffffffffffffffffffffffffffffffffffff001686151590811790915591519182527f17307eab39ab6107e8899845ad3d59bd9653f200f220920489ca2b5937696c31910160405180910390a3505050565b612b8b84848461220e565b612b97848484846131d3565b6118d4576040517f08c379a000000000000000000000000000000000000000000000000000000000815260206004820152603260248201527f4552433732313a207472616e7366657220746f206e6f6e20455243373231526560448201527f63656976657220696d706c656d656e74657200000000000000000000000000006064820152608401610861565b60606008805461073190613fec565b606081612c7257505060408051808201909152600181527f3000000000000000000000000000000000000000000000000000000000000000602082015290565b8160005b8115612c9c5780612c868161403a565b9150612c959050600a83613f58565b9150612c76565b60008167ffffffffffffffff811115612cde577f4e487b7100000000000000000000000000000000000000000000000000000000600052604160045260246000fd5b6040519080825280601f01601f191660200182016040528015612d08576020820181803683370190505b5090505b841561220657612d1d600183613fa9565b9150612d2a600a86614073565b612d35906030613f40565b60f81b818381518110612d71577f4e487b7100000000000000000000000000000000000000000000000000000000600052603260045260246000fd5b60200101907effffffffffffffffffffffffffffffffffffffffffffffffffffffffffffff1916908160001a905350612dab600a86613f58565b9450612d0c565b6040805173ffffffffffffffffffffffffffffffffffffffff85811660248301528416604482015260648082018490528251808303909101815260849091019091526020810180517bffffffffffffffffffffffffffffffffffffffffffffffffffffffff167f23b872dd000000000000000000000000000000000000000000000000000000001790526118d49085906133d2565b600080825160411415612e7e5760208301516040840151606085015160001a612e72878285856134de565b94509450505050612eb0565b825160401415612ea85760208301516040840151612e9d8683836135f6565b935093505050612eb0565b506000905060025b9250929050565b6000816004811115612ef2577f4e487b7100000000000000000000000000000000000000000000000000000000600052602160045260246000fd5b1415612efb5750565b6001816004811115612f36577f4e487b7100000000000000000000000000000000000000000000000000000000600052602160045260246000fd5b1415612f9e576040517f08c379a000000000000000000000000000000000000000000000000000000000815260206004820152601860248201527f45434453413a20696e76616c6964207369676e617475726500000000000000006044820152606401610861565b6002816004811115612fd9577f4e487b7100000000000000000000000000000000000000000000000000000000600052602160045260246000fd5b1415613041576040517f08c379a000000000000000000000000000000000000000000000000000000000815260206004820152601f60248201527f45434453413a20696e76616c6964207369676e6174757265206c656e677468006044820152606401610861565b600381600481111561307c577f4e487b7100000000000000000000000000000000000000000000000000000000600052602160045260246000fd5b141561310a576040517f08c379a000000000000000000000000000000000000000000000000000000000815260206004820152602260248201527f45434453413a20696e76616c6964207369676e6174757265202773272076616c60448201527f75650000000000000000000000000000000000000000000000000000000000006064820152608401610861565b6004816004811115613145577f4e487b7100000000000000000000000000000000000000000000000000000000600052602160045260246000fd5b1415611ffb576040517f08c379a000000000000000000000000000000000000000000000000000000000815260206004820152602260248201527f45434453413a20696e76616c6964207369676e6174757265202776272076616c60448201527f75650000000000000000000000000000000000000000000000000000000000006064820152608401610861565b600073ffffffffffffffffffffffffffffffffffffffff84163b156133c7576040517f150b7a0200000000000000000000000000000000000000000000000000000000815273ffffffffffffffffffffffffffffffffffffffff85169063150b7a029061324a903390899088908890600401613d8c565b602060405180830381600087803b15801561326457600080fd5b505af19250505080156132b2575060408051601f3d9081017fffffffffffffffffffffffffffffffffffffffffffffffffffffffffffffffe01682019092526132af91810190613ab3565b60015b61337c573d8080156132e0576040519150601f19603f3d011682016040523d82523d6000602084013e6132e5565b606091505b508051613374576040517f08c379a000000000000000000000000000000000000000000000000000000000815260206004820152603260248201527f4552433732313a207472616e7366657220746f206e6f6e20455243373231526560448201527f63656976657220696d706c656d656e74657200000000000000000000000000006064820152608401610861565b805181602001fd5b7fffffffff00000000000000000000000000000000000000000000000000000000167f150b7a0200000000000000000000000000000000000000000000000000000000149050612206565b506001949350505050565b6000613434826040518060400160405280602081526020017f5361666545524332303a206c6f772d6c6576656c2063616c6c206661696c65648152508573ffffffffffffffffffffffffffffffffffffffff1661363e9092919063ffffffff16565b805190915015610a1b57808060200190518101906134529190613a7b565b610a1b576040517f08c379a000000000000000000000000000000000000000000000000000000000815260206004820152602a60248201527f5361666545524332303a204552433230206f7065726174696f6e20646964206e60448201527f6f742073756363656564000000000000000000000000000000000000000000006064820152608401610861565b6000807f7fffffffffffffffffffffffffffffff5d576e7357a4501ddfe92f46681b20a083111561351557506000905060036135ed565b8460ff16601b1415801561352d57508460ff16601c14155b1561353e57506000905060046135ed565b6040805160008082526020820180845289905260ff881692820192909252606081018690526080810185905260019060a0016020604051602081039080840390855afa158015613592573d6000803e3d6000fd5b50506040517fffffffffffffffffffffffffffffffffffffffffffffffffffffffffffffffe0015191505073ffffffffffffffffffffffffffffffffffffffff81166135e6576000600192509250506135ed565b9150600090505b94509492505050565b6000807f7fffffffffffffffffffffffffffffffffffffffffffffffffffffffffffffff831660ff84901c601b01613630878288856134de565b935093505050935093915050565b6060612206848460008585843b6136b1576040517f08c379a000000000000000000000000000000000000000000000000000000000815260206004820152601d60248201527f416464726573733a2063616c6c20746f206e6f6e2d636f6e74726163740000006044820152606401610861565b6000808673ffffffffffffffffffffffffffffffffffffffff1685876040516136da9190613d41565b60006040518083038185875af1925050503d8060008114613717576040519150601f19603f3d011682016040523d82523d6000602084013e61371c565b606091505b509150915061372c828286613737565b979650505050505050565b606083156137465750816119e3565b8251156137565782518084602001fd5b816040517f08c379a00000000000000000000000000000000000000000000000000000000081526004016108619190613e29565b82805461379690613fec565b90600052602060002090601f0160209004810192826137b8576000855561381c565b82601f106137ef578280017fffffffffffffffffffffffffffffffffffffffffffffffffffffffffffffff0082351617855561381c565b8280016001018555821561381c579182015b8281111561381c578235825591602001919060010190613801565b5061382892915061382c565b5090565b5b80821115613828576000815560010161382d565b60008083601f840112613852578182fd5b50813567ffffffffffffffff811115613869578182fd5b602083019150836020828501011115612eb057600080fd5b600060e08284031215613892578081fd5b50919050565b6000602082840312156138a9578081fd5b81356119e381614114565b600080604083850312156138c6578081fd5b82356138d181614114565b915060208301356138e181614114565b809150509250929050565b600080600060608486031215613900578081fd5b833561390b81614114565b9250602084013561391b81614114565b929592945050506040919091013590565b60008060008060808587031215613941578081fd5b843561394c81614114565b9350602085013561395c81614114565b925060408501359150606085013567ffffffffffffffff8082111561397f578283fd5b818701915087601f830112613992578283fd5b8135818111156139a4576139a46140e5565b604051601f82017fffffffffffffffffffffffffffffffffffffffffffffffffffffffffffffffe0908116603f011681019083821181831017156139ea576139ea6140e5565b816040528281528a6020848701011115613a02578586fd5b82602086016020830137918201602001949094529598949750929550505050565b60008060408385031215613a35578182fd5b8235613a4081614114565b915060208301356138e181614136565b60008060408385031215613a62578182fd5b8235613a6d81614114565b946020939093013593505050565b600060208284031215613a8c578081fd5b81516119e381614136565b600060208284031215613aa8578081fd5b81356119e381614144565b600060208284031215613ac4578081fd5b81516119e381614144565b60008060208385031215613ae1578182fd5b823567ffffffffffffffff811115613af7578283fd5b613b0385828601613841565b90969095509350505050565b600060208284031215613b20578081fd5b813567ffffffffffffffff811115613b36578182fd5b61220684828501613881565b600080600060408486031215613b56578081fd5b833567ffffffffffffffff80821115613b6d578283fd5b613b7987838801613881565b94506020860135915080821115613b8e578283fd5b50613b9b86828701613841565b9497909650939450505050565b600060208284031215613bb9578081fd5b5035919050565b60008135613bcd81614114565b73ffffffffffffffffffffffffffffffffffffffff168352506020908101359082015260400190565b818352602083019250600081815b84811015613c2757613c168683613bc0565b955060409190910190600101613c04565b5093949350505050565b60008151808452613c49816020860160208601613fc0565b601f017fffffffffffffffffffffffffffffffffffffffffffffffffffffffffffffffe0169290920160200192915050565b600060e083018235845260208301356020850152604080840135818601526060840135613ca781614114565b73ffffffffffffffffffffffffffffffffffffffff16606086015260808481013590860152613cd960a0850185613eda565b60e060a08801529283905291839061010087015b81831015613d1157613cff8186613bc0565b90508385019450600183019250613ced565b613d1e60c0880188613eda565b9550935087810360c0890152613d35818686613bf6565b98975050505050505050565b60008251613d53818460208701613fc0565b9190910192915050565b60008351613d6f818460208801613fc0565b835190830190613d83818360208801613fc0565b01949350505050565b600073ffffffffffffffffffffffffffffffffffffffff808716835280861660208401525083604083015260806060830152613dcb6080830184613c31565b9695505050505050565b602080825281018290526000604080830185835b86811015613e0957613dfb8383613bc0565b925090830190600101613de9565b50909695505050505050565b602081526000612206602083018486613bf6565b6020815260006119e36020830184613c31565b6020815260006119e36020830184613c7b565b606081526000613e626060830186613c7b565b60208301949094525060400152919050565b60008083357fffffffffffffffffffffffffffffffffffffffffffffffffffffffffffffffe1843603018112613ea8578283fd5b83018035915067ffffffffffffffff821115613ec2578283fd5b6020019150600681901b3603821315612eb057600080fd5b60008083357fffffffffffffffffffffffffffffffffffffffffffffffffffffffffffffffe1843603018112613f0e578283fd5b830160208101925035905067ffffffffffffffff811115613f2e57600080fd5b8060061b3603831315612eb057600080fd5b60008219821115613f5357613f53614087565b500190565b600082613f6757613f676140b6565b500490565b6000817fffffffffffffffffffffffffffffffffffffffffffffffffffffffffffffffff0483118215151615613fa457613fa4614087565b500290565b600082821015613fbb57613fbb614087565b500390565b60005b83811015613fdb578181015183820152602001613fc3565b838111156118d45750506000910152565b600181811c9082168061400057607f821691505b60208210811415613892577f4e487b7100000000000000000000000000000000000000000000000000000000600052602260045260246000fd5b60007fffffffffffffffffffffffffffffffffffffffffffffffffffffffffffffffff82141561406c5761406c614087565b5060010190565b600082614082576140826140b6565b500690565b7f4e487b7100000000000000000000000000000000000000000000000000000000600052601160045260246000fd5b7f4e487b7100000000000000000000000000000000000000000000000000000000600052601260045260246000fd5b7f4e487b7100000000000000000000000000000000000000000000000000000000600052604160045260246000fd5b73ffffffffffffffffffffffffffffffffffffffff81168114611ffb57600080fd5b8015158114611ffb57600080fd5b7fffffffff0000000000000000000000000000000000000000000000000000000081168114611ffb57600080fdfea2646970667358221220f9823f9da32fc0ef270de9ede8b75046ae2dfbb441dcc679470898ed6855317064736f6c63430008040033",
  "devdoc": {
    "author": "out.eth",
    "events": {
      "BuyFilled((uint256,uint256,uint256,address,uint256,(address,uint256)[],(address,uint256)[]),address,uint256,uint256)": {
        "params": {
          "option": "The newly created option",
          "seller": "The account that filled the buy order",
          "shortTokenId": "The token ID of the newly created short option NFT",
          "tokenId": "The token ID of the newly created long option NFT"
        }
      },
      "Cancelled((uint256,uint256,uint256,address,uint256,(address,uint256)[],(address,uint256)[]))": {
        "params": {
          "option": "The option for the buy order which is being cancelled"
        }
      },
      "Exercised((uint256,uint256,uint256,address,uint256,(address,uint256)[],(address,uint256)[]),address,uint256,uint256)": {
        "params": {
          "option": "The option which is being exercised",
          "seller": "The account that currently holds the short option NFT",
          "shortTokenId": "The token ID of the short option NFT",
          "tokenId": "The token ID of the long option NFT"
        }
      },
      "Expired((uint256,uint256,uint256,address,uint256,(address,uint256)[],(address,uint256)[]),address,uint256,uint256)": {
        "params": {
          "option": "The option that has expired",
          "seller": "The account that currently holds the short option NFT",
          "shortTokenId": "The token ID of the short option NFT",
          "tokenId": "The token ID of the long option NFT"
        }
      }
    },
    "kind": "dev",
    "methods": {
      "approve(address,uint256)": {
        "details": "See {IERC721-approve}."
      },
      "balanceOf(address)": {
        "details": "See {IERC721-balanceOf}."
      },
      "cancel((uint256,uint256,uint256,address,uint256,(address,uint256)[],(address,uint256)[]))": {
        "params": {
          "option": "The unfilled option to cancel"
        }
      },
      "exercise((uint256,uint256,uint256,address,uint256,(address,uint256)[],(address,uint256)[]))": {
        "params": {
          "option": "The option to exercise"
        }
      },
      "expire((uint256,uint256,uint256,address,uint256,(address,uint256)[],(address,uint256)[]))": {
        "params": {
          "option": "The option to expire"
        }
      },
      "fillBuyOrder((uint256,uint256,uint256,address,uint256,(address,uint256)[],(address,uint256)[]),bytes)": {
        "params": {
          "option": "The buy order to fill",
          "signature": "The buy order owner's signature to verify that the buy order is valid"
        }
      },
      "filledOrders(uint256)": {
        "params": {
          "tokenId": "The tokenId of the option to check"
        }
      },
      "getApproved(uint256)": {
        "details": "See {IERC721-getApproved}."
      },
      "isApprovedForAll(address,address)": {
        "details": "See {IERC721-isApprovedForAll}."
      },
      "name()": {
        "details": "See {IERC721Metadata-name}."
      },
      "owner()": {
        "details": "Returns the address of the current owner."
      },
      "ownerOf(uint256)": {
        "details": "See {IERC721-ownerOf}."
      },
      "renounceOwnership()": {
        "details": "Leaves the contract without owner. It will not be possible to call `onlyOwner` functions anymore. Can only be called by the current owner. NOTE: Renouncing ownership will leave the contract without an owner, thereby removing any functionality that is only available to the owner."
      },
      "safeTransferFrom(address,address,uint256)": {
        "details": "See {IERC721-safeTransferFrom}."
      },
      "safeTransferFrom(address,address,uint256,bytes)": {
        "details": "See {IERC721-safeTransferFrom}."
      },
      "setApprovalForAll(address,bool)": {
        "details": "See {IERC721-setApprovalForAll}."
      },
      "setFeeRate(uint256)": {
        "params": {
          "feeRate_": "The new fee rate"
        }
      },
      "supportsInterface(bytes4)": {
        "details": "See {IERC165-supportsInterface}."
      },
      "symbol()": {
        "details": "See {IERC721Metadata-symbol}."
      },
      "tokenURI(uint256)": {
        "details": "See {IERC721Metadata-tokenURI}."
      },
      "transferFrom(address,address,uint256)": {
        "details": "See {IERC721-transferFrom}."
      },
      "transferOwnership(address)": {
        "details": "Transfers ownership of the contract to a new account (`newOwner`). Can only be called by the current owner."
      },
      "withdrawFees(address)": {
        "params": {
          "recipient": "The account which will receive the fees"
        }
      }
    },
    "title": "Putty - https://putty.finance",
    "version": 1
  },
  "userdoc": {
    "events": {
      "BuyFilled((uint256,uint256,uint256,address,uint256,(address,uint256)[],(address,uint256)[]),address,uint256,uint256)": {
        "notice": "Fires when a buy order has been filled and an option contract is created"
      },
      "Cancelled((uint256,uint256,uint256,address,uint256,(address,uint256)[],(address,uint256)[]))": {
        "notice": "Fires when a an open buy order is cancelled"
      },
      "Exercised((uint256,uint256,uint256,address,uint256,(address,uint256)[],(address,uint256)[]),address,uint256,uint256)": {
        "notice": "Fires when a an option is exercised"
      },
      "Expired((uint256,uint256,uint256,address,uint256,(address,uint256)[],(address,uint256)[]),address,uint256,uint256)": {
        "notice": "Fires when a an option expires"
      }
    },
    "kind": "user",
    "methods": {
      "cancel((uint256,uint256,uint256,address,uint256,(address,uint256)[],(address,uint256)[]))": {
        "notice": "Cancels an unfilled buy order"
      },
      "cancelledOrders(uint256)": {
        "notice": "Gets whether or not a long option NFT buy order has been cancelled"
      },
      "exercise((uint256,uint256,uint256,address,uint256,(address,uint256)[],(address,uint256)[]))": {
        "notice": "Exercises a long option NFT and burns both the short and long option NFTs"
      },
      "expire((uint256,uint256,uint256,address,uint256,(address,uint256)[],(address,uint256)[]))": {
        "notice": "Expires an option and burns the long and short option NFTs"
      },
      "feeRate()": {
        "notice": "Current fee rate - ex: 1.9% = 1.9 * 1000 = 1900"
      },
      "fillBuyOrder((uint256,uint256,uint256,address,uint256,(address,uint256)[],(address,uint256)[]),bytes)": {
        "notice": "Fills an existing buy order"
      },
      "filledOrders(uint256)": {
        "notice": "Checks whether a buy order has been filled or not"
      },
      "setFeeRate(uint256)": {
        "notice": "Admin function which sets the fee that is collected on exercise"
      },
      "tokenIdToCreationTimestamp(uint256)": {
        "notice": "Gets the creation timestamp of a particular long option NFT"
      },
      "uncollectedFees()": {
        "notice": "Fees which have yet to be collected by the admin"
      },
      "withdrawFees(address)": {
        "notice": "Admin function which withdraws uncollected fees to `recipient`"
      }
    },
    "notice": "Exotic option market for NFTs and ERC20s",
    "version": 1
  },
  "storageLayout": {
    "storage": [
      {
        "astId": 1902,
        "contract": "contracts/Putty.sol:Putty",
        "label": "_name",
        "offset": 0,
        "slot": "0",
        "type": "t_string_storage"
      },
      {
        "astId": 1904,
        "contract": "contracts/Putty.sol:Putty",
        "label": "_symbol",
        "offset": 0,
        "slot": "1",
        "type": "t_string_storage"
      },
      {
        "astId": 1908,
        "contract": "contracts/Putty.sol:Putty",
        "label": "_owners",
        "offset": 0,
        "slot": "2",
        "type": "t_mapping(t_uint256,t_address)"
      },
      {
        "astId": 1912,
        "contract": "contracts/Putty.sol:Putty",
        "label": "_balances",
        "offset": 0,
        "slot": "3",
        "type": "t_mapping(t_address,t_uint256)"
      },
      {
        "astId": 1916,
        "contract": "contracts/Putty.sol:Putty",
        "label": "_tokenApprovals",
        "offset": 0,
        "slot": "4",
        "type": "t_mapping(t_uint256,t_address)"
      },
      {
        "astId": 1922,
        "contract": "contracts/Putty.sol:Putty",
        "label": "_operatorApprovals",
        "offset": 0,
        "slot": "5",
        "type": "t_mapping(t_address,t_mapping(t_address,t_bool))"
      },
      {
        "astId": 739,
        "contract": "contracts/Putty.sol:Putty",
        "label": "_status",
        "offset": 0,
        "slot": "6",
        "type": "t_uint256"
      },
      {
        "astId": 539,
        "contract": "contracts/Putty.sol:Putty",
        "label": "_owner",
        "offset": 0,
        "slot": "7",
        "type": "t_address"
      },
      {
        "astId": 5341,
        "contract": "contracts/Putty.sol:Putty",
        "label": "baseURI",
        "offset": 0,
        "slot": "8",
        "type": "t_string_storage"
      },
      {
        "astId": 5344,
        "contract": "contracts/Putty.sol:Putty",
        "label": "uncollectedFees",
        "offset": 0,
        "slot": "9",
        "type": "t_uint256"
      },
      {
        "astId": 5347,
        "contract": "contracts/Putty.sol:Putty",
        "label": "feeRate",
        "offset": 0,
        "slot": "10",
        "type": "t_uint256"
      },
      {
        "astId": 5352,
        "contract": "contracts/Putty.sol:Putty",
        "label": "tokenIdToCreationTimestamp",
        "offset": 0,
        "slot": "11",
        "type": "t_mapping(t_uint256,t_uint256)"
      },
      {
        "astId": 5357,
        "contract": "contracts/Putty.sol:Putty",
        "label": "cancelledOrders",
        "offset": 0,
        "slot": "12",
        "type": "t_mapping(t_uint256,t_bool)"
      }
    ],
    "types": {
      "t_address": {
        "encoding": "inplace",
        "label": "address",
        "numberOfBytes": "20"
      },
      "t_bool": {
        "encoding": "inplace",
        "label": "bool",
        "numberOfBytes": "1"
      },
      "t_mapping(t_address,t_bool)": {
        "encoding": "mapping",
        "key": "t_address",
        "label": "mapping(address => bool)",
        "numberOfBytes": "32",
        "value": "t_bool"
      },
      "t_mapping(t_address,t_mapping(t_address,t_bool))": {
        "encoding": "mapping",
        "key": "t_address",
        "label": "mapping(address => mapping(address => bool))",
        "numberOfBytes": "32",
        "value": "t_mapping(t_address,t_bool)"
      },
      "t_mapping(t_address,t_uint256)": {
        "encoding": "mapping",
        "key": "t_address",
        "label": "mapping(address => uint256)",
        "numberOfBytes": "32",
        "value": "t_uint256"
      },
      "t_mapping(t_uint256,t_address)": {
        "encoding": "mapping",
        "key": "t_uint256",
        "label": "mapping(uint256 => address)",
        "numberOfBytes": "32",
        "value": "t_address"
      },
      "t_mapping(t_uint256,t_bool)": {
        "encoding": "mapping",
        "key": "t_uint256",
        "label": "mapping(uint256 => bool)",
        "numberOfBytes": "32",
        "value": "t_bool"
      },
      "t_mapping(t_uint256,t_uint256)": {
        "encoding": "mapping",
        "key": "t_uint256",
        "label": "mapping(uint256 => uint256)",
        "numberOfBytes": "32",
        "value": "t_uint256"
      },
      "t_string_storage": {
        "encoding": "bytes",
        "label": "string",
        "numberOfBytes": "32"
      },
      "t_uint256": {
        "encoding": "inplace",
        "label": "uint256",
        "numberOfBytes": "32"
      }
    }
  }
}