{
  "address": "0x5FC8d32690cc91D4c39d9d3abcBD16989F875707",
  "abi": [
    {
      "inputs": [
        {
          "internalType": "contract ERC20",
          "name": "weth_",
          "type": "address"
        }
      ],
      "stateMutability": "nonpayable",
      "type": "constructor"
    },
    {
      "anonymous": false,
      "inputs": [
        {
          "indexed": true,
          "internalType": "address",
          "name": "owner",
          "type": "address"
        },
        {
          "indexed": true,
          "internalType": "address",
          "name": "approved",
          "type": "address"
        },
        {
          "indexed": true,
          "internalType": "uint256",
          "name": "tokenId",
          "type": "uint256"
        }
      ],
      "name": "Approval",
      "type": "event"
    },
    {
      "anonymous": false,
      "inputs": [
        {
          "indexed": true,
          "internalType": "address",
          "name": "owner",
          "type": "address"
        },
        {
          "indexed": true,
          "internalType": "address",
          "name": "operator",
          "type": "address"
        },
        {
          "indexed": false,
          "internalType": "bool",
          "name": "approved",
          "type": "bool"
        }
      ],
      "name": "ApprovalForAll",
      "type": "event"
    },
    {
      "anonymous": false,
      "inputs": [
        {
          "components": [
            {
              "internalType": "uint256",
              "name": "strike",
              "type": "uint256"
            },
            {
              "internalType": "uint256",
              "name": "duration",
              "type": "uint256"
            },
            {
              "internalType": "uint256",
              "name": "premium",
              "type": "uint256"
            },
            {
              "internalType": "address",
              "name": "owner",
              "type": "address"
            },
            {
              "internalType": "uint256",
              "name": "nonce",
              "type": "uint256"
            },
            {
              "components": [
                {
                  "internalType": "contract ERC20",
                  "name": "token",
                  "type": "address"
                },
                {
                  "internalType": "uint256",
                  "name": "amount",
                  "type": "uint256"
                }
              ],
              "internalType": "struct Backspread.ERC20Info[]",
              "name": "erc20Underlying",
              "type": "tuple[]"
            },
            {
              "components": [
                {
                  "internalType": "contract ERC721",
                  "name": "token",
                  "type": "address"
                },
                {
                  "internalType": "uint256",
                  "name": "tokenId",
                  "type": "uint256"
                }
              ],
              "internalType": "struct Backspread.ERC721Info[]",
              "name": "erc721Underlying",
              "type": "tuple[]"
            }
          ],
          "indexed": false,
          "internalType": "struct Backspread.Option",
          "name": "_option",
          "type": "tuple"
        },
        {
          "indexed": true,
          "internalType": "address",
          "name": "buyer",
          "type": "address"
        },
        {
          "indexed": false,
          "internalType": "uint256",
          "name": "tokenId",
          "type": "uint256"
        },
        {
          "indexed": false,
          "internalType": "uint256",
          "name": "shortTokenId",
          "type": "uint256"
        }
      ],
      "name": "BuyFilled",
      "type": "event"
    },
    {
      "anonymous": false,
      "inputs": [
        {
          "indexed": true,
          "internalType": "address",
          "name": "from",
          "type": "address"
        },
        {
          "indexed": true,
          "internalType": "address",
          "name": "to",
          "type": "address"
        },
        {
          "indexed": true,
          "internalType": "uint256",
          "name": "tokenId",
          "type": "uint256"
        }
      ],
      "name": "Transfer",
      "type": "event"
    },
    {
      "inputs": [
        {
          "internalType": "address",
          "name": "to",
          "type": "address"
        },
        {
          "internalType": "uint256",
          "name": "tokenId",
          "type": "uint256"
        }
      ],
      "name": "approve",
      "outputs": [],
      "stateMutability": "nonpayable",
      "type": "function"
    },
    {
      "inputs": [
        {
          "internalType": "address",
          "name": "owner",
          "type": "address"
        }
      ],
      "name": "balanceOf",
      "outputs": [
        {
          "internalType": "uint256",
          "name": "",
          "type": "uint256"
        }
      ],
      "stateMutability": "view",
      "type": "function"
    },
    {
      "inputs": [
        {
          "components": [
            {
              "internalType": "uint256",
              "name": "strike",
              "type": "uint256"
            },
            {
              "internalType": "uint256",
              "name": "duration",
              "type": "uint256"
            },
            {
              "internalType": "uint256",
              "name": "premium",
              "type": "uint256"
            },
            {
              "internalType": "address",
              "name": "owner",
              "type": "address"
            },
            {
              "internalType": "uint256",
              "name": "nonce",
              "type": "uint256"
            },
            {
              "components": [
                {
                  "internalType": "contract ERC20",
                  "name": "token",
                  "type": "address"
                },
                {
                  "internalType": "uint256",
                  "name": "amount",
                  "type": "uint256"
                }
              ],
              "internalType": "struct Backspread.ERC20Info[]",
              "name": "erc20Underlying",
              "type": "tuple[]"
            },
            {
              "components": [
                {
                  "internalType": "contract ERC721",
                  "name": "token",
                  "type": "address"
                },
                {
                  "internalType": "uint256",
                  "name": "tokenId",
                  "type": "uint256"
                }
              ],
              "internalType": "struct Backspread.ERC721Info[]",
              "name": "erc721Underlying",
              "type": "tuple[]"
            }
          ],
          "internalType": "struct Backspread.Option",
          "name": "option",
          "type": "tuple"
        }
      ],
      "name": "cancel",
      "outputs": [],
      "stateMutability": "nonpayable",
      "type": "function"
    },
    {
      "inputs": [
        {
          "internalType": "uint256",
          "name": "",
          "type": "uint256"
        }
      ],
      "name": "cancelledOrders",
      "outputs": [
        {
          "internalType": "bool",
          "name": "",
          "type": "bool"
        }
      ],
      "stateMutability": "view",
      "type": "function"
    },
    {
      "inputs": [],
      "name": "domainSeparatorV4",
      "outputs": [
        {
          "internalType": "bytes32",
          "name": "",
          "type": "bytes32"
        }
      ],
      "stateMutability": "view",
      "type": "function"
    },
    {
      "inputs": [
        {
          "components": [
            {
              "internalType": "uint256",
              "name": "strike",
              "type": "uint256"
            },
            {
              "internalType": "uint256",
              "name": "duration",
              "type": "uint256"
            },
            {
              "internalType": "uint256",
              "name": "premium",
              "type": "uint256"
            },
            {
              "internalType": "address",
              "name": "owner",
              "type": "address"
            },
            {
              "internalType": "uint256",
              "name": "nonce",
              "type": "uint256"
            },
            {
              "components": [
                {
                  "internalType": "contract ERC20",
                  "name": "token",
                  "type": "address"
                },
                {
                  "internalType": "uint256",
                  "name": "amount",
                  "type": "uint256"
                }
              ],
              "internalType": "struct Backspread.ERC20Info[]",
              "name": "erc20Underlying",
              "type": "tuple[]"
            },
            {
              "components": [
                {
                  "internalType": "contract ERC721",
                  "name": "token",
                  "type": "address"
                },
                {
                  "internalType": "uint256",
                  "name": "tokenId",
                  "type": "uint256"
                }
              ],
              "internalType": "struct Backspread.ERC721Info[]",
              "name": "erc721Underlying",
              "type": "tuple[]"
            }
          ],
          "internalType": "struct Backspread.Option",
          "name": "option",
          "type": "tuple"
        }
      ],
      "name": "exercise",
      "outputs": [],
      "stateMutability": "nonpayable",
      "type": "function"
    },
    {
      "inputs": [
        {
          "components": [
            {
              "internalType": "uint256",
              "name": "strike",
              "type": "uint256"
            },
            {
              "internalType": "uint256",
              "name": "duration",
              "type": "uint256"
            },
            {
              "internalType": "uint256",
              "name": "premium",
              "type": "uint256"
            },
            {
              "internalType": "address",
              "name": "owner",
              "type": "address"
            },
            {
              "internalType": "uint256",
              "name": "nonce",
              "type": "uint256"
            },
            {
              "components": [
                {
                  "internalType": "contract ERC20",
                  "name": "token",
                  "type": "address"
                },
                {
                  "internalType": "uint256",
                  "name": "amount",
                  "type": "uint256"
                }
              ],
              "internalType": "struct Backspread.ERC20Info[]",
              "name": "erc20Underlying",
              "type": "tuple[]"
            },
            {
              "components": [
                {
                  "internalType": "contract ERC721",
                  "name": "token",
                  "type": "address"
                },
                {
                  "internalType": "uint256",
                  "name": "tokenId",
                  "type": "uint256"
                }
              ],
              "internalType": "struct Backspread.ERC721Info[]",
              "name": "erc721Underlying",
              "type": "tuple[]"
            }
          ],
          "internalType": "struct Backspread.Option",
          "name": "option",
          "type": "tuple"
        }
      ],
      "name": "expire",
      "outputs": [],
      "stateMutability": "nonpayable",
      "type": "function"
    },
    {
      "inputs": [
        {
          "components": [
            {
              "internalType": "uint256",
              "name": "strike",
              "type": "uint256"
            },
            {
              "internalType": "uint256",
              "name": "duration",
              "type": "uint256"
            },
            {
              "internalType": "uint256",
              "name": "premium",
              "type": "uint256"
            },
            {
              "internalType": "address",
              "name": "owner",
              "type": "address"
            },
            {
              "internalType": "uint256",
              "name": "nonce",
              "type": "uint256"
            },
            {
              "components": [
                {
                  "internalType": "contract ERC20",
                  "name": "token",
                  "type": "address"
                },
                {
                  "internalType": "uint256",
                  "name": "amount",
                  "type": "uint256"
                }
              ],
              "internalType": "struct Backspread.ERC20Info[]",
              "name": "erc20Underlying",
              "type": "tuple[]"
            },
            {
              "components": [
                {
                  "internalType": "contract ERC721",
                  "name": "token",
                  "type": "address"
                },
                {
                  "internalType": "uint256",
                  "name": "tokenId",
                  "type": "uint256"
                }
              ],
              "internalType": "struct Backspread.ERC721Info[]",
              "name": "erc721Underlying",
              "type": "tuple[]"
            }
          ],
          "internalType": "struct Backspread.Option",
          "name": "option",
          "type": "tuple"
        },
        {
          "internalType": "bytes",
          "name": "signature",
          "type": "bytes"
        }
      ],
      "name": "fillBuyOrder",
      "outputs": [],
      "stateMutability": "nonpayable",
      "type": "function"
    },
    {
      "inputs": [
        {
          "internalType": "uint256",
          "name": "tokenId",
          "type": "uint256"
        }
      ],
      "name": "getApproved",
      "outputs": [
        {
          "internalType": "address",
          "name": "",
          "type": "address"
        }
      ],
      "stateMutability": "view",
      "type": "function"
    },
    {
      "inputs": [
        {
          "internalType": "address",
          "name": "owner",
          "type": "address"
        },
        {
          "internalType": "address",
          "name": "operator",
          "type": "address"
        }
      ],
      "name": "isApprovedForAll",
      "outputs": [
        {
          "internalType": "bool",
          "name": "",
          "type": "bool"
        }
      ],
      "stateMutability": "view",
      "type": "function"
    },
    {
      "inputs": [],
      "name": "name",
      "outputs": [
        {
          "internalType": "string",
          "name": "",
          "type": "string"
        }
      ],
      "stateMutability": "view",
      "type": "function"
    },
    {
      "inputs": [
        {
          "internalType": "uint256",
          "name": "tokenId",
          "type": "uint256"
        }
      ],
      "name": "ownerOf",
      "outputs": [
        {
          "internalType": "address",
          "name": "",
          "type": "address"
        }
      ],
      "stateMutability": "view",
      "type": "function"
    },
    {
      "inputs": [
        {
          "internalType": "address",
          "name": "from",
          "type": "address"
        },
        {
          "internalType": "address",
          "name": "to",
          "type": "address"
        },
        {
          "internalType": "uint256",
          "name": "tokenId",
          "type": "uint256"
        }
      ],
      "name": "safeTransferFrom",
      "outputs": [],
      "stateMutability": "nonpayable",
      "type": "function"
    },
    {
      "inputs": [
        {
          "internalType": "address",
          "name": "from",
          "type": "address"
        },
        {
          "internalType": "address",
          "name": "to",
          "type": "address"
        },
        {
          "internalType": "uint256",
          "name": "tokenId",
          "type": "uint256"
        },
        {
          "internalType": "bytes",
          "name": "_data",
          "type": "bytes"
        }
      ],
      "name": "safeTransferFrom",
      "outputs": [],
      "stateMutability": "nonpayable",
      "type": "function"
    },
    {
      "inputs": [
        {
          "internalType": "address",
          "name": "operator",
          "type": "address"
        },
        {
          "internalType": "bool",
          "name": "approved",
          "type": "bool"
        }
      ],
      "name": "setApprovalForAll",
      "outputs": [],
      "stateMutability": "nonpayable",
      "type": "function"
    },
    {
      "inputs": [
        {
          "internalType": "bytes4",
          "name": "interfaceId",
          "type": "bytes4"
        }
      ],
      "name": "supportsInterface",
      "outputs": [
        {
          "internalType": "bool",
          "name": "",
          "type": "bool"
        }
      ],
      "stateMutability": "view",
      "type": "function"
    },
    {
      "inputs": [],
      "name": "symbol",
      "outputs": [
        {
          "internalType": "string",
          "name": "",
          "type": "string"
        }
      ],
      "stateMutability": "view",
      "type": "function"
    },
    {
      "inputs": [
        {
          "internalType": "uint256",
          "name": "",
          "type": "uint256"
        }
      ],
      "name": "tokenIdToCreationTimestamp",
      "outputs": [
        {
          "internalType": "uint256",
          "name": "",
          "type": "uint256"
        }
      ],
      "stateMutability": "view",
      "type": "function"
    },
    {
      "inputs": [
        {
          "internalType": "uint256",
          "name": "tokenId",
          "type": "uint256"
        }
      ],
      "name": "tokenURI",
      "outputs": [
        {
          "internalType": "string",
          "name": "",
          "type": "string"
        }
      ],
      "stateMutability": "view",
      "type": "function"
    },
    {
      "inputs": [
        {
          "internalType": "address",
          "name": "from",
          "type": "address"
        },
        {
          "internalType": "address",
          "name": "to",
          "type": "address"
        },
        {
          "internalType": "uint256",
          "name": "tokenId",
          "type": "uint256"
        }
      ],
      "name": "transferFrom",
      "outputs": [],
      "stateMutability": "nonpayable",
      "type": "function"
    },
    {
      "inputs": [],
      "name": "weth",
      "outputs": [
        {
          "internalType": "contract ERC20",
          "name": "",
          "type": "address"
        }
      ],
      "stateMutability": "view",
      "type": "function"
    }
  ],
  "transactionHash": "0x049f7a8ce97e10286cdb68bb83b9dc6c8c9628921c11062c8e318cee306785be",
  "args": [
    "0x5FbDB2315678afecb367f032d93F642f64180aa3"
  ],
  "numDeployments": 2,
  "solcInputHash": "e33f5445a8b908041c56e7e44d242907",
  "bytecode": "0x6101406040523480156200001257600080fd5b50604051620052fe380380620052fe83398181016040528101906200003891906200034c565b6040518060400160405280601281526020017f4261636b737072656164204f7074696f6e7300000000000000000000000000008152506040518060400160405280600581526020017f4241434b4f0000000000000000000000000000000000000000000000000000008152506040518060400160405280600a81526020017f4261636b737072656164000000000000000000000000000000000000000000008152506040518060400160405280600481526020017f76302e390000000000000000000000000000000000000000000000000000000081525060008280519060200120905060008280519060200120905060007f8b73c3c69bb8fe3d512ecc4cf759cc79239f7b179b0ffacaa9a75d522b39400f90508260e081815250508161010081815250504660a08181525050620001798184846200024960201b60201c565b608081815250503073ffffffffffffffffffffffffffffffffffffffff1660c08173ffffffffffffffffffffffffffffffffffffffff1660601b8152505080610120818152505050505050508160009080519060200190620001dd92919062000285565b508060019080519060200190620001f692919062000285565b505050600160068190555080600760006101000a81548173ffffffffffffffffffffffffffffffffffffffff021916908373ffffffffffffffffffffffffffffffffffffffff16021790555050620004e3565b6000838383463060405160200162000266959493929190620003ab565b6040516020818303038152906040528051906020012090509392505050565b828054620002939062000464565b90600052602060002090601f016020900481019282620002b7576000855562000303565b82601f10620002d257805160ff191683800117855562000303565b8280016001018555821562000303579182015b8281111562000302578251825591602001919060010190620002e5565b5b50905062000312919062000316565b5090565b5b808211156200033157600081600090555060010162000317565b5090565b6000815190506200034681620004c9565b92915050565b6000602082840312156200035f57600080fd5b60006200036f8482850162000335565b91505092915050565b620003838162000408565b82525050565b62000394816200041c565b82525050565b620003a5816200045a565b82525050565b600060a082019050620003c2600083018862000389565b620003d1602083018762000389565b620003e0604083018662000389565b620003ef60608301856200039a565b620003fe608083018462000378565b9695505050505050565b600062000415826200043a565b9050919050565b6000819050919050565b6000620004338262000408565b9050919050565b600073ffffffffffffffffffffffffffffffffffffffff82169050919050565b6000819050919050565b600060028204905060018216806200047d57607f821691505b602082108114156200049457620004936200049a565b5b50919050565b7f4e487b7100000000000000000000000000000000000000000000000000000000600052602260045260246000fd5b620004d48162000426565b8114620004e057600080fd5b50565b60805160a05160c05160601c60e0516101005161012051614dc8620005366000396000611d4701526000611d8901526000611d6801526000611c9d01526000611cf301526000611d1c0152614dc86000f3fe608060405234801561001057600080fd5b50600436106101375760003560e01c806370a08231116100b8578063b88d4fde1161007c578063b88d4fde14610338578063bc15e60114610354578063c87b56dd14610384578063e985e9c5146103b4578063ee6f10f1146103e4578063eff9cdcc1461041457610137565b806370a082311461029457806378e890ba146102c4578063835051bb146102e257806395d89b41146102fe578063a22cb4651461031c57610137565b80633fc8cef3116100ff5780633fc8cef3146101f257806342842e0e1461021057806352c3f9531461022c5780636352211e14610248578063679a94721461027857610137565b806301ffc9a71461013c57806306fdde031461016c578063081812fc1461018a578063095ea7b3146101ba57806323b872dd146101d6575b600080fd5b6101566004803603810190610151919061307a565b610430565b6040516101639190613ae7565b60405180910390f35b610174610512565b6040516101819190613cdb565b60405180910390f35b6101a4600480360381019061019f9190613179565b6105a4565b6040516101b191906139dc565b60405180910390f35b6101d460048036038101906101cf9190613015565b610629565b005b6101f060048036038101906101eb9190612f0f565b610741565b005b6101fa6107a1565b6040516102079190613cc0565b60405180910390f35b61022a60048036038101906102259190612f0f565b6107c7565b005b610246600480360381019061024191906130cc565b6107e7565b005b610262600480360381019061025d9190613179565b6108a0565b60405161026f91906139dc565b60405180910390f35b610292600480360381019061028d91906130cc565b610952565b005b6102ae60048036038101906102a99190612eaa565b610b55565b6040516102bb91906140bb565b60405180910390f35b6102cc610c0d565b6040516102d99190613b02565b60405180910390f35b6102fc60048036038101906102f7919061310d565b610c1c565b005b610306610f7c565b6040516103139190613cdb565b60405180910390f35b61033660048036038101906103319190612fd9565b61100e565b005b610352600480360381019061034d9190612f5e565b611024565b005b61036e60048036038101906103699190613179565b611086565b60405161037b9190613ae7565b60405180910390f35b61039e60048036038101906103999190613179565b6110a6565b6040516103ab9190613cdb565b60405180910390f35b6103ce60048036038101906103c99190612ed3565b61114d565b6040516103db9190613ae7565b60405180910390f35b6103fe60048036038101906103f99190613179565b6111e1565b60405161040b91906140bb565b60405180910390f35b61042e600480360381019061042991906130cc565b6111f9565b005b60007f80ac58cd000000000000000000000000000000000000000000000000000000007bffffffffffffffffffffffffffffffffffffffffffffffffffffffff1916827bffffffffffffffffffffffffffffffffffffffffffffffffffffffff191614806104fb57507f5b5e139f000000000000000000000000000000000000000000000000000000007bffffffffffffffffffffffffffffffffffffffffffffffffffffffff1916827bffffffffffffffffffffffffffffffffffffffffffffffffffffffff1916145b8061050b575061050a82611671565b5b9050919050565b6060600080546105219061444f565b80601f016020809104026020016040519081016040528092919081815260200182805461054d9061444f565b801561059a5780601f1061056f5761010080835404028352916020019161059a565b820191906000526020600020905b81548152906001019060200180831161057d57829003601f168201915b5050505050905090565b60006105af826116db565b6105ee576040517f08c379a00000000000000000000000000000000000000000000000000000000081526004016105e590613edd565b60405180910390fd5b6004600083815260200190815260200160002060009054906101000a900473ffffffffffffffffffffffffffffffffffffffff169050919050565b6000610634826108a0565b90508073ffffffffffffffffffffffffffffffffffffffff168373ffffffffffffffffffffffffffffffffffffffff1614156106a5576040517f08c379a000000000000000000000000000000000000000000000000000000000815260040161069c90613f5d565b60405180910390fd5b8073ffffffffffffffffffffffffffffffffffffffff166106c4611747565b73ffffffffffffffffffffffffffffffffffffffff1614806106f357506106f2816106ed611747565b61114d565b5b610732576040517f08c379a000000000000000000000000000000000000000000000000000000000815260040161072990613e3d565b60405180910390fd5b61073c838361174f565b505050565b61075261074c611747565b82611808565b610791576040517f08c379a000000000000000000000000000000000000000000000000000000000815260040161078890613fbd565b60405180910390fd5b61079c8383836118e6565b505050565b600760009054906101000a900473ffffffffffffffffffffffffffffffffffffffff1681565b6107e283838360405180602001604052806000815250611024565b505050565b806060015173ffffffffffffffffffffffffffffffffffffffff163373ffffffffffffffffffffffffffffffffffffffff1614610859576040517f08c379a000000000000000000000000000000000000000000000000000000000815260040161085090613dfd565b60405180910390fd5b600061086482611b42565b50905060008160001c905060016009600083815260200190815260200160002060006101000a81548160ff021916908315150217905550505050565b6000806002600084815260200190815260200160002060009054906101000a900473ffffffffffffffffffffffffffffffffffffffff169050600073ffffffffffffffffffffffffffffffffffffffff168173ffffffffffffffffffffffffffffffffffffffff161415610949576040517f08c379a000000000000000000000000000000000000000000000000000000000815260040161094090613e7d565b60405180910390fd5b80915050919050565b60008061095e83611b42565b915091506000808360001c8360001c91509150600061097c826108a0565b9050610987836116db565b6109c6576040517f08c379a00000000000000000000000000000000000000000000000000000000081526004016109bd9061403d565b60405180910390fd5b856020015160086000858152602001908152602001600020546109e9919061425b565b4211610a2a576040517f08c379a0000000000000000000000000000000000000000000000000000000008152600401610a2190613fdd565b60405180910390fd5b6000600860008581526020019081526020016000205411610a80576040517f08c379a0000000000000000000000000000000000000000000000000000000008152600401610a7790613d7d565b60405180910390fd5b60006008600085815260200190815260200160002081905550600760009054906101000a900473ffffffffffffffffffffffffffffffffffffffff1673ffffffffffffffffffffffffffffffffffffffff1663a9059cbb8288600001516040518363ffffffff1660e01b8152600401610afa929190613a7a565b602060405180830381600087803b158015610b1457600080fd5b505af1158015610b28573d6000803e3d6000fd5b505050506040513d601f19601f82011682018060405250810190610b4c9190613051565b50505050505050565b60008073ffffffffffffffffffffffffffffffffffffffff168273ffffffffffffffffffffffffffffffffffffffff161415610bc6576040517f08c379a0000000000000000000000000000000000000000000000000000000008152600401610bbd90613e5d565b60405180910390fd5b600360008373ffffffffffffffffffffffffffffffffffffffff1673ffffffffffffffffffffffffffffffffffffffff168152602001908152602001600020549050919050565b6000610c17611c99565b905090565b60026006541415610c62576040517f08c379a0000000000000000000000000000000000000000000000000000000008152600401610c599061401d565b60405180910390fd5b6002600681905550600080610c7684611b42565b915091506000610c8583611db3565b90506000610c938286611de3565b9050856060015173ffffffffffffffffffffffffffffffffffffffff168173ffffffffffffffffffffffffffffffffffffffff1614610d07576040517f08c379a0000000000000000000000000000000000000000000000000000000008152600401610cfe90613f3d565b60405180910390fd5b60008460001c9050610d1d876060015182611e0a565b4260086000838152602001908152602001600020819055506009600082815260200190815260200160002060009054906101000a900460ff1615610d96576040517f08c379a0000000000000000000000000000000000000000000000000000000008152600401610d8d90613f9d565b60405180910390fd5b60008460001c9050610da83382611e0a565b600760009054906101000a900473ffffffffffffffffffffffffffffffffffffffff1673ffffffffffffffffffffffffffffffffffffffff166323b872dd8960600151338b604001516040518463ffffffff1660e01b8152600401610e0f939291906139f7565b602060405180830381600087803b158015610e2957600080fd5b505af1158015610e3d573d6000803e3d6000fd5b505050506040513d601f19601f82011682018060405250810190610e619190613051565b50600760009054906101000a900473ffffffffffffffffffffffffffffffffffffffff1673ffffffffffffffffffffffffffffffffffffffff166323b872dd33308b600001516040518463ffffffff1660e01b8152600401610ec5939291906139f7565b602060405180830381600087803b158015610edf57600080fd5b505af1158015610ef3573d6000803e3d6000fd5b505050506040513d601f19601f82011682018060405250810190610f179190613051565b503373ffffffffffffffffffffffffffffffffffffffff167fe55fafe11811198d0f6025af999b664fc33d08499ed34bfb1be96a6cc271d5a5898484604051610f629392919061407d565b60405180910390a250505050505060016006819055505050565b606060018054610f8b9061444f565b80601f0160208091040260200160405190810160405280929190818152602001828054610fb79061444f565b80156110045780601f10610fd957610100808354040283529160200191611004565b820191906000526020600020905b815481529060010190602001808311610fe757829003601f168201915b5050505050905090565b611020611019611747565b8383611e28565b5050565b61103561102f611747565b83611808565b611074576040517f08c379a000000000000000000000000000000000000000000000000000000000815260040161106b90613fbd565b60405180910390fd5b61108084848484611f95565b50505050565b60096020528060005260406000206000915054906101000a900460ff1681565b60606110b1826116db565b6110f0576040517f08c379a00000000000000000000000000000000000000000000000000000000081526004016110e790613f1d565b60405180910390fd5b60006110fa611ff1565b9050600081511161111a5760405180602001604052806000815250611145565b8061112484612008565b604051602001611135929190613992565b6040516020818303038152906040525b915050919050565b6000600560008473ffffffffffffffffffffffffffffffffffffffff1673ffffffffffffffffffffffffffffffffffffffff16815260200190815260200160002060008373ffffffffffffffffffffffffffffffffffffffff1673ffffffffffffffffffffffffffffffffffffffff16815260200190815260200160002060009054906101000a900460ff16905092915050565b60086020528060005260406000206000915090505481565b6002600654141561123f576040517f08c379a00000000000000000000000000000000000000000000000000000000081526004016112369061401d565b60405180910390fd5b600260068190555060008061125383611b42565b915091506000808360001c8360001c91509150600080611272846108a0565b61127b846108a0565b915091503373ffffffffffffffffffffffffffffffffffffffff168273ffffffffffffffffffffffffffffffffffffffff16146112ed576040517f08c379a00000000000000000000000000000000000000000000000000000000081526004016112e490613f7d565b60405180910390fd5b6000600860008681526020019081526020016000205411611343576040517f08c379a000000000000000000000000000000000000000000000000000000000815260040161133a9061405d565b60405180910390fd5b86602001516008600086815260200190815260200160002054611366919061425b565b4211156113a8576040517f08c379a000000000000000000000000000000000000000000000000000000000815260040161139f90613ffd565b60405180910390fd5b60006008600086815260200190815260200160002081905550600760009054906101000a900473ffffffffffffffffffffffffffffffffffffffff1673ffffffffffffffffffffffffffffffffffffffff1663a9059cbb8389600001516040518363ffffffff1660e01b8152600401611422929190613a7a565b602060405180830381600087803b15801561143c57600080fd5b505af1158015611450573d6000803e3d6000fd5b505050506040513d601f19601f820116820180604052508101906114749190613051565b5060005b8760a001515181101561157a5760008860a0015182815181106114c4577f4e487b7100000000000000000000000000000000000000000000000000000000600052603260045260246000fd5b60200260200101519050806000015173ffffffffffffffffffffffffffffffffffffffff166323b872dd858584602001516040518463ffffffff1660e01b8152600401611513939291906139f7565b602060405180830381600087803b15801561152d57600080fd5b505af1158015611541573d6000803e3d6000fd5b505050506040513d601f19601f820116820180604052508101906115659190613051565b50508080611572906144b2565b915050611478565b5060005b8760c001515181101561165f5760008860c0015182815181106115ca577f4e487b7100000000000000000000000000000000000000000000000000000000600052603260045260246000fd5b60200260200101519050806000015173ffffffffffffffffffffffffffffffffffffffff166323b872dd858584602001516040518463ffffffff1660e01b8152600401611619939291906139f7565b600060405180830381600087803b15801561163357600080fd5b505af1158015611647573d6000803e3d6000fd5b50505050508080611657906144b2565b91505061157e565b50505050505050600160068190555050565b60007f01ffc9a7000000000000000000000000000000000000000000000000000000007bffffffffffffffffffffffffffffffffffffffffffffffffffffffff1916827bffffffffffffffffffffffffffffffffffffffffffffffffffffffff1916149050919050565b60008073ffffffffffffffffffffffffffffffffffffffff166002600084815260200190815260200160002060009054906101000a900473ffffffffffffffffffffffffffffffffffffffff1673ffffffffffffffffffffffffffffffffffffffff1614159050919050565b600033905090565b816004600083815260200190815260200160002060006101000a81548173ffffffffffffffffffffffffffffffffffffffff021916908373ffffffffffffffffffffffffffffffffffffffff160217905550808273ffffffffffffffffffffffffffffffffffffffff166117c2836108a0565b73ffffffffffffffffffffffffffffffffffffffff167f8c5be1e5ebec7d5bd14f71427d1e84f3dd0314c0f7b2291e5b200ac8c7c3b92560405160405180910390a45050565b6000611813826116db565b611852576040517f08c379a000000000000000000000000000000000000000000000000000000000815260040161184990613e1d565b60405180910390fd5b600061185d836108a0565b90508073ffffffffffffffffffffffffffffffffffffffff168473ffffffffffffffffffffffffffffffffffffffff1614806118cc57508373ffffffffffffffffffffffffffffffffffffffff166118b4846105a4565b73ffffffffffffffffffffffffffffffffffffffff16145b806118dd57506118dc818561114d565b5b91505092915050565b8273ffffffffffffffffffffffffffffffffffffffff16611906826108a0565b73ffffffffffffffffffffffffffffffffffffffff161461195c576040517f08c379a000000000000000000000000000000000000000000000000000000000815260040161195390613efd565b60405180910390fd5b600073ffffffffffffffffffffffffffffffffffffffff168273ffffffffffffffffffffffffffffffffffffffff1614156119cc576040517f08c379a00000000000000000000000000000000000000000000000000000000081526004016119c390613d9d565b60405180910390fd5b6119d78383836121b5565b6119e260008261174f565b6001600360008573ffffffffffffffffffffffffffffffffffffffff1673ffffffffffffffffffffffffffffffffffffffff1681526020019081526020016000206000828254611a3291906142e2565b925050819055506001600360008473ffffffffffffffffffffffffffffffffffffffff1673ffffffffffffffffffffffffffffffffffffffff1681526020019081526020016000206000828254611a89919061425b565b92505081905550816002600083815260200190815260200160002060006101000a81548173ffffffffffffffffffffffffffffffffffffffff021916908373ffffffffffffffffffffffffffffffffffffffff160217905550808273ffffffffffffffffffffffffffffffffffffffff168473ffffffffffffffffffffffffffffffffffffffff167fddf252ad1be2c89b69c2b068fc378daa952ba7f163c4a11628f55a4df523b3ef60405160405180910390a4505050565b600080611b4d611c99565b836000015184602001518560400151866060015187608001518860a00151604051602001611b7b9190613aa3565b604051602081830303815290604052805190602001208960c00151604051602001611ba69190613ac5565b60405160208183030381529060405280519060200120604051602001611bd3989796959493929190613b70565b604051602081830303815290604052805190602001209150611bf3611c99565b836000015184602001518560400151866060015187608001518860a00151604051602001611c219190613aa3565b604051602081830303815290604052805190602001208960c00151604051602001611c4c9190613ac5565b604051602081830303815290604052805190602001206001604051602001611c7c99989796959493929190613bee565b604051602081830303815290604052805190602001209050915091565b60007f000000000000000000000000000000000000000000000000000000000000000073ffffffffffffffffffffffffffffffffffffffff163073ffffffffffffffffffffffffffffffffffffffff16148015611d1557507f000000000000000000000000000000000000000000000000000000000000000046145b15611d42577f00000000000000000000000000000000000000000000000000000000000000009050611db0565b611dad7f00000000000000000000000000000000000000000000000000000000000000007f00000000000000000000000000000000000000000000000000000000000000007f00000000000000000000000000000000000000000000000000000000000000006121ba565b90505b90565b600081604051602001611dc691906139b6565b604051602081830303815290604052805190602001209050919050565b6000806000611df285856121f4565b91509150611dff81612277565b819250505092915050565b611e248282604051806020016040528060008152506125c8565b5050565b8173ffffffffffffffffffffffffffffffffffffffff168373ffffffffffffffffffffffffffffffffffffffff161415611e97576040517f08c379a0000000000000000000000000000000000000000000000000000000008152600401611e8e90613dbd565b60405180910390fd5b80600560008573ffffffffffffffffffffffffffffffffffffffff1673ffffffffffffffffffffffffffffffffffffffff16815260200190815260200160002060008473ffffffffffffffffffffffffffffffffffffffff1673ffffffffffffffffffffffffffffffffffffffff16815260200190815260200160002060006101000a81548160ff0219169083151502179055508173ffffffffffffffffffffffffffffffffffffffff168373ffffffffffffffffffffffffffffffffffffffff167f17307eab39ab6107e8899845ad3d59bd9653f200f220920489ca2b5937696c3183604051611f889190613ae7565b60405180910390a3505050565b611fa08484846118e6565b611fac84848484612623565b611feb576040517f08c379a0000000000000000000000000000000000000000000000000000000008152600401611fe290613d3d565b60405180910390fd5b50505050565b606060405180602001604052806000815250905090565b60606000821415612050576040518060400160405280600181526020017f300000000000000000000000000000000000000000000000000000000000000081525090506121b0565b600082905060005b6000821461208257808061206b906144b2565b915050600a8261207b91906142b1565b9150612058565b60008167ffffffffffffffff8111156120c4577f4e487b7100000000000000000000000000000000000000000000000000000000600052604160045260246000fd5b6040519080825280601f01601f1916602001820160405280156120f65781602001600182028036833780820191505090505b5090505b600085146121a95760018261210f91906142e2565b9150600a8561211e9190614505565b603061212a919061425b565b60f81b818381518110612166577f4e487b7100000000000000000000000000000000000000000000000000000000600052603260045260246000fd5b60200101907effffffffffffffffffffffffffffffffffffffffffffffffffffffffffffff1916908160001a905350600a856121a291906142b1565b94506120fa565b8093505050505b919050565b505050565b600083838346306040516020016121d5959493929190613b1d565b6040516020818303038152906040528051906020012090509392505050565b6000806041835114156122365760008060006020860151925060408601519150606086015160001a905061222a878285856127ba565b94509450505050612270565b60408351141561226757600080602085015191506040850151905061225c8683836128c7565b935093505050612270565b60006002915091505b9250929050565b600060048111156122b1577f4e487b7100000000000000000000000000000000000000000000000000000000600052602160045260246000fd5b8160048111156122ea577f4e487b7100000000000000000000000000000000000000000000000000000000600052602160045260246000fd5b14156122f5576125c5565b6001600481111561232f577f4e487b7100000000000000000000000000000000000000000000000000000000600052602160045260246000fd5b816004811115612368577f4e487b7100000000000000000000000000000000000000000000000000000000600052602160045260246000fd5b14156123a9576040517f08c379a00000000000000000000000000000000000000000000000000000000081526004016123a090613cfd565b60405180910390fd5b600260048111156123e3577f4e487b7100000000000000000000000000000000000000000000000000000000600052602160045260246000fd5b81600481111561241c577f4e487b7100000000000000000000000000000000000000000000000000000000600052602160045260246000fd5b141561245d576040517f08c379a000000000000000000000000000000000000000000000000000000000815260040161245490613d1d565b60405180910390fd5b60036004811115612497577f4e487b7100000000000000000000000000000000000000000000000000000000600052602160045260246000fd5b8160048111156124d0577f4e487b7100000000000000000000000000000000000000000000000000000000600052602160045260246000fd5b1415612511576040517f08c379a000000000000000000000000000000000000000000000000000000000815260040161250890613ddd565b60405180910390fd5b60048081111561254a577f4e487b7100000000000000000000000000000000000000000000000000000000600052602160045260246000fd5b816004811115612583577f4e487b7100000000000000000000000000000000000000000000000000000000600052602160045260246000fd5b14156125c4576040517f08c379a00000000000000000000000000000000000000000000000000000000081526004016125bb90613e9d565b60405180910390fd5b5b50565b6125d28383612915565b6125df6000848484612623565b61261e576040517f08c379a000000000000000000000000000000000000000000000000000000000815260040161261590613d3d565b60405180910390fd5b505050565b60006126448473ffffffffffffffffffffffffffffffffffffffff16612ae3565b156127ad578373ffffffffffffffffffffffffffffffffffffffff1663150b7a0261266d611747565b8786866040518563ffffffff1660e01b815260040161268f9493929190613a2e565b602060405180830381600087803b1580156126a957600080fd5b505af19250505080156126da57506040513d601f19601f820116820180604052508101906126d791906130a3565b60015b61275d573d806000811461270a576040519150601f19603f3d011682016040523d82523d6000602084013e61270f565b606091505b50600081511415612755576040517f08c379a000000000000000000000000000000000000000000000000000000000815260040161274c90613d3d565b60405180910390fd5b805181602001fd5b63150b7a0260e01b7bffffffffffffffffffffffffffffffffffffffffffffffffffffffff1916817bffffffffffffffffffffffffffffffffffffffffffffffffffffffff1916149150506127b2565b600190505b949350505050565b6000807f7fffffffffffffffffffffffffffffff5d576e7357a4501ddfe92f46681b20a08360001c11156127f55760006003915091506128be565b601b8560ff161415801561280d5750601c8560ff1614155b1561281f5760006004915091506128be565b6000600187878787604051600081526020016040526040516128449493929190613c7b565b6020604051602081039080840390855afa158015612866573d6000803e3d6000fd5b505050602060405103519050600073ffffffffffffffffffffffffffffffffffffffff168173ffffffffffffffffffffffffffffffffffffffff1614156128b5576000600192509250506128be565b80600092509250505b94509492505050565b6000806000807f7fffffffffffffffffffffffffffffffffffffffffffffffffffffffffffffff85169150601b8560ff1c019050612907878288856127ba565b935093505050935093915050565b600073ffffffffffffffffffffffffffffffffffffffff168273ffffffffffffffffffffffffffffffffffffffff161415612985576040517f08c379a000000000000000000000000000000000000000000000000000000000815260040161297c90613ebd565b60405180910390fd5b61298e816116db565b156129ce576040517f08c379a00000000000000000000000000000000000000000000000000000000081526004016129c590613d5d565b60405180910390fd5b6129da600083836121b5565b6001600360008473ffffffffffffffffffffffffffffffffffffffff1673ffffffffffffffffffffffffffffffffffffffff1681526020019081526020016000206000828254612a2a919061425b565b92505081905550816002600083815260200190815260200160002060006101000a81548173ffffffffffffffffffffffffffffffffffffffff021916908373ffffffffffffffffffffffffffffffffffffffff160217905550808273ffffffffffffffffffffffffffffffffffffffff16600073ffffffffffffffffffffffffffffffffffffffff167fddf252ad1be2c89b69c2b068fc378daa952ba7f163c4a11628f55a4df523b3ef60405160405180910390a45050565b600080823b905060008111915050919050565b6000612b09612b04846140fb565b6140d6565b90508083825260208201905082856040860282011115612b2857600080fd5b60005b85811015612b585781612b3e8882612d1d565b845260208401935060408301925050600181019050612b2b565b5050509392505050565b6000612b75612b7084614127565b6140d6565b90508083825260208201905082856040860282011115612b9457600080fd5b60005b85811015612bc45781612baa8882612d69565b845260208401935060408301925050600181019050612b97565b5050509392505050565b6000612be1612bdc84614153565b6140d6565b905082815260208101848484011115612bf957600080fd5b612c0484828561440d565b509392505050565b600081359050612c1b81614d08565b92915050565b600082601f830112612c3257600080fd5b8135612c42848260208601612af6565b91505092915050565b600082601f830112612c5c57600080fd5b8135612c6c848260208601612b62565b91505092915050565b600081359050612c8481614d1f565b92915050565b600081519050612c9981614d1f565b92915050565b600081359050612cae81614d36565b92915050565b600081519050612cc381614d36565b92915050565b600082601f830112612cda57600080fd5b8135612cea848260208601612bce565b91505092915050565b600081359050612d0281614d4d565b92915050565b600081359050612d1781614d64565b92915050565b600060408284031215612d2f57600080fd5b612d3960406140d6565b90506000612d4984828501612cf3565b6000830152506020612d5d84828501612e95565b60208301525092915050565b600060408284031215612d7b57600080fd5b612d8560406140d6565b90506000612d9584828501612d08565b6000830152506020612da984828501612e95565b60208301525092915050565b600060e08284031215612dc757600080fd5b612dd160e06140d6565b90506000612de184828501612e95565b6000830152506020612df584828501612e95565b6020830152506040612e0984828501612e95565b6040830152506060612e1d84828501612c0c565b6060830152506080612e3184828501612e95565b60808301525060a082013567ffffffffffffffff811115612e5157600080fd5b612e5d84828501612c21565b60a08301525060c082013567ffffffffffffffff811115612e7d57600080fd5b612e8984828501612c4b565b60c08301525092915050565b600081359050612ea481614d7b565b92915050565b600060208284031215612ebc57600080fd5b6000612eca84828501612c0c565b91505092915050565b60008060408385031215612ee657600080fd5b6000612ef485828601612c0c565b9250506020612f0585828601612c0c565b9150509250929050565b600080600060608486031215612f2457600080fd5b6000612f3286828701612c0c565b9350506020612f4386828701612c0c565b9250506040612f5486828701612e95565b9150509250925092565b60008060008060808587031215612f7457600080fd5b6000612f8287828801612c0c565b9450506020612f9387828801612c0c565b9350506040612fa487828801612e95565b925050606085013567ffffffffffffffff811115612fc157600080fd5b612fcd87828801612cc9565b91505092959194509250565b60008060408385031215612fec57600080fd5b6000612ffa85828601612c0c565b925050602061300b85828601612c75565b9150509250929050565b6000806040838503121561302857600080fd5b600061303685828601612c0c565b925050602061304785828601612e95565b9150509250929050565b60006020828403121561306357600080fd5b600061307184828501612c8a565b91505092915050565b60006020828403121561308c57600080fd5b600061309a84828501612c9f565b91505092915050565b6000602082840312156130b557600080fd5b60006130c384828501612cb4565b91505092915050565b6000602082840312156130de57600080fd5b600082013567ffffffffffffffff8111156130f857600080fd5b61310484828501612db5565b91505092915050565b6000806040838503121561312057600080fd5b600083013567ffffffffffffffff81111561313a57600080fd5b61314685828601612db5565b925050602083013567ffffffffffffffff81111561316357600080fd5b61316f85828601612cc9565b9150509250929050565b60006020828403121561318b57600080fd5b600061319984828501612e95565b91505092915050565b60006131ae8383613864565b60408301905092915050565b60006131c68383613893565b60408301905092915050565b6131db81614316565b82525050565b6131ea81614316565b82525050565b60006131fb826141a4565b61320581856141ea565b935061321083614184565b8060005b8381101561324157815161322888826131a2565b9750613233836141d0565b925050600181019050613214565b5085935050505092915050565b6000613259826141a4565b61326381856141fb565b935061326e83614184565b8060005b8381101561329f57815161328688826131a2565b9750613291836141d0565b925050600181019050613272565b5085935050505092915050565b60006132b7826141af565b6132c1818561420c565b93506132cc83614194565b8060005b838110156132fd5781516132e488826131ba565b97506132ef836141dd565b9250506001810190506132d0565b5085935050505092915050565b6000613315826141af565b61331f818561421d565b935061332a83614194565b8060005b8381101561335b57815161334288826131ba565b975061334d836141dd565b92505060018101905061332e565b5085935050505092915050565b61337181614328565b82525050565b61338081614334565b82525050565b61339761339282614334565b6144fb565b82525050565b60006133a8826141ba565b6133b2818561422e565b93506133c281856020860161441c565b6133cb816145f2565b840191505092915050565b6133df816143c5565b82525050565b6133ee816143c5565b82525050565b6133fd816143e9565b82525050565b600061340e826141c5565b613418818561423f565b935061342881856020860161441c565b613431816145f2565b840191505092915050565b6000613447826141c5565b6134518185614250565b935061346181856020860161441c565b80840191505092915050565b600061347a60188361423f565b915061348582614603565b602082019050919050565b600061349d601f8361423f565b91506134a88261462c565b602082019050919050565b60006134c0601c83614250565b91506134cb82614655565b601c82019050919050565b60006134e360328361423f565b91506134ee8261467e565b604082019050919050565b6000613506601c8361423f565b9150613511826146cd565b602082019050919050565b6000613529602c8361423f565b9150613534826146f6565b604082019050919050565b600061354c60248361423f565b915061355782614745565b604082019050919050565b600061356f60198361423f565b915061357a82614794565b602082019050919050565b600061359260228361423f565b915061359d826147bd565b604082019050919050565b60006135b560158361423f565b91506135c08261480c565b602082019050919050565b60006135d8602c8361423f565b91506135e382614835565b604082019050919050565b60006135fb60388361423f565b915061360682614884565b604082019050919050565b600061361e602a8361423f565b9150613629826148d3565b604082019050919050565b600061364160298361423f565b915061364c82614922565b604082019050919050565b600061366460228361423f565b915061366f82614971565b604082019050919050565b600061368760208361423f565b9150613692826149c0565b602082019050919050565b60006136aa602c8361423f565b91506136b5826149e9565b604082019050919050565b60006136cd60298361423f565b91506136d882614a38565b604082019050919050565b60006136f0602f8361423f565b91506136fb82614a87565b604082019050919050565b600061371360178361423f565b915061371e82614ad6565b602082019050919050565b600061373660218361423f565b915061374182614aff565b604082019050919050565b600061375960238361423f565b915061376482614b4e565b604082019050919050565b600061377c60188361423f565b915061378782614b9d565b602082019050919050565b600061379f60318361423f565b91506137aa82614bc6565b604082019050919050565b60006137c260168361423f565b91506137cd82614c15565b602082019050919050565b60006137e5600e8361423f565b91506137f082614c3e565b602082019050919050565b6000613808601f8361423f565b915061381382614c67565b602082019050919050565b600061382b60158361423f565b915061383682614c90565b602082019050919050565b600061384e60218361423f565b915061385982614cb9565b604082019050919050565b60408201600082015161387a60008501826133d6565b50602082015161388d6020850182613965565b50505050565b6040820160008201516138a960008501826133f4565b5060208201516138bc6020850182613965565b50505050565b600060e0830160008301516138da6000860182613965565b5060208301516138ed6020860182613965565b5060408301516139006040860182613965565b50606083015161391360608601826131d2565b5060808301516139266080860182613965565b5060a083015184820360a086015261393e82826131f0565b91505060c083015184820360c086015261395882826132ac565b9150508091505092915050565b61396e816143ae565b82525050565b61397d816143ae565b82525050565b61398c816143b8565b82525050565b600061399e828561343c565b91506139aa828461343c565b91508190509392505050565b60006139c1826134b3565b91506139cd8284613386565b60208201915081905092915050565b60006020820190506139f160008301846131e1565b92915050565b6000606082019050613a0c60008301866131e1565b613a1960208301856131e1565b613a266040830184613974565b949350505050565b6000608082019050613a4360008301876131e1565b613a5060208301866131e1565b613a5d6040830185613974565b8181036060830152613a6f818461339d565b905095945050505050565b6000604082019050613a8f60008301856131e1565b613a9c6020830184613974565b9392505050565b60006020820190508181036000830152613abd818461324e565b905092915050565b60006020820190508181036000830152613adf818461330a565b905092915050565b6000602082019050613afc6000830184613368565b92915050565b6000602082019050613b176000830184613377565b92915050565b600060a082019050613b326000830188613377565b613b3f6020830187613377565b613b4c6040830186613377565b613b596060830185613974565b613b6660808301846131e1565b9695505050505050565b600061010082019050613b86600083018b613377565b613b93602083018a613974565b613ba06040830189613974565b613bad6060830188613974565b613bba60808301876131e1565b613bc760a0830186613974565b613bd460c0830185613377565b613be160e0830184613377565b9998505050505050505050565b600061012082019050613c04600083018c613377565b613c11602083018b613974565b613c1e604083018a613974565b613c2b6060830189613974565b613c3860808301886131e1565b613c4560a0830187613974565b613c5260c0830186613377565b613c5f60e0830185613377565b613c6d610100830184613368565b9a9950505050505050505050565b6000608082019050613c906000830187613377565b613c9d6020830186613983565b613caa6040830185613377565b613cb76060830184613377565b95945050505050565b6000602082019050613cd560008301846133e5565b92915050565b60006020820190508181036000830152613cf58184613403565b905092915050565b60006020820190508181036000830152613d168161346d565b9050919050565b60006020820190508181036000830152613d3681613490565b9050919050565b60006020820190508181036000830152613d56816134d6565b9050919050565b60006020820190508181036000830152613d76816134f9565b9050919050565b60006020820190508181036000830152613d968161351c565b9050919050565b60006020820190508181036000830152613db68161353f565b9050919050565b60006020820190508181036000830152613dd681613562565b9050919050565b60006020820190508181036000830152613df681613585565b9050919050565b60006020820190508181036000830152613e16816135a8565b9050919050565b60006020820190508181036000830152613e36816135cb565b9050919050565b60006020820190508181036000830152613e56816135ee565b9050919050565b60006020820190508181036000830152613e7681613611565b9050919050565b60006020820190508181036000830152613e9681613634565b9050919050565b60006020820190508181036000830152613eb681613657565b9050919050565b60006020820190508181036000830152613ed68161367a565b9050919050565b60006020820190508181036000830152613ef68161369d565b9050919050565b60006020820190508181036000830152613f16816136c0565b9050919050565b60006020820190508181036000830152613f36816136e3565b9050919050565b60006020820190508181036000830152613f5681613706565b9050919050565b60006020820190508181036000830152613f7681613729565b9050919050565b60006020820190508181036000830152613f968161374c565b9050919050565b60006020820190508181036000830152613fb68161376f565b9050919050565b60006020820190508181036000830152613fd681613792565b9050919050565b60006020820190508181036000830152613ff6816137b5565b9050919050565b60006020820190508181036000830152614016816137d8565b9050919050565b60006020820190508181036000830152614036816137fb565b9050919050565b600060208201905081810360008301526140568161381e565b9050919050565b6000602082019050818103600083015261407681613841565b9050919050565b6000606082019050818103600083015261409781866138c2565b90506140a66020830185613974565b6140b36040830184613974565b949350505050565b60006020820190506140d06000830184613974565b92915050565b60006140e06140f1565b90506140ec8282614481565b919050565b6000604051905090565b600067ffffffffffffffff821115614116576141156145c3565b5b602082029050602081019050919050565b600067ffffffffffffffff821115614142576141416145c3565b5b602082029050602081019050919050565b600067ffffffffffffffff82111561416e5761416d6145c3565b5b614177826145f2565b9050602081019050919050565b6000819050602082019050919050565b6000819050602082019050919050565b600081519050919050565b600081519050919050565b600081519050919050565b600081519050919050565b6000602082019050919050565b6000602082019050919050565b600082825260208201905092915050565b600082825260208201905092915050565b600082825260208201905092915050565b600082825260208201905092915050565b600082825260208201905092915050565b600082825260208201905092915050565b600081905092915050565b6000614266826143ae565b9150614271836143ae565b9250827fffffffffffffffffffffffffffffffffffffffffffffffffffffffffffffffff038211156142a6576142a5614536565b5b828201905092915050565b60006142bc826143ae565b91506142c7836143ae565b9250826142d7576142d6614565565b5b828204905092915050565b60006142ed826143ae565b91506142f8836143ae565b92508282101561430b5761430a614536565b5b828203905092915050565b60006143218261438e565b9050919050565b60008115159050919050565b6000819050919050565b60007fffffffff0000000000000000000000000000000000000000000000000000000082169050919050565b600061437582614316565b9050919050565b600061438782614316565b9050919050565b600073ffffffffffffffffffffffffffffffffffffffff82169050919050565b6000819050919050565b600060ff82169050919050565b60006143d0826143d7565b9050919050565b60006143e28261438e565b9050919050565b60006143f4826143fb565b9050919050565b60006144068261438e565b9050919050565b82818337600083830152505050565b60005b8381101561443a57808201518184015260208101905061441f565b83811115614449576000848401525b50505050565b6000600282049050600182168061446757607f821691505b6020821081141561447b5761447a614594565b5b50919050565b61448a826145f2565b810181811067ffffffffffffffff821117156144a9576144a86145c3565b5b80604052505050565b60006144bd826143ae565b91507fffffffffffffffffffffffffffffffffffffffffffffffffffffffffffffffff8214156144f0576144ef614536565b5b600182019050919050565b6000819050919050565b6000614510826143ae565b915061451b836143ae565b92508261452b5761452a614565565b5b828206905092915050565b7f4e487b7100000000000000000000000000000000000000000000000000000000600052601160045260246000fd5b7f4e487b7100000000000000000000000000000000000000000000000000000000600052601260045260246000fd5b7f4e487b7100000000000000000000000000000000000000000000000000000000600052602260045260246000fd5b7f4e487b7100000000000000000000000000000000000000000000000000000000600052604160045260246000fd5b6000601f19601f8301169050919050565b7f45434453413a20696e76616c6964207369676e61747572650000000000000000600082015250565b7f45434453413a20696e76616c6964207369676e6174757265206c656e67746800600082015250565b7f19457468657265756d205369676e6564204d6573736167653a0a333200000000600082015250565b7f4552433732313a207472616e7366657220746f206e6f6e20455243373231526560008201527f63656976657220696d706c656d656e7465720000000000000000000000000000602082015250565b7f4552433732313a20746f6b656e20616c7265616479206d696e74656400000000600082015250565b7f4f7074696f6e20686173206265656e20657865726369736564206f7220616c7260008201527f6561647920636c65617265640000000000000000000000000000000000000000602082015250565b7f4552433732313a207472616e7366657220746f20746865207a65726f2061646460008201527f7265737300000000000000000000000000000000000000000000000000000000602082015250565b7f4552433732313a20617070726f766520746f2063616c6c657200000000000000600082015250565b7f45434453413a20696e76616c6964207369676e6174757265202773272076616c60008201527f7565000000000000000000000000000000000000000000000000000000000000602082015250565b7f596f7520617265206e6f7420746865206f776e65720000000000000000000000600082015250565b7f4552433732313a206f70657261746f7220717565727920666f72206e6f6e657860008201527f697374656e7420746f6b656e0000000000000000000000000000000000000000602082015250565b7f4552433732313a20617070726f76652063616c6c6572206973206e6f74206f7760008201527f6e6572206e6f7220617070726f76656420666f7220616c6c0000000000000000602082015250565b7f4552433732313a2062616c616e636520717565727920666f7220746865207a6560008201527f726f206164647265737300000000000000000000000000000000000000000000602082015250565b7f4552433732313a206f776e657220717565727920666f72206e6f6e657869737460008201527f656e7420746f6b656e0000000000000000000000000000000000000000000000602082015250565b7f45434453413a20696e76616c6964207369676e6174757265202776272076616c60008201527f7565000000000000000000000000000000000000000000000000000000000000602082015250565b7f4552433732313a206d696e7420746f20746865207a65726f2061646472657373600082015250565b7f4552433732313a20617070726f76656420717565727920666f72206e6f6e657860008201527f697374656e7420746f6b656e0000000000000000000000000000000000000000602082015250565b7f4552433732313a207472616e73666572206f6620746f6b656e2074686174206960008201527f73206e6f74206f776e0000000000000000000000000000000000000000000000602082015250565b7f4552433732314d657461646174613a2055524920717565727920666f72206e6f60008201527f6e6578697374656e7420746f6b656e0000000000000000000000000000000000602082015250565b7f496e76616c6964206f72646572207369676e6174757265000000000000000000600082015250565b7f4552433732313a20617070726f76616c20746f2063757272656e74206f776e6560008201527f7200000000000000000000000000000000000000000000000000000000000000602082015250565b7f43616e6e6f74206578657263697365206f7074696f6e20796f7520646f6e742060008201527f6f776e0000000000000000000000000000000000000000000000000000000000602082015250565b7f4f7264657220686173206265656e2063616e63656c6c65640000000000000000600082015250565b7f4552433732313a207472616e736665722063616c6c6572206973206e6f74206f60008201527f776e6572206e6f7220617070726f766564000000000000000000000000000000602082015250565b7f4f7074696f6e20686173206e6f74206578706972656400000000000000000000600082015250565b7f45787069726564206f7074696f6e000000000000000000000000000000000000600082015250565b7f5265656e7472616e637947756172643a207265656e7472616e742063616c6c00600082015250565b7f4f7074696f6e20646f6573206e6f742065786973740000000000000000000000600082015250565b7f4f7074696f6e2068617320616c7265616479206265656e20657865726369736560008201527f6400000000000000000000000000000000000000000000000000000000000000602082015250565b614d1181614316565b8114614d1c57600080fd5b50565b614d2881614328565b8114614d3357600080fd5b50565b614d3f8161433e565b8114614d4a57600080fd5b50565b614d568161436a565b8114614d6157600080fd5b50565b614d6d8161437c565b8114614d7857600080fd5b50565b614d84816143ae565b8114614d8f57600080fd5b5056fea2646970667358221220d8ae0365362ef82dda59766f102b68d904bf6806f3f1deee267f84d4e17817bb64736f6c63430008040033",
  "devdoc": {
    "kind": "dev",
    "methods": {
      "approve(address,uint256)": {
        "details": "See {IERC721-approve}."
      },
      "balanceOf(address)": {
        "details": "See {IERC721-balanceOf}."
      },
      "getApproved(uint256)": {
        "details": "See {IERC721-getApproved}."
      },
      "isApprovedForAll(address,address)": {
        "details": "See {IERC721-isApprovedForAll}."
      },
      "name()": {
        "details": "See {IERC721Metadata-name}."
      },
      "ownerOf(uint256)": {
        "details": "See {IERC721-ownerOf}."
      },
      "safeTransferFrom(address,address,uint256)": {
        "details": "See {IERC721-safeTransferFrom}."
      },
      "safeTransferFrom(address,address,uint256,bytes)": {
        "details": "See {IERC721-safeTransferFrom}."
      },
      "setApprovalForAll(address,bool)": {
        "details": "See {IERC721-setApprovalForAll}."
      },
      "supportsInterface(bytes4)": {
        "details": "See {IERC165-supportsInterface}."
      },
      "symbol()": {
        "details": "See {IERC721Metadata-symbol}."
      },
      "tokenURI(uint256)": {
        "details": "See {IERC721Metadata-tokenURI}."
      },
      "transferFrom(address,address,uint256)": {
        "details": "See {IERC721-transferFrom}."
      }
    },
    "version": 1
  },
  "userdoc": {
    "kind": "user",
    "methods": {},
    "version": 1
  },
  "storageLayout": {
    "storage": [
      {
        "astId": 714,
        "contract": "contracts/Backspread.sol:Backspread",
        "label": "_name",
        "offset": 0,
        "slot": "0",
        "type": "t_string_storage"
      },
      {
        "astId": 716,
        "contract": "contracts/Backspread.sol:Backspread",
        "label": "_symbol",
        "offset": 0,
        "slot": "1",
        "type": "t_string_storage"
      },
      {
        "astId": 720,
        "contract": "contracts/Backspread.sol:Backspread",
        "label": "_owners",
        "offset": 0,
        "slot": "2",
        "type": "t_mapping(t_uint256,t_address)"
      },
      {
        "astId": 724,
        "contract": "contracts/Backspread.sol:Backspread",
        "label": "_balances",
        "offset": 0,
        "slot": "3",
        "type": "t_mapping(t_address,t_uint256)"
      },
      {
        "astId": 728,
        "contract": "contracts/Backspread.sol:Backspread",
        "label": "_tokenApprovals",
        "offset": 0,
        "slot": "4",
        "type": "t_mapping(t_uint256,t_address)"
      },
      {
        "astId": 734,
        "contract": "contracts/Backspread.sol:Backspread",
        "label": "_operatorApprovals",
        "offset": 0,
        "slot": "5",
        "type": "t_mapping(t_address,t_mapping(t_address,t_bool))"
      },
      {
        "astId": 10,
        "contract": "contracts/Backspread.sol:Backspread",
        "label": "_status",
        "offset": 0,
        "slot": "6",
        "type": "t_uint256"
      },
      {
        "astId": 2814,
        "contract": "contracts/Backspread.sol:Backspread",
        "label": "weth",
        "offset": 0,
        "slot": "7",
        "type": "t_contract(ERC20)585"
      },
      {
        "astId": 2818,
        "contract": "contracts/Backspread.sol:Backspread",
        "label": "tokenIdToCreationTimestamp",
        "offset": 0,
        "slot": "8",
        "type": "t_mapping(t_uint256,t_uint256)"
      },
      {
        "astId": 2822,
        "contract": "contracts/Backspread.sol:Backspread",
        "label": "cancelledOrders",
        "offset": 0,
        "slot": "9",
        "type": "t_mapping(t_uint256,t_bool)"
      }
    ],
    "types": {
      "t_address": {
        "encoding": "inplace",
        "label": "address",
        "numberOfBytes": "20"
      },
      "t_bool": {
        "encoding": "inplace",
        "label": "bool",
        "numberOfBytes": "1"
      },
      "t_contract(ERC20)585": {
        "encoding": "inplace",
        "label": "contract ERC20",
        "numberOfBytes": "20"
      },
      "t_mapping(t_address,t_bool)": {
        "encoding": "mapping",
        "key": "t_address",
        "label": "mapping(address => bool)",
        "numberOfBytes": "32",
        "value": "t_bool"
      },
      "t_mapping(t_address,t_mapping(t_address,t_bool))": {
        "encoding": "mapping",
        "key": "t_address",
        "label": "mapping(address => mapping(address => bool))",
        "numberOfBytes": "32",
        "value": "t_mapping(t_address,t_bool)"
      },
      "t_mapping(t_address,t_uint256)": {
        "encoding": "mapping",
        "key": "t_address",
        "label": "mapping(address => uint256)",
        "numberOfBytes": "32",
        "value": "t_uint256"
      },
      "t_mapping(t_uint256,t_address)": {
        "encoding": "mapping",
        "key": "t_uint256",
        "label": "mapping(uint256 => address)",
        "numberOfBytes": "32",
        "value": "t_address"
      },
      "t_mapping(t_uint256,t_bool)": {
        "encoding": "mapping",
        "key": "t_uint256",
        "label": "mapping(uint256 => bool)",
        "numberOfBytes": "32",
        "value": "t_bool"
      },
      "t_mapping(t_uint256,t_uint256)": {
        "encoding": "mapping",
        "key": "t_uint256",
        "label": "mapping(uint256 => uint256)",
        "numberOfBytes": "32",
        "value": "t_uint256"
      },
      "t_string_storage": {
        "encoding": "bytes",
        "label": "string",
        "numberOfBytes": "32"
      },
      "t_uint256": {
        "encoding": "inplace",
        "label": "uint256",
        "numberOfBytes": "32"
      }
    }
  }
}