{
  "address": "0xe7f1725E7734CE288F8367e1Bb143E90bb3F0512",
  "abi": [
    {
      "inputs": [
        {
          "internalType": "contract ERC20",
          "name": "weth_",
          "type": "address"
        }
      ],
      "stateMutability": "nonpayable",
      "type": "constructor"
    },
    {
      "anonymous": false,
      "inputs": [
        {
          "indexed": true,
          "internalType": "address",
          "name": "owner",
          "type": "address"
        },
        {
          "indexed": true,
          "internalType": "address",
          "name": "approved",
          "type": "address"
        },
        {
          "indexed": true,
          "internalType": "uint256",
          "name": "tokenId",
          "type": "uint256"
        }
      ],
      "name": "Approval",
      "type": "event"
    },
    {
      "anonymous": false,
      "inputs": [
        {
          "indexed": true,
          "internalType": "address",
          "name": "owner",
          "type": "address"
        },
        {
          "indexed": true,
          "internalType": "address",
          "name": "operator",
          "type": "address"
        },
        {
          "indexed": false,
          "internalType": "bool",
          "name": "approved",
          "type": "bool"
        }
      ],
      "name": "ApprovalForAll",
      "type": "event"
    },
    {
      "anonymous": false,
      "inputs": [
        {
          "indexed": true,
          "internalType": "address",
          "name": "from",
          "type": "address"
        },
        {
          "indexed": true,
          "internalType": "address",
          "name": "to",
          "type": "address"
        },
        {
          "indexed": true,
          "internalType": "uint256",
          "name": "tokenId",
          "type": "uint256"
        }
      ],
      "name": "Transfer",
      "type": "event"
    },
    {
      "inputs": [
        {
          "internalType": "address",
          "name": "to",
          "type": "address"
        },
        {
          "internalType": "uint256",
          "name": "tokenId",
          "type": "uint256"
        }
      ],
      "name": "approve",
      "outputs": [],
      "stateMutability": "nonpayable",
      "type": "function"
    },
    {
      "inputs": [
        {
          "internalType": "address",
          "name": "owner",
          "type": "address"
        }
      ],
      "name": "balanceOf",
      "outputs": [
        {
          "internalType": "uint256",
          "name": "",
          "type": "uint256"
        }
      ],
      "stateMutability": "view",
      "type": "function"
    },
    {
      "inputs": [],
      "name": "cancel",
      "outputs": [],
      "stateMutability": "nonpayable",
      "type": "function"
    },
    {
      "inputs": [],
      "name": "exercise",
      "outputs": [],
      "stateMutability": "nonpayable",
      "type": "function"
    },
    {
      "inputs": [],
      "name": "expire",
      "outputs": [],
      "stateMutability": "nonpayable",
      "type": "function"
    },
    {
      "inputs": [
        {
          "components": [
            {
              "internalType": "uint256",
              "name": "strike",
              "type": "uint256"
            },
            {
              "internalType": "uint256",
              "name": "duration",
              "type": "uint256"
            },
            {
              "internalType": "uint256",
              "name": "premium",
              "type": "uint256"
            },
            {
              "internalType": "address",
              "name": "owner",
              "type": "address"
            },
            {
              "internalType": "uint256",
              "name": "nonce",
              "type": "uint256"
            }
          ],
          "internalType": "struct Backspread.Option",
          "name": "option",
          "type": "tuple"
        },
        {
          "internalType": "bytes",
          "name": "signature",
          "type": "bytes"
        }
      ],
      "name": "fillBuyOrder",
      "outputs": [],
      "stateMutability": "nonpayable",
      "type": "function"
    },
    {
      "inputs": [
        {
          "internalType": "uint256",
          "name": "tokenId",
          "type": "uint256"
        }
      ],
      "name": "getApproved",
      "outputs": [
        {
          "internalType": "address",
          "name": "",
          "type": "address"
        }
      ],
      "stateMutability": "view",
      "type": "function"
    },
    {
      "inputs": [
        {
          "internalType": "address",
          "name": "owner",
          "type": "address"
        },
        {
          "internalType": "address",
          "name": "operator",
          "type": "address"
        }
      ],
      "name": "isApprovedForAll",
      "outputs": [
        {
          "internalType": "bool",
          "name": "",
          "type": "bool"
        }
      ],
      "stateMutability": "view",
      "type": "function"
    },
    {
      "inputs": [],
      "name": "name",
      "outputs": [
        {
          "internalType": "string",
          "name": "",
          "type": "string"
        }
      ],
      "stateMutability": "view",
      "type": "function"
    },
    {
      "inputs": [
        {
          "internalType": "uint256",
          "name": "tokenId",
          "type": "uint256"
        }
      ],
      "name": "ownerOf",
      "outputs": [
        {
          "internalType": "address",
          "name": "",
          "type": "address"
        }
      ],
      "stateMutability": "view",
      "type": "function"
    },
    {
      "inputs": [
        {
          "internalType": "address",
          "name": "from",
          "type": "address"
        },
        {
          "internalType": "address",
          "name": "to",
          "type": "address"
        },
        {
          "internalType": "uint256",
          "name": "tokenId",
          "type": "uint256"
        }
      ],
      "name": "safeTransferFrom",
      "outputs": [],
      "stateMutability": "nonpayable",
      "type": "function"
    },
    {
      "inputs": [
        {
          "internalType": "address",
          "name": "from",
          "type": "address"
        },
        {
          "internalType": "address",
          "name": "to",
          "type": "address"
        },
        {
          "internalType": "uint256",
          "name": "tokenId",
          "type": "uint256"
        },
        {
          "internalType": "bytes",
          "name": "_data",
          "type": "bytes"
        }
      ],
      "name": "safeTransferFrom",
      "outputs": [],
      "stateMutability": "nonpayable",
      "type": "function"
    },
    {
      "inputs": [
        {
          "internalType": "address",
          "name": "operator",
          "type": "address"
        },
        {
          "internalType": "bool",
          "name": "approved",
          "type": "bool"
        }
      ],
      "name": "setApprovalForAll",
      "outputs": [],
      "stateMutability": "nonpayable",
      "type": "function"
    },
    {
      "inputs": [
        {
          "internalType": "bytes4",
          "name": "interfaceId",
          "type": "bytes4"
        }
      ],
      "name": "supportsInterface",
      "outputs": [
        {
          "internalType": "bool",
          "name": "",
          "type": "bool"
        }
      ],
      "stateMutability": "view",
      "type": "function"
    },
    {
      "inputs": [],
      "name": "symbol",
      "outputs": [
        {
          "internalType": "string",
          "name": "",
          "type": "string"
        }
      ],
      "stateMutability": "view",
      "type": "function"
    },
    {
      "inputs": [
        {
          "internalType": "uint256",
          "name": "tokenId",
          "type": "uint256"
        }
      ],
      "name": "tokenURI",
      "outputs": [
        {
          "internalType": "string",
          "name": "",
          "type": "string"
        }
      ],
      "stateMutability": "view",
      "type": "function"
    },
    {
      "inputs": [
        {
          "internalType": "address",
          "name": "from",
          "type": "address"
        },
        {
          "internalType": "address",
          "name": "to",
          "type": "address"
        },
        {
          "internalType": "uint256",
          "name": "tokenId",
          "type": "uint256"
        }
      ],
      "name": "transferFrom",
      "outputs": [],
      "stateMutability": "nonpayable",
      "type": "function"
    },
    {
      "inputs": [],
      "name": "weth",
      "outputs": [
        {
          "internalType": "contract ERC20",
          "name": "",
          "type": "address"
        }
      ],
      "stateMutability": "view",
      "type": "function"
    }
  ],
  "transactionHash": "0x1330e3585a967f4b0290af6abf06035b8d5320094753fdde647bfed0b8cdff00",
  "args": [
    "0x5FbDB2315678afecb367f032d93F642f64180aa3"
  ],
  "numDeployments": 1,
  "solcInputHash": "28c5e9dd25aef014ff4c9d77e2288329",
  "bytecode": "0x6101406040523480156200001257600080fd5b5060405162003bcc38038062003bcc833981810160405281019062000038919062000344565b6040518060400160405280601281526020017f4261636b737072656164204f7074696f6e7300000000000000000000000000008152506040518060400160405280600581526020017f4241434b4f0000000000000000000000000000000000000000000000000000008152506040518060400160405280600a81526020017f4261636b737072656164000000000000000000000000000000000000000000008152506040518060400160405280600481526020017f76302e390000000000000000000000000000000000000000000000000000000081525060008280519060200120905060008280519060200120905060007f8b73c3c69bb8fe3d512ecc4cf759cc79239f7b179b0ffacaa9a75d522b39400f90508260e081815250508161010081815250504660a08181525050620001798184846200024160201b60201c565b608081815250503073ffffffffffffffffffffffffffffffffffffffff1660c08173ffffffffffffffffffffffffffffffffffffffff1660601b8152505080610120818152505050505050508160009080519060200190620001dd9291906200027d565b508060019080519060200190620001f69291906200027d565b50505080600660006101000a81548173ffffffffffffffffffffffffffffffffffffffff021916908373ffffffffffffffffffffffffffffffffffffffff16021790555050620004db565b600083838346306040516020016200025e959493929190620003a3565b6040516020818303038152906040528051906020012090509392505050565b8280546200028b906200045c565b90600052602060002090601f016020900481019282620002af5760008555620002fb565b82601f10620002ca57805160ff1916838001178555620002fb565b82800160010185558215620002fb579182015b82811115620002fa578251825591602001919060010190620002dd565b5b5090506200030a91906200030e565b5090565b5b80821115620003295760008160009055506001016200030f565b5090565b6000815190506200033e81620004c1565b92915050565b6000602082840312156200035757600080fd5b600062000367848285016200032d565b91505092915050565b6200037b8162000400565b82525050565b6200038c8162000414565b82525050565b6200039d8162000452565b82525050565b600060a082019050620003ba600083018862000381565b620003c9602083018762000381565b620003d8604083018662000381565b620003e7606083018562000392565b620003f6608083018462000370565b9695505050505050565b60006200040d8262000432565b9050919050565b6000819050919050565b60006200042b8262000400565b9050919050565b600073ffffffffffffffffffffffffffffffffffffffff82169050919050565b6000819050919050565b600060028204905060018216806200047557607f821691505b602082108114156200048c576200048b62000492565b5b50919050565b7f4e487b7100000000000000000000000000000000000000000000000000000000600052602260045260246000fd5b620004cc816200041e565b8114620004d857600080fd5b50565b60805160a05160c05160601c60e051610100516101205161369e6200052e60003960006112b1015260006112f3015260006112d2015260006112070152600061125d01526000611286015261369e6000f3fe608060405234801561001057600080fd5b50600436106101165760003560e01c806379599f96116100a2578063b88d4fde11610071578063b88d4fde146102cb578063c87b56dd146102e7578063d32cb0fe14610317578063e985e9c514610321578063ea8a1af01461035157610116565b806379599f961461026b5780638b34aba11461027557806395d89b4114610291578063a22cb465146102af57610116565b806323b872dd116100e957806323b872dd146101b55780633fc8cef3146101d157806342842e0e146101ef5780636352211e1461020b57806370a082311461023b57610116565b806301ffc9a71461011b57806306fdde031461014b578063081812fc14610169578063095ea7b314610199575b600080fd5b6101356004803603810190610130919061239e565b61035b565b6040516101429190612925565b60405180910390f35b61015361043d565b6040516101609190612a54565b60405180910390f35b610183600480360381019061017e9190612444565b6104cf565b6040516101909190612887565b60405180910390f35b6101b360048036038101906101ae9190612339565b610554565b005b6101cf60048036038101906101ca9190612233565b61066c565b005b6101d96106cc565b6040516101e69190612a39565b60405180910390f35b61020960048036038101906102049190612233565b6106f2565b005b61022560048036038101906102209190612444565b610712565b6040516102329190612887565b60405180910390f35b610255600480360381019061025091906121ce565b6107c4565b6040516102629190612cd6565b60405180910390f35b61027361087c565b005b61028f600480360381019061028a91906123f0565b61087e565b005b610299610ae9565b6040516102a69190612a54565b60405180910390f35b6102c960048036038101906102c491906122fd565b610b7b565b005b6102e560048036038101906102e09190612282565b610b91565b005b61030160048036038101906102fc9190612444565b610bf3565b60405161030e9190612a54565b60405180910390f35b61031f610c9a565b005b61033b600480360381019061033691906121f7565b610c9c565b6040516103489190612925565b60405180910390f35b610359610d30565b005b60007f80ac58cd000000000000000000000000000000000000000000000000000000007bffffffffffffffffffffffffffffffffffffffffffffffffffffffff1916827bffffffffffffffffffffffffffffffffffffffffffffffffffffffff1916148061042657507f5b5e139f000000000000000000000000000000000000000000000000000000007bffffffffffffffffffffffffffffffffffffffffffffffffffffffff1916827bffffffffffffffffffffffffffffffffffffffffffffffffffffffff1916145b80610436575061043582610d32565b5b9050919050565b60606000805461044c90612f36565b80601f016020809104026020016040519081016040528092919081815260200182805461047890612f36565b80156104c55780601f1061049a576101008083540402835291602001916104c5565b820191906000526020600020905b8154815290600101906020018083116104a857829003601f168201915b5050505050905090565b60006104da82610d9c565b610519576040517f08c379a000000000000000000000000000000000000000000000000000000000815260040161051090612c16565b60405180910390fd5b6004600083815260200190815260200160002060009054906101000a900473ffffffffffffffffffffffffffffffffffffffff169050919050565b600061055f82610712565b90508073ffffffffffffffffffffffffffffffffffffffff168373ffffffffffffffffffffffffffffffffffffffff1614156105d0576040517f08c379a00000000000000000000000000000000000000000000000000000000081526004016105c790612c96565b60405180910390fd5b8073ffffffffffffffffffffffffffffffffffffffff166105ef610e08565b73ffffffffffffffffffffffffffffffffffffffff16148061061e575061061d81610618610e08565b610c9c565b5b61065d576040517f08c379a000000000000000000000000000000000000000000000000000000000815260040161065490612b76565b60405180910390fd5b6106678383610e10565b505050565b61067d610677610e08565b82610ec9565b6106bc576040517f08c379a00000000000000000000000000000000000000000000000000000000081526004016106b390612cb6565b60405180910390fd5b6106c7838383610fa7565b505050565b600660009054906101000a900473ffffffffffffffffffffffffffffffffffffffff1681565b61070d83838360405180602001604052806000815250610b91565b505050565b6000806002600084815260200190815260200160002060009054906101000a900473ffffffffffffffffffffffffffffffffffffffff169050600073ffffffffffffffffffffffffffffffffffffffff168173ffffffffffffffffffffffffffffffffffffffff1614156107bb576040517f08c379a00000000000000000000000000000000000000000000000000000000081526004016107b290612bb6565b60405180910390fd5b80915050919050565b60008073ffffffffffffffffffffffffffffffffffffffff168273ffffffffffffffffffffffffffffffffffffffff161415610835576040517f08c379a000000000000000000000000000000000000000000000000000000000815260040161082c90612b96565b60405180910390fd5b600360008373ffffffffffffffffffffffffffffffffffffffff1673ffffffffffffffffffffffffffffffffffffffff168152602001908152602001600020549050919050565b565b6000610888611203565b836000015184602001518560400151866060015187608001516040516020016108b696959493929190612993565b60405160208183030381529060405280519060200120905060006108d98261131d565b905060006108e7828561134d565b9050846060015173ffffffffffffffffffffffffffffffffffffffff168173ffffffffffffffffffffffffffffffffffffffff161461095b576040517f08c379a000000000000000000000000000000000000000000000000000000000815260040161095290612c76565b60405180910390fd5b600660009054906101000a900473ffffffffffffffffffffffffffffffffffffffff1673ffffffffffffffffffffffffffffffffffffffff166323b872dd86606001513388604001516040518463ffffffff1660e01b81526004016109c2939291906128a2565b602060405180830381600087803b1580156109dc57600080fd5b505af11580156109f0573d6000803e3d6000fd5b505050506040513d601f19601f82011682018060405250810190610a149190612375565b50600660009054906101000a900473ffffffffffffffffffffffffffffffffffffffff1673ffffffffffffffffffffffffffffffffffffffff166323b872dd333088600001516040518463ffffffff1660e01b8152600401610a78939291906128a2565b602060405180830381600087803b158015610a9257600080fd5b505af1158015610aa6573d6000803e3d6000fd5b505050506040513d601f19601f82011682018060405250810190610aca9190612375565b5060008360001c9050610ae1866060015182611374565b505050505050565b606060018054610af890612f36565b80601f0160208091040260200160405190810160405280929190818152602001828054610b2490612f36565b8015610b715780601f10610b4657610100808354040283529160200191610b71565b820191906000526020600020905b815481529060010190602001808311610b5457829003601f168201915b5050505050905090565b610b8d610b86610e08565b8383611392565b5050565b610ba2610b9c610e08565b83610ec9565b610be1576040517f08c379a0000000000000000000000000000000000000000000000000000000008152600401610bd890612cb6565b60405180910390fd5b610bed848484846114ff565b50505050565b6060610bfe82610d9c565b610c3d576040517f08c379a0000000000000000000000000000000000000000000000000000000008152600401610c3490612c56565b60405180910390fd5b6000610c4761155b565b90506000815111610c675760405180602001604052806000815250610c92565b80610c7184611572565b604051602001610c8292919061283d565b6040516020818303038152906040525b915050919050565b565b6000600560008473ffffffffffffffffffffffffffffffffffffffff1673ffffffffffffffffffffffffffffffffffffffff16815260200190815260200160002060008373ffffffffffffffffffffffffffffffffffffffff1673ffffffffffffffffffffffffffffffffffffffff16815260200190815260200160002060009054906101000a900460ff16905092915050565b565b60007f01ffc9a7000000000000000000000000000000000000000000000000000000007bffffffffffffffffffffffffffffffffffffffffffffffffffffffff1916827bffffffffffffffffffffffffffffffffffffffffffffffffffffffff1916149050919050565b60008073ffffffffffffffffffffffffffffffffffffffff166002600084815260200190815260200160002060009054906101000a900473ffffffffffffffffffffffffffffffffffffffff1673ffffffffffffffffffffffffffffffffffffffff1614159050919050565b600033905090565b816004600083815260200190815260200160002060006101000a81548173ffffffffffffffffffffffffffffffffffffffff021916908373ffffffffffffffffffffffffffffffffffffffff160217905550808273ffffffffffffffffffffffffffffffffffffffff16610e8383610712565b73ffffffffffffffffffffffffffffffffffffffff167f8c5be1e5ebec7d5bd14f71427d1e84f3dd0314c0f7b2291e5b200ac8c7c3b92560405160405180910390a45050565b6000610ed482610d9c565b610f13576040517f08c379a0000000000000000000000000000000000000000000000000000000008152600401610f0a90612b56565b60405180910390fd5b6000610f1e83610712565b90508073ffffffffffffffffffffffffffffffffffffffff168473ffffffffffffffffffffffffffffffffffffffff161480610f8d57508373ffffffffffffffffffffffffffffffffffffffff16610f75846104cf565b73ffffffffffffffffffffffffffffffffffffffff16145b80610f9e5750610f9d8185610c9c565b5b91505092915050565b8273ffffffffffffffffffffffffffffffffffffffff16610fc782610712565b73ffffffffffffffffffffffffffffffffffffffff161461101d576040517f08c379a000000000000000000000000000000000000000000000000000000000815260040161101490612c36565b60405180910390fd5b600073ffffffffffffffffffffffffffffffffffffffff168273ffffffffffffffffffffffffffffffffffffffff16141561108d576040517f08c379a000000000000000000000000000000000000000000000000000000000815260040161108490612af6565b60405180910390fd5b61109883838361171f565b6110a3600082610e10565b6001600360008573ffffffffffffffffffffffffffffffffffffffff1673ffffffffffffffffffffffffffffffffffffffff16815260200190815260200160002060008282546110f39190612e11565b925050819055506001600360008473ffffffffffffffffffffffffffffffffffffffff1673ffffffffffffffffffffffffffffffffffffffff168152602001908152602001600020600082825461114a9190612d8a565b92505081905550816002600083815260200190815260200160002060006101000a81548173ffffffffffffffffffffffffffffffffffffffff021916908373ffffffffffffffffffffffffffffffffffffffff160217905550808273ffffffffffffffffffffffffffffffffffffffff168473ffffffffffffffffffffffffffffffffffffffff167fddf252ad1be2c89b69c2b068fc378daa952ba7f163c4a11628f55a4df523b3ef60405160405180910390a4505050565b60007f000000000000000000000000000000000000000000000000000000000000000073ffffffffffffffffffffffffffffffffffffffff163073ffffffffffffffffffffffffffffffffffffffff1614801561127f57507f000000000000000000000000000000000000000000000000000000000000000046145b156112ac577f0000000000000000000000000000000000000000000000000000000000000000905061131a565b6113177f00000000000000000000000000000000000000000000000000000000000000007f00000000000000000000000000000000000000000000000000000000000000007f0000000000000000000000000000000000000000000000000000000000000000611724565b90505b90565b6000816040516020016113309190612861565b604051602081830303815290604052805190602001209050919050565b600080600061135c858561175e565b91509150611369816117e1565b819250505092915050565b61138e828260405180602001604052806000815250611b32565b5050565b8173ffffffffffffffffffffffffffffffffffffffff168373ffffffffffffffffffffffffffffffffffffffff161415611401576040517f08c379a00000000000000000000000000000000000000000000000000000000081526004016113f890612b16565b60405180910390fd5b80600560008573ffffffffffffffffffffffffffffffffffffffff1673ffffffffffffffffffffffffffffffffffffffff16815260200190815260200160002060008473ffffffffffffffffffffffffffffffffffffffff1673ffffffffffffffffffffffffffffffffffffffff16815260200190815260200160002060006101000a81548160ff0219169083151502179055508173ffffffffffffffffffffffffffffffffffffffff168373ffffffffffffffffffffffffffffffffffffffff167f17307eab39ab6107e8899845ad3d59bd9653f200f220920489ca2b5937696c31836040516114f29190612925565b60405180910390a3505050565b61150a848484610fa7565b61151684848484611b8d565b611555576040517f08c379a000000000000000000000000000000000000000000000000000000000815260040161154c90612ab6565b60405180910390fd5b50505050565b606060405180602001604052806000815250905090565b606060008214156115ba576040518060400160405280600181526020017f3000000000000000000000000000000000000000000000000000000000000000815250905061171a565b600082905060005b600082146115ec5780806115d590612f99565b915050600a826115e59190612de0565b91506115c2565b60008167ffffffffffffffff81111561162e577f4e487b7100000000000000000000000000000000000000000000000000000000600052604160045260246000fd5b6040519080825280601f01601f1916602001820160405280156116605781602001600182028036833780820191505090505b5090505b60008514611713576001826116799190612e11565b9150600a856116889190612fec565b60306116949190612d8a565b60f81b8183815181106116d0577f4e487b7100000000000000000000000000000000000000000000000000000000600052603260045260246000fd5b60200101907effffffffffffffffffffffffffffffffffffffffffffffffffffffffffffff1916908160001a905350600a8561170c9190612de0565b9450611664565b8093505050505b919050565b505050565b6000838383463060405160200161173f959493929190612940565b6040516020818303038152906040528051906020012090509392505050565b6000806041835114156117a05760008060006020860151925060408601519150606086015160001a905061179487828585611d24565b945094505050506117da565b6040835114156117d15760008060208501519150604085015190506117c6868383611e31565b9350935050506117da565b60006002915091505b9250929050565b6000600481111561181b577f4e487b7100000000000000000000000000000000000000000000000000000000600052602160045260246000fd5b816004811115611854577f4e487b7100000000000000000000000000000000000000000000000000000000600052602160045260246000fd5b141561185f57611b2f565b60016004811115611899577f4e487b7100000000000000000000000000000000000000000000000000000000600052602160045260246000fd5b8160048111156118d2577f4e487b7100000000000000000000000000000000000000000000000000000000600052602160045260246000fd5b1415611913576040517f08c379a000000000000000000000000000000000000000000000000000000000815260040161190a90612a76565b60405180910390fd5b6002600481111561194d577f4e487b7100000000000000000000000000000000000000000000000000000000600052602160045260246000fd5b816004811115611986577f4e487b7100000000000000000000000000000000000000000000000000000000600052602160045260246000fd5b14156119c7576040517f08c379a00000000000000000000000000000000000000000000000000000000081526004016119be90612a96565b60405180910390fd5b60036004811115611a01577f4e487b7100000000000000000000000000000000000000000000000000000000600052602160045260246000fd5b816004811115611a3a577f4e487b7100000000000000000000000000000000000000000000000000000000600052602160045260246000fd5b1415611a7b576040517f08c379a0000000000000000000000000000000000000000000000000000000008152600401611a7290612b36565b60405180910390fd5b600480811115611ab4577f4e487b7100000000000000000000000000000000000000000000000000000000600052602160045260246000fd5b816004811115611aed577f4e487b7100000000000000000000000000000000000000000000000000000000600052602160045260246000fd5b1415611b2e576040517f08c379a0000000000000000000000000000000000000000000000000000000008152600401611b2590612bd6565b60405180910390fd5b5b50565b611b3c8383611e7f565b611b496000848484611b8d565b611b88576040517f08c379a0000000000000000000000000000000000000000000000000000000008152600401611b7f90612ab6565b60405180910390fd5b505050565b6000611bae8473ffffffffffffffffffffffffffffffffffffffff1661204d565b15611d17578373ffffffffffffffffffffffffffffffffffffffff1663150b7a02611bd7610e08565b8786866040518563ffffffff1660e01b8152600401611bf994939291906128d9565b602060405180830381600087803b158015611c1357600080fd5b505af1925050508015611c4457506040513d601f19601f82011682018060405250810190611c4191906123c7565b60015b611cc7573d8060008114611c74576040519150601f19603f3d011682016040523d82523d6000602084013e611c79565b606091505b50600081511415611cbf576040517f08c379a0000000000000000000000000000000000000000000000000000000008152600401611cb690612ab6565b60405180910390fd5b805181602001fd5b63150b7a0260e01b7bffffffffffffffffffffffffffffffffffffffffffffffffffffffff1916817bffffffffffffffffffffffffffffffffffffffffffffffffffffffff191614915050611d1c565b600190505b949350505050565b6000807f7fffffffffffffffffffffffffffffff5d576e7357a4501ddfe92f46681b20a08360001c1115611d5f576000600391509150611e28565b601b8560ff1614158015611d775750601c8560ff1614155b15611d89576000600491509150611e28565b600060018787878760405160008152602001604052604051611dae94939291906129f4565b6020604051602081039080840390855afa158015611dd0573d6000803e3d6000fd5b505050602060405103519050600073ffffffffffffffffffffffffffffffffffffffff168173ffffffffffffffffffffffffffffffffffffffff161415611e1f57600060019250925050611e28565b80600092509250505b94509492505050565b6000806000807f7fffffffffffffffffffffffffffffffffffffffffffffffffffffffffffffff85169150601b8560ff1c019050611e7187828885611d24565b935093505050935093915050565b600073ffffffffffffffffffffffffffffffffffffffff168273ffffffffffffffffffffffffffffffffffffffff161415611eef576040517f08c379a0000000000000000000000000000000000000000000000000000000008152600401611ee690612bf6565b60405180910390fd5b611ef881610d9c565b15611f38576040517f08c379a0000000000000000000000000000000000000000000000000000000008152600401611f2f90612ad6565b60405180910390fd5b611f446000838361171f565b6001600360008473ffffffffffffffffffffffffffffffffffffffff1673ffffffffffffffffffffffffffffffffffffffff1681526020019081526020016000206000828254611f949190612d8a565b92505081905550816002600083815260200190815260200160002060006101000a81548173ffffffffffffffffffffffffffffffffffffffff021916908373ffffffffffffffffffffffffffffffffffffffff160217905550808273ffffffffffffffffffffffffffffffffffffffff16600073ffffffffffffffffffffffffffffffffffffffff167fddf252ad1be2c89b69c2b068fc378daa952ba7f163c4a11628f55a4df523b3ef60405160405180910390a45050565b600080823b905060008111915050919050565b600061207361206e84612d16565b612cf1565b90508281526020810184848401111561208b57600080fd5b612096848285612ef4565b509392505050565b6000813590506120ad8161360c565b92915050565b6000813590506120c281613623565b92915050565b6000815190506120d781613623565b92915050565b6000813590506120ec8161363a565b92915050565b6000815190506121018161363a565b92915050565b600082601f83011261211857600080fd5b8135612128848260208601612060565b91505092915050565b600060a0828403121561214357600080fd5b61214d60a0612cf1565b9050600061215d848285016121b9565b6000830152506020612171848285016121b9565b6020830152506040612185848285016121b9565b60408301525060606121998482850161209e565b60608301525060806121ad848285016121b9565b60808301525092915050565b6000813590506121c881613651565b92915050565b6000602082840312156121e057600080fd5b60006121ee8482850161209e565b91505092915050565b6000806040838503121561220a57600080fd5b60006122188582860161209e565b92505060206122298582860161209e565b9150509250929050565b60008060006060848603121561224857600080fd5b60006122568682870161209e565b93505060206122678682870161209e565b9250506040612278868287016121b9565b9150509250925092565b6000806000806080858703121561229857600080fd5b60006122a68782880161209e565b94505060206122b78782880161209e565b93505060406122c8878288016121b9565b925050606085013567ffffffffffffffff8111156122e557600080fd5b6122f187828801612107565b91505092959194509250565b6000806040838503121561231057600080fd5b600061231e8582860161209e565b925050602061232f858286016120b3565b9150509250929050565b6000806040838503121561234c57600080fd5b600061235a8582860161209e565b925050602061236b858286016121b9565b9150509250929050565b60006020828403121561238757600080fd5b6000612395848285016120c8565b91505092915050565b6000602082840312156123b057600080fd5b60006123be848285016120dd565b91505092915050565b6000602082840312156123d957600080fd5b60006123e7848285016120f2565b91505092915050565b60008060c0838503121561240357600080fd5b600061241185828601612131565b92505060a083013567ffffffffffffffff81111561242e57600080fd5b61243a85828601612107565b9150509250929050565b60006020828403121561245657600080fd5b6000612464848285016121b9565b91505092915050565b61247681612e45565b82525050565b61248581612e57565b82525050565b61249481612e63565b82525050565b6124ab6124a682612e63565b612fe2565b82525050565b60006124bc82612d47565b6124c68185612d5d565b93506124d6818560208601612f03565b6124df816130d9565b840191505092915050565b6124f381612ed0565b82525050565b600061250482612d52565b61250e8185612d6e565b935061251e818560208601612f03565b612527816130d9565b840191505092915050565b600061253d82612d52565b6125478185612d7f565b9350612557818560208601612f03565b80840191505092915050565b6000612570601883612d6e565b915061257b826130ea565b602082019050919050565b6000612593601f83612d6e565b915061259e82613113565b602082019050919050565b60006125b6601c83612d7f565b91506125c18261313c565b601c82019050919050565b60006125d9603283612d6e565b91506125e482613165565b604082019050919050565b60006125fc601c83612d6e565b9150612607826131b4565b602082019050919050565b600061261f602483612d6e565b915061262a826131dd565b604082019050919050565b6000612642601983612d6e565b915061264d8261322c565b602082019050919050565b6000612665602283612d6e565b915061267082613255565b604082019050919050565b6000612688602c83612d6e565b9150612693826132a4565b604082019050919050565b60006126ab603883612d6e565b91506126b6826132f3565b604082019050919050565b60006126ce602a83612d6e565b91506126d982613342565b604082019050919050565b60006126f1602983612d6e565b91506126fc82613391565b604082019050919050565b6000612714602283612d6e565b915061271f826133e0565b604082019050919050565b6000612737602083612d6e565b91506127428261342f565b602082019050919050565b600061275a602c83612d6e565b915061276582613458565b604082019050919050565b600061277d602983612d6e565b9150612788826134a7565b604082019050919050565b60006127a0602f83612d6e565b91506127ab826134f6565b604082019050919050565b60006127c3601783612d6e565b91506127ce82613545565b602082019050919050565b60006127e6602183612d6e565b91506127f18261356e565b604082019050919050565b6000612809603183612d6e565b9150612814826135bd565b604082019050919050565b61282881612eb9565b82525050565b61283781612ec3565b82525050565b60006128498285612532565b91506128558284612532565b91508190509392505050565b600061286c826125a9565b9150612878828461249a565b60208201915081905092915050565b600060208201905061289c600083018461246d565b92915050565b60006060820190506128b7600083018661246d565b6128c4602083018561246d565b6128d1604083018461281f565b949350505050565b60006080820190506128ee600083018761246d565b6128fb602083018661246d565b612908604083018561281f565b818103606083015261291a81846124b1565b905095945050505050565b600060208201905061293a600083018461247c565b92915050565b600060a082019050612955600083018861248b565b612962602083018761248b565b61296f604083018661248b565b61297c606083018561281f565b612989608083018461246d565b9695505050505050565b600060c0820190506129a8600083018961248b565b6129b5602083018861281f565b6129c2604083018761281f565b6129cf606083018661281f565b6129dc608083018561246d565b6129e960a083018461281f565b979650505050505050565b6000608082019050612a09600083018761248b565b612a16602083018661282e565b612a23604083018561248b565b612a30606083018461248b565b95945050505050565b6000602082019050612a4e60008301846124ea565b92915050565b60006020820190508181036000830152612a6e81846124f9565b905092915050565b60006020820190508181036000830152612a8f81612563565b9050919050565b60006020820190508181036000830152612aaf81612586565b9050919050565b60006020820190508181036000830152612acf816125cc565b9050919050565b60006020820190508181036000830152612aef816125ef565b9050919050565b60006020820190508181036000830152612b0f81612612565b9050919050565b60006020820190508181036000830152612b2f81612635565b9050919050565b60006020820190508181036000830152612b4f81612658565b9050919050565b60006020820190508181036000830152612b6f8161267b565b9050919050565b60006020820190508181036000830152612b8f8161269e565b9050919050565b60006020820190508181036000830152612baf816126c1565b9050919050565b60006020820190508181036000830152612bcf816126e4565b9050919050565b60006020820190508181036000830152612bef81612707565b9050919050565b60006020820190508181036000830152612c0f8161272a565b9050919050565b60006020820190508181036000830152612c2f8161274d565b9050919050565b60006020820190508181036000830152612c4f81612770565b9050919050565b60006020820190508181036000830152612c6f81612793565b9050919050565b60006020820190508181036000830152612c8f816127b6565b9050919050565b60006020820190508181036000830152612caf816127d9565b9050919050565b60006020820190508181036000830152612ccf816127fc565b9050919050565b6000602082019050612ceb600083018461281f565b92915050565b6000612cfb612d0c565b9050612d078282612f68565b919050565b6000604051905090565b600067ffffffffffffffff821115612d3157612d306130aa565b5b612d3a826130d9565b9050602081019050919050565b600081519050919050565b600081519050919050565b600082825260208201905092915050565b600082825260208201905092915050565b600081905092915050565b6000612d9582612eb9565b9150612da083612eb9565b9250827fffffffffffffffffffffffffffffffffffffffffffffffffffffffffffffffff03821115612dd557612dd461301d565b5b828201905092915050565b6000612deb82612eb9565b9150612df683612eb9565b925082612e0657612e0561304c565b5b828204905092915050565b6000612e1c82612eb9565b9150612e2783612eb9565b925082821015612e3a57612e3961301d565b5b828203905092915050565b6000612e5082612e99565b9050919050565b60008115159050919050565b6000819050919050565b60007fffffffff0000000000000000000000000000000000000000000000000000000082169050919050565b600073ffffffffffffffffffffffffffffffffffffffff82169050919050565b6000819050919050565b600060ff82169050919050565b6000612edb82612ee2565b9050919050565b6000612eed82612e99565b9050919050565b82818337600083830152505050565b60005b83811015612f21578082015181840152602081019050612f06565b83811115612f30576000848401525b50505050565b60006002820490506001821680612f4e57607f821691505b60208210811415612f6257612f6161307b565b5b50919050565b612f71826130d9565b810181811067ffffffffffffffff82111715612f9057612f8f6130aa565b5b80604052505050565b6000612fa482612eb9565b91507fffffffffffffffffffffffffffffffffffffffffffffffffffffffffffffffff821415612fd757612fd661301d565b5b600182019050919050565b6000819050919050565b6000612ff782612eb9565b915061300283612eb9565b9250826130125761301161304c565b5b828206905092915050565b7f4e487b7100000000000000000000000000000000000000000000000000000000600052601160045260246000fd5b7f4e487b7100000000000000000000000000000000000000000000000000000000600052601260045260246000fd5b7f4e487b7100000000000000000000000000000000000000000000000000000000600052602260045260246000fd5b7f4e487b7100000000000000000000000000000000000000000000000000000000600052604160045260246000fd5b6000601f19601f8301169050919050565b7f45434453413a20696e76616c6964207369676e61747572650000000000000000600082015250565b7f45434453413a20696e76616c6964207369676e6174757265206c656e67746800600082015250565b7f19457468657265756d205369676e6564204d6573736167653a0a333200000000600082015250565b7f4552433732313a207472616e7366657220746f206e6f6e20455243373231526560008201527f63656976657220696d706c656d656e7465720000000000000000000000000000602082015250565b7f4552433732313a20746f6b656e20616c7265616479206d696e74656400000000600082015250565b7f4552433732313a207472616e7366657220746f20746865207a65726f2061646460008201527f7265737300000000000000000000000000000000000000000000000000000000602082015250565b7f4552433732313a20617070726f766520746f2063616c6c657200000000000000600082015250565b7f45434453413a20696e76616c6964207369676e6174757265202773272076616c60008201527f7565000000000000000000000000000000000000000000000000000000000000602082015250565b7f4552433732313a206f70657261746f7220717565727920666f72206e6f6e657860008201527f697374656e7420746f6b656e0000000000000000000000000000000000000000602082015250565b7f4552433732313a20617070726f76652063616c6c6572206973206e6f74206f7760008201527f6e6572206e6f7220617070726f76656420666f7220616c6c0000000000000000602082015250565b7f4552433732313a2062616c616e636520717565727920666f7220746865207a6560008201527f726f206164647265737300000000000000000000000000000000000000000000602082015250565b7f4552433732313a206f776e657220717565727920666f72206e6f6e657869737460008201527f656e7420746f6b656e0000000000000000000000000000000000000000000000602082015250565b7f45434453413a20696e76616c6964207369676e6174757265202776272076616c60008201527f7565000000000000000000000000000000000000000000000000000000000000602082015250565b7f4552433732313a206d696e7420746f20746865207a65726f2061646472657373600082015250565b7f4552433732313a20617070726f76656420717565727920666f72206e6f6e657860008201527f697374656e7420746f6b656e0000000000000000000000000000000000000000602082015250565b7f4552433732313a207472616e73666572206f6620746f6b656e2074686174206960008201527f73206e6f74206f776e0000000000000000000000000000000000000000000000602082015250565b7f4552433732314d657461646174613a2055524920717565727920666f72206e6f60008201527f6e6578697374656e7420746f6b656e0000000000000000000000000000000000602082015250565b7f496e76616c6964206f72646572207369676e6174757265000000000000000000600082015250565b7f4552433732313a20617070726f76616c20746f2063757272656e74206f776e6560008201527f7200000000000000000000000000000000000000000000000000000000000000602082015250565b7f4552433732313a207472616e736665722063616c6c6572206973206e6f74206f60008201527f776e6572206e6f7220617070726f766564000000000000000000000000000000602082015250565b61361581612e45565b811461362057600080fd5b50565b61362c81612e57565b811461363757600080fd5b50565b61364381612e6d565b811461364e57600080fd5b50565b61365a81612eb9565b811461366557600080fd5b5056fea2646970667358221220c1ef9c378d769c289d4a71a2cec328a3050db4df0b4be47758b3aa46c1c812f964736f6c63430008040033",
  "devdoc": {
    "kind": "dev",
    "methods": {
      "approve(address,uint256)": {
        "details": "See {IERC721-approve}."
      },
      "balanceOf(address)": {
        "details": "See {IERC721-balanceOf}."
      },
      "getApproved(uint256)": {
        "details": "See {IERC721-getApproved}."
      },
      "isApprovedForAll(address,address)": {
        "details": "See {IERC721-isApprovedForAll}."
      },
      "name()": {
        "details": "See {IERC721Metadata-name}."
      },
      "ownerOf(uint256)": {
        "details": "See {IERC721-ownerOf}."
      },
      "safeTransferFrom(address,address,uint256)": {
        "details": "See {IERC721-safeTransferFrom}."
      },
      "safeTransferFrom(address,address,uint256,bytes)": {
        "details": "See {IERC721-safeTransferFrom}."
      },
      "setApprovalForAll(address,bool)": {
        "details": "See {IERC721-setApprovalForAll}."
      },
      "supportsInterface(bytes4)": {
        "details": "See {IERC165-supportsInterface}."
      },
      "symbol()": {
        "details": "See {IERC721Metadata-symbol}."
      },
      "tokenURI(uint256)": {
        "details": "See {IERC721Metadata-tokenURI}."
      },
      "transferFrom(address,address,uint256)": {
        "details": "See {IERC721-transferFrom}."
      }
    },
    "version": 1
  },
  "userdoc": {
    "kind": "user",
    "methods": {},
    "version": 1
  },
  "storageLayout": {
    "storage": [
      {
        "astId": 674,
        "contract": "contracts/Backspread.sol:Backspread",
        "label": "_name",
        "offset": 0,
        "slot": "0",
        "type": "t_string_storage"
      },
      {
        "astId": 676,
        "contract": "contracts/Backspread.sol:Backspread",
        "label": "_symbol",
        "offset": 0,
        "slot": "1",
        "type": "t_string_storage"
      },
      {
        "astId": 680,
        "contract": "contracts/Backspread.sol:Backspread",
        "label": "_owners",
        "offset": 0,
        "slot": "2",
        "type": "t_mapping(t_uint256,t_address)"
      },
      {
        "astId": 684,
        "contract": "contracts/Backspread.sol:Backspread",
        "label": "_balances",
        "offset": 0,
        "slot": "3",
        "type": "t_mapping(t_address,t_uint256)"
      },
      {
        "astId": 688,
        "contract": "contracts/Backspread.sol:Backspread",
        "label": "_tokenApprovals",
        "offset": 0,
        "slot": "4",
        "type": "t_mapping(t_uint256,t_address)"
      },
      {
        "astId": 694,
        "contract": "contracts/Backspread.sol:Backspread",
        "label": "_operatorApprovals",
        "offset": 0,
        "slot": "5",
        "type": "t_mapping(t_address,t_mapping(t_address,t_bool))"
      },
      {
        "astId": 2760,
        "contract": "contracts/Backspread.sol:Backspread",
        "label": "weth",
        "offset": 0,
        "slot": "6",
        "type": "t_contract(ERC20)545"
      }
    ],
    "types": {
      "t_address": {
        "encoding": "inplace",
        "label": "address",
        "numberOfBytes": "20"
      },
      "t_bool": {
        "encoding": "inplace",
        "label": "bool",
        "numberOfBytes": "1"
      },
      "t_contract(ERC20)545": {
        "encoding": "inplace",
        "label": "contract ERC20",
        "numberOfBytes": "20"
      },
      "t_mapping(t_address,t_bool)": {
        "encoding": "mapping",
        "key": "t_address",
        "label": "mapping(address => bool)",
        "numberOfBytes": "32",
        "value": "t_bool"
      },
      "t_mapping(t_address,t_mapping(t_address,t_bool))": {
        "encoding": "mapping",
        "key": "t_address",
        "label": "mapping(address => mapping(address => bool))",
        "numberOfBytes": "32",
        "value": "t_mapping(t_address,t_bool)"
      },
      "t_mapping(t_address,t_uint256)": {
        "encoding": "mapping",
        "key": "t_address",
        "label": "mapping(address => uint256)",
        "numberOfBytes": "32",
        "value": "t_uint256"
      },
      "t_mapping(t_uint256,t_address)": {
        "encoding": "mapping",
        "key": "t_uint256",
        "label": "mapping(uint256 => address)",
        "numberOfBytes": "32",
        "value": "t_address"
      },
      "t_string_storage": {
        "encoding": "bytes",
        "label": "string",
        "numberOfBytes": "32"
      },
      "t_uint256": {
        "encoding": "inplace",
        "label": "uint256",
        "numberOfBytes": "32"
      }
    }
  }
}