{
  "address": "0x1CE7694dbb9053c16635376c7B5E46356e0F17fD",
  "abi": [
    {
      "inputs": [
        {
          "internalType": "contract ERC20",
          "name": "weth_",
          "type": "address"
        },
        {
          "internalType": "string",
          "name": "baseURI_",
          "type": "string"
        },
        {
          "internalType": "uint256",
          "name": "feeRate_",
          "type": "uint256"
        }
      ],
      "stateMutability": "nonpayable",
      "type": "constructor"
    },
    {
      "anonymous": false,
      "inputs": [
        {
          "indexed": true,
          "internalType": "address",
          "name": "owner",
          "type": "address"
        },
        {
          "indexed": true,
          "internalType": "address",
          "name": "approved",
          "type": "address"
        },
        {
          "indexed": true,
          "internalType": "uint256",
          "name": "tokenId",
          "type": "uint256"
        }
      ],
      "name": "Approval",
      "type": "event"
    },
    {
      "anonymous": false,
      "inputs": [
        {
          "indexed": true,
          "internalType": "address",
          "name": "owner",
          "type": "address"
        },
        {
          "indexed": true,
          "internalType": "address",
          "name": "operator",
          "type": "address"
        },
        {
          "indexed": false,
          "internalType": "bool",
          "name": "approved",
          "type": "bool"
        }
      ],
      "name": "ApprovalForAll",
      "type": "event"
    },
    {
      "anonymous": false,
      "inputs": [
        {
          "components": [
            {
              "internalType": "uint256",
              "name": "strike",
              "type": "uint256"
            },
            {
              "internalType": "uint256",
              "name": "duration",
              "type": "uint256"
            },
            {
              "internalType": "uint256",
              "name": "premium",
              "type": "uint256"
            },
            {
              "internalType": "address",
              "name": "owner",
              "type": "address"
            },
            {
              "internalType": "uint256",
              "name": "nonce",
              "type": "uint256"
            },
            {
              "components": [
                {
                  "internalType": "contract ERC20",
                  "name": "token",
                  "type": "address"
                },
                {
                  "internalType": "uint256",
                  "name": "amount",
                  "type": "uint256"
                }
              ],
              "internalType": "struct Putty.ERC20Info[]",
              "name": "erc20Underlying",
              "type": "tuple[]"
            },
            {
              "components": [
                {
                  "internalType": "contract ERC721",
                  "name": "token",
                  "type": "address"
                },
                {
                  "internalType": "uint256",
                  "name": "tokenId",
                  "type": "uint256"
                }
              ],
              "internalType": "struct Putty.ERC721Info[]",
              "name": "erc721Underlying",
              "type": "tuple[]"
            }
          ],
          "indexed": false,
          "internalType": "struct Putty.Option",
          "name": "option",
          "type": "tuple"
        },
        {
          "indexed": true,
          "internalType": "address",
          "name": "seller",
          "type": "address"
        },
        {
          "indexed": false,
          "internalType": "uint256",
          "name": "tokenId",
          "type": "uint256"
        },
        {
          "indexed": false,
          "internalType": "uint256",
          "name": "shortTokenId",
          "type": "uint256"
        }
      ],
      "name": "BuyFilled",
      "type": "event"
    },
    {
      "anonymous": false,
      "inputs": [
        {
          "components": [
            {
              "internalType": "uint256",
              "name": "strike",
              "type": "uint256"
            },
            {
              "internalType": "uint256",
              "name": "duration",
              "type": "uint256"
            },
            {
              "internalType": "uint256",
              "name": "premium",
              "type": "uint256"
            },
            {
              "internalType": "address",
              "name": "owner",
              "type": "address"
            },
            {
              "internalType": "uint256",
              "name": "nonce",
              "type": "uint256"
            },
            {
              "components": [
                {
                  "internalType": "contract ERC20",
                  "name": "token",
                  "type": "address"
                },
                {
                  "internalType": "uint256",
                  "name": "amount",
                  "type": "uint256"
                }
              ],
              "internalType": "struct Putty.ERC20Info[]",
              "name": "erc20Underlying",
              "type": "tuple[]"
            },
            {
              "components": [
                {
                  "internalType": "contract ERC721",
                  "name": "token",
                  "type": "address"
                },
                {
                  "internalType": "uint256",
                  "name": "tokenId",
                  "type": "uint256"
                }
              ],
              "internalType": "struct Putty.ERC721Info[]",
              "name": "erc721Underlying",
              "type": "tuple[]"
            }
          ],
          "indexed": false,
          "internalType": "struct Putty.Option",
          "name": "option",
          "type": "tuple"
        }
      ],
      "name": "Cancelled",
      "type": "event"
    },
    {
      "anonymous": false,
      "inputs": [
        {
          "components": [
            {
              "internalType": "uint256",
              "name": "strike",
              "type": "uint256"
            },
            {
              "internalType": "uint256",
              "name": "duration",
              "type": "uint256"
            },
            {
              "internalType": "uint256",
              "name": "premium",
              "type": "uint256"
            },
            {
              "internalType": "address",
              "name": "owner",
              "type": "address"
            },
            {
              "internalType": "uint256",
              "name": "nonce",
              "type": "uint256"
            },
            {
              "components": [
                {
                  "internalType": "contract ERC20",
                  "name": "token",
                  "type": "address"
                },
                {
                  "internalType": "uint256",
                  "name": "amount",
                  "type": "uint256"
                }
              ],
              "internalType": "struct Putty.ERC20Info[]",
              "name": "erc20Underlying",
              "type": "tuple[]"
            },
            {
              "components": [
                {
                  "internalType": "contract ERC721",
                  "name": "token",
                  "type": "address"
                },
                {
                  "internalType": "uint256",
                  "name": "tokenId",
                  "type": "uint256"
                }
              ],
              "internalType": "struct Putty.ERC721Info[]",
              "name": "erc721Underlying",
              "type": "tuple[]"
            }
          ],
          "indexed": false,
          "internalType": "struct Putty.Option",
          "name": "option",
          "type": "tuple"
        },
        {
          "indexed": true,
          "internalType": "address",
          "name": "seller",
          "type": "address"
        },
        {
          "indexed": false,
          "internalType": "uint256",
          "name": "tokenId",
          "type": "uint256"
        },
        {
          "indexed": false,
          "internalType": "uint256",
          "name": "shortTokenId",
          "type": "uint256"
        }
      ],
      "name": "Exercised",
      "type": "event"
    },
    {
      "anonymous": false,
      "inputs": [
        {
          "components": [
            {
              "internalType": "uint256",
              "name": "strike",
              "type": "uint256"
            },
            {
              "internalType": "uint256",
              "name": "duration",
              "type": "uint256"
            },
            {
              "internalType": "uint256",
              "name": "premium",
              "type": "uint256"
            },
            {
              "internalType": "address",
              "name": "owner",
              "type": "address"
            },
            {
              "internalType": "uint256",
              "name": "nonce",
              "type": "uint256"
            },
            {
              "components": [
                {
                  "internalType": "contract ERC20",
                  "name": "token",
                  "type": "address"
                },
                {
                  "internalType": "uint256",
                  "name": "amount",
                  "type": "uint256"
                }
              ],
              "internalType": "struct Putty.ERC20Info[]",
              "name": "erc20Underlying",
              "type": "tuple[]"
            },
            {
              "components": [
                {
                  "internalType": "contract ERC721",
                  "name": "token",
                  "type": "address"
                },
                {
                  "internalType": "uint256",
                  "name": "tokenId",
                  "type": "uint256"
                }
              ],
              "internalType": "struct Putty.ERC721Info[]",
              "name": "erc721Underlying",
              "type": "tuple[]"
            }
          ],
          "indexed": false,
          "internalType": "struct Putty.Option",
          "name": "option",
          "type": "tuple"
        },
        {
          "indexed": true,
          "internalType": "address",
          "name": "seller",
          "type": "address"
        },
        {
          "indexed": false,
          "internalType": "uint256",
          "name": "tokenId",
          "type": "uint256"
        },
        {
          "indexed": false,
          "internalType": "uint256",
          "name": "shortTokenId",
          "type": "uint256"
        }
      ],
      "name": "Expired",
      "type": "event"
    },
    {
      "anonymous": false,
      "inputs": [
        {
          "indexed": true,
          "internalType": "address",
          "name": "previousOwner",
          "type": "address"
        },
        {
          "indexed": true,
          "internalType": "address",
          "name": "newOwner",
          "type": "address"
        }
      ],
      "name": "OwnershipTransferred",
      "type": "event"
    },
    {
      "anonymous": false,
      "inputs": [
        {
          "indexed": true,
          "internalType": "address",
          "name": "from",
          "type": "address"
        },
        {
          "indexed": true,
          "internalType": "address",
          "name": "to",
          "type": "address"
        },
        {
          "indexed": true,
          "internalType": "uint256",
          "name": "tokenId",
          "type": "uint256"
        }
      ],
      "name": "Transfer",
      "type": "event"
    },
    {
      "inputs": [
        {
          "internalType": "address",
          "name": "to",
          "type": "address"
        },
        {
          "internalType": "uint256",
          "name": "tokenId",
          "type": "uint256"
        }
      ],
      "name": "approve",
      "outputs": [],
      "stateMutability": "nonpayable",
      "type": "function"
    },
    {
      "inputs": [
        {
          "internalType": "address",
          "name": "owner",
          "type": "address"
        }
      ],
      "name": "balanceOf",
      "outputs": [
        {
          "internalType": "uint256",
          "name": "",
          "type": "uint256"
        }
      ],
      "stateMutability": "view",
      "type": "function"
    },
    {
      "inputs": [],
      "name": "baseURI",
      "outputs": [
        {
          "internalType": "string",
          "name": "",
          "type": "string"
        }
      ],
      "stateMutability": "view",
      "type": "function"
    },
    {
      "inputs": [
        {
          "components": [
            {
              "internalType": "uint256",
              "name": "strike",
              "type": "uint256"
            },
            {
              "internalType": "uint256",
              "name": "duration",
              "type": "uint256"
            },
            {
              "internalType": "uint256",
              "name": "premium",
              "type": "uint256"
            },
            {
              "internalType": "address",
              "name": "owner",
              "type": "address"
            },
            {
              "internalType": "uint256",
              "name": "nonce",
              "type": "uint256"
            },
            {
              "components": [
                {
                  "internalType": "contract ERC20",
                  "name": "token",
                  "type": "address"
                },
                {
                  "internalType": "uint256",
                  "name": "amount",
                  "type": "uint256"
                }
              ],
              "internalType": "struct Putty.ERC20Info[]",
              "name": "erc20Underlying",
              "type": "tuple[]"
            },
            {
              "components": [
                {
                  "internalType": "contract ERC721",
                  "name": "token",
                  "type": "address"
                },
                {
                  "internalType": "uint256",
                  "name": "tokenId",
                  "type": "uint256"
                }
              ],
              "internalType": "struct Putty.ERC721Info[]",
              "name": "erc721Underlying",
              "type": "tuple[]"
            }
          ],
          "internalType": "struct Putty.Option",
          "name": "option",
          "type": "tuple"
        }
      ],
      "name": "cancel",
      "outputs": [],
      "stateMutability": "nonpayable",
      "type": "function"
    },
    {
      "inputs": [
        {
          "internalType": "uint256",
          "name": "",
          "type": "uint256"
        }
      ],
      "name": "cancelledOrders",
      "outputs": [
        {
          "internalType": "bool",
          "name": "",
          "type": "bool"
        }
      ],
      "stateMutability": "view",
      "type": "function"
    },
    {
      "inputs": [],
      "name": "domainSeparatorV4",
      "outputs": [
        {
          "internalType": "bytes32",
          "name": "",
          "type": "bytes32"
        }
      ],
      "stateMutability": "view",
      "type": "function"
    },
    {
      "inputs": [
        {
          "components": [
            {
              "internalType": "uint256",
              "name": "strike",
              "type": "uint256"
            },
            {
              "internalType": "uint256",
              "name": "duration",
              "type": "uint256"
            },
            {
              "internalType": "uint256",
              "name": "premium",
              "type": "uint256"
            },
            {
              "internalType": "address",
              "name": "owner",
              "type": "address"
            },
            {
              "internalType": "uint256",
              "name": "nonce",
              "type": "uint256"
            },
            {
              "components": [
                {
                  "internalType": "contract ERC20",
                  "name": "token",
                  "type": "address"
                },
                {
                  "internalType": "uint256",
                  "name": "amount",
                  "type": "uint256"
                }
              ],
              "internalType": "struct Putty.ERC20Info[]",
              "name": "erc20Underlying",
              "type": "tuple[]"
            },
            {
              "components": [
                {
                  "internalType": "contract ERC721",
                  "name": "token",
                  "type": "address"
                },
                {
                  "internalType": "uint256",
                  "name": "tokenId",
                  "type": "uint256"
                }
              ],
              "internalType": "struct Putty.ERC721Info[]",
              "name": "erc721Underlying",
              "type": "tuple[]"
            }
          ],
          "internalType": "struct Putty.Option",
          "name": "option",
          "type": "tuple"
        }
      ],
      "name": "exercise",
      "outputs": [],
      "stateMutability": "nonpayable",
      "type": "function"
    },
    {
      "inputs": [
        {
          "components": [
            {
              "internalType": "uint256",
              "name": "strike",
              "type": "uint256"
            },
            {
              "internalType": "uint256",
              "name": "duration",
              "type": "uint256"
            },
            {
              "internalType": "uint256",
              "name": "premium",
              "type": "uint256"
            },
            {
              "internalType": "address",
              "name": "owner",
              "type": "address"
            },
            {
              "internalType": "uint256",
              "name": "nonce",
              "type": "uint256"
            },
            {
              "components": [
                {
                  "internalType": "contract ERC20",
                  "name": "token",
                  "type": "address"
                },
                {
                  "internalType": "uint256",
                  "name": "amount",
                  "type": "uint256"
                }
              ],
              "internalType": "struct Putty.ERC20Info[]",
              "name": "erc20Underlying",
              "type": "tuple[]"
            },
            {
              "components": [
                {
                  "internalType": "contract ERC721",
                  "name": "token",
                  "type": "address"
                },
                {
                  "internalType": "uint256",
                  "name": "tokenId",
                  "type": "uint256"
                }
              ],
              "internalType": "struct Putty.ERC721Info[]",
              "name": "erc721Underlying",
              "type": "tuple[]"
            }
          ],
          "internalType": "struct Putty.Option",
          "name": "option",
          "type": "tuple"
        }
      ],
      "name": "expire",
      "outputs": [],
      "stateMutability": "nonpayable",
      "type": "function"
    },
    {
      "inputs": [],
      "name": "feeRate",
      "outputs": [
        {
          "internalType": "uint256",
          "name": "",
          "type": "uint256"
        }
      ],
      "stateMutability": "view",
      "type": "function"
    },
    {
      "inputs": [
        {
          "components": [
            {
              "internalType": "uint256",
              "name": "strike",
              "type": "uint256"
            },
            {
              "internalType": "uint256",
              "name": "duration",
              "type": "uint256"
            },
            {
              "internalType": "uint256",
              "name": "premium",
              "type": "uint256"
            },
            {
              "internalType": "address",
              "name": "owner",
              "type": "address"
            },
            {
              "internalType": "uint256",
              "name": "nonce",
              "type": "uint256"
            },
            {
              "components": [
                {
                  "internalType": "contract ERC20",
                  "name": "token",
                  "type": "address"
                },
                {
                  "internalType": "uint256",
                  "name": "amount",
                  "type": "uint256"
                }
              ],
              "internalType": "struct Putty.ERC20Info[]",
              "name": "erc20Underlying",
              "type": "tuple[]"
            },
            {
              "components": [
                {
                  "internalType": "contract ERC721",
                  "name": "token",
                  "type": "address"
                },
                {
                  "internalType": "uint256",
                  "name": "tokenId",
                  "type": "uint256"
                }
              ],
              "internalType": "struct Putty.ERC721Info[]",
              "name": "erc721Underlying",
              "type": "tuple[]"
            }
          ],
          "internalType": "struct Putty.Option",
          "name": "option",
          "type": "tuple"
        },
        {
          "internalType": "bytes",
          "name": "signature",
          "type": "bytes"
        }
      ],
      "name": "fillBuyOrder",
      "outputs": [],
      "stateMutability": "payable",
      "type": "function"
    },
    {
      "inputs": [
        {
          "internalType": "uint256",
          "name": "tokenId",
          "type": "uint256"
        }
      ],
      "name": "filledOrders",
      "outputs": [
        {
          "internalType": "bool",
          "name": "",
          "type": "bool"
        }
      ],
      "stateMutability": "view",
      "type": "function"
    },
    {
      "inputs": [
        {
          "internalType": "uint256",
          "name": "tokenId",
          "type": "uint256"
        }
      ],
      "name": "getApproved",
      "outputs": [
        {
          "internalType": "address",
          "name": "",
          "type": "address"
        }
      ],
      "stateMutability": "view",
      "type": "function"
    },
    {
      "inputs": [
        {
          "internalType": "address",
          "name": "owner",
          "type": "address"
        },
        {
          "internalType": "address",
          "name": "operator",
          "type": "address"
        }
      ],
      "name": "isApprovedForAll",
      "outputs": [
        {
          "internalType": "bool",
          "name": "",
          "type": "bool"
        }
      ],
      "stateMutability": "view",
      "type": "function"
    },
    {
      "inputs": [],
      "name": "name",
      "outputs": [
        {
          "internalType": "string",
          "name": "",
          "type": "string"
        }
      ],
      "stateMutability": "view",
      "type": "function"
    },
    {
      "inputs": [],
      "name": "owner",
      "outputs": [
        {
          "internalType": "address",
          "name": "",
          "type": "address"
        }
      ],
      "stateMutability": "view",
      "type": "function"
    },
    {
      "inputs": [
        {
          "internalType": "uint256",
          "name": "tokenId",
          "type": "uint256"
        }
      ],
      "name": "ownerOf",
      "outputs": [
        {
          "internalType": "address",
          "name": "",
          "type": "address"
        }
      ],
      "stateMutability": "view",
      "type": "function"
    },
    {
      "inputs": [],
      "name": "renounceOwnership",
      "outputs": [],
      "stateMutability": "nonpayable",
      "type": "function"
    },
    {
      "inputs": [
        {
          "internalType": "address",
          "name": "from",
          "type": "address"
        },
        {
          "internalType": "address",
          "name": "to",
          "type": "address"
        },
        {
          "internalType": "uint256",
          "name": "tokenId",
          "type": "uint256"
        }
      ],
      "name": "safeTransferFrom",
      "outputs": [],
      "stateMutability": "nonpayable",
      "type": "function"
    },
    {
      "inputs": [
        {
          "internalType": "address",
          "name": "from",
          "type": "address"
        },
        {
          "internalType": "address",
          "name": "to",
          "type": "address"
        },
        {
          "internalType": "uint256",
          "name": "tokenId",
          "type": "uint256"
        },
        {
          "internalType": "bytes",
          "name": "_data",
          "type": "bytes"
        }
      ],
      "name": "safeTransferFrom",
      "outputs": [],
      "stateMutability": "nonpayable",
      "type": "function"
    },
    {
      "inputs": [
        {
          "internalType": "address",
          "name": "operator",
          "type": "address"
        },
        {
          "internalType": "bool",
          "name": "approved",
          "type": "bool"
        }
      ],
      "name": "setApprovalForAll",
      "outputs": [],
      "stateMutability": "nonpayable",
      "type": "function"
    },
    {
      "inputs": [
        {
          "internalType": "string",
          "name": "baseURI_",
          "type": "string"
        }
      ],
      "name": "setBaseURI",
      "outputs": [],
      "stateMutability": "nonpayable",
      "type": "function"
    },
    {
      "inputs": [
        {
          "internalType": "uint256",
          "name": "feeRate_",
          "type": "uint256"
        }
      ],
      "name": "setFeeRate",
      "outputs": [],
      "stateMutability": "nonpayable",
      "type": "function"
    },
    {
      "inputs": [
        {
          "internalType": "bytes4",
          "name": "interfaceId",
          "type": "bytes4"
        }
      ],
      "name": "supportsInterface",
      "outputs": [
        {
          "internalType": "bool",
          "name": "",
          "type": "bool"
        }
      ],
      "stateMutability": "view",
      "type": "function"
    },
    {
      "inputs": [],
      "name": "symbol",
      "outputs": [
        {
          "internalType": "string",
          "name": "",
          "type": "string"
        }
      ],
      "stateMutability": "view",
      "type": "function"
    },
    {
      "inputs": [
        {
          "internalType": "uint256",
          "name": "",
          "type": "uint256"
        }
      ],
      "name": "tokenIdToCreationTimestamp",
      "outputs": [
        {
          "internalType": "uint256",
          "name": "",
          "type": "uint256"
        }
      ],
      "stateMutability": "view",
      "type": "function"
    },
    {
      "inputs": [
        {
          "internalType": "uint256",
          "name": "tokenId",
          "type": "uint256"
        }
      ],
      "name": "tokenURI",
      "outputs": [
        {
          "internalType": "string",
          "name": "",
          "type": "string"
        }
      ],
      "stateMutability": "view",
      "type": "function"
    },
    {
      "inputs": [
        {
          "internalType": "address",
          "name": "from",
          "type": "address"
        },
        {
          "internalType": "address",
          "name": "to",
          "type": "address"
        },
        {
          "internalType": "uint256",
          "name": "tokenId",
          "type": "uint256"
        }
      ],
      "name": "transferFrom",
      "outputs": [],
      "stateMutability": "nonpayable",
      "type": "function"
    },
    {
      "inputs": [
        {
          "internalType": "address",
          "name": "newOwner",
          "type": "address"
        }
      ],
      "name": "transferOwnership",
      "outputs": [],
      "stateMutability": "nonpayable",
      "type": "function"
    },
    {
      "inputs": [],
      "name": "uncollectedFees",
      "outputs": [
        {
          "internalType": "uint256",
          "name": "",
          "type": "uint256"
        }
      ],
      "stateMutability": "view",
      "type": "function"
    },
    {
      "inputs": [],
      "name": "weth",
      "outputs": [
        {
          "internalType": "contract ERC20",
          "name": "",
          "type": "address"
        }
      ],
      "stateMutability": "view",
      "type": "function"
    },
    {
      "inputs": [
        {
          "internalType": "address",
          "name": "recipient",
          "type": "address"
        }
      ],
      "name": "withdrawFees",
      "outputs": [],
      "stateMutability": "nonpayable",
      "type": "function"
    }
  ],
  "transactionHash": "0xf491001b1c7799c45b6f5cbabe7315d47b16caa1fd1772ed6fb682a5b03f8dea",
  "args": [
    "0xc778417E063141139Fce010982780140Aa0cD5Ab",
    "https://dev.putty.finance/api/tokenMetadata/4/",
    19
  ],
  "numDeployments": 1,
  "solcInputHash": "d1fcda6ab26e2792b6608880b1f3b07d",
  "bytecode": "0x6101406040523480156200001257600080fd5b5060405162003bb838038062003bb88339810160408190526200003591620002d6565b604080518082018252600d81526c5075747479204f7074696f6e7360981b6020808301919091528251808401845260048082526313d4155560e21b82840152845180860186526005815264507574747960d81b81850190815286518088019097529186526376302e3960e01b938601939093528251902060e08190527ff8b2b1a5b1dc84d78f17906ace5d92c1b0066e99fbf15c813cc50e238f63b0ca6101008190524660a052939491937f8b73c3c69bb8fe3d512ecc4cf759cc79239f7b179b0ffacaa9a75d522b39400f620001518184846040805160208101859052908101839052606081018290524660808201523060a082015260009060c0016040516020818303038152906040528051906020012090509392505050565b6080523060601b60c052610120525050835162000178925060009150602085019062000230565b5080516200018e90600190602084019062000230565b5050600160065550620001a133620001de565b600880546001600160a01b0319166001600160a01b0385161790558151620001d190600990602085019062000230565b50600b55506200042b9050565b600780546001600160a01b038381166001600160a01b0319831681179093556040519116919082907f8be0079c531659141344cd1fd0a4f28419497f9722a3daafe3b4186f6b6457e090600090a35050565b8280546200023e90620003d8565b90600052602060002090601f016020900481019282620002625760008555620002ad565b82601f106200027d57805160ff1916838001178555620002ad565b82800160010185558215620002ad579182015b82811115620002ad57825182559160200191906001019062000290565b50620002bb929150620002bf565b5090565b5b80821115620002bb5760008155600101620002c0565b600080600060608486031215620002eb578283fd5b83516001600160a01b038116811462000302578384fd5b602085810151919450906001600160401b038082111562000321578485fd5b818701915087601f83011262000335578485fd5b8151818111156200034a576200034a62000415565b604051601f8201601f19908116603f0116810190838211818310171562000375576200037562000415565b816040528281528a868487010111156200038d578788fd5b8793505b82841015620003b0578484018601518185018701529285019262000391565b82841115620003c157878684830101525b809750505050505050604084015190509250925092565b600181811c90821680620003ed57607f821691505b602082108114156200040f57634e487b7160e01b600052602260045260246000fd5b50919050565b634e487b7160e01b600052604160045260246000fd5b60805160a05160c05160601c60e051610100516101205161373a6200047e600039600061214a0152600061219901526000612174015260006120cd015260006120f701526000612121015261373a6000f3fe6080604052600436106101d85760003560e01c80636c0360eb11610102578063a22cb46511610095578063e985e9c511610064578063e985e9c51461054c578063ee6f10f114610595578063eff9cdcc146105c2578063f2fde38b146105e257600080fd5b8063a22cb465146104bc578063b88d4fde146104dc578063bc15e601146104fc578063c87b56dd1461052c57600080fd5b8063835051bb116100d1578063835051bb146104605780638da5cb5b1461047357806395d89b4114610491578063978bbdb9146104a657600080fd5b80636c0360eb1461040157806370a0823114610416578063715018a61461043657806378e890ba1461044b57600080fd5b80633fc8cef31161017a57806352c3f9531161014957806352c3f9531461038157806355f804b3146103a15780636352211e146103c1578063679a9472146103e157600080fd5b80633fc8cef3146102fd57806342842e0e1461031d57806345596e2e1461033d578063463ccc741461035d57600080fd5b8063095ea7b3116101b6578063095ea7b31461026c578063164e68de1461028e57806316eea7d5146102ae57806323b872dd146102dd57600080fd5b806301ffc9a7146101dd57806306fdde0314610212578063081812fc14610234575b600080fd5b3480156101e957600080fd5b506101fd6101f83660046130c4565b610602565b60405190151581526020015b60405180910390f35b34801561021e57600080fd5b506102276106e7565b604051610209919061344a565b34801561024057600080fd5b5061025461024f36600461320e565b610779565b6040516001600160a01b039091168152602001610209565b34801561027857600080fd5b5061028c61028736600461307d565b610824565b005b34801561029a57600080fd5b5061028c6102a9366004612f00565b610956565b3480156102ba57600080fd5b506101fd6102c936600461320e565b6000908152600c6020526040902054151590565b3480156102e957600080fd5b5061028c6102f8366004612f54565b610a5b565b34801561030957600080fd5b50600854610254906001600160a01b031681565b34801561032957600080fd5b5061028c610338366004612f54565b610ae2565b34801561034957600080fd5b5061028c61035836600461320e565b610afd565b34801561036957600080fd5b50610373600a5481565b604051908152602001610209565b34801561038d57600080fd5b5061028c61039c366004613175565b610bd3565b3480156103ad57600080fd5b5061028c6103bc3660046130fc565b610caa565b3480156103cd57600080fd5b506102546103dc36600461320e565b610d10565b3480156103ed57600080fd5b5061028c6103fc366004613175565b610d9b565b34801561040d57600080fd5b50610227610f2e565b34801561042257600080fd5b50610373610431366004612f00565b610fbc565b34801561044257600080fd5b5061028c611056565b34801561045757600080fd5b506103736110bc565b61028c61046e3660046131a8565b6110cb565b34801561047f57600080fd5b506007546001600160a01b0316610254565b34801561049d57600080fd5b5061022761149c565b3480156104b257600080fd5b50610373600b5481565b3480156104c857600080fd5b5061028c6104d7366004613050565b6114ab565b3480156104e857600080fd5b5061028c6104f7366004612f94565b6114ba565b34801561050857600080fd5b506101fd61051736600461320e565b600d6020526000908152604090205460ff1681565b34801561053857600080fd5b5061022761054736600461320e565b611548565b34801561055857600080fd5b506101fd610567366004612f1c565b6001600160a01b03918216600090815260056020908152604080832093909416825291909152205460ff1690565b3480156105a157600080fd5b506103736105b036600461320e565b600c6020526000908152604090205481565b3480156105ce57600080fd5b5061028c6105dd366004613175565b611631565b3480156105ee57600080fd5b5061028c6105fd366004612f00565b611a62565b60007fffffffff0000000000000000000000000000000000000000000000000000000082167f80ac58cd00000000000000000000000000000000000000000000000000000000148061069557507fffffffff0000000000000000000000000000000000000000000000000000000082167f5b5e139f00000000000000000000000000000000000000000000000000000000145b806106e157507f01ffc9a7000000000000000000000000000000000000000000000000000000007fffffffff000000000000000000000000000000000000000000000000000000008316145b92915050565b6060600080546106f69061360d565b80601f01602080910402602001604051908101604052809291908181526020018280546107229061360d565b801561076f5780601f106107445761010080835404028352916020019161076f565b820191906000526020600020905b81548152906001019060200180831161075257829003601f168201915b5050505050905090565b6000818152600260205260408120546001600160a01b03166108085760405162461bcd60e51b815260206004820152602c60248201527f4552433732313a20617070726f76656420717565727920666f72206e6f6e657860448201527f697374656e7420746f6b656e000000000000000000000000000000000000000060648201526084015b60405180910390fd5b506000908152600460205260409020546001600160a01b031690565b600061082f82610d10565b9050806001600160a01b0316836001600160a01b031614156108b95760405162461bcd60e51b815260206004820152602160248201527f4552433732313a20617070726f76616c20746f2063757272656e74206f776e6560448201527f720000000000000000000000000000000000000000000000000000000000000060648201526084016107ff565b336001600160a01b03821614806108d557506108d58133610567565b6109475760405162461bcd60e51b815260206004820152603860248201527f4552433732313a20617070726f76652063616c6c6572206973206e6f74206f7760448201527f6e6572206e6f7220617070726f76656420666f7220616c6c000000000000000060648201526084016107ff565b6109518383611b44565b505050565b6007546001600160a01b031633146109b05760405162461bcd60e51b815260206004820181905260248201527f4f776e61626c653a2063616c6c6572206973206e6f7420746865206f776e657260448201526064016107ff565b600a80546000918290556040519091906001600160a01b0384169083908381818185875af1925050503d8060008114610a05576040519150601f19603f3d011682016040523d82523d6000602084013e610a0a565b606091505b50509050806109515760405162461bcd60e51b815260206004820152601d60248201527f455448207472616e7366657220746f2073656c6c6572206661696c656400000060448201526064016107ff565b610a653382611bbf565b610ad75760405162461bcd60e51b815260206004820152603160248201527f4552433732313a207472616e736665722063616c6c6572206973206e6f74206f60448201527f776e6572206e6f7220617070726f76656400000000000000000000000000000060648201526084016107ff565b610951838383611cc7565b610951838383604051806020016040528060008152506114ba565b6007546001600160a01b03163314610b575760405162461bcd60e51b815260206004820181905260248201527f4f776e61626c653a2063616c6c6572206973206e6f7420746865206f776e657260448201526064016107ff565b6103e8811115610bce5760405162461bcd60e51b8152602060048201526024808201527f43616e6e6f74206368617267652067726561746572207468616e20313030252060448201527f666565730000000000000000000000000000000000000000000000000000000060648201526084016107ff565b600b55565b610be36080820160608301612f00565b6001600160a01b0316336001600160a01b031614610c435760405162461bcd60e51b815260206004820152601560248201527f596f7520617265206e6f7420746865206f776e6572000000000000000000000060448201526064016107ff565b6000610c4e82611ea1565b506000818152600d602052604090819020805460ff191660011790555190915081907f32292ee3d5fc68e124c15edb45d4ffd6135287f659f78a46d9cedb5796debd3790610c9d90859061345d565b60405180910390a1505050565b6007546001600160a01b03163314610d045760405162461bcd60e51b815260206004820181905260248201527f4f776e61626c653a2063616c6c6572206973206e6f7420746865206f776e657260448201526064016107ff565b61095160098383612e10565b6000818152600260205260408120546001600160a01b0316806106e15760405162461bcd60e51b815260206004820152602960248201527f4552433732313a206f776e657220717565727920666f72206e6f6e657869737460448201527f656e7420746f6b656e000000000000000000000000000000000000000000000060648201526084016107ff565b600080610da783611ea1565b909250905081816000610db982610d10565b90508560200135600c600085815260200190815260200160002054610dde919061357f565b4211610e2c5760405162461bcd60e51b815260206004820152601660248201527f4f7074696f6e20686173206e6f7420657870697265640000000000000000000060448201526064016107ff565b610e3583611fb9565b610e3e82611fb9565b6040516000906001600160a01b038316908835908381818185875af1925050503d8060008114610e8a576040519150601f19603f3d011682016040523d82523d6000602084013e610e8f565b606091505b5050905080610ee05760405162461bcd60e51b815260206004820152601d60248201527f455448207472616e7366657220746f2073656c6c6572206661696c656400000060448201526064016107ff565b816001600160a01b03167fa4b0dfb354b2efceec0b9c9fe66ccbba7a90a01110ca9f4cc700677f0c6bf92c888686604051610f1d93929190613470565b60405180910390a250505050505050565b60098054610f3b9061360d565b80601f0160208091040260200160405190810160405280929190818152602001828054610f679061360d565b8015610fb45780601f10610f8957610100808354040283529160200191610fb4565b820191906000526020600020905b815481529060010190602001808311610f9757829003601f168201915b505050505081565b60006001600160a01b03821661103a5760405162461bcd60e51b815260206004820152602a60248201527f4552433732313a2062616c616e636520717565727920666f7220746865207a6560448201527f726f20616464726573730000000000000000000000000000000000000000000060648201526084016107ff565b506001600160a01b031660009081526003602052604090205490565b6007546001600160a01b031633146110b05760405162461bcd60e51b815260206004820181905260248201527f4f776e61626c653a2063616c6c6572206973206e6f7420746865206f776e657260448201526064016107ff565b6110ba6000612061565b565b60006110c66120c0565b905090565b6002600654141561111e5760405162461bcd60e51b815260206004820152601f60248201527f5265656e7472616e637947756172643a207265656e7472616e742063616c6c0060448201526064016107ff565b600260065582353410156111745760405162461bcd60e51b815260206004820152600e60248201527f4e6f7420656e6f7567682065746800000000000000000000000000000000000060448201526064016107ff565b60008061118085611ea1565b9092509050818160006111e0836040517f19457468657265756d205369676e6564204d6573736167653a0a3332000000006020820152603c8101829052600090605c01604051602081830303815290604052805190602001209050919050565b905060006112248289898080601f0160208091040260200160405190810160405280939291908181526020018383808284376000920191909152506121e792505050565b905061123660808a0160608b01612f00565b6001600160a01b0316816001600160a01b0316146112965760405162461bcd60e51b815260206004820152601760248201527f496e76616c6964206f72646572207369676e617475726500000000000000000060448201526064016107ff565b6000848152600d602052604090205460ff16156112f55760405162461bcd60e51b815260206004820152601860248201527f4f7264657220686173206265656e2063616e63656c6c6564000000000000000060448201526064016107ff565b6000848152600c6020526040902054156113515760405162461bcd60e51b815260206004820152601d60248201527f4f726465722068617320616c7265616479206265656e2066696c6c656400000060448201526064016107ff565b6000848152600c6020526040902042905561137b61137560808b0160608c01612f00565b8561220b565b611385338461220b565b6008546001600160a01b03166323b872dd6113a660808c0160608d01612f00565b604080517fffffffff0000000000000000000000000000000000000000000000000000000060e085901b1681526001600160a01b0390921660048301523360248301528c01356044820152606401602060405180830381600087803b15801561140e57600080fd5b505af1158015611422573d6000803e3d6000fd5b505050506040513d601f19601f8201168201806040525081019061144691906130a8565b50336001600160a01b03167fe55fafe11811198d0f6025af999b664fc33d08499ed34bfb1be96a6cc271d5a58a868660405161148493929190613470565b60405180910390a25050600160065550505050505050565b6060600180546106f69061360d565b6114b633838361235a565b5050565b6114c43383611bbf565b6115365760405162461bcd60e51b815260206004820152603160248201527f4552433732313a207472616e736665722063616c6c6572206973206e6f74206f60448201527f776e6572206e6f7220617070726f76656400000000000000000000000000000060648201526084016107ff565b61154284848484612429565b50505050565b6000818152600260205260409020546060906001600160a01b03166115d55760405162461bcd60e51b815260206004820152602f60248201527f4552433732314d657461646174613a2055524920717565727920666f72206e6f60448201527f6e6578697374656e7420746f6b656e000000000000000000000000000000000060648201526084016107ff565b60006115df6124b2565b905060008151116115ff576040518060200160405280600081525061162a565b80611609846124c1565b60405160200161161a92919061338b565b6040516020818303038152906040525b9392505050565b600260065414156116845760405162461bcd60e51b815260206004820152601f60248201527f5265656e7472616e637947756172643a207265656e7472616e742063616c6c0060448201526064016107ff565b600260065560008061169583611ea1565b909250905081816000806116a884610d10565b6116b184610d10565b90925090506001600160a01b03821633146117345760405162461bcd60e51b815260206004820152602360248201527f43616e6e6f74206578657263697365206f7074696f6e20796f7520646f6e742060448201527f6f776e000000000000000000000000000000000000000000000000000000000060648201526084016107ff565b6000848152600c6020908152604090912054611753918901359061357f565b4211156117a25760405162461bcd60e51b815260206004820152600e60248201527f45787069726564206f7074696f6e00000000000000000000000000000000000060448201526064016107ff565b6117ab84611fb9565b6117b483611fb9565b60005b6117c460a0890189613495565b90508110156118445760006117dc60a08a018a613495565b838181106117fa57634e487b7160e01b600052603260045260246000fd5b905060400201803603810190611810919061313c565b60208101518151919250611831916001600160a01b0316908690869061260f565b508061183c81613642565b9150506117b7565b5060005b61185560c0890189613495565b905081101561194257600061186d60c08a018a613495565b8381811061188b57634e487b7160e01b600052603260045260246000fd5b9050604002018036038101906118a1919061313c565b805160208201516040517f23b872dd0000000000000000000000000000000000000000000000000000000081526001600160a01b0388811660048301528781166024830152604482019290925292935016906323b872dd90606401600060405180830381600087803b15801561191657600080fd5b505af115801561192a573d6000803e3d6000fd5b5050505050808061193a90613642565b915050611848565b50600b546000906103e890611958908a356135ab565b6119629190613597565b905080600a6000828254611976919061357f565b90915550600090506001600160a01b038416611993838b356135ca565b604051600081818185875af1925050503d80600081146119cf576040519150601f19603f3d011682016040523d82523d6000602084013e6119d4565b606091505b5050905080611a255760405162461bcd60e51b815260206004820152601c60248201527f455448207472616e7366657220746f206275796572206661696c65640000000060448201526064016107ff565b826001600160a01b03167fc98f81e8d001e35f8d697cf14400552044234db6ebffbd07cf09c2eddc0049db8a888860405161148493929190613470565b6007546001600160a01b03163314611abc5760405162461bcd60e51b815260206004820181905260248201527f4f776e61626c653a2063616c6c6572206973206e6f7420746865206f776e657260448201526064016107ff565b6001600160a01b038116611b385760405162461bcd60e51b815260206004820152602660248201527f4f776e61626c653a206e6577206f776e657220697320746865207a65726f206160448201527f646472657373000000000000000000000000000000000000000000000000000060648201526084016107ff565b611b4181612061565b50565b6000818152600460205260409020805473ffffffffffffffffffffffffffffffffffffffff19166001600160a01b0384169081179091558190611b8682610d10565b6001600160a01b03167f8c5be1e5ebec7d5bd14f71427d1e84f3dd0314c0f7b2291e5b200ac8c7c3b92560405160405180910390a45050565b6000818152600260205260408120546001600160a01b0316611c495760405162461bcd60e51b815260206004820152602c60248201527f4552433732313a206f70657261746f7220717565727920666f72206e6f6e657860448201527f697374656e7420746f6b656e000000000000000000000000000000000000000060648201526084016107ff565b6000611c5483610d10565b9050806001600160a01b0316846001600160a01b03161480611c8f5750836001600160a01b0316611c8484610779565b6001600160a01b0316145b80611cbf57506001600160a01b0380821660009081526005602090815260408083209388168352929052205460ff165b949350505050565b826001600160a01b0316611cda82610d10565b6001600160a01b031614611d565760405162461bcd60e51b815260206004820152602960248201527f4552433732313a207472616e73666572206f6620746f6b656e2074686174206960448201527f73206e6f74206f776e000000000000000000000000000000000000000000000060648201526084016107ff565b6001600160a01b038216611dd15760405162461bcd60e51b8152602060048201526024808201527f4552433732313a207472616e7366657220746f20746865207a65726f2061646460448201527f726573730000000000000000000000000000000000000000000000000000000060648201526084016107ff565b611ddc600082611b44565b6001600160a01b0383166000908152600360205260408120805460019290611e059084906135ca565b90915550506001600160a01b0382166000908152600360205260408120805460019290611e3390849061357f565b9091555050600081815260026020526040808220805473ffffffffffffffffffffffffffffffffffffffff19166001600160a01b0386811691821790925591518493918716917fddf252ad1be2c89b69c2b068fc378daa952ba7f163c4a11628f55a4df523b3ef91a4505050565b600080611eac6120c0565b833560208501356040860135611ec86080880160608901612f00565b6080880135611eda60a08a018a613495565b604051602001611eeb9291906133f6565b60408051601f198184030181529190528051602090910120611f1060c08b018b613495565b604051602001611f21929190613436565b60408051601f19818403018152828252805160209182012090830199909952810196909652606086019490945260808501929092526001600160a01b031660a084015260c083015260e08201526101008101919091526101200160408051601f198184030181528282528051602091820120908301819052935001604051602081830303815290604052805190602001209050915091565b6000611fc482610d10565b9050611fd1600083611b44565b6001600160a01b0381166000908152600360205260408120805460019290611ffa9084906135ca565b9091555050600082815260026020526040808220805473ffffffffffffffffffffffffffffffffffffffff19169055518391906001600160a01b038416907fddf252ad1be2c89b69c2b068fc378daa952ba7f163c4a11628f55a4df523b3ef908390a45050565b600780546001600160a01b0383811673ffffffffffffffffffffffffffffffffffffffff19831681179093556040519116919082907f8be0079c531659141344cd1fd0a4f28419497f9722a3daafe3b4186f6b6457e090600090a35050565b6000306001600160a01b037f00000000000000000000000000000000000000000000000000000000000000001614801561211957507f000000000000000000000000000000000000000000000000000000000000000046145b1561214357507f000000000000000000000000000000000000000000000000000000000000000090565b50604080517f00000000000000000000000000000000000000000000000000000000000000006020808301919091527f0000000000000000000000000000000000000000000000000000000000000000828401527f000000000000000000000000000000000000000000000000000000000000000060608301524660808301523060a0808401919091528351808403909101815260c0909201909252805191012090565b60008060006121f68585612697565b9150915061220381612707565b509392505050565b6001600160a01b0382166122615760405162461bcd60e51b815260206004820181905260248201527f4552433732313a206d696e7420746f20746865207a65726f206164647265737360448201526064016107ff565b6000818152600260205260409020546001600160a01b0316156122c65760405162461bcd60e51b815260206004820152601c60248201527f4552433732313a20746f6b656e20616c7265616479206d696e7465640000000060448201526064016107ff565b6001600160a01b03821660009081526003602052604081208054600192906122ef90849061357f565b9091555050600081815260026020526040808220805473ffffffffffffffffffffffffffffffffffffffff19166001600160a01b03861690811790915590518392907fddf252ad1be2c89b69c2b068fc378daa952ba7f163c4a11628f55a4df523b3ef908290a45050565b816001600160a01b0316836001600160a01b031614156123bc5760405162461bcd60e51b815260206004820152601960248201527f4552433732313a20617070726f766520746f2063616c6c65720000000000000060448201526064016107ff565b6001600160a01b03838116600081815260056020908152604080832094871680845294825291829020805460ff191686151590811790915591519182527f17307eab39ab6107e8899845ad3d59bd9653f200f220920489ca2b5937696c31910160405180910390a3505050565b612434848484611cc7565b6124408484848461293e565b6115425760405162461bcd60e51b815260206004820152603260248201527f4552433732313a207472616e7366657220746f206e6f6e20455243373231526560448201527f63656976657220696d706c656d656e746572000000000000000000000000000060648201526084016107ff565b6060600980546106f69061360d565b60608161250157505060408051808201909152600181527f3000000000000000000000000000000000000000000000000000000000000000602082015290565b8160005b811561252b578061251581613642565b91506125249050600a83613597565b9150612505565b60008167ffffffffffffffff81111561255457634e487b7160e01b600052604160045260246000fd5b6040519080825280601f01601f19166020018201604052801561257e576020820181803683370190505b5090505b8415611cbf576125936001836135ca565b91506125a0600a8661365d565b6125ab90603061357f565b60f81b8183815181106125ce57634e487b7160e01b600052603260045260246000fd5b60200101907effffffffffffffffffffffffffffffffffffffffffffffffffffffffffffff1916908160001a905350612608600a86613597565b9450612582565b604080516001600160a01b0385811660248301528416604482015260648082018490528251808303909101815260849091019091526020810180517bffffffffffffffffffffffffffffffffffffffffffffffffffffffff167f23b872dd00000000000000000000000000000000000000000000000000000000179052611542908590612aeb565b6000808251604114156126ce5760208301516040840151606085015160001a6126c287828585612bd0565b94509450505050612700565b8251604014156126f857602083015160408401516126ed868383612cbd565b935093505050612700565b506000905060025b9250929050565b600081600481111561272957634e487b7160e01b600052602160045260246000fd5b14156127325750565b600181600481111561275457634e487b7160e01b600052602160045260246000fd5b14156127a25760405162461bcd60e51b815260206004820152601860248201527f45434453413a20696e76616c6964207369676e6174757265000000000000000060448201526064016107ff565b60028160048111156127c457634e487b7160e01b600052602160045260246000fd5b14156128125760405162461bcd60e51b815260206004820152601f60248201527f45434453413a20696e76616c6964207369676e6174757265206c656e6774680060448201526064016107ff565b600381600481111561283457634e487b7160e01b600052602160045260246000fd5b14156128a85760405162461bcd60e51b815260206004820152602260248201527f45434453413a20696e76616c6964207369676e6174757265202773272076616c60448201527f756500000000000000000000000000000000000000000000000000000000000060648201526084016107ff565b60048160048111156128ca57634e487b7160e01b600052602160045260246000fd5b1415611b415760405162461bcd60e51b815260206004820152602260248201527f45434453413a20696e76616c6964207369676e6174757265202776272076616c60448201527f756500000000000000000000000000000000000000000000000000000000000060648201526084016107ff565b60006001600160a01b0384163b15612ae0576040517f150b7a020000000000000000000000000000000000000000000000000000000081526001600160a01b0385169063150b7a029061299b9033908990889088906004016133ba565b602060405180830381600087803b1580156129b557600080fd5b505af19250505080156129e5575060408051601f3d908101601f191682019092526129e2918101906130e0565b60015b612a95573d808015612a13576040519150601f19603f3d011682016040523d82523d6000602084013e612a18565b606091505b508051612a8d5760405162461bcd60e51b815260206004820152603260248201527f4552433732313a207472616e7366657220746f206e6f6e20455243373231526560448201527f63656976657220696d706c656d656e746572000000000000000000000000000060648201526084016107ff565b805181602001fd5b7fffffffff00000000000000000000000000000000000000000000000000000000167f150b7a0200000000000000000000000000000000000000000000000000000000149050611cbf565b506001949350505050565b6000612b40826040518060400160405280602081526020017f5361666545524332303a206c6f772d6c6576656c2063616c6c206661696c6564815250856001600160a01b0316612d059092919063ffffffff16565b8051909150156109515780806020019051810190612b5e91906130a8565b6109515760405162461bcd60e51b815260206004820152602a60248201527f5361666545524332303a204552433230206f7065726174696f6e20646964206e60448201527f6f7420737563636565640000000000000000000000000000000000000000000060648201526084016107ff565b6000807f7fffffffffffffffffffffffffffffff5d576e7357a4501ddfe92f46681b20a0831115612c075750600090506003612cb4565b8460ff16601b14158015612c1f57508460ff16601c14155b15612c305750600090506004612cb4565b6040805160008082526020820180845289905260ff881692820192909252606081018690526080810185905260019060a0016020604051602081039080840390855afa158015612c84573d6000803e3d6000fd5b5050604051601f1901519150506001600160a01b038116612cad57600060019250925050612cb4565b9150600090505b94509492505050565b6000807f7fffffffffffffffffffffffffffffffffffffffffffffffffffffffffffffff831660ff84901c601b01612cf787828885612bd0565b935093505050935093915050565b6060611cbf848460008585843b612d5e5760405162461bcd60e51b815260206004820152601d60248201527f416464726573733a2063616c6c20746f206e6f6e2d636f6e747261637400000060448201526064016107ff565b600080866001600160a01b03168587604051612d7a919061336f565b60006040518083038185875af1925050503d8060008114612db7576040519150601f19603f3d011682016040523d82523d6000602084013e612dbc565b606091505b5091509150612dcc828286612dd7565b979650505050505050565b60608315612de657508161162a565b825115612df65782518084602001fd5b8160405162461bcd60e51b81526004016107ff919061344a565b828054612e1c9061360d565b90600052602060002090601f016020900481019282612e3e5760008555612e84565b82601f10612e575782800160ff19823516178555612e84565b82800160010185558215612e84579182015b82811115612e84578235825591602001919060010190612e69565b50612e90929150612e94565b5090565b5b80821115612e905760008155600101612e95565b60008083601f840112612eba578182fd5b50813567ffffffffffffffff811115612ed1578182fd5b60208301915083602082850101111561270057600080fd5b600060e08284031215612efa578081fd5b50919050565b600060208284031215612f11578081fd5b813561162a816136b3565b60008060408385031215612f2e578081fd5b8235612f39816136b3565b91506020830135612f49816136b3565b809150509250929050565b600080600060608486031215612f68578081fd5b8335612f73816136b3565b92506020840135612f83816136b3565b929592945050506040919091013590565b60008060008060808587031215612fa9578081fd5b8435612fb4816136b3565b9350602085810135612fc5816136b3565b935060408601359250606086013567ffffffffffffffff80821115612fe8578384fd5b818801915088601f830112612ffb578384fd5b81358181111561300d5761300d61369d565b61301f84601f19601f84011601613506565b91508082528984828501011115613034578485fd5b8084840185840137810190920192909252939692955090935050565b60008060408385031215613062578182fd5b823561306d816136b3565b91506020830135612f49816136c8565b6000806040838503121561308f578182fd5b823561309a816136b3565b946020939093013593505050565b6000602082840312156130b9578081fd5b815161162a816136c8565b6000602082840312156130d5578081fd5b813561162a816136d6565b6000602082840312156130f1578081fd5b815161162a816136d6565b6000806020838503121561310e578182fd5b823567ffffffffffffffff811115613124578283fd5b61313085828601612ea9565b90969095509350505050565b60006040828403121561314d578081fd5b6131556134dd565b8235613160816136b3565b81526020928301359281019290925250919050565b600060208284031215613186578081fd5b813567ffffffffffffffff81111561319c578182fd5b611cbf84828501612ee9565b6000806000604084860312156131bc578081fd5b833567ffffffffffffffff808211156131d3578283fd5b6131df87838801612ee9565b945060208601359150808211156131f4578283fd5b5061320186828701612ea9565b9497909650939450505050565b60006020828403121561321f578081fd5b5035919050565b60008135613233816136b3565b6001600160a01b03168352506020908101359082015260400190565b818352602083019250600081815b848110156132805761326f8683613226565b95506040919091019060010161325d565b5093949350505050565b600081518084526132a28160208601602086016135e1565b601f01601f19169290920160200192915050565b600060e0830182358452602083013560208501526040808401358186015260608401356132e2816136b3565b6001600160a01b031660608601526080848101359086015261330760a0850185613537565b60e060a08801529283905291839061010087015b8183101561333f5761332d8186613226565b9050838501945060018301925061331b565b61334c60c0880188613537565b9550935087810360c089015261336381868661324f565b98975050505050505050565b600082516133818184602087016135e1565b9190910192915050565b6000835161339d8184602088016135e1565b8351908301906133b18183602088016135e1565b01949350505050565b60006001600160a01b038087168352808616602084015250836040830152608060608301526133ec608083018461328a565b9695505050505050565b602080825281018290526000604080830185835b8681101561342a5761341c8383613226565b92509083019060010161340a565b50909695505050505050565b602081526000611cbf60208301848661324f565b60208152600061162a602083018461328a565b60208152600061162a60208301846132b6565b60608152600061348360608301866132b6565b60208301949094525060400152919050565b6000808335601e198436030181126134ab578283fd5b83018035915067ffffffffffffffff8211156134c5578283fd5b6020019150600681901b360382131561270057600080fd5b6040805190810167ffffffffffffffff811182821017156135005761350061369d565b60405290565b604051601f8201601f1916810167ffffffffffffffff8111828210171561352f5761352f61369d565b604052919050565b6000808335601e1984360301811261354d578283fd5b830160208101925035905067ffffffffffffffff81111561356d57600080fd5b8060061b360383131561270057600080fd5b6000821982111561359257613592613671565b500190565b6000826135a6576135a6613687565b500490565b60008160001904831182151516156135c5576135c5613671565b500290565b6000828210156135dc576135dc613671565b500390565b60005b838110156135fc5781810151838201526020016135e4565b838111156115425750506000910152565b600181811c9082168061362157607f821691505b60208210811415612efa57634e487b7160e01b600052602260045260246000fd5b600060001982141561365657613656613671565b5060010190565b60008261366c5761366c613687565b500690565b634e487b7160e01b600052601160045260246000fd5b634e487b7160e01b600052601260045260246000fd5b634e487b7160e01b600052604160045260246000fd5b6001600160a01b0381168114611b4157600080fd5b8015158114611b4157600080fd5b7fffffffff0000000000000000000000000000000000000000000000000000000081168114611b4157600080fdfea264697066735822122084fde45ce16d7881326304b8ac34e3b1abed6f3cbb62c4db74971e42b568b11764736f6c63430008040033",
  "devdoc": {
    "kind": "dev",
    "methods": {
      "approve(address,uint256)": {
        "details": "See {IERC721-approve}."
      },
      "balanceOf(address)": {
        "details": "See {IERC721-balanceOf}."
      },
      "getApproved(uint256)": {
        "details": "See {IERC721-getApproved}."
      },
      "isApprovedForAll(address,address)": {
        "details": "See {IERC721-isApprovedForAll}."
      },
      "name()": {
        "details": "See {IERC721Metadata-name}."
      },
      "owner()": {
        "details": "Returns the address of the current owner."
      },
      "ownerOf(uint256)": {
        "details": "See {IERC721-ownerOf}."
      },
      "renounceOwnership()": {
        "details": "Leaves the contract without owner. It will not be possible to call `onlyOwner` functions anymore. Can only be called by the current owner. NOTE: Renouncing ownership will leave the contract without an owner, thereby removing any functionality that is only available to the owner."
      },
      "safeTransferFrom(address,address,uint256)": {
        "details": "See {IERC721-safeTransferFrom}."
      },
      "safeTransferFrom(address,address,uint256,bytes)": {
        "details": "See {IERC721-safeTransferFrom}."
      },
      "setApprovalForAll(address,bool)": {
        "details": "See {IERC721-setApprovalForAll}."
      },
      "supportsInterface(bytes4)": {
        "details": "See {IERC165-supportsInterface}."
      },
      "symbol()": {
        "details": "See {IERC721Metadata-symbol}."
      },
      "tokenURI(uint256)": {
        "details": "See {IERC721Metadata-tokenURI}."
      },
      "transferFrom(address,address,uint256)": {
        "details": "See {IERC721-transferFrom}."
      },
      "transferOwnership(address)": {
        "details": "Transfers ownership of the contract to a new account (`newOwner`). Can only be called by the current owner."
      }
    },
    "version": 1
  },
  "userdoc": {
    "kind": "user",
    "methods": {
      "setBaseURI(string)": {
        "notice": "External functions "
      },
      "setFeeRate(uint256)": {
        "notice": "Public functions "
      }
    },
    "version": 1
  },
  "storageLayout": {
    "storage": [
      {
        "astId": 1902,
        "contract": "contracts/Putty.sol:Putty",
        "label": "_name",
        "offset": 0,
        "slot": "0",
        "type": "t_string_storage"
      },
      {
        "astId": 1904,
        "contract": "contracts/Putty.sol:Putty",
        "label": "_symbol",
        "offset": 0,
        "slot": "1",
        "type": "t_string_storage"
      },
      {
        "astId": 1908,
        "contract": "contracts/Putty.sol:Putty",
        "label": "_owners",
        "offset": 0,
        "slot": "2",
        "type": "t_mapping(t_uint256,t_address)"
      },
      {
        "astId": 1912,
        "contract": "contracts/Putty.sol:Putty",
        "label": "_balances",
        "offset": 0,
        "slot": "3",
        "type": "t_mapping(t_address,t_uint256)"
      },
      {
        "astId": 1916,
        "contract": "contracts/Putty.sol:Putty",
        "label": "_tokenApprovals",
        "offset": 0,
        "slot": "4",
        "type": "t_mapping(t_uint256,t_address)"
      },
      {
        "astId": 1922,
        "contract": "contracts/Putty.sol:Putty",
        "label": "_operatorApprovals",
        "offset": 0,
        "slot": "5",
        "type": "t_mapping(t_address,t_mapping(t_address,t_bool))"
      },
      {
        "astId": 739,
        "contract": "contracts/Putty.sol:Putty",
        "label": "_status",
        "offset": 0,
        "slot": "6",
        "type": "t_uint256"
      },
      {
        "astId": 539,
        "contract": "contracts/Putty.sol:Putty",
        "label": "_owner",
        "offset": 0,
        "slot": "7",
        "type": "t_address"
      },
      {
        "astId": 5338,
        "contract": "contracts/Putty.sol:Putty",
        "label": "weth",
        "offset": 0,
        "slot": "8",
        "type": "t_contract(ERC20)1314"
      },
      {
        "astId": 5340,
        "contract": "contracts/Putty.sol:Putty",
        "label": "baseURI",
        "offset": 0,
        "slot": "9",
        "type": "t_string_storage"
      },
      {
        "astId": 5342,
        "contract": "contracts/Putty.sol:Putty",
        "label": "uncollectedFees",
        "offset": 0,
        "slot": "10",
        "type": "t_uint256"
      },
      {
        "astId": 5344,
        "contract": "contracts/Putty.sol:Putty",
        "label": "feeRate",
        "offset": 0,
        "slot": "11",
        "type": "t_uint256"
      },
      {
        "astId": 5348,
        "contract": "contracts/Putty.sol:Putty",
        "label": "tokenIdToCreationTimestamp",
        "offset": 0,
        "slot": "12",
        "type": "t_mapping(t_uint256,t_uint256)"
      },
      {
        "astId": 5352,
        "contract": "contracts/Putty.sol:Putty",
        "label": "cancelledOrders",
        "offset": 0,
        "slot": "13",
        "type": "t_mapping(t_uint256,t_bool)"
      }
    ],
    "types": {
      "t_address": {
        "encoding": "inplace",
        "label": "address",
        "numberOfBytes": "20"
      },
      "t_bool": {
        "encoding": "inplace",
        "label": "bool",
        "numberOfBytes": "1"
      },
      "t_contract(ERC20)1314": {
        "encoding": "inplace",
        "label": "contract ERC20",
        "numberOfBytes": "20"
      },
      "t_mapping(t_address,t_bool)": {
        "encoding": "mapping",
        "key": "t_address",
        "label": "mapping(address => bool)",
        "numberOfBytes": "32",
        "value": "t_bool"
      },
      "t_mapping(t_address,t_mapping(t_address,t_bool))": {
        "encoding": "mapping",
        "key": "t_address",
        "label": "mapping(address => mapping(address => bool))",
        "numberOfBytes": "32",
        "value": "t_mapping(t_address,t_bool)"
      },
      "t_mapping(t_address,t_uint256)": {
        "encoding": "mapping",
        "key": "t_address",
        "label": "mapping(address => uint256)",
        "numberOfBytes": "32",
        "value": "t_uint256"
      },
      "t_mapping(t_uint256,t_address)": {
        "encoding": "mapping",
        "key": "t_uint256",
        "label": "mapping(uint256 => address)",
        "numberOfBytes": "32",
        "value": "t_address"
      },
      "t_mapping(t_uint256,t_bool)": {
        "encoding": "mapping",
        "key": "t_uint256",
        "label": "mapping(uint256 => bool)",
        "numberOfBytes": "32",
        "value": "t_bool"
      },
      "t_mapping(t_uint256,t_uint256)": {
        "encoding": "mapping",
        "key": "t_uint256",
        "label": "mapping(uint256 => uint256)",
        "numberOfBytes": "32",
        "value": "t_uint256"
      },
      "t_string_storage": {
        "encoding": "bytes",
        "label": "string",
        "numberOfBytes": "32"
      },
      "t_uint256": {
        "encoding": "inplace",
        "label": "uint256",
        "numberOfBytes": "32"
      }
    }
  }
}