{
  "address": "0x12CDc1445E82B9Bd8E4322798CD8850877Db68F3",
  "abi": [
    {
      "inputs": [
        {
          "internalType": "contract ERC20",
          "name": "weth_",
          "type": "address"
        },
        {
          "internalType": "string",
          "name": "baseURI_",
          "type": "string"
        }
      ],
      "stateMutability": "nonpayable",
      "type": "constructor"
    },
    {
      "anonymous": false,
      "inputs": [
        {
          "indexed": true,
          "internalType": "address",
          "name": "owner",
          "type": "address"
        },
        {
          "indexed": true,
          "internalType": "address",
          "name": "approved",
          "type": "address"
        },
        {
          "indexed": true,
          "internalType": "uint256",
          "name": "tokenId",
          "type": "uint256"
        }
      ],
      "name": "Approval",
      "type": "event"
    },
    {
      "anonymous": false,
      "inputs": [
        {
          "indexed": true,
          "internalType": "address",
          "name": "owner",
          "type": "address"
        },
        {
          "indexed": true,
          "internalType": "address",
          "name": "operator",
          "type": "address"
        },
        {
          "indexed": false,
          "internalType": "bool",
          "name": "approved",
          "type": "bool"
        }
      ],
      "name": "ApprovalForAll",
      "type": "event"
    },
    {
      "anonymous": false,
      "inputs": [
        {
          "components": [
            {
              "internalType": "uint256",
              "name": "strike",
              "type": "uint256"
            },
            {
              "internalType": "uint256",
              "name": "duration",
              "type": "uint256"
            },
            {
              "internalType": "uint256",
              "name": "premium",
              "type": "uint256"
            },
            {
              "internalType": "address",
              "name": "owner",
              "type": "address"
            },
            {
              "internalType": "uint256",
              "name": "nonce",
              "type": "uint256"
            },
            {
              "components": [
                {
                  "internalType": "contract ERC20",
                  "name": "token",
                  "type": "address"
                },
                {
                  "internalType": "uint256",
                  "name": "amount",
                  "type": "uint256"
                }
              ],
              "internalType": "struct Putty.ERC20Info[]",
              "name": "erc20Underlying",
              "type": "tuple[]"
            },
            {
              "components": [
                {
                  "internalType": "contract ERC721",
                  "name": "token",
                  "type": "address"
                },
                {
                  "internalType": "uint256",
                  "name": "tokenId",
                  "type": "uint256"
                }
              ],
              "internalType": "struct Putty.ERC721Info[]",
              "name": "erc721Underlying",
              "type": "tuple[]"
            }
          ],
          "indexed": false,
          "internalType": "struct Putty.Option",
          "name": "_option",
          "type": "tuple"
        },
        {
          "indexed": true,
          "internalType": "address",
          "name": "buyer",
          "type": "address"
        },
        {
          "indexed": false,
          "internalType": "uint256",
          "name": "tokenId",
          "type": "uint256"
        },
        {
          "indexed": false,
          "internalType": "uint256",
          "name": "shortTokenId",
          "type": "uint256"
        }
      ],
      "name": "BuyFilled",
      "type": "event"
    },
    {
      "anonymous": false,
      "inputs": [
        {
          "indexed": true,
          "internalType": "address",
          "name": "from",
          "type": "address"
        },
        {
          "indexed": true,
          "internalType": "address",
          "name": "to",
          "type": "address"
        },
        {
          "indexed": true,
          "internalType": "uint256",
          "name": "tokenId",
          "type": "uint256"
        }
      ],
      "name": "Transfer",
      "type": "event"
    },
    {
      "inputs": [
        {
          "internalType": "address",
          "name": "to",
          "type": "address"
        },
        {
          "internalType": "uint256",
          "name": "tokenId",
          "type": "uint256"
        }
      ],
      "name": "approve",
      "outputs": [],
      "stateMutability": "nonpayable",
      "type": "function"
    },
    {
      "inputs": [
        {
          "internalType": "address",
          "name": "owner",
          "type": "address"
        }
      ],
      "name": "balanceOf",
      "outputs": [
        {
          "internalType": "uint256",
          "name": "",
          "type": "uint256"
        }
      ],
      "stateMutability": "view",
      "type": "function"
    },
    {
      "inputs": [],
      "name": "baseURI",
      "outputs": [
        {
          "internalType": "string",
          "name": "",
          "type": "string"
        }
      ],
      "stateMutability": "view",
      "type": "function"
    },
    {
      "inputs": [
        {
          "components": [
            {
              "internalType": "uint256",
              "name": "strike",
              "type": "uint256"
            },
            {
              "internalType": "uint256",
              "name": "duration",
              "type": "uint256"
            },
            {
              "internalType": "uint256",
              "name": "premium",
              "type": "uint256"
            },
            {
              "internalType": "address",
              "name": "owner",
              "type": "address"
            },
            {
              "internalType": "uint256",
              "name": "nonce",
              "type": "uint256"
            },
            {
              "components": [
                {
                  "internalType": "contract ERC20",
                  "name": "token",
                  "type": "address"
                },
                {
                  "internalType": "uint256",
                  "name": "amount",
                  "type": "uint256"
                }
              ],
              "internalType": "struct Putty.ERC20Info[]",
              "name": "erc20Underlying",
              "type": "tuple[]"
            },
            {
              "components": [
                {
                  "internalType": "contract ERC721",
                  "name": "token",
                  "type": "address"
                },
                {
                  "internalType": "uint256",
                  "name": "tokenId",
                  "type": "uint256"
                }
              ],
              "internalType": "struct Putty.ERC721Info[]",
              "name": "erc721Underlying",
              "type": "tuple[]"
            }
          ],
          "internalType": "struct Putty.Option",
          "name": "option",
          "type": "tuple"
        }
      ],
      "name": "cancel",
      "outputs": [],
      "stateMutability": "nonpayable",
      "type": "function"
    },
    {
      "inputs": [
        {
          "internalType": "uint256",
          "name": "",
          "type": "uint256"
        }
      ],
      "name": "cancelledOrders",
      "outputs": [
        {
          "internalType": "bool",
          "name": "",
          "type": "bool"
        }
      ],
      "stateMutability": "view",
      "type": "function"
    },
    {
      "inputs": [],
      "name": "domainSeparatorV4",
      "outputs": [
        {
          "internalType": "bytes32",
          "name": "",
          "type": "bytes32"
        }
      ],
      "stateMutability": "view",
      "type": "function"
    },
    {
      "inputs": [
        {
          "components": [
            {
              "internalType": "uint256",
              "name": "strike",
              "type": "uint256"
            },
            {
              "internalType": "uint256",
              "name": "duration",
              "type": "uint256"
            },
            {
              "internalType": "uint256",
              "name": "premium",
              "type": "uint256"
            },
            {
              "internalType": "address",
              "name": "owner",
              "type": "address"
            },
            {
              "internalType": "uint256",
              "name": "nonce",
              "type": "uint256"
            },
            {
              "components": [
                {
                  "internalType": "contract ERC20",
                  "name": "token",
                  "type": "address"
                },
                {
                  "internalType": "uint256",
                  "name": "amount",
                  "type": "uint256"
                }
              ],
              "internalType": "struct Putty.ERC20Info[]",
              "name": "erc20Underlying",
              "type": "tuple[]"
            },
            {
              "components": [
                {
                  "internalType": "contract ERC721",
                  "name": "token",
                  "type": "address"
                },
                {
                  "internalType": "uint256",
                  "name": "tokenId",
                  "type": "uint256"
                }
              ],
              "internalType": "struct Putty.ERC721Info[]",
              "name": "erc721Underlying",
              "type": "tuple[]"
            }
          ],
          "internalType": "struct Putty.Option",
          "name": "option",
          "type": "tuple"
        }
      ],
      "name": "exercise",
      "outputs": [],
      "stateMutability": "nonpayable",
      "type": "function"
    },
    {
      "inputs": [
        {
          "components": [
            {
              "internalType": "uint256",
              "name": "strike",
              "type": "uint256"
            },
            {
              "internalType": "uint256",
              "name": "duration",
              "type": "uint256"
            },
            {
              "internalType": "uint256",
              "name": "premium",
              "type": "uint256"
            },
            {
              "internalType": "address",
              "name": "owner",
              "type": "address"
            },
            {
              "internalType": "uint256",
              "name": "nonce",
              "type": "uint256"
            },
            {
              "components": [
                {
                  "internalType": "contract ERC20",
                  "name": "token",
                  "type": "address"
                },
                {
                  "internalType": "uint256",
                  "name": "amount",
                  "type": "uint256"
                }
              ],
              "internalType": "struct Putty.ERC20Info[]",
              "name": "erc20Underlying",
              "type": "tuple[]"
            },
            {
              "components": [
                {
                  "internalType": "contract ERC721",
                  "name": "token",
                  "type": "address"
                },
                {
                  "internalType": "uint256",
                  "name": "tokenId",
                  "type": "uint256"
                }
              ],
              "internalType": "struct Putty.ERC721Info[]",
              "name": "erc721Underlying",
              "type": "tuple[]"
            }
          ],
          "internalType": "struct Putty.Option",
          "name": "option",
          "type": "tuple"
        }
      ],
      "name": "expire",
      "outputs": [],
      "stateMutability": "nonpayable",
      "type": "function"
    },
    {
      "inputs": [
        {
          "components": [
            {
              "internalType": "uint256",
              "name": "strike",
              "type": "uint256"
            },
            {
              "internalType": "uint256",
              "name": "duration",
              "type": "uint256"
            },
            {
              "internalType": "uint256",
              "name": "premium",
              "type": "uint256"
            },
            {
              "internalType": "address",
              "name": "owner",
              "type": "address"
            },
            {
              "internalType": "uint256",
              "name": "nonce",
              "type": "uint256"
            },
            {
              "components": [
                {
                  "internalType": "contract ERC20",
                  "name": "token",
                  "type": "address"
                },
                {
                  "internalType": "uint256",
                  "name": "amount",
                  "type": "uint256"
                }
              ],
              "internalType": "struct Putty.ERC20Info[]",
              "name": "erc20Underlying",
              "type": "tuple[]"
            },
            {
              "components": [
                {
                  "internalType": "contract ERC721",
                  "name": "token",
                  "type": "address"
                },
                {
                  "internalType": "uint256",
                  "name": "tokenId",
                  "type": "uint256"
                }
              ],
              "internalType": "struct Putty.ERC721Info[]",
              "name": "erc721Underlying",
              "type": "tuple[]"
            }
          ],
          "internalType": "struct Putty.Option",
          "name": "option",
          "type": "tuple"
        },
        {
          "internalType": "bytes",
          "name": "signature",
          "type": "bytes"
        }
      ],
      "name": "fillBuyOrder",
      "outputs": [],
      "stateMutability": "payable",
      "type": "function"
    },
    {
      "inputs": [
        {
          "internalType": "uint256",
          "name": "",
          "type": "uint256"
        }
      ],
      "name": "filledOrders",
      "outputs": [
        {
          "internalType": "bool",
          "name": "",
          "type": "bool"
        }
      ],
      "stateMutability": "view",
      "type": "function"
    },
    {
      "inputs": [
        {
          "internalType": "uint256",
          "name": "tokenId",
          "type": "uint256"
        }
      ],
      "name": "getApproved",
      "outputs": [
        {
          "internalType": "address",
          "name": "",
          "type": "address"
        }
      ],
      "stateMutability": "view",
      "type": "function"
    },
    {
      "inputs": [
        {
          "internalType": "address",
          "name": "owner",
          "type": "address"
        },
        {
          "internalType": "address",
          "name": "operator",
          "type": "address"
        }
      ],
      "name": "isApprovedForAll",
      "outputs": [
        {
          "internalType": "bool",
          "name": "",
          "type": "bool"
        }
      ],
      "stateMutability": "view",
      "type": "function"
    },
    {
      "inputs": [],
      "name": "name",
      "outputs": [
        {
          "internalType": "string",
          "name": "",
          "type": "string"
        }
      ],
      "stateMutability": "view",
      "type": "function"
    },
    {
      "inputs": [
        {
          "internalType": "uint256",
          "name": "tokenId",
          "type": "uint256"
        }
      ],
      "name": "ownerOf",
      "outputs": [
        {
          "internalType": "address",
          "name": "",
          "type": "address"
        }
      ],
      "stateMutability": "view",
      "type": "function"
    },
    {
      "inputs": [
        {
          "internalType": "address",
          "name": "from",
          "type": "address"
        },
        {
          "internalType": "address",
          "name": "to",
          "type": "address"
        },
        {
          "internalType": "uint256",
          "name": "tokenId",
          "type": "uint256"
        }
      ],
      "name": "safeTransferFrom",
      "outputs": [],
      "stateMutability": "nonpayable",
      "type": "function"
    },
    {
      "inputs": [
        {
          "internalType": "address",
          "name": "from",
          "type": "address"
        },
        {
          "internalType": "address",
          "name": "to",
          "type": "address"
        },
        {
          "internalType": "uint256",
          "name": "tokenId",
          "type": "uint256"
        },
        {
          "internalType": "bytes",
          "name": "_data",
          "type": "bytes"
        }
      ],
      "name": "safeTransferFrom",
      "outputs": [],
      "stateMutability": "nonpayable",
      "type": "function"
    },
    {
      "inputs": [
        {
          "internalType": "address",
          "name": "operator",
          "type": "address"
        },
        {
          "internalType": "bool",
          "name": "approved",
          "type": "bool"
        }
      ],
      "name": "setApprovalForAll",
      "outputs": [],
      "stateMutability": "nonpayable",
      "type": "function"
    },
    {
      "inputs": [
        {
          "internalType": "bytes4",
          "name": "interfaceId",
          "type": "bytes4"
        }
      ],
      "name": "supportsInterface",
      "outputs": [
        {
          "internalType": "bool",
          "name": "",
          "type": "bool"
        }
      ],
      "stateMutability": "view",
      "type": "function"
    },
    {
      "inputs": [],
      "name": "symbol",
      "outputs": [
        {
          "internalType": "string",
          "name": "",
          "type": "string"
        }
      ],
      "stateMutability": "view",
      "type": "function"
    },
    {
      "inputs": [
        {
          "internalType": "uint256",
          "name": "index",
          "type": "uint256"
        }
      ],
      "name": "tokenByIndex",
      "outputs": [
        {
          "internalType": "uint256",
          "name": "",
          "type": "uint256"
        }
      ],
      "stateMutability": "view",
      "type": "function"
    },
    {
      "inputs": [
        {
          "internalType": "uint256",
          "name": "",
          "type": "uint256"
        }
      ],
      "name": "tokenIdToCreationTimestamp",
      "outputs": [
        {
          "internalType": "uint256",
          "name": "",
          "type": "uint256"
        }
      ],
      "stateMutability": "view",
      "type": "function"
    },
    {
      "inputs": [
        {
          "internalType": "address",
          "name": "owner",
          "type": "address"
        },
        {
          "internalType": "uint256",
          "name": "index",
          "type": "uint256"
        }
      ],
      "name": "tokenOfOwnerByIndex",
      "outputs": [
        {
          "internalType": "uint256",
          "name": "",
          "type": "uint256"
        }
      ],
      "stateMutability": "view",
      "type": "function"
    },
    {
      "inputs": [
        {
          "internalType": "uint256",
          "name": "tokenId",
          "type": "uint256"
        }
      ],
      "name": "tokenURI",
      "outputs": [
        {
          "internalType": "string",
          "name": "",
          "type": "string"
        }
      ],
      "stateMutability": "view",
      "type": "function"
    },
    {
      "inputs": [],
      "name": "totalSupply",
      "outputs": [
        {
          "internalType": "uint256",
          "name": "",
          "type": "uint256"
        }
      ],
      "stateMutability": "view",
      "type": "function"
    },
    {
      "inputs": [
        {
          "internalType": "address",
          "name": "from",
          "type": "address"
        },
        {
          "internalType": "address",
          "name": "to",
          "type": "address"
        },
        {
          "internalType": "uint256",
          "name": "tokenId",
          "type": "uint256"
        }
      ],
      "name": "transferFrom",
      "outputs": [],
      "stateMutability": "nonpayable",
      "type": "function"
    },
    {
      "inputs": [],
      "name": "weth",
      "outputs": [
        {
          "internalType": "contract ERC20",
          "name": "",
          "type": "address"
        }
      ],
      "stateMutability": "view",
      "type": "function"
    }
  ],
  "transactionHash": "0xbe71715134b76232a7282eb05aa3db7b72a287fdd83afdd16722b942c28acdc0",
  "args": [
    "0xbc6f6b680bc61e30db47721c6d1c5cde19c1300d",
    "https://optimisticKovan.putty.finance/api/token/"
  ],
  "numDeployments": 4,
  "solcInputHash": "bfdb34a40a569eece8cbfb9801d33848",
  "bytecode": "0x6101406040523480156200001257600080fd5b50604051620062da380380620062da8339818101604052810190620000389190620003d8565b6040518060400160405280600d81526020017f5075747479204f7074696f6e73000000000000000000000000000000000000008152506040518060400160405280600481526020017f4f505554000000000000000000000000000000000000000000000000000000008152506040518060400160405280600581526020017f50757474790000000000000000000000000000000000000000000000000000008152506040518060400160405280600481526020017f76302e390000000000000000000000000000000000000000000000000000000081525060008280519060200120905060008280519060200120905060007f8b73c3c69bb8fe3d512ecc4cf759cc79239f7b179b0ffacaa9a75d522b39400f90508260e081815250508161010081815250504660a08181525050620001798184846200026360201b60201c565b608081815250503073ffffffffffffffffffffffffffffffffffffffff1660c08173ffffffffffffffffffffffffffffffffffffffff1660601b8152505080610120818152505050505050508160009080519060200190620001dd9291906200029f565b508060019080519060200190620001f69291906200029f565b5050506001600a8190555081600b60006101000a81548173ffffffffffffffffffffffffffffffffffffffff021916908373ffffffffffffffffffffffffffffffffffffffff16021790555080600c90805190602001906200025a9291906200029f565b505050620006a8565b600083838346306040516020016200028095949392919062000465565b6040516020818303038152906040528051906020012090509392505050565b828054620002ad90620005b3565b90600052602060002090601f016020900481019282620002d157600085556200031d565b82601f10620002ec57805160ff19168380011785556200031d565b828001600101855582156200031d579182015b828111156200031c578251825591602001919060010190620002ff565b5b5090506200032c919062000330565b5090565b5b808211156200034b57600081600090555060010162000331565b5090565b6000620003666200036084620004eb565b620004c2565b9050828152602081018484840111156200037f57600080fd5b6200038c8482856200057d565b509392505050565b600081519050620003a5816200068e565b92915050565b600082601f830112620003bd57600080fd5b8151620003cf8482602086016200034f565b91505092915050565b60008060408385031215620003ec57600080fd5b6000620003fc8582860162000394565b925050602083015167ffffffffffffffff8111156200041a57600080fd5b6200042885828601620003ab565b9150509250929050565b6200043d8162000521565b82525050565b6200044e8162000535565b82525050565b6200045f8162000573565b82525050565b600060a0820190506200047c600083018862000443565b6200048b602083018762000443565b6200049a604083018662000443565b620004a9606083018562000454565b620004b8608083018462000432565b9695505050505050565b6000620004ce620004e1565b9050620004dc8282620005e9565b919050565b6000604051905090565b600067ffffffffffffffff8211156200050957620005086200064e565b5b62000514826200067d565b9050602081019050919050565b60006200052e8262000553565b9050919050565b6000819050919050565b60006200054c8262000521565b9050919050565b600073ffffffffffffffffffffffffffffffffffffffff82169050919050565b6000819050919050565b60005b838110156200059d57808201518184015260208101905062000580565b83811115620005ad576000848401525b50505050565b60006002820490506001821680620005cc57607f821691505b60208210811415620005e357620005e26200061f565b5b50919050565b620005f4826200067d565b810181811067ffffffffffffffff821117156200061657620006156200064e565b5b80604052505050565b7f4e487b7100000000000000000000000000000000000000000000000000000000600052602260045260246000fd5b7f4e487b7100000000000000000000000000000000000000000000000000000000600052604160045260246000fd5b6000601f19601f8301169050919050565b62000699816200053f565b8114620006a557600080fd5b50565b60805160a05160c05160601c60e0516101005161012051615bdf620006fb6000396000611fe5015260006120270152600061200601526000611f3b01526000611f9101526000611fba0152615bdf6000f3fe6080604052600436106101815760003560e01c8063679a9472116100d1578063a22cb4651161008a578063c87b56dd11610064578063c87b56dd146105ab578063e985e9c5146105e8578063ee6f10f114610625578063eff9cdcc1461066257610181565b8063a22cb4651461051c578063b88d4fde14610545578063bc15e6011461056e57610181565b8063679a9472146104195780636c0360eb1461044257806370a082311461046d57806378e890ba146104aa578063835051bb146104d557806395d89b41146104f157610181565b806323b872dd1161013e57806342842e0e1161011857806342842e0e1461034d5780634f6ccce71461037657806352c3f953146103b35780636352211e146103dc57610181565b806323b872dd146102bc5780632f745c59146102e55780633fc8cef31461032257610181565b806301ffc9a71461018657806306fdde03146101c3578063081812fc146101ee578063095ea7b31461022b57806316eea7d51461025457806318160ddd14610291575b600080fd5b34801561019257600080fd5b506101ad60048036038101906101a89190613be5565b61068b565b6040516101ba919061477b565b60405180910390f35b3480156101cf57600080fd5b506101d861069d565b6040516101e591906148e2565b60405180910390f35b3480156101fa57600080fd5b5061021560048036038101906102109190613ce4565b61072f565b6040516102229190614699565b60405180910390f35b34801561023757600080fd5b50610252600480360381019061024d9190613b80565b6107b4565b005b34801561026057600080fd5b5061027b60048036038101906102769190613ce4565b6108cc565b604051610288919061477b565b60405180910390f35b34801561029d57600080fd5b506102a66108ec565b6040516102b39190614d82565b60405180910390f35b3480156102c857600080fd5b506102e360048036038101906102de9190613a7a565b6108f9565b005b3480156102f157600080fd5b5061030c60048036038101906103079190613b80565b610959565b6040516103199190614d82565b60405180910390f35b34801561032e57600080fd5b506103376109fe565b60405161034491906148c7565b60405180910390f35b34801561035957600080fd5b50610374600480360381019061036f9190613a7a565b610a24565b005b34801561038257600080fd5b5061039d60048036038101906103989190613ce4565b610a44565b6040516103aa9190614d82565b60405180910390f35b3480156103bf57600080fd5b506103da60048036038101906103d59190613c37565b610adb565b005b3480156103e857600080fd5b5061040360048036038101906103fe9190613ce4565b610b94565b6040516104109190614699565b60405180910390f35b34801561042557600080fd5b50610440600480360381019061043b9190613c37565b610c46565b005b34801561044e57600080fd5b50610457610da1565b60405161046491906148e2565b60405180910390f35b34801561047957600080fd5b50610494600480360381019061048f9190613a15565b610e2f565b6040516104a19190614d82565b60405180910390f35b3480156104b657600080fd5b506104bf610ee7565b6040516104cc9190614796565b60405180910390f35b6104ef60048036038101906104ea9190613c78565b610ef6565b005b3480156104fd57600080fd5b5061050661123c565b60405161051391906148e2565b60405180910390f35b34801561052857600080fd5b50610543600480360381019061053e9190613b44565b6112ce565b005b34801561055157600080fd5b5061056c60048036038101906105679190613ac9565b6112e4565b005b34801561057a57600080fd5b5061059560048036038101906105909190613ce4565b611346565b6040516105a2919061477b565b60405180910390f35b3480156105b757600080fd5b506105d260048036038101906105cd9190613ce4565b611366565b6040516105df91906148e2565b60405180910390f35b3480156105f457600080fd5b5061060f600480360381019061060a9190613a3e565b61140d565b60405161061c919061477b565b60405180910390f35b34801561063157600080fd5b5061064c60048036038101906106479190613ce4565b6114a1565b6040516106599190614d82565b60405180910390f35b34801561066e57600080fd5b5061068960048036038101906106849190613c37565b6114b9565b005b60006106968261186e565b9050919050565b6060600080546106ac90615121565b80601f01602080910402602001604051908101604052809291908181526020018280546106d890615121565b80156107255780601f106106fa57610100808354040283529160200191610725565b820191906000526020600020905b81548152906001019060200180831161070857829003601f168201915b5050505050905090565b600061073a826118e8565b610779576040517f08c379a000000000000000000000000000000000000000000000000000000000815260040161077090614b64565b60405180910390fd5b6004600083815260200190815260200160002060009054906101000a900473ffffffffffffffffffffffffffffffffffffffff169050919050565b60006107bf82610b94565b90508073ffffffffffffffffffffffffffffffffffffffff168373ffffffffffffffffffffffffffffffffffffffff161415610830576040517f08c379a000000000000000000000000000000000000000000000000000000000815260040161082790614be4565b60405180910390fd5b8073ffffffffffffffffffffffffffffffffffffffff1661084f611954565b73ffffffffffffffffffffffffffffffffffffffff16148061087e575061087d81610878611954565b61140d565b5b6108bd576040517f08c379a00000000000000000000000000000000000000000000000000000000081526004016108b490614ac4565b60405180910390fd5b6108c7838361195c565b505050565b600f6020528060005260406000206000915054906101000a900460ff1681565b6000600880549050905090565b61090a610904611954565b82611a15565b610949576040517f08c379a000000000000000000000000000000000000000000000000000000000815260040161094090614c44565b60405180910390fd5b610954838383611af3565b505050565b600061096483610e2f565b82106109a5576040517f08c379a000000000000000000000000000000000000000000000000000000000815260040161099c90614964565b60405180910390fd5b600660008473ffffffffffffffffffffffffffffffffffffffff1673ffffffffffffffffffffffffffffffffffffffff168152602001908152602001600020600083815260200190815260200160002054905092915050565b600b60009054906101000a900473ffffffffffffffffffffffffffffffffffffffff1681565b610a3f838383604051806020016040528060008152506112e4565b505050565b6000610a4e6108ec565b8210610a8f576040517f08c379a0000000000000000000000000000000000000000000000000000000008152600401610a8690614ca4565b60405180910390fd5b60088281548110610ac9577f4e487b7100000000000000000000000000000000000000000000000000000000600052603260045260246000fd5b90600052602060002001549050919050565b806060015173ffffffffffffffffffffffffffffffffffffffff163373ffffffffffffffffffffffffffffffffffffffff1614610b4d576040517f08c379a0000000000000000000000000000000000000000000000000000000008152600401610b4490614a24565b60405180910390fd5b6000610b5882611d4f565b50905060008160001c90506001600e600083815260200190815260200160002060006101000a81548160ff021916908315150217905550505050565b6000806002600084815260200190815260200160002060009054906101000a900473ffffffffffffffffffffffffffffffffffffffff169050600073ffffffffffffffffffffffffffffffffffffffff168173ffffffffffffffffffffffffffffffffffffffff161415610c3d576040517f08c379a0000000000000000000000000000000000000000000000000000000008152600401610c3490614b04565b60405180910390fd5b80915050919050565b600080610c5283611d4f565b915091506000808360001c8360001c915091506000610c7082610b94565b90508560200151600d600085815260200190815260200160002054610c959190614f2d565b4211610cd6576040517f08c379a0000000000000000000000000000000000000000000000000000000008152600401610ccd90614c84565b60405180910390fd5b610cdf83611e26565b610ce882611e26565b60008173ffffffffffffffffffffffffffffffffffffffff168760000151604051610d1290614684565b60006040518083038185875af1925050503d8060008114610d4f576040519150601f19603f3d011682016040523d82523d6000602084013e610d54565b606091505b5050905080610d98576040517f08c379a0000000000000000000000000000000000000000000000000000000008152600401610d8f90614924565b60405180910390fd5b50505050505050565b600c8054610dae90615121565b80601f0160208091040260200160405190810160405280929190818152602001828054610dda90615121565b8015610e275780601f10610dfc57610100808354040283529160200191610e27565b820191906000526020600020905b815481529060010190602001808311610e0a57829003601f168201915b505050505081565b60008073ffffffffffffffffffffffffffffffffffffffff168273ffffffffffffffffffffffffffffffffffffffff161415610ea0576040517f08c379a0000000000000000000000000000000000000000000000000000000008152600401610e9790614ae4565b60405180910390fd5b600360008373ffffffffffffffffffffffffffffffffffffffff1673ffffffffffffffffffffffffffffffffffffffff168152602001908152602001600020549050919050565b6000610ef1611f37565b905090565b6002600a541415610f3c576040517f08c379a0000000000000000000000000000000000000000000000000000000008152600401610f3390614d04565b60405180910390fd5b6002600a819055508160000151341015610f8b576040517f08c379a0000000000000000000000000000000000000000000000000000000008152600401610f8290614a84565b60405180910390fd5b600080610f9784611d4f565b915091506000808360001c8360001c915091506000610fb585612051565b90506000610fc38288612081565b9050876060015173ffffffffffffffffffffffffffffffffffffffff168173ffffffffffffffffffffffffffffffffffffffff1614611037576040517f08c379a000000000000000000000000000000000000000000000000000000000815260040161102e90614bc4565b60405180910390fd5b600e600085815260200190815260200160002060009054906101000a900460ff1615611098576040517f08c379a000000000000000000000000000000000000000000000000000000000815260040161108f90614c24565b60405180910390fd5b6000600d600086815260200190815260200160002054146110ee576040517f08c379a00000000000000000000000000000000000000000000000000000000081526004016110e590614aa4565b60405180910390fd5b42600d6000868152602001908152602001600020819055506111148860600151856120a8565b61111e33846120a8565b600b60009054906101000a900473ffffffffffffffffffffffffffffffffffffffff1673ffffffffffffffffffffffffffffffffffffffff166323b872dd8960600151338b604001516040518463ffffffff1660e01b8152600401611185939291906146b4565b602060405180830381600087803b15801561119f57600080fd5b505af11580156111b3573d6000803e3d6000fd5b505050506040513d601f19601f820116820180604052508101906111d79190613bbc565b503373ffffffffffffffffffffffffffffffffffffffff167fe55fafe11811198d0f6025af999b664fc33d08499ed34bfb1be96a6cc271d5a589868660405161122293929190614d44565b60405180910390a25050505050506001600a819055505050565b60606001805461124b90615121565b80601f016020809104026020016040519081016040528092919081815260200182805461127790615121565b80156112c45780601f10611299576101008083540402835291602001916112c4565b820191906000526020600020905b8154815290600101906020018083116112a757829003601f168201915b5050505050905090565b6112e06112d9611954565b8383612276565b5050565b6112f56112ef611954565b83611a15565b611334576040517f08c379a000000000000000000000000000000000000000000000000000000000815260040161132b90614c44565b60405180910390fd5b611340848484846123e3565b50505050565b600e6020528060005260406000206000915054906101000a900460ff1681565b6060611371826118e8565b6113b0576040517f08c379a00000000000000000000000000000000000000000000000000000000081526004016113a790614ba4565b60405180910390fd5b60006113ba61243f565b905060008151116113da5760405180602001604052806000815250611405565b806113e4846124d1565b6040516020016113f592919061463a565b6040516020818303038152906040525b915050919050565b6000600560008473ffffffffffffffffffffffffffffffffffffffff1673ffffffffffffffffffffffffffffffffffffffff16815260200190815260200160002060008373ffffffffffffffffffffffffffffffffffffffff1673ffffffffffffffffffffffffffffffffffffffff16815260200190815260200160002060009054906101000a900460ff16905092915050565b600d6020528060005260406000206000915090505481565b6002600a5414156114ff576040517f08c379a00000000000000000000000000000000000000000000000000000000081526004016114f690614d04565b60405180910390fd5b6002600a8190555060008061151383611d4f565b915091506000808360001c8360001c9150915060008061153284610b94565b61153b84610b94565b915091503373ffffffffffffffffffffffffffffffffffffffff168273ffffffffffffffffffffffffffffffffffffffff16146115ad576040517f08c379a00000000000000000000000000000000000000000000000000000000081526004016115a490614c04565b60405180910390fd5b8660200151600d6000868152602001908152602001600020546115d09190614f2d565b421115611612576040517f08c379a000000000000000000000000000000000000000000000000000000000815260040161160990614ce4565b60405180910390fd5b61161b84611e26565b61162483611e26565b60005b8760a00151518110156116c65760008860a001518281518110611673577f4e487b7100000000000000000000000000000000000000000000000000000000600052603260045260246000fd5b602002602001015190506116b284848360200151846000015173ffffffffffffffffffffffffffffffffffffffff1661267e909392919063ffffffff16565b5080806116be90615184565b915050611627565b5060005b8760c00151518110156117ab5760008860c001518281518110611716577f4e487b7100000000000000000000000000000000000000000000000000000000600052603260045260246000fd5b60200260200101519050806000015173ffffffffffffffffffffffffffffffffffffffff166323b872dd858584602001516040518463ffffffff1660e01b8152600401611765939291906146b4565b600060405180830381600087803b15801561177f57600080fd5b505af1158015611793573d6000803e3d6000fd5b505050505080806117a390615184565b9150506116ca565b5060008273ffffffffffffffffffffffffffffffffffffffff1688600001516040516117d690614684565b60006040518083038185875af1925050503d8060008114611813576040519150601f19603f3d011682016040523d82523d6000602084013e611818565b606091505b505090508061185c576040517f08c379a000000000000000000000000000000000000000000000000000000000815260040161185390614d24565b60405180910390fd5b505050505050506001600a8190555050565b60007f780e9d63000000000000000000000000000000000000000000000000000000007bffffffffffffffffffffffffffffffffffffffffffffffffffffffff1916827bffffffffffffffffffffffffffffffffffffffffffffffffffffffff191614806118e157506118e082612707565b5b9050919050565b60008073ffffffffffffffffffffffffffffffffffffffff166002600084815260200190815260200160002060009054906101000a900473ffffffffffffffffffffffffffffffffffffffff1673ffffffffffffffffffffffffffffffffffffffff1614159050919050565b600033905090565b816004600083815260200190815260200160002060006101000a81548173ffffffffffffffffffffffffffffffffffffffff021916908373ffffffffffffffffffffffffffffffffffffffff160217905550808273ffffffffffffffffffffffffffffffffffffffff166119cf83610b94565b73ffffffffffffffffffffffffffffffffffffffff167f8c5be1e5ebec7d5bd14f71427d1e84f3dd0314c0f7b2291e5b200ac8c7c3b92560405160405180910390a45050565b6000611a20826118e8565b611a5f576040517f08c379a0000000000000000000000000000000000000000000000000000000008152600401611a5690614a64565b60405180910390fd5b6000611a6a83610b94565b90508073ffffffffffffffffffffffffffffffffffffffff168473ffffffffffffffffffffffffffffffffffffffff161480611ad957508373ffffffffffffffffffffffffffffffffffffffff16611ac18461072f565b73ffffffffffffffffffffffffffffffffffffffff16145b80611aea5750611ae9818561140d565b5b91505092915050565b8273ffffffffffffffffffffffffffffffffffffffff16611b1382610b94565b73ffffffffffffffffffffffffffffffffffffffff1614611b69576040517f08c379a0000000000000000000000000000000000000000000000000000000008152600401611b6090614b84565b60405180910390fd5b600073ffffffffffffffffffffffffffffffffffffffff168273ffffffffffffffffffffffffffffffffffffffff161415611bd9576040517f08c379a0000000000000000000000000000000000000000000000000000000008152600401611bd0906149c4565b60405180910390fd5b611be48383836127e9565b611bef60008261195c565b6001600360008573ffffffffffffffffffffffffffffffffffffffff1673ffffffffffffffffffffffffffffffffffffffff1681526020019081526020016000206000828254611c3f9190614fb4565b925050819055506001600360008473ffffffffffffffffffffffffffffffffffffffff1673ffffffffffffffffffffffffffffffffffffffff1681526020019081526020016000206000828254611c969190614f2d565b92505081905550816002600083815260200190815260200160002060006101000a81548173ffffffffffffffffffffffffffffffffffffffff021916908373ffffffffffffffffffffffffffffffffffffffff160217905550808273ffffffffffffffffffffffffffffffffffffffff168473ffffffffffffffffffffffffffffffffffffffff167fddf252ad1be2c89b69c2b068fc378daa952ba7f163c4a11628f55a4df523b3ef60405160405180910390a4505050565b600080611d5a611f37565b836000015184602001518560400151866060015187608001518860a00151604051602001611d889190614737565b604051602081830303815290604052805190602001208960c00151604051602001611db39190614759565b60405160208183030381529060405280519060200120604051602001611de0989796959493929190614804565b60405160208183030381529060405280519060200120915081604051602001611e099190614796565b604051602081830303815290604052805190602001209050915091565b6000611e3182610b94565b9050611e3f816000846127e9565b611e4a60008361195c565b6001600360008373ffffffffffffffffffffffffffffffffffffffff1673ffffffffffffffffffffffffffffffffffffffff1681526020019081526020016000206000828254611e9a9190614fb4565b925050819055506002600083815260200190815260200160002060006101000a81549073ffffffffffffffffffffffffffffffffffffffff021916905581600073ffffffffffffffffffffffffffffffffffffffff168273ffffffffffffffffffffffffffffffffffffffff167fddf252ad1be2c89b69c2b068fc378daa952ba7f163c4a11628f55a4df523b3ef60405160405180910390a45050565b60007f000000000000000000000000000000000000000000000000000000000000000073ffffffffffffffffffffffffffffffffffffffff163073ffffffffffffffffffffffffffffffffffffffff16148015611fb357507f000000000000000000000000000000000000000000000000000000000000000046145b15611fe0577f0000000000000000000000000000000000000000000000000000000000000000905061204e565b61204b7f00000000000000000000000000000000000000000000000000000000000000007f00000000000000000000000000000000000000000000000000000000000000007f00000000000000000000000000000000000000000000000000000000000000006127f9565b90505b90565b600081604051602001612064919061465e565b604051602081830303815290604052805190602001209050919050565b60008060006120908585612833565b9150915061209d816128b6565b819250505092915050565b600073ffffffffffffffffffffffffffffffffffffffff168273ffffffffffffffffffffffffffffffffffffffff161415612118576040517f08c379a000000000000000000000000000000000000000000000000000000000815260040161210f90614b44565b60405180910390fd5b612121816118e8565b15612161576040517f08c379a0000000000000000000000000000000000000000000000000000000008152600401612158906149a4565b60405180910390fd5b61216d600083836127e9565b6001600360008473ffffffffffffffffffffffffffffffffffffffff1673ffffffffffffffffffffffffffffffffffffffff16815260200190815260200160002060008282546121bd9190614f2d565b92505081905550816002600083815260200190815260200160002060006101000a81548173ffffffffffffffffffffffffffffffffffffffff021916908373ffffffffffffffffffffffffffffffffffffffff160217905550808273ffffffffffffffffffffffffffffffffffffffff16600073ffffffffffffffffffffffffffffffffffffffff167fddf252ad1be2c89b69c2b068fc378daa952ba7f163c4a11628f55a4df523b3ef60405160405180910390a45050565b8173ffffffffffffffffffffffffffffffffffffffff168373ffffffffffffffffffffffffffffffffffffffff1614156122e5576040517f08c379a00000000000000000000000000000000000000000000000000000000081526004016122dc906149e4565b60405180910390fd5b80600560008573ffffffffffffffffffffffffffffffffffffffff1673ffffffffffffffffffffffffffffffffffffffff16815260200190815260200160002060008473ffffffffffffffffffffffffffffffffffffffff1673ffffffffffffffffffffffffffffffffffffffff16815260200190815260200160002060006101000a81548160ff0219169083151502179055508173ffffffffffffffffffffffffffffffffffffffff168373ffffffffffffffffffffffffffffffffffffffff167f17307eab39ab6107e8899845ad3d59bd9653f200f220920489ca2b5937696c31836040516123d6919061477b565b60405180910390a3505050565b6123ee848484611af3565b6123fa84848484612c07565b612439576040517f08c379a000000000000000000000000000000000000000000000000000000000815260040161243090614984565b60405180910390fd5b50505050565b6060600c805461244e90615121565b80601f016020809104026020016040519081016040528092919081815260200182805461247a90615121565b80156124c75780601f1061249c576101008083540402835291602001916124c7565b820191906000526020600020905b8154815290600101906020018083116124aa57829003601f168201915b5050505050905090565b60606000821415612519576040518060400160405280600181526020017f30000000000000000000000000000000000000000000000000000000000000008152509050612679565b600082905060005b6000821461254b57808061253490615184565b915050600a826125449190614f83565b9150612521565b60008167ffffffffffffffff81111561258d577f4e487b7100000000000000000000000000000000000000000000000000000000600052604160045260246000fd5b6040519080825280601f01601f1916602001820160405280156125bf5781602001600182028036833780820191505090505b5090505b60008514612672576001826125d89190614fb4565b9150600a856125e791906151d7565b60306125f39190614f2d565b60f81b81838151811061262f577f4e487b7100000000000000000000000000000000000000000000000000000000600052603260045260246000fd5b60200101907effffffffffffffffffffffffffffffffffffffffffffffffffffffffffffff1916908160001a905350600a8561266b9190614f83565b94506125c3565b8093505050505b919050565b612701846323b872dd60e01b85858560405160240161269f939291906146b4565b604051602081830303815290604052907bffffffffffffffffffffffffffffffffffffffffffffffffffffffff19166020820180517bffffffffffffffffffffffffffffffffffffffffffffffffffffffff8381831617835250505050612d9e565b50505050565b60007f80ac58cd000000000000000000000000000000000000000000000000000000007bffffffffffffffffffffffffffffffffffffffffffffffffffffffff1916827bffffffffffffffffffffffffffffffffffffffffffffffffffffffff191614806127d257507f5b5e139f000000000000000000000000000000000000000000000000000000007bffffffffffffffffffffffffffffffffffffffffffffffffffffffff1916827bffffffffffffffffffffffffffffffffffffffffffffffffffffffff1916145b806127e257506127e182612e65565b5b9050919050565b6127f4838383612ecf565b505050565b600083838346306040516020016128149594939291906147b1565b6040516020818303038152906040528051906020012090509392505050565b6000806041835114156128755760008060006020860151925060408601519150606086015160001a905061286987828585612fe3565b945094505050506128af565b6040835114156128a657600080602085015191506040850151905061289b8683836130f0565b9350935050506128af565b60006002915091505b9250929050565b600060048111156128f0577f4e487b7100000000000000000000000000000000000000000000000000000000600052602160045260246000fd5b816004811115612929577f4e487b7100000000000000000000000000000000000000000000000000000000600052602160045260246000fd5b141561293457612c04565b6001600481111561296e577f4e487b7100000000000000000000000000000000000000000000000000000000600052602160045260246000fd5b8160048111156129a7577f4e487b7100000000000000000000000000000000000000000000000000000000600052602160045260246000fd5b14156129e8576040517f08c379a00000000000000000000000000000000000000000000000000000000081526004016129df90614904565b60405180910390fd5b60026004811115612a22577f4e487b7100000000000000000000000000000000000000000000000000000000600052602160045260246000fd5b816004811115612a5b577f4e487b7100000000000000000000000000000000000000000000000000000000600052602160045260246000fd5b1415612a9c576040517f08c379a0000000000000000000000000000000000000000000000000000000008152600401612a9390614944565b60405180910390fd5b60036004811115612ad6577f4e487b7100000000000000000000000000000000000000000000000000000000600052602160045260246000fd5b816004811115612b0f577f4e487b7100000000000000000000000000000000000000000000000000000000600052602160045260246000fd5b1415612b50576040517f08c379a0000000000000000000000000000000000000000000000000000000008152600401612b4790614a04565b60405180910390fd5b600480811115612b89577f4e487b7100000000000000000000000000000000000000000000000000000000600052602160045260246000fd5b816004811115612bc2577f4e487b7100000000000000000000000000000000000000000000000000000000600052602160045260246000fd5b1415612c03576040517f08c379a0000000000000000000000000000000000000000000000000000000008152600401612bfa90614b24565b60405180910390fd5b5b50565b6000612c288473ffffffffffffffffffffffffffffffffffffffff1661313e565b15612d91578373ffffffffffffffffffffffffffffffffffffffff1663150b7a02612c51611954565b8786866040518563ffffffff1660e01b8152600401612c7394939291906146eb565b602060405180830381600087803b158015612c8d57600080fd5b505af1925050508015612cbe57506040513d601f19601f82011682018060405250810190612cbb9190613c0e565b60015b612d41573d8060008114612cee576040519150601f19603f3d011682016040523d82523d6000602084013e612cf3565b606091505b50600081511415612d39576040517f08c379a0000000000000000000000000000000000000000000000000000000008152600401612d3090614984565b60405180910390fd5b805181602001fd5b63150b7a0260e01b7bffffffffffffffffffffffffffffffffffffffffffffffffffffffff1916817bffffffffffffffffffffffffffffffffffffffffffffffffffffffff191614915050612d96565b600190505b949350505050565b6000612e00826040518060400160405280602081526020017f5361666545524332303a206c6f772d6c6576656c2063616c6c206661696c65648152508573ffffffffffffffffffffffffffffffffffffffff166131519092919063ffffffff16565b9050600081511115612e605780806020019051810190612e209190613bbc565b612e5f576040517f08c379a0000000000000000000000000000000000000000000000000000000008152600401612e5690614cc4565b60405180910390fd5b5b505050565b60007f01ffc9a7000000000000000000000000000000000000000000000000000000007bffffffffffffffffffffffffffffffffffffffffffffffffffffffff1916827bffffffffffffffffffffffffffffffffffffffffffffffffffffffff1916149050919050565b612eda838383613169565b600073ffffffffffffffffffffffffffffffffffffffff168373ffffffffffffffffffffffffffffffffffffffff161415612f1d57612f188161316e565b612f5c565b8173ffffffffffffffffffffffffffffffffffffffff168373ffffffffffffffffffffffffffffffffffffffff1614612f5b57612f5a83826131b7565b5b5b600073ffffffffffffffffffffffffffffffffffffffff168273ffffffffffffffffffffffffffffffffffffffff161415612f9f57612f9a81613324565b612fde565b8273ffffffffffffffffffffffffffffffffffffffff168273ffffffffffffffffffffffffffffffffffffffff1614612fdd57612fdc8282613467565b5b5b505050565b6000807f7fffffffffffffffffffffffffffffff5d576e7357a4501ddfe92f46681b20a08360001c111561301e5760006003915091506130e7565b601b8560ff16141580156130365750601c8560ff1614155b156130485760006004915091506130e7565b60006001878787876040516000815260200160405260405161306d9493929190614882565b6020604051602081039080840390855afa15801561308f573d6000803e3d6000fd5b505050602060405103519050600073ffffffffffffffffffffffffffffffffffffffff168173ffffffffffffffffffffffffffffffffffffffff1614156130de576000600192509250506130e7565b80600092509250505b94509492505050565b6000806000807f7fffffffffffffffffffffffffffffffffffffffffffffffffffffffffffffff85169150601b8560ff1c01905061313087828885612fe3565b935093505050935093915050565b600080823b905060008111915050919050565b606061316084846000856134e6565b90509392505050565b505050565b6008805490506009600083815260200190815260200160002081905550600881908060018154018082558091505060019003906000526020600020016000909190919091505550565b600060016131c484610e2f565b6131ce9190614fb4565b90506000600760008481526020019081526020016000205490508181146132b3576000600660008673ffffffffffffffffffffffffffffffffffffffff1673ffffffffffffffffffffffffffffffffffffffff168152602001908152602001600020600084815260200190815260200160002054905080600660008773ffffffffffffffffffffffffffffffffffffffff1673ffffffffffffffffffffffffffffffffffffffff168152602001908152602001600020600084815260200190815260200160002081905550816007600083815260200190815260200160002081905550505b6007600084815260200190815260200160002060009055600660008573ffffffffffffffffffffffffffffffffffffffff1673ffffffffffffffffffffffffffffffffffffffff16815260200190815260200160002060008381526020019081526020016000206000905550505050565b600060016008805490506133389190614fb4565b905060006009600084815260200190815260200160002054905060006008838154811061338e577f4e487b7100000000000000000000000000000000000000000000000000000000600052603260045260246000fd5b9060005260206000200154905080600883815481106133d6577f4e487b7100000000000000000000000000000000000000000000000000000000600052603260045260246000fd5b90600052602060002001819055508160096000838152602001908152602001600020819055506009600085815260200190815260200160002060009055600880548061344b577f4e487b7100000000000000000000000000000000000000000000000000000000600052603160045260246000fd5b6001900381819060005260206000200160009055905550505050565b600061347283610e2f565b905081600660008573ffffffffffffffffffffffffffffffffffffffff1673ffffffffffffffffffffffffffffffffffffffff168152602001908152602001600020600083815260200190815260200160002081905550806007600084815260200190815260200160002081905550505050565b60608247101561352b576040517f08c379a000000000000000000000000000000000000000000000000000000000815260040161352290614a44565b60405180910390fd5b6135348561313e565b613573576040517f08c379a000000000000000000000000000000000000000000000000000000000815260040161356a90614c64565b60405180910390fd5b6000808673ffffffffffffffffffffffffffffffffffffffff16858760405161359c9190614623565b60006040518083038185875af1925050503d80600081146135d9576040519150601f19603f3d011682016040523d82523d6000602084013e6135de565b606091505b50915091506135ee8282866135fa565b92505050949350505050565b6060831561360a5782905061365a565b60008351111561361d5782518084602001fd5b816040517f08c379a000000000000000000000000000000000000000000000000000000000815260040161365191906148e2565b60405180910390fd5b9392505050565b600061367461366f84614dc2565b614d9d565b9050808382526020820190508285604086028201111561369357600080fd5b60005b858110156136c357816136a98882613888565b845260208401935060408301925050600181019050613696565b5050509392505050565b60006136e06136db84614dee565b614d9d565b905080838252602082019050828560408602820111156136ff57600080fd5b60005b8581101561372f578161371588826138d4565b845260208401935060408301925050600181019050613702565b5050509392505050565b600061374c61374784614e1a565b614d9d565b90508281526020810184848401111561376457600080fd5b61376f8482856150df565b509392505050565b60008135905061378681615b1f565b92915050565b600082601f83011261379d57600080fd5b81356137ad848260208601613661565b91505092915050565b600082601f8301126137c757600080fd5b81356137d78482602086016136cd565b91505092915050565b6000813590506137ef81615b36565b92915050565b60008151905061380481615b36565b92915050565b60008135905061381981615b4d565b92915050565b60008151905061382e81615b4d565b92915050565b600082601f83011261384557600080fd5b8135613855848260208601613739565b91505092915050565b60008135905061386d81615b64565b92915050565b60008135905061388281615b7b565b92915050565b60006040828403121561389a57600080fd5b6138a46040614d9d565b905060006138b48482850161385e565b60008301525060206138c884828501613a00565b60208301525092915050565b6000604082840312156138e657600080fd5b6138f06040614d9d565b9050600061390084828501613873565b600083015250602061391484828501613a00565b60208301525092915050565b600060e0828403121561393257600080fd5b61393c60e0614d9d565b9050600061394c84828501613a00565b600083015250602061396084828501613a00565b602083015250604061397484828501613a00565b604083015250606061398884828501613777565b606083015250608061399c84828501613a00565b60808301525060a082013567ffffffffffffffff8111156139bc57600080fd5b6139c88482850161378c565b60a08301525060c082013567ffffffffffffffff8111156139e857600080fd5b6139f4848285016137b6565b60c08301525092915050565b600081359050613a0f81615b92565b92915050565b600060208284031215613a2757600080fd5b6000613a3584828501613777565b91505092915050565b60008060408385031215613a5157600080fd5b6000613a5f85828601613777565b9250506020613a7085828601613777565b9150509250929050565b600080600060608486031215613a8f57600080fd5b6000613a9d86828701613777565b9350506020613aae86828701613777565b9250506040613abf86828701613a00565b9150509250925092565b60008060008060808587031215613adf57600080fd5b6000613aed87828801613777565b9450506020613afe87828801613777565b9350506040613b0f87828801613a00565b925050606085013567ffffffffffffffff811115613b2c57600080fd5b613b3887828801613834565b91505092959194509250565b60008060408385031215613b5757600080fd5b6000613b6585828601613777565b9250506020613b76858286016137e0565b9150509250929050565b60008060408385031215613b9357600080fd5b6000613ba185828601613777565b9250506020613bb285828601613a00565b9150509250929050565b600060208284031215613bce57600080fd5b6000613bdc848285016137f5565b91505092915050565b600060208284031215613bf757600080fd5b6000613c058482850161380a565b91505092915050565b600060208284031215613c2057600080fd5b6000613c2e8482850161381f565b91505092915050565b600060208284031215613c4957600080fd5b600082013567ffffffffffffffff811115613c6357600080fd5b613c6f84828501613920565b91505092915050565b60008060408385031215613c8b57600080fd5b600083013567ffffffffffffffff811115613ca557600080fd5b613cb185828601613920565b925050602083013567ffffffffffffffff811115613cce57600080fd5b613cda85828601613834565b9150509250929050565b600060208284031215613cf657600080fd5b6000613d0484828501613a00565b91505092915050565b6000613d1983836144f5565b60408301905092915050565b6000613d318383614524565b60408301905092915050565b613d4681614fe8565b82525050565b613d5581614fe8565b82525050565b6000613d6682614e6b565b613d708185614eb1565b9350613d7b83614e4b565b8060005b83811015613dac578151613d938882613d0d565b9750613d9e83614e97565b925050600181019050613d7f565b5085935050505092915050565b6000613dc482614e6b565b613dce8185614ec2565b9350613dd983614e4b565b8060005b83811015613e0a578151613df18882613d0d565b9750613dfc83614e97565b925050600181019050613ddd565b5085935050505092915050565b6000613e2282614e76565b613e2c8185614ed3565b9350613e3783614e5b565b8060005b83811015613e68578151613e4f8882613d25565b9750613e5a83614ea4565b925050600181019050613e3b565b5085935050505092915050565b6000613e8082614e76565b613e8a8185614ee4565b9350613e9583614e5b565b8060005b83811015613ec6578151613ead8882613d25565b9750613eb883614ea4565b925050600181019050613e99565b5085935050505092915050565b613edc81614ffa565b82525050565b613eeb81615006565b82525050565b613f02613efd82615006565b6151cd565b82525050565b6000613f1382614e81565b613f1d8185614ef5565b9350613f2d8185602086016150ee565b613f36816152c4565b840191505092915050565b6000613f4c82614e81565b613f568185614f06565b9350613f668185602086016150ee565b80840191505092915050565b613f7b81615097565b82525050565b613f8a81615097565b82525050565b613f99816150bb565b82525050565b6000613faa82614e8c565b613fb48185614f11565b9350613fc48185602086016150ee565b613fcd816152c4565b840191505092915050565b6000613fe382614e8c565b613fed8185614f22565b9350613ffd8185602086016150ee565b80840191505092915050565b6000614016601883614f11565b9150614021826152d5565b602082019050919050565b6000614039601d83614f11565b9150614044826152fe565b602082019050919050565b600061405c601f83614f11565b915061406782615327565b602082019050919050565b600061407f601c83614f22565b915061408a82615350565b601c82019050919050565b60006140a2602b83614f11565b91506140ad82615379565b604082019050919050565b60006140c5603283614f11565b91506140d0826153c8565b604082019050919050565b60006140e8601c83614f11565b91506140f382615417565b602082019050919050565b600061410b602483614f11565b915061411682615440565b604082019050919050565b600061412e601983614f11565b91506141398261548f565b602082019050919050565b6000614151602283614f11565b915061415c826154b8565b604082019050919050565b6000614174601583614f11565b915061417f82615507565b602082019050919050565b6000614197602683614f11565b91506141a282615530565b604082019050919050565b60006141ba602c83614f11565b91506141c58261557f565b604082019050919050565b60006141dd600e83614f11565b91506141e8826155ce565b602082019050919050565b6000614200601d83614f11565b915061420b826155f7565b602082019050919050565b6000614223603883614f11565b915061422e82615620565b604082019050919050565b6000614246602a83614f11565b91506142518261566f565b604082019050919050565b6000614269602983614f11565b9150614274826156be565b604082019050919050565b600061428c602283614f11565b91506142978261570d565b604082019050919050565b60006142af602083614f11565b91506142ba8261575c565b602082019050919050565b60006142d2602c83614f11565b91506142dd82615785565b604082019050919050565b60006142f5602983614f11565b9150614300826157d4565b604082019050919050565b6000614318602f83614f11565b915061432382615823565b604082019050919050565b600061433b601783614f11565b915061434682615872565b602082019050919050565b600061435e602183614f11565b91506143698261589b565b604082019050919050565b6000614381602383614f11565b915061438c826158ea565b604082019050919050565b60006143a4601883614f11565b91506143af82615939565b602082019050919050565b60006143c7600083614f06565b91506143d282615962565b600082019050919050565b60006143ea603183614f11565b91506143f582615965565b604082019050919050565b600061440d601d83614f11565b9150614418826159b4565b602082019050919050565b6000614430601683614f11565b915061443b826159dd565b602082019050919050565b6000614453602c83614f11565b915061445e82615a06565b604082019050919050565b6000614476602a83614f11565b915061448182615a55565b604082019050919050565b6000614499600e83614f11565b91506144a482615aa4565b602082019050919050565b60006144bc601f83614f11565b91506144c782615acd565b602082019050919050565b60006144df601c83614f11565b91506144ea82615af6565b602082019050919050565b60408201600082015161450b6000850182613f72565b50602082015161451e60208501826145f6565b50505050565b60408201600082015161453a6000850182613f90565b50602082015161454d60208501826145f6565b50505050565b600060e08301600083015161456b60008601826145f6565b50602083015161457e60208601826145f6565b50604083015161459160408601826145f6565b5060608301516145a46060860182613d3d565b5060808301516145b760808601826145f6565b5060a083015184820360a08601526145cf8282613d5b565b91505060c083015184820360c08601526145e98282613e17565b9150508091505092915050565b6145ff81615080565b82525050565b61460e81615080565b82525050565b61461d8161508a565b82525050565b600061462f8284613f41565b915081905092915050565b60006146468285613fd8565b91506146528284613fd8565b91508190509392505050565b600061466982614072565b91506146758284613ef1565b60208201915081905092915050565b600061468f826143ba565b9150819050919050565b60006020820190506146ae6000830184613d4c565b92915050565b60006060820190506146c96000830186613d4c565b6146d66020830185613d4c565b6146e36040830184614605565b949350505050565b60006080820190506147006000830187613d4c565b61470d6020830186613d4c565b61471a6040830185614605565b818103606083015261472c8184613f08565b905095945050505050565b600060208201905081810360008301526147518184613db9565b905092915050565b600060208201905081810360008301526147738184613e75565b905092915050565b60006020820190506147906000830184613ed3565b92915050565b60006020820190506147ab6000830184613ee2565b92915050565b600060a0820190506147c66000830188613ee2565b6147d36020830187613ee2565b6147e06040830186613ee2565b6147ed6060830185614605565b6147fa6080830184613d4c565b9695505050505050565b60006101008201905061481a600083018b613ee2565b614827602083018a614605565b6148346040830189614605565b6148416060830188614605565b61484e6080830187613d4c565b61485b60a0830186614605565b61486860c0830185613ee2565b61487560e0830184613ee2565b9998505050505050505050565b60006080820190506148976000830187613ee2565b6148a46020830186614614565b6148b16040830185613ee2565b6148be6060830184613ee2565b95945050505050565b60006020820190506148dc6000830184613f81565b92915050565b600060208201905081810360008301526148fc8184613f9f565b905092915050565b6000602082019050818103600083015261491d81614009565b9050919050565b6000602082019050818103600083015261493d8161402c565b9050919050565b6000602082019050818103600083015261495d8161404f565b9050919050565b6000602082019050818103600083015261497d81614095565b9050919050565b6000602082019050818103600083015261499d816140b8565b9050919050565b600060208201905081810360008301526149bd816140db565b9050919050565b600060208201905081810360008301526149dd816140fe565b9050919050565b600060208201905081810360008301526149fd81614121565b9050919050565b60006020820190508181036000830152614a1d81614144565b9050919050565b60006020820190508181036000830152614a3d81614167565b9050919050565b60006020820190508181036000830152614a5d8161418a565b9050919050565b60006020820190508181036000830152614a7d816141ad565b9050919050565b60006020820190508181036000830152614a9d816141d0565b9050919050565b60006020820190508181036000830152614abd816141f3565b9050919050565b60006020820190508181036000830152614add81614216565b9050919050565b60006020820190508181036000830152614afd81614239565b9050919050565b60006020820190508181036000830152614b1d8161425c565b9050919050565b60006020820190508181036000830152614b3d8161427f565b9050919050565b60006020820190508181036000830152614b5d816142a2565b9050919050565b60006020820190508181036000830152614b7d816142c5565b9050919050565b60006020820190508181036000830152614b9d816142e8565b9050919050565b60006020820190508181036000830152614bbd8161430b565b9050919050565b60006020820190508181036000830152614bdd8161432e565b9050919050565b60006020820190508181036000830152614bfd81614351565b9050919050565b60006020820190508181036000830152614c1d81614374565b9050919050565b60006020820190508181036000830152614c3d81614397565b9050919050565b60006020820190508181036000830152614c5d816143dd565b9050919050565b60006020820190508181036000830152614c7d81614400565b9050919050565b60006020820190508181036000830152614c9d81614423565b9050919050565b60006020820190508181036000830152614cbd81614446565b9050919050565b60006020820190508181036000830152614cdd81614469565b9050919050565b60006020820190508181036000830152614cfd8161448c565b9050919050565b60006020820190508181036000830152614d1d816144af565b9050919050565b60006020820190508181036000830152614d3d816144d2565b9050919050565b60006060820190508181036000830152614d5e8186614553565b9050614d6d6020830185614605565b614d7a6040830184614605565b949350505050565b6000602082019050614d976000830184614605565b92915050565b6000614da7614db8565b9050614db38282615153565b919050565b6000604051905090565b600067ffffffffffffffff821115614ddd57614ddc615295565b5b602082029050602081019050919050565b600067ffffffffffffffff821115614e0957614e08615295565b5b602082029050602081019050919050565b600067ffffffffffffffff821115614e3557614e34615295565b5b614e3e826152c4565b9050602081019050919050565b6000819050602082019050919050565b6000819050602082019050919050565b600081519050919050565b600081519050919050565b600081519050919050565b600081519050919050565b6000602082019050919050565b6000602082019050919050565b600082825260208201905092915050565b600082825260208201905092915050565b600082825260208201905092915050565b600082825260208201905092915050565b600082825260208201905092915050565b600081905092915050565b600082825260208201905092915050565b600081905092915050565b6000614f3882615080565b9150614f4383615080565b9250827fffffffffffffffffffffffffffffffffffffffffffffffffffffffffffffffff03821115614f7857614f77615208565b5b828201905092915050565b6000614f8e82615080565b9150614f9983615080565b925082614fa957614fa8615237565b5b828204905092915050565b6000614fbf82615080565b9150614fca83615080565b925082821015614fdd57614fdc615208565b5b828203905092915050565b6000614ff382615060565b9050919050565b60008115159050919050565b6000819050919050565b60007fffffffff0000000000000000000000000000000000000000000000000000000082169050919050565b600061504782614fe8565b9050919050565b600061505982614fe8565b9050919050565b600073ffffffffffffffffffffffffffffffffffffffff82169050919050565b6000819050919050565b600060ff82169050919050565b60006150a2826150a9565b9050919050565b60006150b482615060565b9050919050565b60006150c6826150cd565b9050919050565b60006150d882615060565b9050919050565b82818337600083830152505050565b60005b8381101561510c5780820151818401526020810190506150f1565b8381111561511b576000848401525b50505050565b6000600282049050600182168061513957607f821691505b6020821081141561514d5761514c615266565b5b50919050565b61515c826152c4565b810181811067ffffffffffffffff8211171561517b5761517a615295565b5b80604052505050565b600061518f82615080565b91507fffffffffffffffffffffffffffffffffffffffffffffffffffffffffffffffff8214156151c2576151c1615208565b5b600182019050919050565b6000819050919050565b60006151e282615080565b91506151ed83615080565b9250826151fd576151fc615237565b5b828206905092915050565b7f4e487b7100000000000000000000000000000000000000000000000000000000600052601160045260246000fd5b7f4e487b7100000000000000000000000000000000000000000000000000000000600052601260045260246000fd5b7f4e487b7100000000000000000000000000000000000000000000000000000000600052602260045260246000fd5b7f4e487b7100000000000000000000000000000000000000000000000000000000600052604160045260246000fd5b6000601f19601f8301169050919050565b7f45434453413a20696e76616c6964207369676e61747572650000000000000000600082015250565b7f455448207472616e7366657220746f2073656c6c6572206661696c6564000000600082015250565b7f45434453413a20696e76616c6964207369676e6174757265206c656e67746800600082015250565b7f19457468657265756d205369676e6564204d6573736167653a0a333200000000600082015250565b7f455243373231456e756d657261626c653a206f776e657220696e646578206f7560008201527f74206f6620626f756e6473000000000000000000000000000000000000000000602082015250565b7f4552433732313a207472616e7366657220746f206e6f6e20455243373231526560008201527f63656976657220696d706c656d656e7465720000000000000000000000000000602082015250565b7f4552433732313a20746f6b656e20616c7265616479206d696e74656400000000600082015250565b7f4552433732313a207472616e7366657220746f20746865207a65726f2061646460008201527f7265737300000000000000000000000000000000000000000000000000000000602082015250565b7f4552433732313a20617070726f766520746f2063616c6c657200000000000000600082015250565b7f45434453413a20696e76616c6964207369676e6174757265202773272076616c60008201527f7565000000000000000000000000000000000000000000000000000000000000602082015250565b7f596f7520617265206e6f7420746865206f776e65720000000000000000000000600082015250565b7f416464726573733a20696e73756666696369656e742062616c616e636520666f60008201527f722063616c6c0000000000000000000000000000000000000000000000000000602082015250565b7f4552433732313a206f70657261746f7220717565727920666f72206e6f6e657860008201527f697374656e7420746f6b656e0000000000000000000000000000000000000000602082015250565b7f4e6f7420656e6f75676820657468000000000000000000000000000000000000600082015250565b7f4f726465722068617320616c7265616479206265656e2066696c6c6564000000600082015250565b7f4552433732313a20617070726f76652063616c6c6572206973206e6f74206f7760008201527f6e6572206e6f7220617070726f76656420666f7220616c6c0000000000000000602082015250565b7f4552433732313a2062616c616e636520717565727920666f7220746865207a6560008201527f726f206164647265737300000000000000000000000000000000000000000000602082015250565b7f4552433732313a206f776e657220717565727920666f72206e6f6e657869737460008201527f656e7420746f6b656e0000000000000000000000000000000000000000000000602082015250565b7f45434453413a20696e76616c6964207369676e6174757265202776272076616c60008201527f7565000000000000000000000000000000000000000000000000000000000000602082015250565b7f4552433732313a206d696e7420746f20746865207a65726f2061646472657373600082015250565b7f4552433732313a20617070726f76656420717565727920666f72206e6f6e657860008201527f697374656e7420746f6b656e0000000000000000000000000000000000000000602082015250565b7f4552433732313a207472616e73666572206f6620746f6b656e2074686174206960008201527f73206e6f74206f776e0000000000000000000000000000000000000000000000602082015250565b7f4552433732314d657461646174613a2055524920717565727920666f72206e6f60008201527f6e6578697374656e7420746f6b656e0000000000000000000000000000000000602082015250565b7f496e76616c6964206f72646572207369676e6174757265000000000000000000600082015250565b7f4552433732313a20617070726f76616c20746f2063757272656e74206f776e6560008201527f7200000000000000000000000000000000000000000000000000000000000000602082015250565b7f43616e6e6f74206578657263697365206f7074696f6e20796f7520646f6e742060008201527f6f776e0000000000000000000000000000000000000000000000000000000000602082015250565b7f4f7264657220686173206265656e2063616e63656c6c65640000000000000000600082015250565b50565b7f4552433732313a207472616e736665722063616c6c6572206973206e6f74206f60008201527f776e6572206e6f7220617070726f766564000000000000000000000000000000602082015250565b7f416464726573733a2063616c6c20746f206e6f6e2d636f6e7472616374000000600082015250565b7f4f7074696f6e20686173206e6f74206578706972656400000000000000000000600082015250565b7f455243373231456e756d657261626c653a20676c6f62616c20696e646578206f60008201527f7574206f6620626f756e64730000000000000000000000000000000000000000602082015250565b7f5361666545524332303a204552433230206f7065726174696f6e20646964206e60008201527f6f74207375636365656400000000000000000000000000000000000000000000602082015250565b7f45787069726564206f7074696f6e000000000000000000000000000000000000600082015250565b7f5265656e7472616e637947756172643a207265656e7472616e742063616c6c00600082015250565b7f455448207472616e7366657220746f206275796572206661696c656400000000600082015250565b615b2881614fe8565b8114615b3357600080fd5b50565b615b3f81614ffa565b8114615b4a57600080fd5b50565b615b5681615010565b8114615b6157600080fd5b50565b615b6d8161503c565b8114615b7857600080fd5b50565b615b848161504e565b8114615b8f57600080fd5b50565b615b9b81615080565b8114615ba657600080fd5b5056fea26469706673582212200e029986795b9e96b205bd080e32e50b47a40fd444eab7997cb2d81f09547c8b64736f6c63430008040033",
  "devdoc": {
    "kind": "dev",
    "methods": {
      "approve(address,uint256)": {
        "details": "See {IERC721-approve}."
      },
      "balanceOf(address)": {
        "details": "See {IERC721-balanceOf}."
      },
      "getApproved(uint256)": {
        "details": "See {IERC721-getApproved}."
      },
      "isApprovedForAll(address,address)": {
        "details": "See {IERC721-isApprovedForAll}."
      },
      "name()": {
        "details": "See {IERC721Metadata-name}."
      },
      "ownerOf(uint256)": {
        "details": "See {IERC721-ownerOf}."
      },
      "safeTransferFrom(address,address,uint256)": {
        "details": "See {IERC721-safeTransferFrom}."
      },
      "safeTransferFrom(address,address,uint256,bytes)": {
        "details": "See {IERC721-safeTransferFrom}."
      },
      "setApprovalForAll(address,bool)": {
        "details": "See {IERC721-setApprovalForAll}."
      },
      "symbol()": {
        "details": "See {IERC721Metadata-symbol}."
      },
      "tokenByIndex(uint256)": {
        "details": "See {IERC721Enumerable-tokenByIndex}."
      },
      "tokenOfOwnerByIndex(address,uint256)": {
        "details": "See {IERC721Enumerable-tokenOfOwnerByIndex}."
      },
      "tokenURI(uint256)": {
        "details": "See {IERC721Metadata-tokenURI}."
      },
      "totalSupply()": {
        "details": "See {IERC721Enumerable-totalSupply}."
      },
      "transferFrom(address,address,uint256)": {
        "details": "See {IERC721-transferFrom}."
      }
    },
    "version": 1
  },
  "userdoc": {
    "kind": "user",
    "methods": {},
    "version": 1
  },
  "storageLayout": {
    "storage": [
      {
        "astId": 938,
        "contract": "contracts/Putty.sol:Putty",
        "label": "_name",
        "offset": 0,
        "slot": "0",
        "type": "t_string_storage"
      },
      {
        "astId": 940,
        "contract": "contracts/Putty.sol:Putty",
        "label": "_symbol",
        "offset": 0,
        "slot": "1",
        "type": "t_string_storage"
      },
      {
        "astId": 944,
        "contract": "contracts/Putty.sol:Putty",
        "label": "_owners",
        "offset": 0,
        "slot": "2",
        "type": "t_mapping(t_uint256,t_address)"
      },
      {
        "astId": 948,
        "contract": "contracts/Putty.sol:Putty",
        "label": "_balances",
        "offset": 0,
        "slot": "3",
        "type": "t_mapping(t_address,t_uint256)"
      },
      {
        "astId": 952,
        "contract": "contracts/Putty.sol:Putty",
        "label": "_tokenApprovals",
        "offset": 0,
        "slot": "4",
        "type": "t_mapping(t_uint256,t_address)"
      },
      {
        "astId": 958,
        "contract": "contracts/Putty.sol:Putty",
        "label": "_operatorApprovals",
        "offset": 0,
        "slot": "5",
        "type": "t_mapping(t_address,t_mapping(t_address,t_bool))"
      },
      {
        "astId": 1892,
        "contract": "contracts/Putty.sol:Putty",
        "label": "_ownedTokens",
        "offset": 0,
        "slot": "6",
        "type": "t_mapping(t_address,t_mapping(t_uint256,t_uint256))"
      },
      {
        "astId": 1896,
        "contract": "contracts/Putty.sol:Putty",
        "label": "_ownedTokensIndex",
        "offset": 0,
        "slot": "7",
        "type": "t_mapping(t_uint256,t_uint256)"
      },
      {
        "astId": 1899,
        "contract": "contracts/Putty.sol:Putty",
        "label": "_allTokens",
        "offset": 0,
        "slot": "8",
        "type": "t_array(t_uint256)dyn_storage"
      },
      {
        "astId": 1903,
        "contract": "contracts/Putty.sol:Putty",
        "label": "_allTokensIndex",
        "offset": 0,
        "slot": "9",
        "type": "t_mapping(t_uint256,t_uint256)"
      },
      {
        "astId": 10,
        "contract": "contracts/Putty.sol:Putty",
        "label": "_status",
        "offset": 0,
        "slot": "10",
        "type": "t_uint256"
      },
      {
        "astId": 3414,
        "contract": "contracts/Putty.sol:Putty",
        "label": "weth",
        "offset": 0,
        "slot": "11",
        "type": "t_contract(ERC20)585"
      },
      {
        "astId": 3416,
        "contract": "contracts/Putty.sol:Putty",
        "label": "baseURI",
        "offset": 0,
        "slot": "12",
        "type": "t_string_storage"
      },
      {
        "astId": 3420,
        "contract": "contracts/Putty.sol:Putty",
        "label": "tokenIdToCreationTimestamp",
        "offset": 0,
        "slot": "13",
        "type": "t_mapping(t_uint256,t_uint256)"
      },
      {
        "astId": 3424,
        "contract": "contracts/Putty.sol:Putty",
        "label": "cancelledOrders",
        "offset": 0,
        "slot": "14",
        "type": "t_mapping(t_uint256,t_bool)"
      },
      {
        "astId": 3428,
        "contract": "contracts/Putty.sol:Putty",
        "label": "filledOrders",
        "offset": 0,
        "slot": "15",
        "type": "t_mapping(t_uint256,t_bool)"
      },
      {
        "astId": 3432,
        "contract": "contracts/Putty.sol:Putty",
        "label": "_owners",
        "offset": 0,
        "slot": "16",
        "type": "t_mapping(t_uint256,t_address)"
      }
    ],
    "types": {
      "t_address": {
        "encoding": "inplace",
        "label": "address",
        "numberOfBytes": "20"
      },
      "t_array(t_uint256)dyn_storage": {
        "base": "t_uint256",
        "encoding": "dynamic_array",
        "label": "uint256[]",
        "numberOfBytes": "32"
      },
      "t_bool": {
        "encoding": "inplace",
        "label": "bool",
        "numberOfBytes": "1"
      },
      "t_contract(ERC20)585": {
        "encoding": "inplace",
        "label": "contract ERC20",
        "numberOfBytes": "20"
      },
      "t_mapping(t_address,t_bool)": {
        "encoding": "mapping",
        "key": "t_address",
        "label": "mapping(address => bool)",
        "numberOfBytes": "32",
        "value": "t_bool"
      },
      "t_mapping(t_address,t_mapping(t_address,t_bool))": {
        "encoding": "mapping",
        "key": "t_address",
        "label": "mapping(address => mapping(address => bool))",
        "numberOfBytes": "32",
        "value": "t_mapping(t_address,t_bool)"
      },
      "t_mapping(t_address,t_mapping(t_uint256,t_uint256))": {
        "encoding": "mapping",
        "key": "t_address",
        "label": "mapping(address => mapping(uint256 => uint256))",
        "numberOfBytes": "32",
        "value": "t_mapping(t_uint256,t_uint256)"
      },
      "t_mapping(t_address,t_uint256)": {
        "encoding": "mapping",
        "key": "t_address",
        "label": "mapping(address => uint256)",
        "numberOfBytes": "32",
        "value": "t_uint256"
      },
      "t_mapping(t_uint256,t_address)": {
        "encoding": "mapping",
        "key": "t_uint256",
        "label": "mapping(uint256 => address)",
        "numberOfBytes": "32",
        "value": "t_address"
      },
      "t_mapping(t_uint256,t_bool)": {
        "encoding": "mapping",
        "key": "t_uint256",
        "label": "mapping(uint256 => bool)",
        "numberOfBytes": "32",
        "value": "t_bool"
      },
      "t_mapping(t_uint256,t_uint256)": {
        "encoding": "mapping",
        "key": "t_uint256",
        "label": "mapping(uint256 => uint256)",
        "numberOfBytes": "32",
        "value": "t_uint256"
      },
      "t_string_storage": {
        "encoding": "bytes",
        "label": "string",
        "numberOfBytes": "32"
      },
      "t_uint256": {
        "encoding": "inplace",
        "label": "uint256",
        "numberOfBytes": "32"
      }
    }
  }
}