{
  "address": "0x588D2bCF752CAB75F9148cf76b641eEae4E28DE9",
  "abi": [
    {
      "inputs": [
        {
          "internalType": "contract ERC20",
          "name": "weth_",
          "type": "address"
        },
        {
          "internalType": "string",
          "name": "baseURI_",
          "type": "string"
        }
      ],
      "stateMutability": "nonpayable",
      "type": "constructor"
    },
    {
      "anonymous": false,
      "inputs": [
        {
          "indexed": true,
          "internalType": "address",
          "name": "owner",
          "type": "address"
        },
        {
          "indexed": true,
          "internalType": "address",
          "name": "approved",
          "type": "address"
        },
        {
          "indexed": true,
          "internalType": "uint256",
          "name": "tokenId",
          "type": "uint256"
        }
      ],
      "name": "Approval",
      "type": "event"
    },
    {
      "anonymous": false,
      "inputs": [
        {
          "indexed": true,
          "internalType": "address",
          "name": "owner",
          "type": "address"
        },
        {
          "indexed": true,
          "internalType": "address",
          "name": "operator",
          "type": "address"
        },
        {
          "indexed": false,
          "internalType": "bool",
          "name": "approved",
          "type": "bool"
        }
      ],
      "name": "ApprovalForAll",
      "type": "event"
    },
    {
      "anonymous": false,
      "inputs": [
        {
          "components": [
            {
              "internalType": "uint256",
              "name": "strike",
              "type": "uint256"
            },
            {
              "internalType": "uint256",
              "name": "duration",
              "type": "uint256"
            },
            {
              "internalType": "uint256",
              "name": "premium",
              "type": "uint256"
            },
            {
              "internalType": "address",
              "name": "owner",
              "type": "address"
            },
            {
              "internalType": "uint256",
              "name": "nonce",
              "type": "uint256"
            },
            {
              "components": [
                {
                  "internalType": "contract ERC20",
                  "name": "token",
                  "type": "address"
                },
                {
                  "internalType": "uint256",
                  "name": "amount",
                  "type": "uint256"
                }
              ],
              "internalType": "struct Putty.ERC20Info[]",
              "name": "erc20Underlying",
              "type": "tuple[]"
            },
            {
              "components": [
                {
                  "internalType": "contract ERC721",
                  "name": "token",
                  "type": "address"
                },
                {
                  "internalType": "uint256",
                  "name": "tokenId",
                  "type": "uint256"
                }
              ],
              "internalType": "struct Putty.ERC721Info[]",
              "name": "erc721Underlying",
              "type": "tuple[]"
            }
          ],
          "indexed": false,
          "internalType": "struct Putty.Option",
          "name": "_option",
          "type": "tuple"
        },
        {
          "indexed": true,
          "internalType": "address",
          "name": "buyer",
          "type": "address"
        },
        {
          "indexed": false,
          "internalType": "uint256",
          "name": "tokenId",
          "type": "uint256"
        },
        {
          "indexed": false,
          "internalType": "uint256",
          "name": "shortTokenId",
          "type": "uint256"
        }
      ],
      "name": "BuyFilled",
      "type": "event"
    },
    {
      "anonymous": false,
      "inputs": [
        {
          "indexed": true,
          "internalType": "address",
          "name": "from",
          "type": "address"
        },
        {
          "indexed": true,
          "internalType": "address",
          "name": "to",
          "type": "address"
        },
        {
          "indexed": true,
          "internalType": "uint256",
          "name": "tokenId",
          "type": "uint256"
        }
      ],
      "name": "Transfer",
      "type": "event"
    },
    {
      "inputs": [
        {
          "internalType": "address",
          "name": "to",
          "type": "address"
        },
        {
          "internalType": "uint256",
          "name": "tokenId",
          "type": "uint256"
        }
      ],
      "name": "approve",
      "outputs": [],
      "stateMutability": "nonpayable",
      "type": "function"
    },
    {
      "inputs": [
        {
          "internalType": "address",
          "name": "owner",
          "type": "address"
        }
      ],
      "name": "balanceOf",
      "outputs": [
        {
          "internalType": "uint256",
          "name": "",
          "type": "uint256"
        }
      ],
      "stateMutability": "view",
      "type": "function"
    },
    {
      "inputs": [],
      "name": "baseURI",
      "outputs": [
        {
          "internalType": "string",
          "name": "",
          "type": "string"
        }
      ],
      "stateMutability": "view",
      "type": "function"
    },
    {
      "inputs": [
        {
          "components": [
            {
              "internalType": "uint256",
              "name": "strike",
              "type": "uint256"
            },
            {
              "internalType": "uint256",
              "name": "duration",
              "type": "uint256"
            },
            {
              "internalType": "uint256",
              "name": "premium",
              "type": "uint256"
            },
            {
              "internalType": "address",
              "name": "owner",
              "type": "address"
            },
            {
              "internalType": "uint256",
              "name": "nonce",
              "type": "uint256"
            },
            {
              "components": [
                {
                  "internalType": "contract ERC20",
                  "name": "token",
                  "type": "address"
                },
                {
                  "internalType": "uint256",
                  "name": "amount",
                  "type": "uint256"
                }
              ],
              "internalType": "struct Putty.ERC20Info[]",
              "name": "erc20Underlying",
              "type": "tuple[]"
            },
            {
              "components": [
                {
                  "internalType": "contract ERC721",
                  "name": "token",
                  "type": "address"
                },
                {
                  "internalType": "uint256",
                  "name": "tokenId",
                  "type": "uint256"
                }
              ],
              "internalType": "struct Putty.ERC721Info[]",
              "name": "erc721Underlying",
              "type": "tuple[]"
            }
          ],
          "internalType": "struct Putty.Option",
          "name": "option",
          "type": "tuple"
        }
      ],
      "name": "cancel",
      "outputs": [],
      "stateMutability": "nonpayable",
      "type": "function"
    },
    {
      "inputs": [
        {
          "internalType": "uint256",
          "name": "",
          "type": "uint256"
        }
      ],
      "name": "cancelledOrders",
      "outputs": [
        {
          "internalType": "bool",
          "name": "",
          "type": "bool"
        }
      ],
      "stateMutability": "view",
      "type": "function"
    },
    {
      "inputs": [],
      "name": "domainSeparatorV4",
      "outputs": [
        {
          "internalType": "bytes32",
          "name": "",
          "type": "bytes32"
        }
      ],
      "stateMutability": "view",
      "type": "function"
    },
    {
      "inputs": [
        {
          "components": [
            {
              "internalType": "uint256",
              "name": "strike",
              "type": "uint256"
            },
            {
              "internalType": "uint256",
              "name": "duration",
              "type": "uint256"
            },
            {
              "internalType": "uint256",
              "name": "premium",
              "type": "uint256"
            },
            {
              "internalType": "address",
              "name": "owner",
              "type": "address"
            },
            {
              "internalType": "uint256",
              "name": "nonce",
              "type": "uint256"
            },
            {
              "components": [
                {
                  "internalType": "contract ERC20",
                  "name": "token",
                  "type": "address"
                },
                {
                  "internalType": "uint256",
                  "name": "amount",
                  "type": "uint256"
                }
              ],
              "internalType": "struct Putty.ERC20Info[]",
              "name": "erc20Underlying",
              "type": "tuple[]"
            },
            {
              "components": [
                {
                  "internalType": "contract ERC721",
                  "name": "token",
                  "type": "address"
                },
                {
                  "internalType": "uint256",
                  "name": "tokenId",
                  "type": "uint256"
                }
              ],
              "internalType": "struct Putty.ERC721Info[]",
              "name": "erc721Underlying",
              "type": "tuple[]"
            }
          ],
          "internalType": "struct Putty.Option",
          "name": "option",
          "type": "tuple"
        }
      ],
      "name": "exercise",
      "outputs": [],
      "stateMutability": "nonpayable",
      "type": "function"
    },
    {
      "inputs": [
        {
          "components": [
            {
              "internalType": "uint256",
              "name": "strike",
              "type": "uint256"
            },
            {
              "internalType": "uint256",
              "name": "duration",
              "type": "uint256"
            },
            {
              "internalType": "uint256",
              "name": "premium",
              "type": "uint256"
            },
            {
              "internalType": "address",
              "name": "owner",
              "type": "address"
            },
            {
              "internalType": "uint256",
              "name": "nonce",
              "type": "uint256"
            },
            {
              "components": [
                {
                  "internalType": "contract ERC20",
                  "name": "token",
                  "type": "address"
                },
                {
                  "internalType": "uint256",
                  "name": "amount",
                  "type": "uint256"
                }
              ],
              "internalType": "struct Putty.ERC20Info[]",
              "name": "erc20Underlying",
              "type": "tuple[]"
            },
            {
              "components": [
                {
                  "internalType": "contract ERC721",
                  "name": "token",
                  "type": "address"
                },
                {
                  "internalType": "uint256",
                  "name": "tokenId",
                  "type": "uint256"
                }
              ],
              "internalType": "struct Putty.ERC721Info[]",
              "name": "erc721Underlying",
              "type": "tuple[]"
            }
          ],
          "internalType": "struct Putty.Option",
          "name": "option",
          "type": "tuple"
        }
      ],
      "name": "expire",
      "outputs": [],
      "stateMutability": "nonpayable",
      "type": "function"
    },
    {
      "inputs": [
        {
          "components": [
            {
              "internalType": "uint256",
              "name": "strike",
              "type": "uint256"
            },
            {
              "internalType": "uint256",
              "name": "duration",
              "type": "uint256"
            },
            {
              "internalType": "uint256",
              "name": "premium",
              "type": "uint256"
            },
            {
              "internalType": "address",
              "name": "owner",
              "type": "address"
            },
            {
              "internalType": "uint256",
              "name": "nonce",
              "type": "uint256"
            },
            {
              "components": [
                {
                  "internalType": "contract ERC20",
                  "name": "token",
                  "type": "address"
                },
                {
                  "internalType": "uint256",
                  "name": "amount",
                  "type": "uint256"
                }
              ],
              "internalType": "struct Putty.ERC20Info[]",
              "name": "erc20Underlying",
              "type": "tuple[]"
            },
            {
              "components": [
                {
                  "internalType": "contract ERC721",
                  "name": "token",
                  "type": "address"
                },
                {
                  "internalType": "uint256",
                  "name": "tokenId",
                  "type": "uint256"
                }
              ],
              "internalType": "struct Putty.ERC721Info[]",
              "name": "erc721Underlying",
              "type": "tuple[]"
            }
          ],
          "internalType": "struct Putty.Option",
          "name": "option",
          "type": "tuple"
        },
        {
          "internalType": "bytes",
          "name": "signature",
          "type": "bytes"
        }
      ],
      "name": "fillBuyOrder",
      "outputs": [],
      "stateMutability": "payable",
      "type": "function"
    },
    {
      "inputs": [
        {
          "internalType": "uint256",
          "name": "",
          "type": "uint256"
        }
      ],
      "name": "filledOrders",
      "outputs": [
        {
          "internalType": "bool",
          "name": "",
          "type": "bool"
        }
      ],
      "stateMutability": "view",
      "type": "function"
    },
    {
      "inputs": [
        {
          "internalType": "uint256",
          "name": "tokenId",
          "type": "uint256"
        }
      ],
      "name": "getApproved",
      "outputs": [
        {
          "internalType": "address",
          "name": "",
          "type": "address"
        }
      ],
      "stateMutability": "view",
      "type": "function"
    },
    {
      "inputs": [
        {
          "internalType": "address",
          "name": "owner",
          "type": "address"
        },
        {
          "internalType": "address",
          "name": "operator",
          "type": "address"
        }
      ],
      "name": "isApprovedForAll",
      "outputs": [
        {
          "internalType": "bool",
          "name": "",
          "type": "bool"
        }
      ],
      "stateMutability": "view",
      "type": "function"
    },
    {
      "inputs": [],
      "name": "name",
      "outputs": [
        {
          "internalType": "string",
          "name": "",
          "type": "string"
        }
      ],
      "stateMutability": "view",
      "type": "function"
    },
    {
      "inputs": [
        {
          "internalType": "uint256",
          "name": "tokenId",
          "type": "uint256"
        }
      ],
      "name": "ownerOf",
      "outputs": [
        {
          "internalType": "address",
          "name": "",
          "type": "address"
        }
      ],
      "stateMutability": "view",
      "type": "function"
    },
    {
      "inputs": [
        {
          "internalType": "address",
          "name": "from",
          "type": "address"
        },
        {
          "internalType": "address",
          "name": "to",
          "type": "address"
        },
        {
          "internalType": "uint256",
          "name": "tokenId",
          "type": "uint256"
        }
      ],
      "name": "safeTransferFrom",
      "outputs": [],
      "stateMutability": "nonpayable",
      "type": "function"
    },
    {
      "inputs": [
        {
          "internalType": "address",
          "name": "from",
          "type": "address"
        },
        {
          "internalType": "address",
          "name": "to",
          "type": "address"
        },
        {
          "internalType": "uint256",
          "name": "tokenId",
          "type": "uint256"
        },
        {
          "internalType": "bytes",
          "name": "_data",
          "type": "bytes"
        }
      ],
      "name": "safeTransferFrom",
      "outputs": [],
      "stateMutability": "nonpayable",
      "type": "function"
    },
    {
      "inputs": [
        {
          "internalType": "address",
          "name": "operator",
          "type": "address"
        },
        {
          "internalType": "bool",
          "name": "approved",
          "type": "bool"
        }
      ],
      "name": "setApprovalForAll",
      "outputs": [],
      "stateMutability": "nonpayable",
      "type": "function"
    },
    {
      "inputs": [
        {
          "internalType": "bytes4",
          "name": "interfaceId",
          "type": "bytes4"
        }
      ],
      "name": "supportsInterface",
      "outputs": [
        {
          "internalType": "bool",
          "name": "",
          "type": "bool"
        }
      ],
      "stateMutability": "view",
      "type": "function"
    },
    {
      "inputs": [],
      "name": "symbol",
      "outputs": [
        {
          "internalType": "string",
          "name": "",
          "type": "string"
        }
      ],
      "stateMutability": "view",
      "type": "function"
    },
    {
      "inputs": [
        {
          "internalType": "uint256",
          "name": "",
          "type": "uint256"
        }
      ],
      "name": "tokenIdToCreationTimestamp",
      "outputs": [
        {
          "internalType": "uint256",
          "name": "",
          "type": "uint256"
        }
      ],
      "stateMutability": "view",
      "type": "function"
    },
    {
      "inputs": [
        {
          "internalType": "uint256",
          "name": "tokenId",
          "type": "uint256"
        }
      ],
      "name": "tokenURI",
      "outputs": [
        {
          "internalType": "string",
          "name": "",
          "type": "string"
        }
      ],
      "stateMutability": "view",
      "type": "function"
    },
    {
      "inputs": [
        {
          "internalType": "address",
          "name": "from",
          "type": "address"
        },
        {
          "internalType": "address",
          "name": "to",
          "type": "address"
        },
        {
          "internalType": "uint256",
          "name": "tokenId",
          "type": "uint256"
        }
      ],
      "name": "transferFrom",
      "outputs": [],
      "stateMutability": "nonpayable",
      "type": "function"
    },
    {
      "inputs": [],
      "name": "weth",
      "outputs": [
        {
          "internalType": "contract ERC20",
          "name": "",
          "type": "address"
        }
      ],
      "stateMutability": "view",
      "type": "function"
    }
  ],
  "transactionHash": "0x5d07d3fdcf15f9624f2e1341591046db86bee3bbf2da6b1cf37607bfe484a88b",
  "args": [
    "0xd0a1e359811322d97991e03f863a0c30c2cf029c",
    "https://kovan.putty.finance/api/token/"
  ],
  "numDeployments": 3,
  "solcInputHash": "dc896ee16812262020b0f70ccc0d8907",
  "bytecode": "0x6101406040523480156200001257600080fd5b5060405162005a5f38038062005a5f8339818101604052810190620000389190620003d8565b6040518060400160405280600d81526020017f5075747479204f7074696f6e73000000000000000000000000000000000000008152506040518060400160405280600481526020017f4f505554000000000000000000000000000000000000000000000000000000008152506040518060400160405280600581526020017f50757474790000000000000000000000000000000000000000000000000000008152506040518060400160405280600481526020017f76302e390000000000000000000000000000000000000000000000000000000081525060008280519060200120905060008280519060200120905060007f8b73c3c69bb8fe3d512ecc4cf759cc79239f7b179b0ffacaa9a75d522b39400f90508260e081815250508161010081815250504660a08181525050620001798184846200026360201b60201c565b608081815250503073ffffffffffffffffffffffffffffffffffffffff1660c08173ffffffffffffffffffffffffffffffffffffffff1660601b8152505080610120818152505050505050508160009080519060200190620001dd9291906200029f565b508060019080519060200190620001f69291906200029f565b505050600160068190555081600760006101000a81548173ffffffffffffffffffffffffffffffffffffffff021916908373ffffffffffffffffffffffffffffffffffffffff16021790555080600890805190602001906200025a9291906200029f565b505050620006a8565b600083838346306040516020016200028095949392919062000465565b6040516020818303038152906040528051906020012090509392505050565b828054620002ad90620005b3565b90600052602060002090601f016020900481019282620002d157600085556200031d565b82601f10620002ec57805160ff19168380011785556200031d565b828001600101855582156200031d579182015b828111156200031c578251825591602001919060010190620002ff565b5b5090506200032c919062000330565b5090565b5b808211156200034b57600081600090555060010162000331565b5090565b6000620003666200036084620004eb565b620004c2565b9050828152602081018484840111156200037f57600080fd5b6200038c8482856200057d565b509392505050565b600081519050620003a5816200068e565b92915050565b600082601f830112620003bd57600080fd5b8151620003cf8482602086016200034f565b91505092915050565b60008060408385031215620003ec57600080fd5b6000620003fc8582860162000394565b925050602083015167ffffffffffffffff8111156200041a57600080fd5b6200042885828601620003ab565b9150509250929050565b6200043d8162000521565b82525050565b6200044e8162000535565b82525050565b6200045f8162000573565b82525050565b600060a0820190506200047c600083018862000443565b6200048b602083018762000443565b6200049a604083018662000443565b620004a9606083018562000454565b620004b8608083018462000432565b9695505050505050565b6000620004ce620004e1565b9050620004dc8282620005e9565b919050565b6000604051905090565b600067ffffffffffffffff8211156200050957620005086200064e565b5b62000514826200067d565b9050602081019050919050565b60006200052e8262000553565b9050919050565b6000819050919050565b60006200054c8262000521565b9050919050565b600073ffffffffffffffffffffffffffffffffffffffff82169050919050565b6000819050919050565b60005b838110156200059d57808201518184015260208101905062000580565b83811115620005ad576000848401525b50505050565b60006002820490506001821680620005cc57607f821691505b60208210811415620005e357620005e26200061f565b5b50919050565b620005f4826200067d565b810181811067ffffffffffffffff821117156200061657620006156200064e565b5b80604052505050565b7f4e487b7100000000000000000000000000000000000000000000000000000000600052602260045260246000fd5b7f4e487b7100000000000000000000000000000000000000000000000000000000600052604160045260246000fd5b6000601f19601f8301169050919050565b62000699816200053f565b8114620006a557600080fd5b50565b60805160a05160c05160601c60e0516101005161012051615364620006fb6000396000611e7601526000611eb801526000611e9701526000611dcc01526000611e2201526000611e4b01526153646000f3fe6080604052600436106101405760003560e01c80636c0360eb116100b6578063b88d4fde1161006f578063b88d4fde1461045f578063bc15e60114610488578063c87b56dd146104c5578063e985e9c514610502578063ee6f10f11461053f578063eff9cdcc1461057c57610140565b80636c0360eb1461035c57806370a082311461038757806378e890ba146103c4578063835051bb146103ef57806395d89b411461040b578063a22cb4651461043657610140565b806323b872dd1161010857806323b872dd146102505780633fc8cef31461027957806342842e0e146102a457806352c3f953146102cd5780636352211e146102f6578063679a94721461033357610140565b806301ffc9a71461014557806306fdde0314610182578063081812fc146101ad578063095ea7b3146101ea57806316eea7d514610213575b600080fd5b34801561015157600080fd5b5061016c6004803603810190610167919061348e565b6105a5565b6040516101799190613fde565b60405180910390f35b34801561018e57600080fd5b50610197610687565b6040516101a49190614145565b60405180910390f35b3480156101b957600080fd5b506101d460048036038101906101cf919061358d565b610719565b6040516101e19190613efc565b60405180910390f35b3480156101f657600080fd5b50610211600480360381019061020c9190613429565b61079e565b005b34801561021f57600080fd5b5061023a6004803603810190610235919061358d565b6108b6565b6040516102479190613fde565b60405180910390f35b34801561025c57600080fd5b5061027760048036038101906102729190613323565b6108d6565b005b34801561028557600080fd5b5061028e610936565b60405161029b919061412a565b60405180910390f35b3480156102b057600080fd5b506102cb60048036038101906102c69190613323565b61095c565b005b3480156102d957600080fd5b506102f460048036038101906102ef91906134e0565b61097c565b005b34801561030257600080fd5b5061031d6004803603810190610318919061358d565b610a35565b60405161032a9190613efc565b60405180910390f35b34801561033f57600080fd5b5061035a600480360381019061035591906134e0565b610ae7565b005b34801561036857600080fd5b50610371610c42565b60405161037e9190614145565b60405180910390f35b34801561039357600080fd5b506103ae60048036038101906103a991906132be565b610cd0565b6040516103bb91906145a5565b60405180910390f35b3480156103d057600080fd5b506103d9610d88565b6040516103e69190613ff9565b60405180910390f35b61040960048036038101906104049190613521565b610d97565b005b34801561041757600080fd5b506104206110dd565b60405161042d9190614145565b60405180910390f35b34801561044257600080fd5b5061045d600480360381019061045891906133ed565b61116f565b005b34801561046b57600080fd5b5061048660048036038101906104819190613372565b611185565b005b34801561049457600080fd5b506104af60048036038101906104aa919061358d565b6111e7565b6040516104bc9190613fde565b60405180910390f35b3480156104d157600080fd5b506104ec60048036038101906104e7919061358d565b611207565b6040516104f99190614145565b60405180910390f35b34801561050e57600080fd5b50610529600480360381019061052491906132e7565b6112ae565b6040516105369190613fde565b60405180910390f35b34801561054b57600080fd5b506105666004803603810190610561919061358d565b611342565b60405161057391906145a5565b60405180910390f35b34801561058857600080fd5b506105a3600480360381019061059e91906134e0565b61135a565b005b60007f80ac58cd000000000000000000000000000000000000000000000000000000007bffffffffffffffffffffffffffffffffffffffffffffffffffffffff1916827bffffffffffffffffffffffffffffffffffffffffffffffffffffffff1916148061067057507f5b5e139f000000000000000000000000000000000000000000000000000000007bffffffffffffffffffffffffffffffffffffffffffffffffffffffff1916827bffffffffffffffffffffffffffffffffffffffffffffffffffffffff1916145b80610680575061067f8261170f565b5b9050919050565b60606000805461069690614944565b80601f01602080910402602001604051908101604052809291908181526020018280546106c290614944565b801561070f5780601f106106e45761010080835404028352916020019161070f565b820191906000526020600020905b8154815290600101906020018083116106f257829003601f168201915b5050505050905090565b600061072482611779565b610763576040517f08c379a000000000000000000000000000000000000000000000000000000000815260040161075a906143a7565b60405180910390fd5b6004600083815260200190815260200160002060009054906101000a900473ffffffffffffffffffffffffffffffffffffffff169050919050565b60006107a982610a35565b90508073ffffffffffffffffffffffffffffffffffffffff168373ffffffffffffffffffffffffffffffffffffffff16141561081a576040517f08c379a000000000000000000000000000000000000000000000000000000000815260040161081190614427565b60405180910390fd5b8073ffffffffffffffffffffffffffffffffffffffff166108396117e5565b73ffffffffffffffffffffffffffffffffffffffff1614806108685750610867816108626117e5565b6112ae565b5b6108a7576040517f08c379a000000000000000000000000000000000000000000000000000000000815260040161089e90614307565b60405180910390fd5b6108b183836117ed565b505050565b600b6020528060005260406000206000915054906101000a900460ff1681565b6108e76108e16117e5565b826118a6565b610926576040517f08c379a000000000000000000000000000000000000000000000000000000000815260040161091d90614487565b60405180910390fd5b610931838383611984565b505050565b600760009054906101000a900473ffffffffffffffffffffffffffffffffffffffff1681565b61097783838360405180602001604052806000815250611185565b505050565b806060015173ffffffffffffffffffffffffffffffffffffffff163373ffffffffffffffffffffffffffffffffffffffff16146109ee576040517f08c379a00000000000000000000000000000000000000000000000000000000081526004016109e590614267565b60405180910390fd5b60006109f982611be0565b50905060008160001c90506001600a600083815260200190815260200160002060006101000a81548160ff021916908315150217905550505050565b6000806002600084815260200190815260200160002060009054906101000a900473ffffffffffffffffffffffffffffffffffffffff169050600073ffffffffffffffffffffffffffffffffffffffff168173ffffffffffffffffffffffffffffffffffffffff161415610ade576040517f08c379a0000000000000000000000000000000000000000000000000000000008152600401610ad590614347565b60405180910390fd5b80915050919050565b600080610af383611be0565b915091506000808360001c8360001c915091506000610b1182610a35565b905085602001516009600085815260200190815260200160002054610b369190614750565b4211610b77576040517f08c379a0000000000000000000000000000000000000000000000000000000008152600401610b6e906144c7565b60405180910390fd5b610b8083611cb7565b610b8982611cb7565b60008173ffffffffffffffffffffffffffffffffffffffff168760000151604051610bb390613ee7565b60006040518083038185875af1925050503d8060008114610bf0576040519150601f19603f3d011682016040523d82523d6000602084013e610bf5565b606091505b5050905080610c39576040517f08c379a0000000000000000000000000000000000000000000000000000000008152600401610c3090614187565b60405180910390fd5b50505050505050565b60088054610c4f90614944565b80601f0160208091040260200160405190810160405280929190818152602001828054610c7b90614944565b8015610cc85780601f10610c9d57610100808354040283529160200191610cc8565b820191906000526020600020905b815481529060010190602001808311610cab57829003601f168201915b505050505081565b60008073ffffffffffffffffffffffffffffffffffffffff168273ffffffffffffffffffffffffffffffffffffffff161415610d41576040517f08c379a0000000000000000000000000000000000000000000000000000000008152600401610d3890614327565b60405180910390fd5b600360008373ffffffffffffffffffffffffffffffffffffffff1673ffffffffffffffffffffffffffffffffffffffff168152602001908152602001600020549050919050565b6000610d92611dc8565b905090565b60026006541415610ddd576040517f08c379a0000000000000000000000000000000000000000000000000000000008152600401610dd490614527565b60405180910390fd5b60026006819055508160000151341015610e2c576040517f08c379a0000000000000000000000000000000000000000000000000000000008152600401610e23906142c7565b60405180910390fd5b600080610e3884611be0565b915091506000808360001c8360001c915091506000610e5685611ee2565b90506000610e648288611f12565b9050876060015173ffffffffffffffffffffffffffffffffffffffff168173ffffffffffffffffffffffffffffffffffffffff1614610ed8576040517f08c379a0000000000000000000000000000000000000000000000000000000008152600401610ecf90614407565b60405180910390fd5b600a600085815260200190815260200160002060009054906101000a900460ff1615610f39576040517f08c379a0000000000000000000000000000000000000000000000000000000008152600401610f3090614467565b60405180910390fd5b6000600960008681526020019081526020016000205414610f8f576040517f08c379a0000000000000000000000000000000000000000000000000000000008152600401610f86906142e7565b60405180910390fd5b426009600086815260200190815260200160002081905550610fb5886060015185611f39565b610fbf3384611f39565b600760009054906101000a900473ffffffffffffffffffffffffffffffffffffffff1673ffffffffffffffffffffffffffffffffffffffff166323b872dd8960600151338b604001516040518463ffffffff1660e01b815260040161102693929190613f17565b602060405180830381600087803b15801561104057600080fd5b505af1158015611054573d6000803e3d6000fd5b505050506040513d601f19601f820116820180604052508101906110789190613465565b503373ffffffffffffffffffffffffffffffffffffffff167fe55fafe11811198d0f6025af999b664fc33d08499ed34bfb1be96a6cc271d5a58986866040516110c393929190614567565b60405180910390a250505050505060016006819055505050565b6060600180546110ec90614944565b80601f016020809104026020016040519081016040528092919081815260200182805461111890614944565b80156111655780601f1061113a57610100808354040283529160200191611165565b820191906000526020600020905b81548152906001019060200180831161114857829003601f168201915b5050505050905090565b61118161117a6117e5565b8383612107565b5050565b6111966111906117e5565b836118a6565b6111d5576040517f08c379a00000000000000000000000000000000000000000000000000000000081526004016111cc90614487565b60405180910390fd5b6111e184848484612274565b50505050565b600a6020528060005260406000206000915054906101000a900460ff1681565b606061121282611779565b611251576040517f08c379a0000000000000000000000000000000000000000000000000000000008152600401611248906143e7565b60405180910390fd5b600061125b6122d0565b9050600081511161127b57604051806020016040528060008152506112a6565b8061128584612362565b604051602001611296929190613e9d565b6040516020818303038152906040525b915050919050565b6000600560008473ffffffffffffffffffffffffffffffffffffffff1673ffffffffffffffffffffffffffffffffffffffff16815260200190815260200160002060008373ffffffffffffffffffffffffffffffffffffffff1673ffffffffffffffffffffffffffffffffffffffff16815260200190815260200160002060009054906101000a900460ff16905092915050565b60096020528060005260406000206000915090505481565b600260065414156113a0576040517f08c379a000000000000000000000000000000000000000000000000000000000815260040161139790614527565b60405180910390fd5b60026006819055506000806113b483611be0565b915091506000808360001c8360001c915091506000806113d384610a35565b6113dc84610a35565b915091503373ffffffffffffffffffffffffffffffffffffffff168273ffffffffffffffffffffffffffffffffffffffff161461144e576040517f08c379a000000000000000000000000000000000000000000000000000000000815260040161144590614447565b60405180910390fd5b866020015160096000868152602001908152602001600020546114719190614750565b4211156114b3576040517f08c379a00000000000000000000000000000000000000000000000000000000081526004016114aa90614507565b60405180910390fd5b6114bc84611cb7565b6114c583611cb7565b60005b8760a00151518110156115675760008860a001518281518110611514577f4e487b7100000000000000000000000000000000000000000000000000000000600052603260045260246000fd5b6020026020010151905061155384848360200151846000015173ffffffffffffffffffffffffffffffffffffffff1661250f909392919063ffffffff16565b50808061155f906149a7565b9150506114c8565b5060005b8760c001515181101561164c5760008860c0015182815181106115b7577f4e487b7100000000000000000000000000000000000000000000000000000000600052603260045260246000fd5b60200260200101519050806000015173ffffffffffffffffffffffffffffffffffffffff166323b872dd858584602001516040518463ffffffff1660e01b815260040161160693929190613f17565b600060405180830381600087803b15801561162057600080fd5b505af1158015611634573d6000803e3d6000fd5b50505050508080611644906149a7565b91505061156b565b5060008273ffffffffffffffffffffffffffffffffffffffff16886000015160405161167790613ee7565b60006040518083038185875af1925050503d80600081146116b4576040519150601f19603f3d011682016040523d82523d6000602084013e6116b9565b606091505b50509050806116fd576040517f08c379a00000000000000000000000000000000000000000000000000000000081526004016116f490614547565b60405180910390fd5b50505050505050600160068190555050565b60007f01ffc9a7000000000000000000000000000000000000000000000000000000007bffffffffffffffffffffffffffffffffffffffffffffffffffffffff1916827bffffffffffffffffffffffffffffffffffffffffffffffffffffffff1916149050919050565b60008073ffffffffffffffffffffffffffffffffffffffff166002600084815260200190815260200160002060009054906101000a900473ffffffffffffffffffffffffffffffffffffffff1673ffffffffffffffffffffffffffffffffffffffff1614159050919050565b600033905090565b816004600083815260200190815260200160002060006101000a81548173ffffffffffffffffffffffffffffffffffffffff021916908373ffffffffffffffffffffffffffffffffffffffff160217905550808273ffffffffffffffffffffffffffffffffffffffff1661186083610a35565b73ffffffffffffffffffffffffffffffffffffffff167f8c5be1e5ebec7d5bd14f71427d1e84f3dd0314c0f7b2291e5b200ac8c7c3b92560405160405180910390a45050565b60006118b182611779565b6118f0576040517f08c379a00000000000000000000000000000000000000000000000000000000081526004016118e7906142a7565b60405180910390fd5b60006118fb83610a35565b90508073ffffffffffffffffffffffffffffffffffffffff168473ffffffffffffffffffffffffffffffffffffffff16148061196a57508373ffffffffffffffffffffffffffffffffffffffff1661195284610719565b73ffffffffffffffffffffffffffffffffffffffff16145b8061197b575061197a81856112ae565b5b91505092915050565b8273ffffffffffffffffffffffffffffffffffffffff166119a482610a35565b73ffffffffffffffffffffffffffffffffffffffff16146119fa576040517f08c379a00000000000000000000000000000000000000000000000000000000081526004016119f1906143c7565b60405180910390fd5b600073ffffffffffffffffffffffffffffffffffffffff168273ffffffffffffffffffffffffffffffffffffffff161415611a6a576040517f08c379a0000000000000000000000000000000000000000000000000000000008152600401611a6190614207565b60405180910390fd5b611a75838383612598565b611a806000826117ed565b6001600360008573ffffffffffffffffffffffffffffffffffffffff1673ffffffffffffffffffffffffffffffffffffffff1681526020019081526020016000206000828254611ad091906147d7565b925050819055506001600360008473ffffffffffffffffffffffffffffffffffffffff1673ffffffffffffffffffffffffffffffffffffffff1681526020019081526020016000206000828254611b279190614750565b92505081905550816002600083815260200190815260200160002060006101000a81548173ffffffffffffffffffffffffffffffffffffffff021916908373ffffffffffffffffffffffffffffffffffffffff160217905550808273ffffffffffffffffffffffffffffffffffffffff168473ffffffffffffffffffffffffffffffffffffffff167fddf252ad1be2c89b69c2b068fc378daa952ba7f163c4a11628f55a4df523b3ef60405160405180910390a4505050565b600080611beb611dc8565b836000015184602001518560400151866060015187608001518860a00151604051602001611c199190613f9a565b604051602081830303815290604052805190602001208960c00151604051602001611c449190613fbc565b60405160208183030381529060405280519060200120604051602001611c71989796959493929190614067565b60405160208183030381529060405280519060200120915081604051602001611c9a9190613ff9565b604051602081830303815290604052805190602001209050915091565b6000611cc282610a35565b9050611cd081600084612598565b611cdb6000836117ed565b6001600360008373ffffffffffffffffffffffffffffffffffffffff1673ffffffffffffffffffffffffffffffffffffffff1681526020019081526020016000206000828254611d2b91906147d7565b925050819055506002600083815260200190815260200160002060006101000a81549073ffffffffffffffffffffffffffffffffffffffff021916905581600073ffffffffffffffffffffffffffffffffffffffff168273ffffffffffffffffffffffffffffffffffffffff167fddf252ad1be2c89b69c2b068fc378daa952ba7f163c4a11628f55a4df523b3ef60405160405180910390a45050565b60007f000000000000000000000000000000000000000000000000000000000000000073ffffffffffffffffffffffffffffffffffffffff163073ffffffffffffffffffffffffffffffffffffffff16148015611e4457507f000000000000000000000000000000000000000000000000000000000000000046145b15611e71577f00000000000000000000000000000000000000000000000000000000000000009050611edf565b611edc7f00000000000000000000000000000000000000000000000000000000000000007f00000000000000000000000000000000000000000000000000000000000000007f000000000000000000000000000000000000000000000000000000000000000061259d565b90505b90565b600081604051602001611ef59190613ec1565b604051602081830303815290604052805190602001209050919050565b6000806000611f2185856125d7565b91509150611f2e8161265a565b819250505092915050565b600073ffffffffffffffffffffffffffffffffffffffff168273ffffffffffffffffffffffffffffffffffffffff161415611fa9576040517f08c379a0000000000000000000000000000000000000000000000000000000008152600401611fa090614387565b60405180910390fd5b611fb281611779565b15611ff2576040517f08c379a0000000000000000000000000000000000000000000000000000000008152600401611fe9906141e7565b60405180910390fd5b611ffe60008383612598565b6001600360008473ffffffffffffffffffffffffffffffffffffffff1673ffffffffffffffffffffffffffffffffffffffff168152602001908152602001600020600082825461204e9190614750565b92505081905550816002600083815260200190815260200160002060006101000a81548173ffffffffffffffffffffffffffffffffffffffff021916908373ffffffffffffffffffffffffffffffffffffffff160217905550808273ffffffffffffffffffffffffffffffffffffffff16600073ffffffffffffffffffffffffffffffffffffffff167fddf252ad1be2c89b69c2b068fc378daa952ba7f163c4a11628f55a4df523b3ef60405160405180910390a45050565b8173ffffffffffffffffffffffffffffffffffffffff168373ffffffffffffffffffffffffffffffffffffffff161415612176576040517f08c379a000000000000000000000000000000000000000000000000000000000815260040161216d90614227565b60405180910390fd5b80600560008573ffffffffffffffffffffffffffffffffffffffff1673ffffffffffffffffffffffffffffffffffffffff16815260200190815260200160002060008473ffffffffffffffffffffffffffffffffffffffff1673ffffffffffffffffffffffffffffffffffffffff16815260200190815260200160002060006101000a81548160ff0219169083151502179055508173ffffffffffffffffffffffffffffffffffffffff168373ffffffffffffffffffffffffffffffffffffffff167f17307eab39ab6107e8899845ad3d59bd9653f200f220920489ca2b5937696c31836040516122679190613fde565b60405180910390a3505050565b61227f848484611984565b61228b848484846129ab565b6122ca576040517f08c379a00000000000000000000000000000000000000000000000000000000081526004016122c1906141c7565b60405180910390fd5b50505050565b6060600880546122df90614944565b80601f016020809104026020016040519081016040528092919081815260200182805461230b90614944565b80156123585780601f1061232d57610100808354040283529160200191612358565b820191906000526020600020905b81548152906001019060200180831161233b57829003601f168201915b5050505050905090565b606060008214156123aa576040518060400160405280600181526020017f3000000000000000000000000000000000000000000000000000000000000000815250905061250a565b600082905060005b600082146123dc5780806123c5906149a7565b915050600a826123d591906147a6565b91506123b2565b60008167ffffffffffffffff81111561241e577f4e487b7100000000000000000000000000000000000000000000000000000000600052604160045260246000fd5b6040519080825280601f01601f1916602001820160405280156124505781602001600182028036833780820191505090505b5090505b600085146125035760018261246991906147d7565b9150600a8561247891906149fa565b60306124849190614750565b60f81b8183815181106124c0577f4e487b7100000000000000000000000000000000000000000000000000000000600052603260045260246000fd5b60200101907effffffffffffffffffffffffffffffffffffffffffffffffffffffffffffff1916908160001a905350600a856124fc91906147a6565b9450612454565b8093505050505b919050565b612592846323b872dd60e01b85858560405160240161253093929190613f17565b604051602081830303815290604052907bffffffffffffffffffffffffffffffffffffffffffffffffffffffff19166020820180517bffffffffffffffffffffffffffffffffffffffffffffffffffffffff8381831617835250505050612b42565b50505050565b505050565b600083838346306040516020016125b8959493929190614014565b6040516020818303038152906040528051906020012090509392505050565b6000806041835114156126195760008060006020860151925060408601519150606086015160001a905061260d87828585612c09565b94509450505050612653565b60408351141561264a57600080602085015191506040850151905061263f868383612d16565b935093505050612653565b60006002915091505b9250929050565b60006004811115612694577f4e487b7100000000000000000000000000000000000000000000000000000000600052602160045260246000fd5b8160048111156126cd577f4e487b7100000000000000000000000000000000000000000000000000000000600052602160045260246000fd5b14156126d8576129a8565b60016004811115612712577f4e487b7100000000000000000000000000000000000000000000000000000000600052602160045260246000fd5b81600481111561274b577f4e487b7100000000000000000000000000000000000000000000000000000000600052602160045260246000fd5b141561278c576040517f08c379a000000000000000000000000000000000000000000000000000000000815260040161278390614167565b60405180910390fd5b600260048111156127c6577f4e487b7100000000000000000000000000000000000000000000000000000000600052602160045260246000fd5b8160048111156127ff577f4e487b7100000000000000000000000000000000000000000000000000000000600052602160045260246000fd5b1415612840576040517f08c379a0000000000000000000000000000000000000000000000000000000008152600401612837906141a7565b60405180910390fd5b6003600481111561287a577f4e487b7100000000000000000000000000000000000000000000000000000000600052602160045260246000fd5b8160048111156128b3577f4e487b7100000000000000000000000000000000000000000000000000000000600052602160045260246000fd5b14156128f4576040517f08c379a00000000000000000000000000000000000000000000000000000000081526004016128eb90614247565b60405180910390fd5b60048081111561292d577f4e487b7100000000000000000000000000000000000000000000000000000000600052602160045260246000fd5b816004811115612966577f4e487b7100000000000000000000000000000000000000000000000000000000600052602160045260246000fd5b14156129a7576040517f08c379a000000000000000000000000000000000000000000000000000000000815260040161299e90614367565b60405180910390fd5b5b50565b60006129cc8473ffffffffffffffffffffffffffffffffffffffff16612d64565b15612b35578373ffffffffffffffffffffffffffffffffffffffff1663150b7a026129f56117e5565b8786866040518563ffffffff1660e01b8152600401612a179493929190613f4e565b602060405180830381600087803b158015612a3157600080fd5b505af1925050508015612a6257506040513d601f19601f82011682018060405250810190612a5f91906134b7565b60015b612ae5573d8060008114612a92576040519150601f19603f3d011682016040523d82523d6000602084013e612a97565b606091505b50600081511415612add576040517f08c379a0000000000000000000000000000000000000000000000000000000008152600401612ad4906141c7565b60405180910390fd5b805181602001fd5b63150b7a0260e01b7bffffffffffffffffffffffffffffffffffffffffffffffffffffffff1916817bffffffffffffffffffffffffffffffffffffffffffffffffffffffff191614915050612b3a565b600190505b949350505050565b6000612ba4826040518060400160405280602081526020017f5361666545524332303a206c6f772d6c6576656c2063616c6c206661696c65648152508573ffffffffffffffffffffffffffffffffffffffff16612d779092919063ffffffff16565b9050600081511115612c045780806020019051810190612bc49190613465565b612c03576040517f08c379a0000000000000000000000000000000000000000000000000000000008152600401612bfa906144e7565b60405180910390fd5b5b505050565b6000807f7fffffffffffffffffffffffffffffff5d576e7357a4501ddfe92f46681b20a08360001c1115612c44576000600391509150612d0d565b601b8560ff1614158015612c5c5750601c8560ff1614155b15612c6e576000600491509150612d0d565b600060018787878760405160008152602001604052604051612c9394939291906140e5565b6020604051602081039080840390855afa158015612cb5573d6000803e3d6000fd5b505050602060405103519050600073ffffffffffffffffffffffffffffffffffffffff168173ffffffffffffffffffffffffffffffffffffffff161415612d0457600060019250925050612d0d565b80600092509250505b94509492505050565b6000806000807f7fffffffffffffffffffffffffffffffffffffffffffffffffffffffffffffff85169150601b8560ff1c019050612d5687828885612c09565b935093505050935093915050565b600080823b905060008111915050919050565b6060612d868484600085612d8f565b90509392505050565b606082471015612dd4576040517f08c379a0000000000000000000000000000000000000000000000000000000008152600401612dcb90614287565b60405180910390fd5b612ddd85612d64565b612e1c576040517f08c379a0000000000000000000000000000000000000000000000000000000008152600401612e13906144a7565b60405180910390fd5b6000808673ffffffffffffffffffffffffffffffffffffffff168587604051612e459190613e86565b60006040518083038185875af1925050503d8060008114612e82576040519150601f19603f3d011682016040523d82523d6000602084013e612e87565b606091505b5091509150612e97828286612ea3565b92505050949350505050565b60608315612eb357829050612f03565b600083511115612ec65782518084602001fd5b816040517f08c379a0000000000000000000000000000000000000000000000000000000008152600401612efa9190614145565b60405180910390fd5b9392505050565b6000612f1d612f18846145e5565b6145c0565b90508083825260208201905082856040860282011115612f3c57600080fd5b60005b85811015612f6c5781612f528882613131565b845260208401935060408301925050600181019050612f3f565b5050509392505050565b6000612f89612f8484614611565b6145c0565b90508083825260208201905082856040860282011115612fa857600080fd5b60005b85811015612fd85781612fbe888261317d565b845260208401935060408301925050600181019050612fab565b5050509392505050565b6000612ff5612ff08461463d565b6145c0565b90508281526020810184848401111561300d57600080fd5b613018848285614902565b509392505050565b60008135905061302f816152a4565b92915050565b600082601f83011261304657600080fd5b8135613056848260208601612f0a565b91505092915050565b600082601f83011261307057600080fd5b8135613080848260208601612f76565b91505092915050565b600081359050613098816152bb565b92915050565b6000815190506130ad816152bb565b92915050565b6000813590506130c2816152d2565b92915050565b6000815190506130d7816152d2565b92915050565b600082601f8301126130ee57600080fd5b81356130fe848260208601612fe2565b91505092915050565b600081359050613116816152e9565b92915050565b60008135905061312b81615300565b92915050565b60006040828403121561314357600080fd5b61314d60406145c0565b9050600061315d84828501613107565b6000830152506020613171848285016132a9565b60208301525092915050565b60006040828403121561318f57600080fd5b61319960406145c0565b905060006131a98482850161311c565b60008301525060206131bd848285016132a9565b60208301525092915050565b600060e082840312156131db57600080fd5b6131e560e06145c0565b905060006131f5848285016132a9565b6000830152506020613209848285016132a9565b602083015250604061321d848285016132a9565b604083015250606061323184828501613020565b6060830152506080613245848285016132a9565b60808301525060a082013567ffffffffffffffff81111561326557600080fd5b61327184828501613035565b60a08301525060c082013567ffffffffffffffff81111561329157600080fd5b61329d8482850161305f565b60c08301525092915050565b6000813590506132b881615317565b92915050565b6000602082840312156132d057600080fd5b60006132de84828501613020565b91505092915050565b600080604083850312156132fa57600080fd5b600061330885828601613020565b925050602061331985828601613020565b9150509250929050565b60008060006060848603121561333857600080fd5b600061334686828701613020565b935050602061335786828701613020565b9250506040613368868287016132a9565b9150509250925092565b6000806000806080858703121561338857600080fd5b600061339687828801613020565b94505060206133a787828801613020565b93505060406133b8878288016132a9565b925050606085013567ffffffffffffffff8111156133d557600080fd5b6133e1878288016130dd565b91505092959194509250565b6000806040838503121561340057600080fd5b600061340e85828601613020565b925050602061341f85828601613089565b9150509250929050565b6000806040838503121561343c57600080fd5b600061344a85828601613020565b925050602061345b858286016132a9565b9150509250929050565b60006020828403121561347757600080fd5b60006134858482850161309e565b91505092915050565b6000602082840312156134a057600080fd5b60006134ae848285016130b3565b91505092915050565b6000602082840312156134c957600080fd5b60006134d7848285016130c8565b91505092915050565b6000602082840312156134f257600080fd5b600082013567ffffffffffffffff81111561350c57600080fd5b613518848285016131c9565b91505092915050565b6000806040838503121561353457600080fd5b600083013567ffffffffffffffff81111561354e57600080fd5b61355a858286016131c9565b925050602083013567ffffffffffffffff81111561357757600080fd5b613583858286016130dd565b9150509250929050565b60006020828403121561359f57600080fd5b60006135ad848285016132a9565b91505092915050565b60006135c28383613d58565b60408301905092915050565b60006135da8383613d87565b60408301905092915050565b6135ef8161480b565b82525050565b6135fe8161480b565b82525050565b600061360f8261468e565b61361981856146d4565b93506136248361466e565b8060005b8381101561365557815161363c88826135b6565b9750613647836146ba565b925050600181019050613628565b5085935050505092915050565b600061366d8261468e565b61367781856146e5565b93506136828361466e565b8060005b838110156136b357815161369a88826135b6565b97506136a5836146ba565b925050600181019050613686565b5085935050505092915050565b60006136cb82614699565b6136d581856146f6565b93506136e08361467e565b8060005b838110156137115781516136f888826135ce565b9750613703836146c7565b9250506001810190506136e4565b5085935050505092915050565b600061372982614699565b6137338185614707565b935061373e8361467e565b8060005b8381101561376f57815161375688826135ce565b9750613761836146c7565b925050600181019050613742565b5085935050505092915050565b6137858161481d565b82525050565b61379481614829565b82525050565b6137ab6137a682614829565b6149f0565b82525050565b60006137bc826146a4565b6137c68185614718565b93506137d6818560208601614911565b6137df81614ae7565b840191505092915050565b60006137f5826146a4565b6137ff8185614729565b935061380f818560208601614911565b80840191505092915050565b613824816148ba565b82525050565b613833816148ba565b82525050565b613842816148de565b82525050565b6000613853826146af565b61385d8185614734565b935061386d818560208601614911565b61387681614ae7565b840191505092915050565b600061388c826146af565b6138968185614745565b93506138a6818560208601614911565b80840191505092915050565b60006138bf601883614734565b91506138ca82614af8565b602082019050919050565b60006138e2601d83614734565b91506138ed82614b21565b602082019050919050565b6000613905601f83614734565b915061391082614b4a565b602082019050919050565b6000613928601c83614745565b915061393382614b73565b601c82019050919050565b600061394b603283614734565b915061395682614b9c565b604082019050919050565b600061396e601c83614734565b915061397982614beb565b602082019050919050565b6000613991602483614734565b915061399c82614c14565b604082019050919050565b60006139b4601983614734565b91506139bf82614c63565b602082019050919050565b60006139d7602283614734565b91506139e282614c8c565b604082019050919050565b60006139fa601583614734565b9150613a0582614cdb565b602082019050919050565b6000613a1d602683614734565b9150613a2882614d04565b604082019050919050565b6000613a40602c83614734565b9150613a4b82614d53565b604082019050919050565b6000613a63600e83614734565b9150613a6e82614da2565b602082019050919050565b6000613a86601d83614734565b9150613a9182614dcb565b602082019050919050565b6000613aa9603883614734565b9150613ab482614df4565b604082019050919050565b6000613acc602a83614734565b9150613ad782614e43565b604082019050919050565b6000613aef602983614734565b9150613afa82614e92565b604082019050919050565b6000613b12602283614734565b9150613b1d82614ee1565b604082019050919050565b6000613b35602083614734565b9150613b4082614f30565b602082019050919050565b6000613b58602c83614734565b9150613b6382614f59565b604082019050919050565b6000613b7b602983614734565b9150613b8682614fa8565b604082019050919050565b6000613b9e602f83614734565b9150613ba982614ff7565b604082019050919050565b6000613bc1601783614734565b9150613bcc82615046565b602082019050919050565b6000613be4602183614734565b9150613bef8261506f565b604082019050919050565b6000613c07602383614734565b9150613c12826150be565b604082019050919050565b6000613c2a601883614734565b9150613c358261510d565b602082019050919050565b6000613c4d600083614729565b9150613c5882615136565b600082019050919050565b6000613c70603183614734565b9150613c7b82615139565b604082019050919050565b6000613c93601d83614734565b9150613c9e82615188565b602082019050919050565b6000613cb6601683614734565b9150613cc1826151b1565b602082019050919050565b6000613cd9602a83614734565b9150613ce4826151da565b604082019050919050565b6000613cfc600e83614734565b9150613d0782615229565b602082019050919050565b6000613d1f601f83614734565b9150613d2a82615252565b602082019050919050565b6000613d42601c83614734565b9150613d4d8261527b565b602082019050919050565b604082016000820151613d6e600085018261381b565b506020820151613d816020850182613e59565b50505050565b604082016000820151613d9d6000850182613839565b506020820151613db06020850182613e59565b50505050565b600060e083016000830151613dce6000860182613e59565b506020830151613de16020860182613e59565b506040830151613df46040860182613e59565b506060830151613e0760608601826135e6565b506080830151613e1a6080860182613e59565b5060a083015184820360a0860152613e328282613604565b91505060c083015184820360c0860152613e4c82826136c0565b9150508091505092915050565b613e62816148a3565b82525050565b613e71816148a3565b82525050565b613e80816148ad565b82525050565b6000613e9282846137ea565b915081905092915050565b6000613ea98285613881565b9150613eb58284613881565b91508190509392505050565b6000613ecc8261391b565b9150613ed8828461379a565b60208201915081905092915050565b6000613ef282613c40565b9150819050919050565b6000602082019050613f1160008301846135f5565b92915050565b6000606082019050613f2c60008301866135f5565b613f3960208301856135f5565b613f466040830184613e68565b949350505050565b6000608082019050613f6360008301876135f5565b613f7060208301866135f5565b613f7d6040830185613e68565b8181036060830152613f8f81846137b1565b905095945050505050565b60006020820190508181036000830152613fb48184613662565b905092915050565b60006020820190508181036000830152613fd6818461371e565b905092915050565b6000602082019050613ff3600083018461377c565b92915050565b600060208201905061400e600083018461378b565b92915050565b600060a082019050614029600083018861378b565b614036602083018761378b565b614043604083018661378b565b6140506060830185613e68565b61405d60808301846135f5565b9695505050505050565b60006101008201905061407d600083018b61378b565b61408a602083018a613e68565b6140976040830189613e68565b6140a46060830188613e68565b6140b160808301876135f5565b6140be60a0830186613e68565b6140cb60c083018561378b565b6140d860e083018461378b565b9998505050505050505050565b60006080820190506140fa600083018761378b565b6141076020830186613e77565b614114604083018561378b565b614121606083018461378b565b95945050505050565b600060208201905061413f600083018461382a565b92915050565b6000602082019050818103600083015261415f8184613848565b905092915050565b60006020820190508181036000830152614180816138b2565b9050919050565b600060208201905081810360008301526141a0816138d5565b9050919050565b600060208201905081810360008301526141c0816138f8565b9050919050565b600060208201905081810360008301526141e08161393e565b9050919050565b6000602082019050818103600083015261420081613961565b9050919050565b6000602082019050818103600083015261422081613984565b9050919050565b60006020820190508181036000830152614240816139a7565b9050919050565b60006020820190508181036000830152614260816139ca565b9050919050565b60006020820190508181036000830152614280816139ed565b9050919050565b600060208201905081810360008301526142a081613a10565b9050919050565b600060208201905081810360008301526142c081613a33565b9050919050565b600060208201905081810360008301526142e081613a56565b9050919050565b6000602082019050818103600083015261430081613a79565b9050919050565b6000602082019050818103600083015261432081613a9c565b9050919050565b6000602082019050818103600083015261434081613abf565b9050919050565b6000602082019050818103600083015261436081613ae2565b9050919050565b6000602082019050818103600083015261438081613b05565b9050919050565b600060208201905081810360008301526143a081613b28565b9050919050565b600060208201905081810360008301526143c081613b4b565b9050919050565b600060208201905081810360008301526143e081613b6e565b9050919050565b6000602082019050818103600083015261440081613b91565b9050919050565b6000602082019050818103600083015261442081613bb4565b9050919050565b6000602082019050818103600083015261444081613bd7565b9050919050565b6000602082019050818103600083015261446081613bfa565b9050919050565b6000602082019050818103600083015261448081613c1d565b9050919050565b600060208201905081810360008301526144a081613c63565b9050919050565b600060208201905081810360008301526144c081613c86565b9050919050565b600060208201905081810360008301526144e081613ca9565b9050919050565b6000602082019050818103600083015261450081613ccc565b9050919050565b6000602082019050818103600083015261452081613cef565b9050919050565b6000602082019050818103600083015261454081613d12565b9050919050565b6000602082019050818103600083015261456081613d35565b9050919050565b600060608201905081810360008301526145818186613db6565b90506145906020830185613e68565b61459d6040830184613e68565b949350505050565b60006020820190506145ba6000830184613e68565b92915050565b60006145ca6145db565b90506145d68282614976565b919050565b6000604051905090565b600067ffffffffffffffff821115614600576145ff614ab8565b5b602082029050602081019050919050565b600067ffffffffffffffff82111561462c5761462b614ab8565b5b602082029050602081019050919050565b600067ffffffffffffffff82111561465857614657614ab8565b5b61466182614ae7565b9050602081019050919050565b6000819050602082019050919050565b6000819050602082019050919050565b600081519050919050565b600081519050919050565b600081519050919050565b600081519050919050565b6000602082019050919050565b6000602082019050919050565b600082825260208201905092915050565b600082825260208201905092915050565b600082825260208201905092915050565b600082825260208201905092915050565b600082825260208201905092915050565b600081905092915050565b600082825260208201905092915050565b600081905092915050565b600061475b826148a3565b9150614766836148a3565b9250827fffffffffffffffffffffffffffffffffffffffffffffffffffffffffffffffff0382111561479b5761479a614a2b565b5b828201905092915050565b60006147b1826148a3565b91506147bc836148a3565b9250826147cc576147cb614a5a565b5b828204905092915050565b60006147e2826148a3565b91506147ed836148a3565b925082821015614800576147ff614a2b565b5b828203905092915050565b600061481682614883565b9050919050565b60008115159050919050565b6000819050919050565b60007fffffffff0000000000000000000000000000000000000000000000000000000082169050919050565b600061486a8261480b565b9050919050565b600061487c8261480b565b9050919050565b600073ffffffffffffffffffffffffffffffffffffffff82169050919050565b6000819050919050565b600060ff82169050919050565b60006148c5826148cc565b9050919050565b60006148d782614883565b9050919050565b60006148e9826148f0565b9050919050565b60006148fb82614883565b9050919050565b82818337600083830152505050565b60005b8381101561492f578082015181840152602081019050614914565b8381111561493e576000848401525b50505050565b6000600282049050600182168061495c57607f821691505b602082108114156149705761496f614a89565b5b50919050565b61497f82614ae7565b810181811067ffffffffffffffff8211171561499e5761499d614ab8565b5b80604052505050565b60006149b2826148a3565b91507fffffffffffffffffffffffffffffffffffffffffffffffffffffffffffffffff8214156149e5576149e4614a2b565b5b600182019050919050565b6000819050919050565b6000614a05826148a3565b9150614a10836148a3565b925082614a2057614a1f614a5a565b5b828206905092915050565b7f4e487b7100000000000000000000000000000000000000000000000000000000600052601160045260246000fd5b7f4e487b7100000000000000000000000000000000000000000000000000000000600052601260045260246000fd5b7f4e487b7100000000000000000000000000000000000000000000000000000000600052602260045260246000fd5b7f4e487b7100000000000000000000000000000000000000000000000000000000600052604160045260246000fd5b6000601f19601f8301169050919050565b7f45434453413a20696e76616c6964207369676e61747572650000000000000000600082015250565b7f455448207472616e7366657220746f2073656c6c6572206661696c6564000000600082015250565b7f45434453413a20696e76616c6964207369676e6174757265206c656e67746800600082015250565b7f19457468657265756d205369676e6564204d6573736167653a0a333200000000600082015250565b7f4552433732313a207472616e7366657220746f206e6f6e20455243373231526560008201527f63656976657220696d706c656d656e7465720000000000000000000000000000602082015250565b7f4552433732313a20746f6b656e20616c7265616479206d696e74656400000000600082015250565b7f4552433732313a207472616e7366657220746f20746865207a65726f2061646460008201527f7265737300000000000000000000000000000000000000000000000000000000602082015250565b7f4552433732313a20617070726f766520746f2063616c6c657200000000000000600082015250565b7f45434453413a20696e76616c6964207369676e6174757265202773272076616c60008201527f7565000000000000000000000000000000000000000000000000000000000000602082015250565b7f596f7520617265206e6f7420746865206f776e65720000000000000000000000600082015250565b7f416464726573733a20696e73756666696369656e742062616c616e636520666f60008201527f722063616c6c0000000000000000000000000000000000000000000000000000602082015250565b7f4552433732313a206f70657261746f7220717565727920666f72206e6f6e657860008201527f697374656e7420746f6b656e0000000000000000000000000000000000000000602082015250565b7f4e6f7420656e6f75676820657468000000000000000000000000000000000000600082015250565b7f4f726465722068617320616c7265616479206265656e2066696c6c6564000000600082015250565b7f4552433732313a20617070726f76652063616c6c6572206973206e6f74206f7760008201527f6e6572206e6f7220617070726f76656420666f7220616c6c0000000000000000602082015250565b7f4552433732313a2062616c616e636520717565727920666f7220746865207a6560008201527f726f206164647265737300000000000000000000000000000000000000000000602082015250565b7f4552433732313a206f776e657220717565727920666f72206e6f6e657869737460008201527f656e7420746f6b656e0000000000000000000000000000000000000000000000602082015250565b7f45434453413a20696e76616c6964207369676e6174757265202776272076616c60008201527f7565000000000000000000000000000000000000000000000000000000000000602082015250565b7f4552433732313a206d696e7420746f20746865207a65726f2061646472657373600082015250565b7f4552433732313a20617070726f76656420717565727920666f72206e6f6e657860008201527f697374656e7420746f6b656e0000000000000000000000000000000000000000602082015250565b7f4552433732313a207472616e73666572206f6620746f6b656e2074686174206960008201527f73206e6f74206f776e0000000000000000000000000000000000000000000000602082015250565b7f4552433732314d657461646174613a2055524920717565727920666f72206e6f60008201527f6e6578697374656e7420746f6b656e0000000000000000000000000000000000602082015250565b7f496e76616c6964206f72646572207369676e6174757265000000000000000000600082015250565b7f4552433732313a20617070726f76616c20746f2063757272656e74206f776e6560008201527f7200000000000000000000000000000000000000000000000000000000000000602082015250565b7f43616e6e6f74206578657263697365206f7074696f6e20796f7520646f6e742060008201527f6f776e0000000000000000000000000000000000000000000000000000000000602082015250565b7f4f7264657220686173206265656e2063616e63656c6c65640000000000000000600082015250565b50565b7f4552433732313a207472616e736665722063616c6c6572206973206e6f74206f60008201527f776e6572206e6f7220617070726f766564000000000000000000000000000000602082015250565b7f416464726573733a2063616c6c20746f206e6f6e2d636f6e7472616374000000600082015250565b7f4f7074696f6e20686173206e6f74206578706972656400000000000000000000600082015250565b7f5361666545524332303a204552433230206f7065726174696f6e20646964206e60008201527f6f74207375636365656400000000000000000000000000000000000000000000602082015250565b7f45787069726564206f7074696f6e000000000000000000000000000000000000600082015250565b7f5265656e7472616e637947756172643a207265656e7472616e742063616c6c00600082015250565b7f455448207472616e7366657220746f206275796572206661696c656400000000600082015250565b6152ad8161480b565b81146152b857600080fd5b50565b6152c48161481d565b81146152cf57600080fd5b50565b6152db81614833565b81146152e657600080fd5b50565b6152f28161485f565b81146152fd57600080fd5b50565b61530981614871565b811461531457600080fd5b50565b615320816148a3565b811461532b57600080fd5b5056fea26469706673582212204ba4302882e64eb1ea9cc781df1f53c3aa2e88d0d9bd7ecf61c2424c89038fff64736f6c63430008040033",
  "devdoc": {
    "kind": "dev",
    "methods": {
      "approve(address,uint256)": {
        "details": "See {IERC721-approve}."
      },
      "balanceOf(address)": {
        "details": "See {IERC721-balanceOf}."
      },
      "getApproved(uint256)": {
        "details": "See {IERC721-getApproved}."
      },
      "isApprovedForAll(address,address)": {
        "details": "See {IERC721-isApprovedForAll}."
      },
      "name()": {
        "details": "See {IERC721Metadata-name}."
      },
      "ownerOf(uint256)": {
        "details": "See {IERC721-ownerOf}."
      },
      "safeTransferFrom(address,address,uint256)": {
        "details": "See {IERC721-safeTransferFrom}."
      },
      "safeTransferFrom(address,address,uint256,bytes)": {
        "details": "See {IERC721-safeTransferFrom}."
      },
      "setApprovalForAll(address,bool)": {
        "details": "See {IERC721-setApprovalForAll}."
      },
      "supportsInterface(bytes4)": {
        "details": "See {IERC165-supportsInterface}."
      },
      "symbol()": {
        "details": "See {IERC721Metadata-symbol}."
      },
      "tokenURI(uint256)": {
        "details": "See {IERC721Metadata-tokenURI}."
      },
      "transferFrom(address,address,uint256)": {
        "details": "See {IERC721-transferFrom}."
      }
    },
    "version": 1
  },
  "userdoc": {
    "kind": "user",
    "methods": {},
    "version": 1
  },
  "storageLayout": {
    "storage": [
      {
        "astId": 938,
        "contract": "contracts/Putty.sol:Putty",
        "label": "_name",
        "offset": 0,
        "slot": "0",
        "type": "t_string_storage"
      },
      {
        "astId": 940,
        "contract": "contracts/Putty.sol:Putty",
        "label": "_symbol",
        "offset": 0,
        "slot": "1",
        "type": "t_string_storage"
      },
      {
        "astId": 944,
        "contract": "contracts/Putty.sol:Putty",
        "label": "_owners",
        "offset": 0,
        "slot": "2",
        "type": "t_mapping(t_uint256,t_address)"
      },
      {
        "astId": 948,
        "contract": "contracts/Putty.sol:Putty",
        "label": "_balances",
        "offset": 0,
        "slot": "3",
        "type": "t_mapping(t_address,t_uint256)"
      },
      {
        "astId": 952,
        "contract": "contracts/Putty.sol:Putty",
        "label": "_tokenApprovals",
        "offset": 0,
        "slot": "4",
        "type": "t_mapping(t_uint256,t_address)"
      },
      {
        "astId": 958,
        "contract": "contracts/Putty.sol:Putty",
        "label": "_operatorApprovals",
        "offset": 0,
        "slot": "5",
        "type": "t_mapping(t_address,t_mapping(t_address,t_bool))"
      },
      {
        "astId": 10,
        "contract": "contracts/Putty.sol:Putty",
        "label": "_status",
        "offset": 0,
        "slot": "6",
        "type": "t_uint256"
      },
      {
        "astId": 3412,
        "contract": "contracts/Putty.sol:Putty",
        "label": "weth",
        "offset": 0,
        "slot": "7",
        "type": "t_contract(ERC20)585"
      },
      {
        "astId": 3414,
        "contract": "contracts/Putty.sol:Putty",
        "label": "baseURI",
        "offset": 0,
        "slot": "8",
        "type": "t_string_storage"
      },
      {
        "astId": 3418,
        "contract": "contracts/Putty.sol:Putty",
        "label": "tokenIdToCreationTimestamp",
        "offset": 0,
        "slot": "9",
        "type": "t_mapping(t_uint256,t_uint256)"
      },
      {
        "astId": 3422,
        "contract": "contracts/Putty.sol:Putty",
        "label": "cancelledOrders",
        "offset": 0,
        "slot": "10",
        "type": "t_mapping(t_uint256,t_bool)"
      },
      {
        "astId": 3426,
        "contract": "contracts/Putty.sol:Putty",
        "label": "filledOrders",
        "offset": 0,
        "slot": "11",
        "type": "t_mapping(t_uint256,t_bool)"
      },
      {
        "astId": 3430,
        "contract": "contracts/Putty.sol:Putty",
        "label": "_owners",
        "offset": 0,
        "slot": "12",
        "type": "t_mapping(t_uint256,t_address)"
      }
    ],
    "types": {
      "t_address": {
        "encoding": "inplace",
        "label": "address",
        "numberOfBytes": "20"
      },
      "t_bool": {
        "encoding": "inplace",
        "label": "bool",
        "numberOfBytes": "1"
      },
      "t_contract(ERC20)585": {
        "encoding": "inplace",
        "label": "contract ERC20",
        "numberOfBytes": "20"
      },
      "t_mapping(t_address,t_bool)": {
        "encoding": "mapping",
        "key": "t_address",
        "label": "mapping(address => bool)",
        "numberOfBytes": "32",
        "value": "t_bool"
      },
      "t_mapping(t_address,t_mapping(t_address,t_bool))": {
        "encoding": "mapping",
        "key": "t_address",
        "label": "mapping(address => mapping(address => bool))",
        "numberOfBytes": "32",
        "value": "t_mapping(t_address,t_bool)"
      },
      "t_mapping(t_address,t_uint256)": {
        "encoding": "mapping",
        "key": "t_address",
        "label": "mapping(address => uint256)",
        "numberOfBytes": "32",
        "value": "t_uint256"
      },
      "t_mapping(t_uint256,t_address)": {
        "encoding": "mapping",
        "key": "t_uint256",
        "label": "mapping(uint256 => address)",
        "numberOfBytes": "32",
        "value": "t_address"
      },
      "t_mapping(t_uint256,t_bool)": {
        "encoding": "mapping",
        "key": "t_uint256",
        "label": "mapping(uint256 => bool)",
        "numberOfBytes": "32",
        "value": "t_bool"
      },
      "t_mapping(t_uint256,t_uint256)": {
        "encoding": "mapping",
        "key": "t_uint256",
        "label": "mapping(uint256 => uint256)",
        "numberOfBytes": "32",
        "value": "t_uint256"
      },
      "t_string_storage": {
        "encoding": "bytes",
        "label": "string",
        "numberOfBytes": "32"
      },
      "t_uint256": {
        "encoding": "inplace",
        "label": "uint256",
        "numberOfBytes": "32"
      }
    }
  }
}