{
  "address": "0xF46Ce5795aE1Ae802127A8eb6E95095Ce515fc0c",
  "abi": [
    {
      "inputs": [
        {
          "internalType": "contract ERC20",
          "name": "weth_",
          "type": "address"
        },
        {
          "internalType": "string",
          "name": "baseURI_",
          "type": "string"
        }
      ],
      "stateMutability": "nonpayable",
      "type": "constructor"
    },
    {
      "anonymous": false,
      "inputs": [
        {
          "indexed": true,
          "internalType": "address",
          "name": "owner",
          "type": "address"
        },
        {
          "indexed": true,
          "internalType": "address",
          "name": "approved",
          "type": "address"
        },
        {
          "indexed": true,
          "internalType": "uint256",
          "name": "tokenId",
          "type": "uint256"
        }
      ],
      "name": "Approval",
      "type": "event"
    },
    {
      "anonymous": false,
      "inputs": [
        {
          "indexed": true,
          "internalType": "address",
          "name": "owner",
          "type": "address"
        },
        {
          "indexed": true,
          "internalType": "address",
          "name": "operator",
          "type": "address"
        },
        {
          "indexed": false,
          "internalType": "bool",
          "name": "approved",
          "type": "bool"
        }
      ],
      "name": "ApprovalForAll",
      "type": "event"
    },
    {
      "anonymous": false,
      "inputs": [
        {
          "components": [
            {
              "internalType": "uint256",
              "name": "strike",
              "type": "uint256"
            },
            {
              "internalType": "uint256",
              "name": "duration",
              "type": "uint256"
            },
            {
              "internalType": "uint256",
              "name": "premium",
              "type": "uint256"
            },
            {
              "internalType": "address",
              "name": "owner",
              "type": "address"
            },
            {
              "internalType": "uint256",
              "name": "nonce",
              "type": "uint256"
            },
            {
              "components": [
                {
                  "internalType": "contract ERC20",
                  "name": "token",
                  "type": "address"
                },
                {
                  "internalType": "uint256",
                  "name": "amount",
                  "type": "uint256"
                }
              ],
              "internalType": "struct Putty.ERC20Info[]",
              "name": "erc20Underlying",
              "type": "tuple[]"
            },
            {
              "components": [
                {
                  "internalType": "contract ERC721",
                  "name": "token",
                  "type": "address"
                },
                {
                  "internalType": "uint256",
                  "name": "tokenId",
                  "type": "uint256"
                }
              ],
              "internalType": "struct Putty.ERC721Info[]",
              "name": "erc721Underlying",
              "type": "tuple[]"
            }
          ],
          "indexed": false,
          "internalType": "struct Putty.Option",
          "name": "_option",
          "type": "tuple"
        },
        {
          "indexed": true,
          "internalType": "address",
          "name": "buyer",
          "type": "address"
        },
        {
          "indexed": false,
          "internalType": "uint256",
          "name": "tokenId",
          "type": "uint256"
        },
        {
          "indexed": false,
          "internalType": "uint256",
          "name": "shortTokenId",
          "type": "uint256"
        }
      ],
      "name": "BuyFilled",
      "type": "event"
    },
    {
      "anonymous": false,
      "inputs": [
        {
          "indexed": true,
          "internalType": "address",
          "name": "from",
          "type": "address"
        },
        {
          "indexed": true,
          "internalType": "address",
          "name": "to",
          "type": "address"
        },
        {
          "indexed": true,
          "internalType": "uint256",
          "name": "tokenId",
          "type": "uint256"
        }
      ],
      "name": "Transfer",
      "type": "event"
    },
    {
      "inputs": [
        {
          "internalType": "address",
          "name": "to",
          "type": "address"
        },
        {
          "internalType": "uint256",
          "name": "tokenId",
          "type": "uint256"
        }
      ],
      "name": "approve",
      "outputs": [],
      "stateMutability": "nonpayable",
      "type": "function"
    },
    {
      "inputs": [
        {
          "internalType": "address",
          "name": "owner",
          "type": "address"
        }
      ],
      "name": "balanceOf",
      "outputs": [
        {
          "internalType": "uint256",
          "name": "",
          "type": "uint256"
        }
      ],
      "stateMutability": "view",
      "type": "function"
    },
    {
      "inputs": [],
      "name": "baseURI",
      "outputs": [
        {
          "internalType": "string",
          "name": "",
          "type": "string"
        }
      ],
      "stateMutability": "view",
      "type": "function"
    },
    {
      "inputs": [
        {
          "components": [
            {
              "internalType": "uint256",
              "name": "strike",
              "type": "uint256"
            },
            {
              "internalType": "uint256",
              "name": "duration",
              "type": "uint256"
            },
            {
              "internalType": "uint256",
              "name": "premium",
              "type": "uint256"
            },
            {
              "internalType": "address",
              "name": "owner",
              "type": "address"
            },
            {
              "internalType": "uint256",
              "name": "nonce",
              "type": "uint256"
            },
            {
              "components": [
                {
                  "internalType": "contract ERC20",
                  "name": "token",
                  "type": "address"
                },
                {
                  "internalType": "uint256",
                  "name": "amount",
                  "type": "uint256"
                }
              ],
              "internalType": "struct Putty.ERC20Info[]",
              "name": "erc20Underlying",
              "type": "tuple[]"
            },
            {
              "components": [
                {
                  "internalType": "contract ERC721",
                  "name": "token",
                  "type": "address"
                },
                {
                  "internalType": "uint256",
                  "name": "tokenId",
                  "type": "uint256"
                }
              ],
              "internalType": "struct Putty.ERC721Info[]",
              "name": "erc721Underlying",
              "type": "tuple[]"
            }
          ],
          "internalType": "struct Putty.Option",
          "name": "option",
          "type": "tuple"
        }
      ],
      "name": "cancel",
      "outputs": [],
      "stateMutability": "nonpayable",
      "type": "function"
    },
    {
      "inputs": [
        {
          "internalType": "uint256",
          "name": "",
          "type": "uint256"
        }
      ],
      "name": "cancelledOrders",
      "outputs": [
        {
          "internalType": "bool",
          "name": "",
          "type": "bool"
        }
      ],
      "stateMutability": "view",
      "type": "function"
    },
    {
      "inputs": [],
      "name": "domainSeparatorV4",
      "outputs": [
        {
          "internalType": "bytes32",
          "name": "",
          "type": "bytes32"
        }
      ],
      "stateMutability": "view",
      "type": "function"
    },
    {
      "inputs": [
        {
          "components": [
            {
              "internalType": "uint256",
              "name": "strike",
              "type": "uint256"
            },
            {
              "internalType": "uint256",
              "name": "duration",
              "type": "uint256"
            },
            {
              "internalType": "uint256",
              "name": "premium",
              "type": "uint256"
            },
            {
              "internalType": "address",
              "name": "owner",
              "type": "address"
            },
            {
              "internalType": "uint256",
              "name": "nonce",
              "type": "uint256"
            },
            {
              "components": [
                {
                  "internalType": "contract ERC20",
                  "name": "token",
                  "type": "address"
                },
                {
                  "internalType": "uint256",
                  "name": "amount",
                  "type": "uint256"
                }
              ],
              "internalType": "struct Putty.ERC20Info[]",
              "name": "erc20Underlying",
              "type": "tuple[]"
            },
            {
              "components": [
                {
                  "internalType": "contract ERC721",
                  "name": "token",
                  "type": "address"
                },
                {
                  "internalType": "uint256",
                  "name": "tokenId",
                  "type": "uint256"
                }
              ],
              "internalType": "struct Putty.ERC721Info[]",
              "name": "erc721Underlying",
              "type": "tuple[]"
            }
          ],
          "internalType": "struct Putty.Option",
          "name": "option",
          "type": "tuple"
        }
      ],
      "name": "exercise",
      "outputs": [],
      "stateMutability": "nonpayable",
      "type": "function"
    },
    {
      "inputs": [
        {
          "components": [
            {
              "internalType": "uint256",
              "name": "strike",
              "type": "uint256"
            },
            {
              "internalType": "uint256",
              "name": "duration",
              "type": "uint256"
            },
            {
              "internalType": "uint256",
              "name": "premium",
              "type": "uint256"
            },
            {
              "internalType": "address",
              "name": "owner",
              "type": "address"
            },
            {
              "internalType": "uint256",
              "name": "nonce",
              "type": "uint256"
            },
            {
              "components": [
                {
                  "internalType": "contract ERC20",
                  "name": "token",
                  "type": "address"
                },
                {
                  "internalType": "uint256",
                  "name": "amount",
                  "type": "uint256"
                }
              ],
              "internalType": "struct Putty.ERC20Info[]",
              "name": "erc20Underlying",
              "type": "tuple[]"
            },
            {
              "components": [
                {
                  "internalType": "contract ERC721",
                  "name": "token",
                  "type": "address"
                },
                {
                  "internalType": "uint256",
                  "name": "tokenId",
                  "type": "uint256"
                }
              ],
              "internalType": "struct Putty.ERC721Info[]",
              "name": "erc721Underlying",
              "type": "tuple[]"
            }
          ],
          "internalType": "struct Putty.Option",
          "name": "option",
          "type": "tuple"
        }
      ],
      "name": "expire",
      "outputs": [],
      "stateMutability": "nonpayable",
      "type": "function"
    },
    {
      "inputs": [
        {
          "components": [
            {
              "internalType": "uint256",
              "name": "strike",
              "type": "uint256"
            },
            {
              "internalType": "uint256",
              "name": "duration",
              "type": "uint256"
            },
            {
              "internalType": "uint256",
              "name": "premium",
              "type": "uint256"
            },
            {
              "internalType": "address",
              "name": "owner",
              "type": "address"
            },
            {
              "internalType": "uint256",
              "name": "nonce",
              "type": "uint256"
            },
            {
              "components": [
                {
                  "internalType": "contract ERC20",
                  "name": "token",
                  "type": "address"
                },
                {
                  "internalType": "uint256",
                  "name": "amount",
                  "type": "uint256"
                }
              ],
              "internalType": "struct Putty.ERC20Info[]",
              "name": "erc20Underlying",
              "type": "tuple[]"
            },
            {
              "components": [
                {
                  "internalType": "contract ERC721",
                  "name": "token",
                  "type": "address"
                },
                {
                  "internalType": "uint256",
                  "name": "tokenId",
                  "type": "uint256"
                }
              ],
              "internalType": "struct Putty.ERC721Info[]",
              "name": "erc721Underlying",
              "type": "tuple[]"
            }
          ],
          "internalType": "struct Putty.Option",
          "name": "option",
          "type": "tuple"
        },
        {
          "internalType": "bytes",
          "name": "signature",
          "type": "bytes"
        }
      ],
      "name": "fillBuyOrder",
      "outputs": [],
      "stateMutability": "payable",
      "type": "function"
    },
    {
      "inputs": [
        {
          "internalType": "uint256",
          "name": "tokenId",
          "type": "uint256"
        }
      ],
      "name": "filledOrders",
      "outputs": [
        {
          "internalType": "bool",
          "name": "",
          "type": "bool"
        }
      ],
      "stateMutability": "view",
      "type": "function"
    },
    {
      "inputs": [
        {
          "internalType": "uint256",
          "name": "tokenId",
          "type": "uint256"
        }
      ],
      "name": "getApproved",
      "outputs": [
        {
          "internalType": "address",
          "name": "",
          "type": "address"
        }
      ],
      "stateMutability": "view",
      "type": "function"
    },
    {
      "inputs": [
        {
          "internalType": "address",
          "name": "owner",
          "type": "address"
        },
        {
          "internalType": "address",
          "name": "operator",
          "type": "address"
        }
      ],
      "name": "isApprovedForAll",
      "outputs": [
        {
          "internalType": "bool",
          "name": "",
          "type": "bool"
        }
      ],
      "stateMutability": "view",
      "type": "function"
    },
    {
      "inputs": [],
      "name": "name",
      "outputs": [
        {
          "internalType": "string",
          "name": "",
          "type": "string"
        }
      ],
      "stateMutability": "view",
      "type": "function"
    },
    {
      "inputs": [
        {
          "internalType": "uint256",
          "name": "tokenId",
          "type": "uint256"
        }
      ],
      "name": "ownerOf",
      "outputs": [
        {
          "internalType": "address",
          "name": "",
          "type": "address"
        }
      ],
      "stateMutability": "view",
      "type": "function"
    },
    {
      "inputs": [
        {
          "internalType": "address",
          "name": "from",
          "type": "address"
        },
        {
          "internalType": "address",
          "name": "to",
          "type": "address"
        },
        {
          "internalType": "uint256",
          "name": "tokenId",
          "type": "uint256"
        }
      ],
      "name": "safeTransferFrom",
      "outputs": [],
      "stateMutability": "nonpayable",
      "type": "function"
    },
    {
      "inputs": [
        {
          "internalType": "address",
          "name": "from",
          "type": "address"
        },
        {
          "internalType": "address",
          "name": "to",
          "type": "address"
        },
        {
          "internalType": "uint256",
          "name": "tokenId",
          "type": "uint256"
        },
        {
          "internalType": "bytes",
          "name": "_data",
          "type": "bytes"
        }
      ],
      "name": "safeTransferFrom",
      "outputs": [],
      "stateMutability": "nonpayable",
      "type": "function"
    },
    {
      "inputs": [
        {
          "internalType": "address",
          "name": "operator",
          "type": "address"
        },
        {
          "internalType": "bool",
          "name": "approved",
          "type": "bool"
        }
      ],
      "name": "setApprovalForAll",
      "outputs": [],
      "stateMutability": "nonpayable",
      "type": "function"
    },
    {
      "inputs": [
        {
          "internalType": "bytes4",
          "name": "interfaceId",
          "type": "bytes4"
        }
      ],
      "name": "supportsInterface",
      "outputs": [
        {
          "internalType": "bool",
          "name": "",
          "type": "bool"
        }
      ],
      "stateMutability": "view",
      "type": "function"
    },
    {
      "inputs": [],
      "name": "symbol",
      "outputs": [
        {
          "internalType": "string",
          "name": "",
          "type": "string"
        }
      ],
      "stateMutability": "view",
      "type": "function"
    },
    {
      "inputs": [
        {
          "internalType": "uint256",
          "name": "",
          "type": "uint256"
        }
      ],
      "name": "tokenIdToCreationTimestamp",
      "outputs": [
        {
          "internalType": "uint256",
          "name": "",
          "type": "uint256"
        }
      ],
      "stateMutability": "view",
      "type": "function"
    },
    {
      "inputs": [
        {
          "internalType": "uint256",
          "name": "tokenId",
          "type": "uint256"
        }
      ],
      "name": "tokenURI",
      "outputs": [
        {
          "internalType": "string",
          "name": "",
          "type": "string"
        }
      ],
      "stateMutability": "view",
      "type": "function"
    },
    {
      "inputs": [
        {
          "internalType": "address",
          "name": "from",
          "type": "address"
        },
        {
          "internalType": "address",
          "name": "to",
          "type": "address"
        },
        {
          "internalType": "uint256",
          "name": "tokenId",
          "type": "uint256"
        }
      ],
      "name": "transferFrom",
      "outputs": [],
      "stateMutability": "nonpayable",
      "type": "function"
    },
    {
      "inputs": [],
      "name": "weth",
      "outputs": [
        {
          "internalType": "contract ERC20",
          "name": "",
          "type": "address"
        }
      ],
      "stateMutability": "view",
      "type": "function"
    }
  ],
  "transactionHash": "0x41fbafa71e4acc688c37ae1a4050276f82e2242a2db1c9f71579c0346f0d8576",
  "args": [
    "0xd0a1e359811322d97991e03f863a0c30c2cf029c",
    "https://kovan.putty.finance/api/token/"
  ],
  "numDeployments": 4,
  "solcInputHash": "fc976cf67b7a57eae55f1b8e532f4493",
  "bytecode": "0x6101406040523480156200001257600080fd5b5060405162005a5e38038062005a5e8339818101604052810190620000389190620003d8565b6040518060400160405280600d81526020017f5075747479204f7074696f6e73000000000000000000000000000000000000008152506040518060400160405280600481526020017f4f505554000000000000000000000000000000000000000000000000000000008152506040518060400160405280600581526020017f50757474790000000000000000000000000000000000000000000000000000008152506040518060400160405280600481526020017f76302e390000000000000000000000000000000000000000000000000000000081525060008280519060200120905060008280519060200120905060007f8b73c3c69bb8fe3d512ecc4cf759cc79239f7b179b0ffacaa9a75d522b39400f90508260e081815250508161010081815250504660a08181525050620001798184846200026360201b60201c565b608081815250503073ffffffffffffffffffffffffffffffffffffffff1660c08173ffffffffffffffffffffffffffffffffffffffff1660601b8152505080610120818152505050505050508160009080519060200190620001dd9291906200029f565b508060019080519060200190620001f69291906200029f565b505050600160068190555081600760006101000a81548173ffffffffffffffffffffffffffffffffffffffff021916908373ffffffffffffffffffffffffffffffffffffffff16021790555080600890805190602001906200025a9291906200029f565b505050620006a8565b600083838346306040516020016200028095949392919062000465565b6040516020818303038152906040528051906020012090509392505050565b828054620002ad90620005b3565b90600052602060002090601f016020900481019282620002d157600085556200031d565b82601f10620002ec57805160ff19168380011785556200031d565b828001600101855582156200031d579182015b828111156200031c578251825591602001919060010190620002ff565b5b5090506200032c919062000330565b5090565b5b808211156200034b57600081600090555060010162000331565b5090565b6000620003666200036084620004eb565b620004c2565b9050828152602081018484840111156200037f57600080fd5b6200038c8482856200057d565b509392505050565b600081519050620003a5816200068e565b92915050565b600082601f830112620003bd57600080fd5b8151620003cf8482602086016200034f565b91505092915050565b60008060408385031215620003ec57600080fd5b6000620003fc8582860162000394565b925050602083015167ffffffffffffffff8111156200041a57600080fd5b6200042885828601620003ab565b9150509250929050565b6200043d8162000521565b82525050565b6200044e8162000535565b82525050565b6200045f8162000573565b82525050565b600060a0820190506200047c600083018862000443565b6200048b602083018762000443565b6200049a604083018662000443565b620004a9606083018562000454565b620004b8608083018462000432565b9695505050505050565b6000620004ce620004e1565b9050620004dc8282620005e9565b919050565b6000604051905090565b600067ffffffffffffffff8211156200050957620005086200064e565b5b62000514826200067d565b9050602081019050919050565b60006200052e8262000553565b9050919050565b6000819050919050565b60006200054c8262000521565b9050919050565b600073ffffffffffffffffffffffffffffffffffffffff82169050919050565b6000819050919050565b60005b838110156200059d57808201518184015260208101905062000580565b83811115620005ad576000848401525b50505050565b60006002820490506001821680620005cc57607f821691505b60208210811415620005e357620005e26200061f565b5b50919050565b620005f4826200067d565b810181811067ffffffffffffffff821117156200061657620006156200064e565b5b80604052505050565b7f4e487b7100000000000000000000000000000000000000000000000000000000600052602260045260246000fd5b7f4e487b7100000000000000000000000000000000000000000000000000000000600052604160045260246000fd5b6000601f19601f8301169050919050565b62000699816200053f565b8114620006a557600080fd5b50565b60805160a05160c05160601c60e0516101005161012051615363620006fb6000396000611e7501526000611eb701526000611e9601526000611dcb01526000611e2101526000611e4a01526153636000f3fe6080604052600436106101405760003560e01c80636c0360eb116100b6578063b88d4fde1161006f578063b88d4fde1461045f578063bc15e60114610488578063c87b56dd146104c5578063e985e9c514610502578063ee6f10f11461053f578063eff9cdcc1461057c57610140565b80636c0360eb1461035c57806370a082311461038757806378e890ba146103c4578063835051bb146103ef57806395d89b411461040b578063a22cb4651461043657610140565b806323b872dd1161010857806323b872dd146102505780633fc8cef31461027957806342842e0e146102a457806352c3f953146102cd5780636352211e146102f6578063679a94721461033357610140565b806301ffc9a71461014557806306fdde0314610182578063081812fc146101ad578063095ea7b3146101ea57806316eea7d514610213575b600080fd5b34801561015157600080fd5b5061016c6004803603810190610167919061348d565b6105a5565b6040516101799190613fdd565b60405180910390f35b34801561018e57600080fd5b50610197610687565b6040516101a49190614144565b60405180910390f35b3480156101b957600080fd5b506101d460048036038101906101cf919061358c565b610719565b6040516101e19190613efb565b60405180910390f35b3480156101f657600080fd5b50610211600480360381019061020c9190613428565b61079e565b005b34801561021f57600080fd5b5061023a6004803603810190610235919061358c565b6108b6565b6040516102479190613fdd565b60405180910390f35b34801561025c57600080fd5b5061027760048036038101906102729190613322565b6108d5565b005b34801561028557600080fd5b5061028e610935565b60405161029b9190614129565b60405180910390f35b3480156102b057600080fd5b506102cb60048036038101906102c69190613322565b61095b565b005b3480156102d957600080fd5b506102f460048036038101906102ef91906134df565b61097b565b005b34801561030257600080fd5b5061031d6004803603810190610318919061358c565b610a34565b60405161032a9190613efb565b60405180910390f35b34801561033f57600080fd5b5061035a600480360381019061035591906134df565b610ae6565b005b34801561036857600080fd5b50610371610c41565b60405161037e9190614144565b60405180910390f35b34801561039357600080fd5b506103ae60048036038101906103a991906132bd565b610ccf565b6040516103bb91906145a4565b60405180910390f35b3480156103d057600080fd5b506103d9610d87565b6040516103e69190613ff8565b60405180910390f35b61040960048036038101906104049190613520565b610d96565b005b34801561041757600080fd5b506104206110dc565b60405161042d9190614144565b60405180910390f35b34801561044257600080fd5b5061045d600480360381019061045891906133ec565b61116e565b005b34801561046b57600080fd5b5061048660048036038101906104819190613371565b611184565b005b34801561049457600080fd5b506104af60048036038101906104aa919061358c565b6111e6565b6040516104bc9190613fdd565b60405180910390f35b3480156104d157600080fd5b506104ec60048036038101906104e7919061358c565b611206565b6040516104f99190614144565b60405180910390f35b34801561050e57600080fd5b50610529600480360381019061052491906132e6565b6112ad565b6040516105369190613fdd565b60405180910390f35b34801561054b57600080fd5b506105666004803603810190610561919061358c565b611341565b60405161057391906145a4565b60405180910390f35b34801561058857600080fd5b506105a3600480360381019061059e91906134df565b611359565b005b60007f80ac58cd000000000000000000000000000000000000000000000000000000007bffffffffffffffffffffffffffffffffffffffffffffffffffffffff1916827bffffffffffffffffffffffffffffffffffffffffffffffffffffffff1916148061067057507f5b5e139f000000000000000000000000000000000000000000000000000000007bffffffffffffffffffffffffffffffffffffffffffffffffffffffff1916827bffffffffffffffffffffffffffffffffffffffffffffffffffffffff1916145b80610680575061067f8261170e565b5b9050919050565b60606000805461069690614943565b80601f01602080910402602001604051908101604052809291908181526020018280546106c290614943565b801561070f5780601f106106e45761010080835404028352916020019161070f565b820191906000526020600020905b8154815290600101906020018083116106f257829003601f168201915b5050505050905090565b600061072482611778565b610763576040517f08c379a000000000000000000000000000000000000000000000000000000000815260040161075a906143a6565b60405180910390fd5b6004600083815260200190815260200160002060009054906101000a900473ffffffffffffffffffffffffffffffffffffffff169050919050565b60006107a982610a34565b90508073ffffffffffffffffffffffffffffffffffffffff168373ffffffffffffffffffffffffffffffffffffffff16141561081a576040517f08c379a000000000000000000000000000000000000000000000000000000000815260040161081190614426565b60405180910390fd5b8073ffffffffffffffffffffffffffffffffffffffff166108396117e4565b73ffffffffffffffffffffffffffffffffffffffff1614806108685750610867816108626117e4565b6112ad565b5b6108a7576040517f08c379a000000000000000000000000000000000000000000000000000000000815260040161089e90614306565b60405180910390fd5b6108b183836117ec565b505050565b6000806009600084815260200190815260200160002054119050919050565b6108e66108e06117e4565b826118a5565b610925576040517f08c379a000000000000000000000000000000000000000000000000000000000815260040161091c90614486565b60405180910390fd5b610930838383611983565b505050565b600760009054906101000a900473ffffffffffffffffffffffffffffffffffffffff1681565b61097683838360405180602001604052806000815250611184565b505050565b806060015173ffffffffffffffffffffffffffffffffffffffff163373ffffffffffffffffffffffffffffffffffffffff16146109ed576040517f08c379a00000000000000000000000000000000000000000000000000000000081526004016109e490614266565b60405180910390fd5b60006109f882611bdf565b50905060008160001c90506001600a600083815260200190815260200160002060006101000a81548160ff021916908315150217905550505050565b6000806002600084815260200190815260200160002060009054906101000a900473ffffffffffffffffffffffffffffffffffffffff169050600073ffffffffffffffffffffffffffffffffffffffff168173ffffffffffffffffffffffffffffffffffffffff161415610add576040517f08c379a0000000000000000000000000000000000000000000000000000000008152600401610ad490614346565b60405180910390fd5b80915050919050565b600080610af283611bdf565b915091506000808360001c8360001c915091506000610b1082610a34565b905085602001516009600085815260200190815260200160002054610b35919061474f565b4211610b76576040517f08c379a0000000000000000000000000000000000000000000000000000000008152600401610b6d906144c6565b60405180910390fd5b610b7f83611cb6565b610b8882611cb6565b60008173ffffffffffffffffffffffffffffffffffffffff168760000151604051610bb290613ee6565b60006040518083038185875af1925050503d8060008114610bef576040519150601f19603f3d011682016040523d82523d6000602084013e610bf4565b606091505b5050905080610c38576040517f08c379a0000000000000000000000000000000000000000000000000000000008152600401610c2f90614186565b60405180910390fd5b50505050505050565b60088054610c4e90614943565b80601f0160208091040260200160405190810160405280929190818152602001828054610c7a90614943565b8015610cc75780601f10610c9c57610100808354040283529160200191610cc7565b820191906000526020600020905b815481529060010190602001808311610caa57829003601f168201915b505050505081565b60008073ffffffffffffffffffffffffffffffffffffffff168273ffffffffffffffffffffffffffffffffffffffff161415610d40576040517f08c379a0000000000000000000000000000000000000000000000000000000008152600401610d3790614326565b60405180910390fd5b600360008373ffffffffffffffffffffffffffffffffffffffff1673ffffffffffffffffffffffffffffffffffffffff168152602001908152602001600020549050919050565b6000610d91611dc7565b905090565b60026006541415610ddc576040517f08c379a0000000000000000000000000000000000000000000000000000000008152600401610dd390614526565b60405180910390fd5b60026006819055508160000151341015610e2b576040517f08c379a0000000000000000000000000000000000000000000000000000000008152600401610e22906142c6565b60405180910390fd5b600080610e3784611bdf565b915091506000808360001c8360001c915091506000610e5585611ee1565b90506000610e638288611f11565b9050876060015173ffffffffffffffffffffffffffffffffffffffff168173ffffffffffffffffffffffffffffffffffffffff1614610ed7576040517f08c379a0000000000000000000000000000000000000000000000000000000008152600401610ece90614406565b60405180910390fd5b600a600085815260200190815260200160002060009054906101000a900460ff1615610f38576040517f08c379a0000000000000000000000000000000000000000000000000000000008152600401610f2f90614466565b60405180910390fd5b6000600960008681526020019081526020016000205414610f8e576040517f08c379a0000000000000000000000000000000000000000000000000000000008152600401610f85906142e6565b60405180910390fd5b426009600086815260200190815260200160002081905550610fb4886060015185611f38565b610fbe3384611f38565b600760009054906101000a900473ffffffffffffffffffffffffffffffffffffffff1673ffffffffffffffffffffffffffffffffffffffff166323b872dd8960600151338b604001516040518463ffffffff1660e01b815260040161102593929190613f16565b602060405180830381600087803b15801561103f57600080fd5b505af1158015611053573d6000803e3d6000fd5b505050506040513d601f19601f820116820180604052508101906110779190613464565b503373ffffffffffffffffffffffffffffffffffffffff167fe55fafe11811198d0f6025af999b664fc33d08499ed34bfb1be96a6cc271d5a58986866040516110c293929190614566565b60405180910390a250505050505060016006819055505050565b6060600180546110eb90614943565b80601f016020809104026020016040519081016040528092919081815260200182805461111790614943565b80156111645780601f1061113957610100808354040283529160200191611164565b820191906000526020600020905b81548152906001019060200180831161114757829003601f168201915b5050505050905090565b6111806111796117e4565b8383612106565b5050565b61119561118f6117e4565b836118a5565b6111d4576040517f08c379a00000000000000000000000000000000000000000000000000000000081526004016111cb90614486565b60405180910390fd5b6111e084848484612273565b50505050565b600a6020528060005260406000206000915054906101000a900460ff1681565b606061121182611778565b611250576040517f08c379a0000000000000000000000000000000000000000000000000000000008152600401611247906143e6565b60405180910390fd5b600061125a6122cf565b9050600081511161127a57604051806020016040528060008152506112a5565b8061128484612361565b604051602001611295929190613e9c565b6040516020818303038152906040525b915050919050565b6000600560008473ffffffffffffffffffffffffffffffffffffffff1673ffffffffffffffffffffffffffffffffffffffff16815260200190815260200160002060008373ffffffffffffffffffffffffffffffffffffffff1673ffffffffffffffffffffffffffffffffffffffff16815260200190815260200160002060009054906101000a900460ff16905092915050565b60096020528060005260406000206000915090505481565b6002600654141561139f576040517f08c379a000000000000000000000000000000000000000000000000000000000815260040161139690614526565b60405180910390fd5b60026006819055506000806113b383611bdf565b915091506000808360001c8360001c915091506000806113d284610a34565b6113db84610a34565b915091503373ffffffffffffffffffffffffffffffffffffffff168273ffffffffffffffffffffffffffffffffffffffff161461144d576040517f08c379a000000000000000000000000000000000000000000000000000000000815260040161144490614446565b60405180910390fd5b86602001516009600086815260200190815260200160002054611470919061474f565b4211156114b2576040517f08c379a00000000000000000000000000000000000000000000000000000000081526004016114a990614506565b60405180910390fd5b6114bb84611cb6565b6114c483611cb6565b60005b8760a00151518110156115665760008860a001518281518110611513577f4e487b7100000000000000000000000000000000000000000000000000000000600052603260045260246000fd5b6020026020010151905061155284848360200151846000015173ffffffffffffffffffffffffffffffffffffffff1661250e909392919063ffffffff16565b50808061155e906149a6565b9150506114c7565b5060005b8760c001515181101561164b5760008860c0015182815181106115b6577f4e487b7100000000000000000000000000000000000000000000000000000000600052603260045260246000fd5b60200260200101519050806000015173ffffffffffffffffffffffffffffffffffffffff166323b872dd858584602001516040518463ffffffff1660e01b815260040161160593929190613f16565b600060405180830381600087803b15801561161f57600080fd5b505af1158015611633573d6000803e3d6000fd5b50505050508080611643906149a6565b91505061156a565b5060008273ffffffffffffffffffffffffffffffffffffffff16886000015160405161167690613ee6565b60006040518083038185875af1925050503d80600081146116b3576040519150601f19603f3d011682016040523d82523d6000602084013e6116b8565b606091505b50509050806116fc576040517f08c379a00000000000000000000000000000000000000000000000000000000081526004016116f390614546565b60405180910390fd5b50505050505050600160068190555050565b60007f01ffc9a7000000000000000000000000000000000000000000000000000000007bffffffffffffffffffffffffffffffffffffffffffffffffffffffff1916827bffffffffffffffffffffffffffffffffffffffffffffffffffffffff1916149050919050565b60008073ffffffffffffffffffffffffffffffffffffffff166002600084815260200190815260200160002060009054906101000a900473ffffffffffffffffffffffffffffffffffffffff1673ffffffffffffffffffffffffffffffffffffffff1614159050919050565b600033905090565b816004600083815260200190815260200160002060006101000a81548173ffffffffffffffffffffffffffffffffffffffff021916908373ffffffffffffffffffffffffffffffffffffffff160217905550808273ffffffffffffffffffffffffffffffffffffffff1661185f83610a34565b73ffffffffffffffffffffffffffffffffffffffff167f8c5be1e5ebec7d5bd14f71427d1e84f3dd0314c0f7b2291e5b200ac8c7c3b92560405160405180910390a45050565b60006118b082611778565b6118ef576040517f08c379a00000000000000000000000000000000000000000000000000000000081526004016118e6906142a6565b60405180910390fd5b60006118fa83610a34565b90508073ffffffffffffffffffffffffffffffffffffffff168473ffffffffffffffffffffffffffffffffffffffff16148061196957508373ffffffffffffffffffffffffffffffffffffffff1661195184610719565b73ffffffffffffffffffffffffffffffffffffffff16145b8061197a575061197981856112ad565b5b91505092915050565b8273ffffffffffffffffffffffffffffffffffffffff166119a382610a34565b73ffffffffffffffffffffffffffffffffffffffff16146119f9576040517f08c379a00000000000000000000000000000000000000000000000000000000081526004016119f0906143c6565b60405180910390fd5b600073ffffffffffffffffffffffffffffffffffffffff168273ffffffffffffffffffffffffffffffffffffffff161415611a69576040517f08c379a0000000000000000000000000000000000000000000000000000000008152600401611a6090614206565b60405180910390fd5b611a74838383612597565b611a7f6000826117ec565b6001600360008573ffffffffffffffffffffffffffffffffffffffff1673ffffffffffffffffffffffffffffffffffffffff1681526020019081526020016000206000828254611acf91906147d6565b925050819055506001600360008473ffffffffffffffffffffffffffffffffffffffff1673ffffffffffffffffffffffffffffffffffffffff1681526020019081526020016000206000828254611b26919061474f565b92505081905550816002600083815260200190815260200160002060006101000a81548173ffffffffffffffffffffffffffffffffffffffff021916908373ffffffffffffffffffffffffffffffffffffffff160217905550808273ffffffffffffffffffffffffffffffffffffffff168473ffffffffffffffffffffffffffffffffffffffff167fddf252ad1be2c89b69c2b068fc378daa952ba7f163c4a11628f55a4df523b3ef60405160405180910390a4505050565b600080611bea611dc7565b836000015184602001518560400151866060015187608001518860a00151604051602001611c189190613f99565b604051602081830303815290604052805190602001208960c00151604051602001611c439190613fbb565b60405160208183030381529060405280519060200120604051602001611c70989796959493929190614066565b60405160208183030381529060405280519060200120915081604051602001611c999190613ff8565b604051602081830303815290604052805190602001209050915091565b6000611cc182610a34565b9050611ccf81600084612597565b611cda6000836117ec565b6001600360008373ffffffffffffffffffffffffffffffffffffffff1673ffffffffffffffffffffffffffffffffffffffff1681526020019081526020016000206000828254611d2a91906147d6565b925050819055506002600083815260200190815260200160002060006101000a81549073ffffffffffffffffffffffffffffffffffffffff021916905581600073ffffffffffffffffffffffffffffffffffffffff168273ffffffffffffffffffffffffffffffffffffffff167fddf252ad1be2c89b69c2b068fc378daa952ba7f163c4a11628f55a4df523b3ef60405160405180910390a45050565b60007f000000000000000000000000000000000000000000000000000000000000000073ffffffffffffffffffffffffffffffffffffffff163073ffffffffffffffffffffffffffffffffffffffff16148015611e4357507f000000000000000000000000000000000000000000000000000000000000000046145b15611e70577f00000000000000000000000000000000000000000000000000000000000000009050611ede565b611edb7f00000000000000000000000000000000000000000000000000000000000000007f00000000000000000000000000000000000000000000000000000000000000007f000000000000000000000000000000000000000000000000000000000000000061259c565b90505b90565b600081604051602001611ef49190613ec0565b604051602081830303815290604052805190602001209050919050565b6000806000611f2085856125d6565b91509150611f2d81612659565b819250505092915050565b600073ffffffffffffffffffffffffffffffffffffffff168273ffffffffffffffffffffffffffffffffffffffff161415611fa8576040517f08c379a0000000000000000000000000000000000000000000000000000000008152600401611f9f90614386565b60405180910390fd5b611fb181611778565b15611ff1576040517f08c379a0000000000000000000000000000000000000000000000000000000008152600401611fe8906141e6565b60405180910390fd5b611ffd60008383612597565b6001600360008473ffffffffffffffffffffffffffffffffffffffff1673ffffffffffffffffffffffffffffffffffffffff168152602001908152602001600020600082825461204d919061474f565b92505081905550816002600083815260200190815260200160002060006101000a81548173ffffffffffffffffffffffffffffffffffffffff021916908373ffffffffffffffffffffffffffffffffffffffff160217905550808273ffffffffffffffffffffffffffffffffffffffff16600073ffffffffffffffffffffffffffffffffffffffff167fddf252ad1be2c89b69c2b068fc378daa952ba7f163c4a11628f55a4df523b3ef60405160405180910390a45050565b8173ffffffffffffffffffffffffffffffffffffffff168373ffffffffffffffffffffffffffffffffffffffff161415612175576040517f08c379a000000000000000000000000000000000000000000000000000000000815260040161216c90614226565b60405180910390fd5b80600560008573ffffffffffffffffffffffffffffffffffffffff1673ffffffffffffffffffffffffffffffffffffffff16815260200190815260200160002060008473ffffffffffffffffffffffffffffffffffffffff1673ffffffffffffffffffffffffffffffffffffffff16815260200190815260200160002060006101000a81548160ff0219169083151502179055508173ffffffffffffffffffffffffffffffffffffffff168373ffffffffffffffffffffffffffffffffffffffff167f17307eab39ab6107e8899845ad3d59bd9653f200f220920489ca2b5937696c31836040516122669190613fdd565b60405180910390a3505050565b61227e848484611983565b61228a848484846129aa565b6122c9576040517f08c379a00000000000000000000000000000000000000000000000000000000081526004016122c0906141c6565b60405180910390fd5b50505050565b6060600880546122de90614943565b80601f016020809104026020016040519081016040528092919081815260200182805461230a90614943565b80156123575780601f1061232c57610100808354040283529160200191612357565b820191906000526020600020905b81548152906001019060200180831161233a57829003601f168201915b5050505050905090565b606060008214156123a9576040518060400160405280600181526020017f30000000000000000000000000000000000000000000000000000000000000008152509050612509565b600082905060005b600082146123db5780806123c4906149a6565b915050600a826123d491906147a5565b91506123b1565b60008167ffffffffffffffff81111561241d577f4e487b7100000000000000000000000000000000000000000000000000000000600052604160045260246000fd5b6040519080825280601f01601f19166020018201604052801561244f5781602001600182028036833780820191505090505b5090505b600085146125025760018261246891906147d6565b9150600a8561247791906149f9565b6030612483919061474f565b60f81b8183815181106124bf577f4e487b7100000000000000000000000000000000000000000000000000000000600052603260045260246000fd5b60200101907effffffffffffffffffffffffffffffffffffffffffffffffffffffffffffff1916908160001a905350600a856124fb91906147a5565b9450612453565b8093505050505b919050565b612591846323b872dd60e01b85858560405160240161252f93929190613f16565b604051602081830303815290604052907bffffffffffffffffffffffffffffffffffffffffffffffffffffffff19166020820180517bffffffffffffffffffffffffffffffffffffffffffffffffffffffff8381831617835250505050612b41565b50505050565b505050565b600083838346306040516020016125b7959493929190614013565b6040516020818303038152906040528051906020012090509392505050565b6000806041835114156126185760008060006020860151925060408601519150606086015160001a905061260c87828585612c08565b94509450505050612652565b60408351141561264957600080602085015191506040850151905061263e868383612d15565b935093505050612652565b60006002915091505b9250929050565b60006004811115612693577f4e487b7100000000000000000000000000000000000000000000000000000000600052602160045260246000fd5b8160048111156126cc577f4e487b7100000000000000000000000000000000000000000000000000000000600052602160045260246000fd5b14156126d7576129a7565b60016004811115612711577f4e487b7100000000000000000000000000000000000000000000000000000000600052602160045260246000fd5b81600481111561274a577f4e487b7100000000000000000000000000000000000000000000000000000000600052602160045260246000fd5b141561278b576040517f08c379a000000000000000000000000000000000000000000000000000000000815260040161278290614166565b60405180910390fd5b600260048111156127c5577f4e487b7100000000000000000000000000000000000000000000000000000000600052602160045260246000fd5b8160048111156127fe577f4e487b7100000000000000000000000000000000000000000000000000000000600052602160045260246000fd5b141561283f576040517f08c379a0000000000000000000000000000000000000000000000000000000008152600401612836906141a6565b60405180910390fd5b60036004811115612879577f4e487b7100000000000000000000000000000000000000000000000000000000600052602160045260246000fd5b8160048111156128b2577f4e487b7100000000000000000000000000000000000000000000000000000000600052602160045260246000fd5b14156128f3576040517f08c379a00000000000000000000000000000000000000000000000000000000081526004016128ea90614246565b60405180910390fd5b60048081111561292c577f4e487b7100000000000000000000000000000000000000000000000000000000600052602160045260246000fd5b816004811115612965577f4e487b7100000000000000000000000000000000000000000000000000000000600052602160045260246000fd5b14156129a6576040517f08c379a000000000000000000000000000000000000000000000000000000000815260040161299d90614366565b60405180910390fd5b5b50565b60006129cb8473ffffffffffffffffffffffffffffffffffffffff16612d63565b15612b34578373ffffffffffffffffffffffffffffffffffffffff1663150b7a026129f46117e4565b8786866040518563ffffffff1660e01b8152600401612a169493929190613f4d565b602060405180830381600087803b158015612a3057600080fd5b505af1925050508015612a6157506040513d601f19601f82011682018060405250810190612a5e91906134b6565b60015b612ae4573d8060008114612a91576040519150601f19603f3d011682016040523d82523d6000602084013e612a96565b606091505b50600081511415612adc576040517f08c379a0000000000000000000000000000000000000000000000000000000008152600401612ad3906141c6565b60405180910390fd5b805181602001fd5b63150b7a0260e01b7bffffffffffffffffffffffffffffffffffffffffffffffffffffffff1916817bffffffffffffffffffffffffffffffffffffffffffffffffffffffff191614915050612b39565b600190505b949350505050565b6000612ba3826040518060400160405280602081526020017f5361666545524332303a206c6f772d6c6576656c2063616c6c206661696c65648152508573ffffffffffffffffffffffffffffffffffffffff16612d769092919063ffffffff16565b9050600081511115612c035780806020019051810190612bc39190613464565b612c02576040517f08c379a0000000000000000000000000000000000000000000000000000000008152600401612bf9906144e6565b60405180910390fd5b5b505050565b6000807f7fffffffffffffffffffffffffffffff5d576e7357a4501ddfe92f46681b20a08360001c1115612c43576000600391509150612d0c565b601b8560ff1614158015612c5b5750601c8560ff1614155b15612c6d576000600491509150612d0c565b600060018787878760405160008152602001604052604051612c9294939291906140e4565b6020604051602081039080840390855afa158015612cb4573d6000803e3d6000fd5b505050602060405103519050600073ffffffffffffffffffffffffffffffffffffffff168173ffffffffffffffffffffffffffffffffffffffff161415612d0357600060019250925050612d0c565b80600092509250505b94509492505050565b6000806000807f7fffffffffffffffffffffffffffffffffffffffffffffffffffffffffffffff85169150601b8560ff1c019050612d5587828885612c08565b935093505050935093915050565b600080823b905060008111915050919050565b6060612d858484600085612d8e565b90509392505050565b606082471015612dd3576040517f08c379a0000000000000000000000000000000000000000000000000000000008152600401612dca90614286565b60405180910390fd5b612ddc85612d63565b612e1b576040517f08c379a0000000000000000000000000000000000000000000000000000000008152600401612e12906144a6565b60405180910390fd5b6000808673ffffffffffffffffffffffffffffffffffffffff168587604051612e449190613e85565b60006040518083038185875af1925050503d8060008114612e81576040519150601f19603f3d011682016040523d82523d6000602084013e612e86565b606091505b5091509150612e96828286612ea2565b92505050949350505050565b60608315612eb257829050612f02565b600083511115612ec55782518084602001fd5b816040517f08c379a0000000000000000000000000000000000000000000000000000000008152600401612ef99190614144565b60405180910390fd5b9392505050565b6000612f1c612f17846145e4565b6145bf565b90508083825260208201905082856040860282011115612f3b57600080fd5b60005b85811015612f6b5781612f518882613130565b845260208401935060408301925050600181019050612f3e565b5050509392505050565b6000612f88612f8384614610565b6145bf565b90508083825260208201905082856040860282011115612fa757600080fd5b60005b85811015612fd75781612fbd888261317c565b845260208401935060408301925050600181019050612faa565b5050509392505050565b6000612ff4612fef8461463c565b6145bf565b90508281526020810184848401111561300c57600080fd5b613017848285614901565b509392505050565b60008135905061302e816152a3565b92915050565b600082601f83011261304557600080fd5b8135613055848260208601612f09565b91505092915050565b600082601f83011261306f57600080fd5b813561307f848260208601612f75565b91505092915050565b600081359050613097816152ba565b92915050565b6000815190506130ac816152ba565b92915050565b6000813590506130c1816152d1565b92915050565b6000815190506130d6816152d1565b92915050565b600082601f8301126130ed57600080fd5b81356130fd848260208601612fe1565b91505092915050565b600081359050613115816152e8565b92915050565b60008135905061312a816152ff565b92915050565b60006040828403121561314257600080fd5b61314c60406145bf565b9050600061315c84828501613106565b6000830152506020613170848285016132a8565b60208301525092915050565b60006040828403121561318e57600080fd5b61319860406145bf565b905060006131a88482850161311b565b60008301525060206131bc848285016132a8565b60208301525092915050565b600060e082840312156131da57600080fd5b6131e460e06145bf565b905060006131f4848285016132a8565b6000830152506020613208848285016132a8565b602083015250604061321c848285016132a8565b60408301525060606132308482850161301f565b6060830152506080613244848285016132a8565b60808301525060a082013567ffffffffffffffff81111561326457600080fd5b61327084828501613034565b60a08301525060c082013567ffffffffffffffff81111561329057600080fd5b61329c8482850161305e565b60c08301525092915050565b6000813590506132b781615316565b92915050565b6000602082840312156132cf57600080fd5b60006132dd8482850161301f565b91505092915050565b600080604083850312156132f957600080fd5b60006133078582860161301f565b92505060206133188582860161301f565b9150509250929050565b60008060006060848603121561333757600080fd5b60006133458682870161301f565b93505060206133568682870161301f565b9250506040613367868287016132a8565b9150509250925092565b6000806000806080858703121561338757600080fd5b60006133958782880161301f565b94505060206133a68782880161301f565b93505060406133b7878288016132a8565b925050606085013567ffffffffffffffff8111156133d457600080fd5b6133e0878288016130dc565b91505092959194509250565b600080604083850312156133ff57600080fd5b600061340d8582860161301f565b925050602061341e85828601613088565b9150509250929050565b6000806040838503121561343b57600080fd5b60006134498582860161301f565b925050602061345a858286016132a8565b9150509250929050565b60006020828403121561347657600080fd5b60006134848482850161309d565b91505092915050565b60006020828403121561349f57600080fd5b60006134ad848285016130b2565b91505092915050565b6000602082840312156134c857600080fd5b60006134d6848285016130c7565b91505092915050565b6000602082840312156134f157600080fd5b600082013567ffffffffffffffff81111561350b57600080fd5b613517848285016131c8565b91505092915050565b6000806040838503121561353357600080fd5b600083013567ffffffffffffffff81111561354d57600080fd5b613559858286016131c8565b925050602083013567ffffffffffffffff81111561357657600080fd5b613582858286016130dc565b9150509250929050565b60006020828403121561359e57600080fd5b60006135ac848285016132a8565b91505092915050565b60006135c18383613d57565b60408301905092915050565b60006135d98383613d86565b60408301905092915050565b6135ee8161480a565b82525050565b6135fd8161480a565b82525050565b600061360e8261468d565b61361881856146d3565b93506136238361466d565b8060005b8381101561365457815161363b88826135b5565b9750613646836146b9565b925050600181019050613627565b5085935050505092915050565b600061366c8261468d565b61367681856146e4565b93506136818361466d565b8060005b838110156136b257815161369988826135b5565b97506136a4836146b9565b925050600181019050613685565b5085935050505092915050565b60006136ca82614698565b6136d481856146f5565b93506136df8361467d565b8060005b838110156137105781516136f788826135cd565b9750613702836146c6565b9250506001810190506136e3565b5085935050505092915050565b600061372882614698565b6137328185614706565b935061373d8361467d565b8060005b8381101561376e57815161375588826135cd565b9750613760836146c6565b925050600181019050613741565b5085935050505092915050565b6137848161481c565b82525050565b61379381614828565b82525050565b6137aa6137a582614828565b6149ef565b82525050565b60006137bb826146a3565b6137c58185614717565b93506137d5818560208601614910565b6137de81614ae6565b840191505092915050565b60006137f4826146a3565b6137fe8185614728565b935061380e818560208601614910565b80840191505092915050565b613823816148b9565b82525050565b613832816148b9565b82525050565b613841816148dd565b82525050565b6000613852826146ae565b61385c8185614733565b935061386c818560208601614910565b61387581614ae6565b840191505092915050565b600061388b826146ae565b6138958185614744565b93506138a5818560208601614910565b80840191505092915050565b60006138be601883614733565b91506138c982614af7565b602082019050919050565b60006138e1601d83614733565b91506138ec82614b20565b602082019050919050565b6000613904601f83614733565b915061390f82614b49565b602082019050919050565b6000613927601c83614744565b915061393282614b72565b601c82019050919050565b600061394a603283614733565b915061395582614b9b565b604082019050919050565b600061396d601c83614733565b915061397882614bea565b602082019050919050565b6000613990602483614733565b915061399b82614c13565b604082019050919050565b60006139b3601983614733565b91506139be82614c62565b602082019050919050565b60006139d6602283614733565b91506139e182614c8b565b604082019050919050565b60006139f9601583614733565b9150613a0482614cda565b602082019050919050565b6000613a1c602683614733565b9150613a2782614d03565b604082019050919050565b6000613a3f602c83614733565b9150613a4a82614d52565b604082019050919050565b6000613a62600e83614733565b9150613a6d82614da1565b602082019050919050565b6000613a85601d83614733565b9150613a9082614dca565b602082019050919050565b6000613aa8603883614733565b9150613ab382614df3565b604082019050919050565b6000613acb602a83614733565b9150613ad682614e42565b604082019050919050565b6000613aee602983614733565b9150613af982614e91565b604082019050919050565b6000613b11602283614733565b9150613b1c82614ee0565b604082019050919050565b6000613b34602083614733565b9150613b3f82614f2f565b602082019050919050565b6000613b57602c83614733565b9150613b6282614f58565b604082019050919050565b6000613b7a602983614733565b9150613b8582614fa7565b604082019050919050565b6000613b9d602f83614733565b9150613ba882614ff6565b604082019050919050565b6000613bc0601783614733565b9150613bcb82615045565b602082019050919050565b6000613be3602183614733565b9150613bee8261506e565b604082019050919050565b6000613c06602383614733565b9150613c11826150bd565b604082019050919050565b6000613c29601883614733565b9150613c348261510c565b602082019050919050565b6000613c4c600083614728565b9150613c5782615135565b600082019050919050565b6000613c6f603183614733565b9150613c7a82615138565b604082019050919050565b6000613c92601d83614733565b9150613c9d82615187565b602082019050919050565b6000613cb5601683614733565b9150613cc0826151b0565b602082019050919050565b6000613cd8602a83614733565b9150613ce3826151d9565b604082019050919050565b6000613cfb600e83614733565b9150613d0682615228565b602082019050919050565b6000613d1e601f83614733565b9150613d2982615251565b602082019050919050565b6000613d41601c83614733565b9150613d4c8261527a565b602082019050919050565b604082016000820151613d6d600085018261381a565b506020820151613d806020850182613e58565b50505050565b604082016000820151613d9c6000850182613838565b506020820151613daf6020850182613e58565b50505050565b600060e083016000830151613dcd6000860182613e58565b506020830151613de06020860182613e58565b506040830151613df36040860182613e58565b506060830151613e0660608601826135e5565b506080830151613e196080860182613e58565b5060a083015184820360a0860152613e318282613603565b91505060c083015184820360c0860152613e4b82826136bf565b9150508091505092915050565b613e61816148a2565b82525050565b613e70816148a2565b82525050565b613e7f816148ac565b82525050565b6000613e9182846137e9565b915081905092915050565b6000613ea88285613880565b9150613eb48284613880565b91508190509392505050565b6000613ecb8261391a565b9150613ed78284613799565b60208201915081905092915050565b6000613ef182613c3f565b9150819050919050565b6000602082019050613f1060008301846135f4565b92915050565b6000606082019050613f2b60008301866135f4565b613f3860208301856135f4565b613f456040830184613e67565b949350505050565b6000608082019050613f6260008301876135f4565b613f6f60208301866135f4565b613f7c6040830185613e67565b8181036060830152613f8e81846137b0565b905095945050505050565b60006020820190508181036000830152613fb38184613661565b905092915050565b60006020820190508181036000830152613fd5818461371d565b905092915050565b6000602082019050613ff2600083018461377b565b92915050565b600060208201905061400d600083018461378a565b92915050565b600060a082019050614028600083018861378a565b614035602083018761378a565b614042604083018661378a565b61404f6060830185613e67565b61405c60808301846135f4565b9695505050505050565b60006101008201905061407c600083018b61378a565b614089602083018a613e67565b6140966040830189613e67565b6140a36060830188613e67565b6140b060808301876135f4565b6140bd60a0830186613e67565b6140ca60c083018561378a565b6140d760e083018461378a565b9998505050505050505050565b60006080820190506140f9600083018761378a565b6141066020830186613e76565b614113604083018561378a565b614120606083018461378a565b95945050505050565b600060208201905061413e6000830184613829565b92915050565b6000602082019050818103600083015261415e8184613847565b905092915050565b6000602082019050818103600083015261417f816138b1565b9050919050565b6000602082019050818103600083015261419f816138d4565b9050919050565b600060208201905081810360008301526141bf816138f7565b9050919050565b600060208201905081810360008301526141df8161393d565b9050919050565b600060208201905081810360008301526141ff81613960565b9050919050565b6000602082019050818103600083015261421f81613983565b9050919050565b6000602082019050818103600083015261423f816139a6565b9050919050565b6000602082019050818103600083015261425f816139c9565b9050919050565b6000602082019050818103600083015261427f816139ec565b9050919050565b6000602082019050818103600083015261429f81613a0f565b9050919050565b600060208201905081810360008301526142bf81613a32565b9050919050565b600060208201905081810360008301526142df81613a55565b9050919050565b600060208201905081810360008301526142ff81613a78565b9050919050565b6000602082019050818103600083015261431f81613a9b565b9050919050565b6000602082019050818103600083015261433f81613abe565b9050919050565b6000602082019050818103600083015261435f81613ae1565b9050919050565b6000602082019050818103600083015261437f81613b04565b9050919050565b6000602082019050818103600083015261439f81613b27565b9050919050565b600060208201905081810360008301526143bf81613b4a565b9050919050565b600060208201905081810360008301526143df81613b6d565b9050919050565b600060208201905081810360008301526143ff81613b90565b9050919050565b6000602082019050818103600083015261441f81613bb3565b9050919050565b6000602082019050818103600083015261443f81613bd6565b9050919050565b6000602082019050818103600083015261445f81613bf9565b9050919050565b6000602082019050818103600083015261447f81613c1c565b9050919050565b6000602082019050818103600083015261449f81613c62565b9050919050565b600060208201905081810360008301526144bf81613c85565b9050919050565b600060208201905081810360008301526144df81613ca8565b9050919050565b600060208201905081810360008301526144ff81613ccb565b9050919050565b6000602082019050818103600083015261451f81613cee565b9050919050565b6000602082019050818103600083015261453f81613d11565b9050919050565b6000602082019050818103600083015261455f81613d34565b9050919050565b600060608201905081810360008301526145808186613db5565b905061458f6020830185613e67565b61459c6040830184613e67565b949350505050565b60006020820190506145b96000830184613e67565b92915050565b60006145c96145da565b90506145d58282614975565b919050565b6000604051905090565b600067ffffffffffffffff8211156145ff576145fe614ab7565b5b602082029050602081019050919050565b600067ffffffffffffffff82111561462b5761462a614ab7565b5b602082029050602081019050919050565b600067ffffffffffffffff82111561465757614656614ab7565b5b61466082614ae6565b9050602081019050919050565b6000819050602082019050919050565b6000819050602082019050919050565b600081519050919050565b600081519050919050565b600081519050919050565b600081519050919050565b6000602082019050919050565b6000602082019050919050565b600082825260208201905092915050565b600082825260208201905092915050565b600082825260208201905092915050565b600082825260208201905092915050565b600082825260208201905092915050565b600081905092915050565b600082825260208201905092915050565b600081905092915050565b600061475a826148a2565b9150614765836148a2565b9250827fffffffffffffffffffffffffffffffffffffffffffffffffffffffffffffffff0382111561479a57614799614a2a565b5b828201905092915050565b60006147b0826148a2565b91506147bb836148a2565b9250826147cb576147ca614a59565b5b828204905092915050565b60006147e1826148a2565b91506147ec836148a2565b9250828210156147ff576147fe614a2a565b5b828203905092915050565b600061481582614882565b9050919050565b60008115159050919050565b6000819050919050565b60007fffffffff0000000000000000000000000000000000000000000000000000000082169050919050565b60006148698261480a565b9050919050565b600061487b8261480a565b9050919050565b600073ffffffffffffffffffffffffffffffffffffffff82169050919050565b6000819050919050565b600060ff82169050919050565b60006148c4826148cb565b9050919050565b60006148d682614882565b9050919050565b60006148e8826148ef565b9050919050565b60006148fa82614882565b9050919050565b82818337600083830152505050565b60005b8381101561492e578082015181840152602081019050614913565b8381111561493d576000848401525b50505050565b6000600282049050600182168061495b57607f821691505b6020821081141561496f5761496e614a88565b5b50919050565b61497e82614ae6565b810181811067ffffffffffffffff8211171561499d5761499c614ab7565b5b80604052505050565b60006149b1826148a2565b91507fffffffffffffffffffffffffffffffffffffffffffffffffffffffffffffffff8214156149e4576149e3614a2a565b5b600182019050919050565b6000819050919050565b6000614a04826148a2565b9150614a0f836148a2565b925082614a1f57614a1e614a59565b5b828206905092915050565b7f4e487b7100000000000000000000000000000000000000000000000000000000600052601160045260246000fd5b7f4e487b7100000000000000000000000000000000000000000000000000000000600052601260045260246000fd5b7f4e487b7100000000000000000000000000000000000000000000000000000000600052602260045260246000fd5b7f4e487b7100000000000000000000000000000000000000000000000000000000600052604160045260246000fd5b6000601f19601f8301169050919050565b7f45434453413a20696e76616c6964207369676e61747572650000000000000000600082015250565b7f455448207472616e7366657220746f2073656c6c6572206661696c6564000000600082015250565b7f45434453413a20696e76616c6964207369676e6174757265206c656e67746800600082015250565b7f19457468657265756d205369676e6564204d6573736167653a0a333200000000600082015250565b7f4552433732313a207472616e7366657220746f206e6f6e20455243373231526560008201527f63656976657220696d706c656d656e7465720000000000000000000000000000602082015250565b7f4552433732313a20746f6b656e20616c7265616479206d696e74656400000000600082015250565b7f4552433732313a207472616e7366657220746f20746865207a65726f2061646460008201527f7265737300000000000000000000000000000000000000000000000000000000602082015250565b7f4552433732313a20617070726f766520746f2063616c6c657200000000000000600082015250565b7f45434453413a20696e76616c6964207369676e6174757265202773272076616c60008201527f7565000000000000000000000000000000000000000000000000000000000000602082015250565b7f596f7520617265206e6f7420746865206f776e65720000000000000000000000600082015250565b7f416464726573733a20696e73756666696369656e742062616c616e636520666f60008201527f722063616c6c0000000000000000000000000000000000000000000000000000602082015250565b7f4552433732313a206f70657261746f7220717565727920666f72206e6f6e657860008201527f697374656e7420746f6b656e0000000000000000000000000000000000000000602082015250565b7f4e6f7420656e6f75676820657468000000000000000000000000000000000000600082015250565b7f4f726465722068617320616c7265616479206265656e2066696c6c6564000000600082015250565b7f4552433732313a20617070726f76652063616c6c6572206973206e6f74206f7760008201527f6e6572206e6f7220617070726f76656420666f7220616c6c0000000000000000602082015250565b7f4552433732313a2062616c616e636520717565727920666f7220746865207a6560008201527f726f206164647265737300000000000000000000000000000000000000000000602082015250565b7f4552433732313a206f776e657220717565727920666f72206e6f6e657869737460008201527f656e7420746f6b656e0000000000000000000000000000000000000000000000602082015250565b7f45434453413a20696e76616c6964207369676e6174757265202776272076616c60008201527f7565000000000000000000000000000000000000000000000000000000000000602082015250565b7f4552433732313a206d696e7420746f20746865207a65726f2061646472657373600082015250565b7f4552433732313a20617070726f76656420717565727920666f72206e6f6e657860008201527f697374656e7420746f6b656e0000000000000000000000000000000000000000602082015250565b7f4552433732313a207472616e73666572206f6620746f6b656e2074686174206960008201527f73206e6f74206f776e0000000000000000000000000000000000000000000000602082015250565b7f4552433732314d657461646174613a2055524920717565727920666f72206e6f60008201527f6e6578697374656e7420746f6b656e0000000000000000000000000000000000602082015250565b7f496e76616c6964206f72646572207369676e6174757265000000000000000000600082015250565b7f4552433732313a20617070726f76616c20746f2063757272656e74206f776e6560008201527f7200000000000000000000000000000000000000000000000000000000000000602082015250565b7f43616e6e6f74206578657263697365206f7074696f6e20796f7520646f6e742060008201527f6f776e0000000000000000000000000000000000000000000000000000000000602082015250565b7f4f7264657220686173206265656e2063616e63656c6c65640000000000000000600082015250565b50565b7f4552433732313a207472616e736665722063616c6c6572206973206e6f74206f60008201527f776e6572206e6f7220617070726f766564000000000000000000000000000000602082015250565b7f416464726573733a2063616c6c20746f206e6f6e2d636f6e7472616374000000600082015250565b7f4f7074696f6e20686173206e6f74206578706972656400000000000000000000600082015250565b7f5361666545524332303a204552433230206f7065726174696f6e20646964206e60008201527f6f74207375636365656400000000000000000000000000000000000000000000602082015250565b7f45787069726564206f7074696f6e000000000000000000000000000000000000600082015250565b7f5265656e7472616e637947756172643a207265656e7472616e742063616c6c00600082015250565b7f455448207472616e7366657220746f206275796572206661696c656400000000600082015250565b6152ac8161480a565b81146152b757600080fd5b50565b6152c38161481c565b81146152ce57600080fd5b50565b6152da81614832565b81146152e557600080fd5b50565b6152f18161485e565b81146152fc57600080fd5b50565b61530881614870565b811461531357600080fd5b50565b61531f816148a2565b811461532a57600080fd5b5056fea264697066735822122046666e90b2cbf9514060ed888726e1b30fee74d5b826d1a1fa0cf5f4bd582f9164736f6c63430008040033",
  "devdoc": {
    "kind": "dev",
    "methods": {
      "approve(address,uint256)": {
        "details": "See {IERC721-approve}."
      },
      "balanceOf(address)": {
        "details": "See {IERC721-balanceOf}."
      },
      "getApproved(uint256)": {
        "details": "See {IERC721-getApproved}."
      },
      "isApprovedForAll(address,address)": {
        "details": "See {IERC721-isApprovedForAll}."
      },
      "name()": {
        "details": "See {IERC721Metadata-name}."
      },
      "ownerOf(uint256)": {
        "details": "See {IERC721-ownerOf}."
      },
      "safeTransferFrom(address,address,uint256)": {
        "details": "See {IERC721-safeTransferFrom}."
      },
      "safeTransferFrom(address,address,uint256,bytes)": {
        "details": "See {IERC721-safeTransferFrom}."
      },
      "setApprovalForAll(address,bool)": {
        "details": "See {IERC721-setApprovalForAll}."
      },
      "supportsInterface(bytes4)": {
        "details": "See {IERC165-supportsInterface}."
      },
      "symbol()": {
        "details": "See {IERC721Metadata-symbol}."
      },
      "tokenURI(uint256)": {
        "details": "See {IERC721Metadata-tokenURI}."
      },
      "transferFrom(address,address,uint256)": {
        "details": "See {IERC721-transferFrom}."
      }
    },
    "version": 1
  },
  "userdoc": {
    "kind": "user",
    "methods": {},
    "version": 1
  },
  "storageLayout": {
    "storage": [
      {
        "astId": 938,
        "contract": "contracts/Putty.sol:Putty",
        "label": "_name",
        "offset": 0,
        "slot": "0",
        "type": "t_string_storage"
      },
      {
        "astId": 940,
        "contract": "contracts/Putty.sol:Putty",
        "label": "_symbol",
        "offset": 0,
        "slot": "1",
        "type": "t_string_storage"
      },
      {
        "astId": 944,
        "contract": "contracts/Putty.sol:Putty",
        "label": "_owners",
        "offset": 0,
        "slot": "2",
        "type": "t_mapping(t_uint256,t_address)"
      },
      {
        "astId": 948,
        "contract": "contracts/Putty.sol:Putty",
        "label": "_balances",
        "offset": 0,
        "slot": "3",
        "type": "t_mapping(t_address,t_uint256)"
      },
      {
        "astId": 952,
        "contract": "contracts/Putty.sol:Putty",
        "label": "_tokenApprovals",
        "offset": 0,
        "slot": "4",
        "type": "t_mapping(t_uint256,t_address)"
      },
      {
        "astId": 958,
        "contract": "contracts/Putty.sol:Putty",
        "label": "_operatorApprovals",
        "offset": 0,
        "slot": "5",
        "type": "t_mapping(t_address,t_mapping(t_address,t_bool))"
      },
      {
        "astId": 10,
        "contract": "contracts/Putty.sol:Putty",
        "label": "_status",
        "offset": 0,
        "slot": "6",
        "type": "t_uint256"
      },
      {
        "astId": 3412,
        "contract": "contracts/Putty.sol:Putty",
        "label": "weth",
        "offset": 0,
        "slot": "7",
        "type": "t_contract(ERC20)585"
      },
      {
        "astId": 3414,
        "contract": "contracts/Putty.sol:Putty",
        "label": "baseURI",
        "offset": 0,
        "slot": "8",
        "type": "t_string_storage"
      },
      {
        "astId": 3418,
        "contract": "contracts/Putty.sol:Putty",
        "label": "tokenIdToCreationTimestamp",
        "offset": 0,
        "slot": "9",
        "type": "t_mapping(t_uint256,t_uint256)"
      },
      {
        "astId": 3422,
        "contract": "contracts/Putty.sol:Putty",
        "label": "cancelledOrders",
        "offset": 0,
        "slot": "10",
        "type": "t_mapping(t_uint256,t_bool)"
      }
    ],
    "types": {
      "t_address": {
        "encoding": "inplace",
        "label": "address",
        "numberOfBytes": "20"
      },
      "t_bool": {
        "encoding": "inplace",
        "label": "bool",
        "numberOfBytes": "1"
      },
      "t_contract(ERC20)585": {
        "encoding": "inplace",
        "label": "contract ERC20",
        "numberOfBytes": "20"
      },
      "t_mapping(t_address,t_bool)": {
        "encoding": "mapping",
        "key": "t_address",
        "label": "mapping(address => bool)",
        "numberOfBytes": "32",
        "value": "t_bool"
      },
      "t_mapping(t_address,t_mapping(t_address,t_bool))": {
        "encoding": "mapping",
        "key": "t_address",
        "label": "mapping(address => mapping(address => bool))",
        "numberOfBytes": "32",
        "value": "t_mapping(t_address,t_bool)"
      },
      "t_mapping(t_address,t_uint256)": {
        "encoding": "mapping",
        "key": "t_address",
        "label": "mapping(address => uint256)",
        "numberOfBytes": "32",
        "value": "t_uint256"
      },
      "t_mapping(t_uint256,t_address)": {
        "encoding": "mapping",
        "key": "t_uint256",
        "label": "mapping(uint256 => address)",
        "numberOfBytes": "32",
        "value": "t_address"
      },
      "t_mapping(t_uint256,t_bool)": {
        "encoding": "mapping",
        "key": "t_uint256",
        "label": "mapping(uint256 => bool)",
        "numberOfBytes": "32",
        "value": "t_bool"
      },
      "t_mapping(t_uint256,t_uint256)": {
        "encoding": "mapping",
        "key": "t_uint256",
        "label": "mapping(uint256 => uint256)",
        "numberOfBytes": "32",
        "value": "t_uint256"
      },
      "t_string_storage": {
        "encoding": "bytes",
        "label": "string",
        "numberOfBytes": "32"
      },
      "t_uint256": {
        "encoding": "inplace",
        "label": "uint256",
        "numberOfBytes": "32"
      }
    }
  }
}